{
	"RCC-Learning/L1/IfElse.sol": {
		"IfElse": {
			"abi": [
				{
					"inputs": [
						{
							"internalType": "uint256",
							"name": "x",
							"type": "uint256"
						}
					],
					"name": "foo",
					"outputs": [
						{
							"internalType": "uint256",
							"name": "",
							"type": "uint256"
						}
					],
					"stateMutability": "pure",
					"type": "function"
				},
				{
					"inputs": [
						{
							"internalType": "uint256",
							"name": "x",
							"type": "uint256"
						}
					],
					"name": "ternary",
					"outputs": [
						{
							"internalType": "uint256",
							"name": "",
							"type": "uint256"
						}
					],
					"stateMutability": "pure",
					"type": "function"
				}
			],
			"devdoc": {
				"kind": "dev",
				"methods": {},
				"version": 1
			},
			"evm": {
				"assembly": "    /* \"RCC-Learning/L1/IfElse.sol\":61:593  contract IfElse {... */\n  mstore(0x40, 0x80)\n  callvalue\n  dup1\n  iszero\n  tag_1\n  jumpi\n  revert(0x00, 0x00)\ntag_1:\n  pop\n  dataSize(sub_0)\n  dup1\n  dataOffset(sub_0)\n  0x00\n  codecopy\n  0x00\n  return\nstop\n\nsub_0: assembly {\n        /* \"RCC-Learning/L1/IfElse.sol\":61:593  contract IfElse {... */\n      mstore(0x40, 0x80)\n      callvalue\n      dup1\n      iszero\n      tag_1\n      jumpi\n      revert(0x00, 0x00)\n    tag_1:\n      pop\n      jumpi(tag_2, lt(calldatasize, 0x04))\n      shr(0xe0, calldataload(0x00))\n      dup1\n      0x2fbebd38\n      eq\n      tag_3\n      jumpi\n      dup1\n      0x55278c5b\n      eq\n      tag_4\n      jumpi\n    tag_2:\n      revert(0x00, 0x00)\n        /* \"RCC-Learning/L1/IfElse.sol\":185:454  function foo(uint256 x) public pure returns (uint256) {... */\n    tag_3:\n      tag_5\n      0x04\n      dup1\n      calldatasize\n      sub\n      dup2\n      add\n      swap1\n      tag_6\n      swap2\n      swap1\n      tag_7\n      jump\t// in\n    tag_6:\n      tag_8\n      jump\t// in\n    tag_5:\n      mload(0x40)\n      tag_9\n      swap2\n      swap1\n      tag_10\n      jump\t// in\n    tag_9:\n      mload(0x40)\n      dup1\n      swap2\n      sub\n      swap1\n      return\n        /* \"RCC-Learning/L1/IfElse.sol\":462:589  function ternary(uint256 x) public pure returns (uint256) {... */\n    tag_4:\n      tag_11\n      0x04\n      dup1\n      calldatasize\n      sub\n      dup2\n      add\n      swap1\n      tag_12\n      swap2\n      swap1\n      tag_7\n      jump\t// in\n    tag_12:\n      tag_13\n      jump\t// in\n    tag_11:\n      mload(0x40)\n      tag_14\n      swap2\n      swap1\n      tag_10\n      jump\t// in\n    tag_14:\n      mload(0x40)\n      dup1\n      swap2\n      sub\n      swap1\n      return\n        /* \"RCC-Learning/L1/IfElse.sol\":185:454  function foo(uint256 x) public pure returns (uint256) {... */\n    tag_8:\n        /* \"RCC-Learning/L1/IfElse.sol\":230:237  uint256 */\n      0x00\n        /* \"RCC-Learning/L1/IfElse.sol\":258:260  10 */\n      0x0a\n        /* \"RCC-Learning/L1/IfElse.sol\":254:255  x */\n      dup3\n        /* \"RCC-Learning/L1/IfElse.sol\":254:260  x < 10 */\n      lt\n        /* \"RCC-Learning/L1/IfElse.sol\":250:447  if (x < 10) {... */\n      iszero\n      tag_16\n      jumpi\n        /* \"RCC-Learning/L1/IfElse.sol\":284:285  1 */\n      0x01\n        /* \"RCC-Learning/L1/IfElse.sol\":277:285  return 1 */\n      swap1\n      pop\n      jump(tag_15)\n        /* \"RCC-Learning/L1/IfElse.sol\":250:447  if (x < 10) {... */\n    tag_16:\n        /* \"RCC-Learning/L1/IfElse.sol\":311:314  100 */\n      0x64\n        /* \"RCC-Learning/L1/IfElse.sol\":307:308  x */\n      dup3\n        /* \"RCC-Learning/L1/IfElse.sol\":307:314  x < 100 */\n      lt\n        /* \"RCC-Learning/L1/IfElse.sol\":303:447  if (x < 100) {... */\n      iszero\n      tag_18\n      jumpi\n        /* \"RCC-Learning/L1/IfElse.sol\":338:339  2 */\n      0x02\n        /* \"RCC-Learning/L1/IfElse.sol\":331:339  return 2 */\n      swap1\n      pop\n      jump(tag_15)\n        /* \"RCC-Learning/L1/IfElse.sol\":303:447  if (x < 100) {... */\n    tag_18:\n        /* \"RCC-Learning/L1/IfElse.sol\":365:369  1000 */\n      0x03e8\n        /* \"RCC-Learning/L1/IfElse.sol\":361:362  x */\n      dup3\n        /* \"RCC-Learning/L1/IfElse.sol\":361:369  x < 1000 */\n      lt\n        /* \"RCC-Learning/L1/IfElse.sol\":357:447  if (x < 1000) {... */\n      iszero\n      tag_20\n      jumpi\n        /* \"RCC-Learning/L1/IfElse.sol\":393:394  3 */\n      0x03\n        /* \"RCC-Learning/L1/IfElse.sol\":386:394  return 3 */\n      swap1\n      pop\n      jump(tag_15)\n        /* \"RCC-Learning/L1/IfElse.sol\":357:447  if (x < 1000) {... */\n    tag_20:\n        /* \"RCC-Learning/L1/IfElse.sol\":434:435  4 */\n      0x04\n        /* \"RCC-Learning/L1/IfElse.sol\":427:435  return 4 */\n      swap1\n      pop\n        /* \"RCC-Learning/L1/IfElse.sol\":185:454  function foo(uint256 x) public pure returns (uint256) {... */\n    tag_15:\n      swap2\n      swap1\n      pop\n      jump\t// out\n        /* \"RCC-Learning/L1/IfElse.sol\":462:589  function ternary(uint256 x) public pure returns (uint256) {... */\n    tag_13:\n        /* \"RCC-Learning/L1/IfElse.sol\":511:518  uint256 */\n      0x00\n        /* \"RCC-Learning/L1/IfElse.sol\":542:544  10 */\n      0x0a\n        /* \"RCC-Learning/L1/IfElse.sol\":538:539  x */\n      dup3\n        /* \"RCC-Learning/L1/IfElse.sol\":538:544  x < 10 */\n      lt\n        /* \"RCC-Learning/L1/IfElse.sol\":538:581  x < 10 ? 1 : x < 100 ? 2 : x < 1000 ? 3 : 4 */\n      tag_23\n      jumpi\n        /* \"RCC-Learning/L1/IfElse.sol\":555:558  100 */\n      0x64\n        /* \"RCC-Learning/L1/IfElse.sol\":551:552  x */\n      dup3\n        /* \"RCC-Learning/L1/IfElse.sol\":551:558  x < 100 */\n      lt\n        /* \"RCC-Learning/L1/IfElse.sol\":551:581  x < 100 ? 2 : x < 1000 ? 3 : 4 */\n      tag_24\n      jumpi\n        /* \"RCC-Learning/L1/IfElse.sol\":569:573  1000 */\n      0x03e8\n        /* \"RCC-Learning/L1/IfElse.sol\":565:566  x */\n      dup3\n        /* \"RCC-Learning/L1/IfElse.sol\":565:573  x < 1000 */\n      lt\n        /* \"RCC-Learning/L1/IfElse.sol\":565:581  x < 1000 ? 3 : 4 */\n      tag_25\n      jumpi\n        /* \"RCC-Learning/L1/IfElse.sol\":580:581  4 */\n      0x04\n        /* \"RCC-Learning/L1/IfElse.sol\":565:581  x < 1000 ? 3 : 4 */\n      jump(tag_26)\n    tag_25:\n        /* \"RCC-Learning/L1/IfElse.sol\":576:577  3 */\n      0x03\n        /* \"RCC-Learning/L1/IfElse.sol\":565:581  x < 1000 ? 3 : 4 */\n    tag_26:\n        /* \"RCC-Learning/L1/IfElse.sol\":551:581  x < 100 ? 2 : x < 1000 ? 3 : 4 */\n      jump(tag_27)\n    tag_24:\n        /* \"RCC-Learning/L1/IfElse.sol\":561:562  2 */\n      0x02\n        /* \"RCC-Learning/L1/IfElse.sol\":551:581  x < 100 ? 2 : x < 1000 ? 3 : 4 */\n    tag_27:\n        /* \"RCC-Learning/L1/IfElse.sol\":538:581  x < 10 ? 1 : x < 100 ? 2 : x < 1000 ? 3 : 4 */\n      jump(tag_28)\n    tag_23:\n        /* \"RCC-Learning/L1/IfElse.sol\":547:548  1 */\n      0x01\n        /* \"RCC-Learning/L1/IfElse.sol\":538:581  x < 10 ? 1 : x < 100 ? 2 : x < 1000 ? 3 : 4 */\n    tag_28:\n        /* \"RCC-Learning/L1/IfElse.sol\":531:581  return x < 10 ? 1 : x < 100 ? 2 : x < 1000 ? 3 : 4 */\n      0xff\n      and\n      swap1\n      pop\n        /* \"RCC-Learning/L1/IfElse.sol\":462:589  function ternary(uint256 x) public pure returns (uint256) {... */\n      swap2\n      swap1\n      pop\n      jump\t// out\n        /* \"#utility.yul\":88:205   */\n    tag_30:\n        /* \"#utility.yul\":197:198   */\n      0x00\n        /* \"#utility.yul\":194:195   */\n      0x00\n        /* \"#utility.yul\":187:199   */\n      revert\n        /* \"#utility.yul\":334:411   */\n    tag_32:\n        /* \"#utility.yul\":371:378   */\n      0x00\n        /* \"#utility.yul\":400:405   */\n      dup2\n        /* \"#utility.yul\":389:405   */\n      swap1\n      pop\n        /* \"#utility.yul\":334:411   */\n      swap2\n      swap1\n      pop\n      jump\t// out\n        /* \"#utility.yul\":417:539   */\n    tag_33:\n        /* \"#utility.yul\":490:514   */\n      tag_42\n        /* \"#utility.yul\":508:513   */\n      dup2\n        /* \"#utility.yul\":490:514   */\n      tag_32\n      jump\t// in\n    tag_42:\n        /* \"#utility.yul\":483:488   */\n      dup2\n        /* \"#utility.yul\":480:515   */\n      eq\n        /* \"#utility.yul\":470:533   */\n      tag_43\n      jumpi\n        /* \"#utility.yul\":529:530   */\n      0x00\n        /* \"#utility.yul\":526:527   */\n      0x00\n        /* \"#utility.yul\":519:531   */\n      revert\n        /* \"#utility.yul\":470:533   */\n    tag_43:\n        /* \"#utility.yul\":417:539   */\n      pop\n      jump\t// out\n        /* \"#utility.yul\":545:684   */\n    tag_34:\n        /* \"#utility.yul\":591:596   */\n      0x00\n        /* \"#utility.yul\":629:635   */\n      dup2\n        /* \"#utility.yul\":616:636   */\n      calldataload\n        /* \"#utility.yul\":607:636   */\n      swap1\n      pop\n        /* \"#utility.yul\":645:678   */\n      tag_45\n        /* \"#utility.yul\":672:677   */\n      dup2\n        /* \"#utility.yul\":645:678   */\n      tag_33\n      jump\t// in\n    tag_45:\n        /* \"#utility.yul\":545:684   */\n      swap3\n      swap2\n      pop\n      pop\n      jump\t// out\n        /* \"#utility.yul\":690:1019   */\n    tag_7:\n        /* \"#utility.yul\":749:755   */\n      0x00\n        /* \"#utility.yul\":798:800   */\n      0x20\n        /* \"#utility.yul\":786:795   */\n      dup3\n        /* \"#utility.yul\":777:784   */\n      dup5\n        /* \"#utility.yul\":773:796   */\n      sub\n        /* \"#utility.yul\":769:801   */\n      slt\n        /* \"#utility.yul\":766:885   */\n      iszero\n      tag_47\n      jumpi\n        /* \"#utility.yul\":804:883   */\n      tag_48\n      tag_30\n      jump\t// in\n    tag_48:\n        /* \"#utility.yul\":766:885   */\n    tag_47:\n        /* \"#utility.yul\":924:925   */\n      0x00\n        /* \"#utility.yul\":949:1002   */\n      tag_49\n        /* \"#utility.yul\":994:1001   */\n      dup5\n        /* \"#utility.yul\":985:991   */\n      dup3\n        /* \"#utility.yul\":974:983   */\n      dup6\n        /* \"#utility.yul\":970:992   */\n      add\n        /* \"#utility.yul\":949:1002   */\n      tag_34\n      jump\t// in\n    tag_49:\n        /* \"#utility.yul\":939:1002   */\n      swap2\n      pop\n        /* \"#utility.yul\":895:1012   */\n      pop\n        /* \"#utility.yul\":690:1019   */\n      swap3\n      swap2\n      pop\n      pop\n      jump\t// out\n        /* \"#utility.yul\":1025:1143   */\n    tag_35:\n        /* \"#utility.yul\":1112:1136   */\n      tag_51\n        /* \"#utility.yul\":1130:1135   */\n      dup2\n        /* \"#utility.yul\":1112:1136   */\n      tag_32\n      jump\t// in\n    tag_51:\n        /* \"#utility.yul\":1107:1110   */\n      dup3\n        /* \"#utility.yul\":1100:1137   */\n      mstore\n        /* \"#utility.yul\":1025:1143   */\n      pop\n      pop\n      jump\t// out\n        /* \"#utility.yul\":1149:1371   */\n    tag_10:\n        /* \"#utility.yul\":1242:1246   */\n      0x00\n        /* \"#utility.yul\":1280:1282   */\n      0x20\n        /* \"#utility.yul\":1269:1278   */\n      dup3\n        /* \"#utility.yul\":1265:1283   */\n      add\n        /* \"#utility.yul\":1257:1283   */\n      swap1\n      pop\n        /* \"#utility.yul\":1293:1364   */\n      tag_53\n        /* \"#utility.yul\":1361:1362   */\n      0x00\n        /* \"#utility.yul\":1350:1359   */\n      dup4\n        /* \"#utility.yul\":1346:1363   */\n      add\n        /* \"#utility.yul\":1337:1343   */\n      dup5\n        /* \"#utility.yul\":1293:1364   */\n      tag_35\n      jump\t// in\n    tag_53:\n        /* \"#utility.yul\":1149:1371   */\n      swap3\n      swap2\n      pop\n      pop\n      jump\t// out\n\n    auxdata: 0xa264697066735822122084f32573580158824ccbd5a84282b90c5e0b172cac30bbe47e3d3fed7c677c1b64736f6c634300081c0033\n}\n",
				"bytecode": {
					"linkReferences": {},
					"object": "6080604052348015600e575f5ffd5b506101d88061001c5f395ff3fe608060405234801561000f575f5ffd5b5060043610610034575f3560e01c80632fbebd381461003857806355278c5b14610068575b5f5ffd5b610052600480360381019061004d919061014f565b610098565b60405161005f9190610189565b60405180910390f35b610082600480360381019061007d919061014f565b6100da565b60405161008f9190610189565b60405180910390f35b5f600a8210156100ab57600190506100d5565b60648210156100bd57600290506100d5565b6103e88210156100d057600390506100d5565b600490505b919050565b5f600a821061010b5760648210610103576103e882106100fb5760046100fe565b60035b610106565b60025b61010e565b60015b60ff169050919050565b5f5ffd5b5f819050919050565b61012e8161011c565b8114610138575f5ffd5b50565b5f8135905061014981610125565b92915050565b5f6020828403121561016457610163610118565b5b5f6101718482850161013b565b91505092915050565b6101838161011c565b82525050565b5f60208201905061019c5f83018461017a565b9291505056fea264697066735822122084f32573580158824ccbd5a84282b90c5e0b172cac30bbe47e3d3fed7c677c1b64736f6c634300081c0033",
					"opcodes": "PUSH1 0x80 PUSH1 0x40 MSTORE CALLVALUE DUP1 ISZERO PUSH1 0xE JUMPI PUSH0 PUSH0 REVERT JUMPDEST POP PUSH2 0x1D8 DUP1 PUSH2 0x1C PUSH0 CODECOPY PUSH0 RETURN INVALID PUSH1 0x80 PUSH1 0x40 MSTORE CALLVALUE DUP1 ISZERO PUSH2 0xF JUMPI PUSH0 PUSH0 REVERT JUMPDEST POP PUSH1 0x4 CALLDATASIZE LT PUSH2 0x34 JUMPI PUSH0 CALLDATALOAD PUSH1 0xE0 SHR DUP1 PUSH4 0x2FBEBD38 EQ PUSH2 0x38 JUMPI DUP1 PUSH4 0x55278C5B EQ PUSH2 0x68 JUMPI JUMPDEST PUSH0 PUSH0 REVERT JUMPDEST PUSH2 0x52 PUSH1 0x4 DUP1 CALLDATASIZE SUB DUP2 ADD SWAP1 PUSH2 0x4D SWAP2 SWAP1 PUSH2 0x14F JUMP JUMPDEST PUSH2 0x98 JUMP JUMPDEST PUSH1 0x40 MLOAD PUSH2 0x5F SWAP2 SWAP1 PUSH2 0x189 JUMP JUMPDEST PUSH1 0x40 MLOAD DUP1 SWAP2 SUB SWAP1 RETURN JUMPDEST PUSH2 0x82 PUSH1 0x4 DUP1 CALLDATASIZE SUB DUP2 ADD SWAP1 PUSH2 0x7D SWAP2 SWAP1 PUSH2 0x14F JUMP JUMPDEST PUSH2 0xDA JUMP JUMPDEST PUSH1 0x40 MLOAD PUSH2 0x8F SWAP2 SWAP1 PUSH2 0x189 JUMP JUMPDEST PUSH1 0x40 MLOAD DUP1 SWAP2 SUB SWAP1 RETURN JUMPDEST PUSH0 PUSH1 0xA DUP3 LT ISZERO PUSH2 0xAB JUMPI PUSH1 0x1 SWAP1 POP PUSH2 0xD5 JUMP JUMPDEST PUSH1 0x64 DUP3 LT ISZERO PUSH2 0xBD JUMPI PUSH1 0x2 SWAP1 POP PUSH2 0xD5 JUMP JUMPDEST PUSH2 0x3E8 DUP3 LT ISZERO PUSH2 0xD0 JUMPI PUSH1 0x3 SWAP1 POP PUSH2 0xD5 JUMP JUMPDEST PUSH1 0x4 SWAP1 POP JUMPDEST SWAP2 SWAP1 POP JUMP JUMPDEST PUSH0 PUSH1 0xA DUP3 LT PUSH2 0x10B JUMPI PUSH1 0x64 DUP3 LT PUSH2 0x103 JUMPI PUSH2 0x3E8 DUP3 LT PUSH2 0xFB JUMPI PUSH1 0x4 PUSH2 0xFE JUMP JUMPDEST PUSH1 0x3 JUMPDEST PUSH2 0x106 JUMP JUMPDEST PUSH1 0x2 JUMPDEST PUSH2 0x10E JUMP JUMPDEST PUSH1 0x1 JUMPDEST PUSH1 0xFF AND SWAP1 POP SWAP2 SWAP1 POP JUMP JUMPDEST PUSH0 PUSH0 REVERT JUMPDEST PUSH0 DUP2 SWAP1 POP SWAP2 SWAP1 POP JUMP JUMPDEST PUSH2 0x12E DUP2 PUSH2 0x11C JUMP JUMPDEST DUP2 EQ PUSH2 0x138 JUMPI PUSH0 PUSH0 REVERT JUMPDEST POP JUMP JUMPDEST PUSH0 DUP2 CALLDATALOAD SWAP1 POP PUSH2 0x149 DUP2 PUSH2 0x125 JUMP JUMPDEST SWAP3 SWAP2 POP POP JUMP JUMPDEST PUSH0 PUSH1 0x20 DUP3 DUP5 SUB SLT ISZERO PUSH2 0x164 JUMPI PUSH2 0x163 PUSH2 0x118 JUMP JUMPDEST JUMPDEST PUSH0 PUSH2 0x171 DUP5 DUP3 DUP6 ADD PUSH2 0x13B JUMP JUMPDEST SWAP2 POP POP SWAP3 SWAP2 POP POP JUMP JUMPDEST PUSH2 0x183 DUP2 PUSH2 0x11C JUMP JUMPDEST DUP3 MSTORE POP POP JUMP JUMPDEST PUSH0 PUSH1 0x20 DUP3 ADD SWAP1 POP PUSH2 0x19C PUSH0 DUP4 ADD DUP5 PUSH2 0x17A JUMP JUMPDEST SWAP3 SWAP2 POP POP JUMP INVALID LOG2 PUSH5 0x6970667358 0x22 SLT KECCAK256 DUP5 RETURN 0x25 PUSH20 0x580158824CCBD5A84282B90C5E0B172CAC30BBE4 PUSH31 0x3D3FED7C677C1B64736F6C634300081C003300000000000000000000000000 "
				},
				"gasEstimates": {
					"creation": {
						"codeDepositCost": "94400",
						"executionCost": "139",
						"totalCost": "94539"
					},
					"external": {
						"foo(uint256)": "infinite",
						"ternary(uint256)": "infinite"
					}
				},
				"methodIdentifiers": {
					"foo(uint256)": "2fbebd38",
					"ternary(uint256)": "55278c5b"
				}
			},
			"storageLayout": {
				"storage": [],
				"types": null
			},
			"userdoc": {
				"kind": "user",
				"methods": {},
				"version": 1
			}
		}
	}
}