{
	"RCC-Learning/L1/Loop.sol": {
		"Loop": {
			"abi": [
				{
					"inputs": [],
					"name": "j",
					"outputs": [
						{
							"internalType": "uint256",
							"name": "",
							"type": "uint256"
						}
					],
					"stateMutability": "view",
					"type": "function"
				},
				{
					"inputs": [],
					"name": "loop",
					"outputs": [],
					"stateMutability": "nonpayable",
					"type": "function"
				}
			],
			"devdoc": {
				"kind": "dev",
				"methods": {},
				"version": 1
			},
			"evm": {
				"assembly": "    /* \"RCC-Learning/L1/Loop.sol\":61:581  contract Loop {... */\n  mstore(0x40, 0x80)\n  callvalue\n  dup1\n  iszero\n  tag_1\n  jumpi\n  revert(0x00, 0x00)\ntag_1:\n  pop\n  dataSize(sub_0)\n  dup1\n  dataOffset(sub_0)\n  0x00\n  codecopy\n  0x00\n  return\nstop\n\nsub_0: assembly {\n        /* \"RCC-Learning/L1/Loop.sol\":61:581  contract Loop {... */\n      mstore(0x40, 0x80)\n      callvalue\n      dup1\n      iszero\n      tag_1\n      jumpi\n      revert(0x00, 0x00)\n    tag_1:\n      pop\n      jumpi(tag_2, lt(calldatasize, 0x04))\n      shr(0xe0, calldataload(0x00))\n      dup1\n      0xa92100cb\n      eq\n      tag_3\n      jumpi\n      dup1\n      0xb582ec5f\n      eq\n      tag_4\n      jumpi\n    tag_2:\n      revert(0x00, 0x00)\n        /* \"RCC-Learning/L1/Loop.sol\":301:578  function loop () public {... */\n    tag_3:\n      tag_5\n      tag_6\n      jump\t// in\n    tag_5:\n      stop\n        /* \"RCC-Learning/L1/Loop.sol\":276:292  uint256 public j */\n    tag_4:\n      tag_7\n      tag_8\n      jump\t// in\n    tag_7:\n      mload(0x40)\n      tag_9\n      swap2\n      swap1\n      tag_10\n      jump\t// in\n    tag_9:\n      mload(0x40)\n      dup1\n      swap2\n      sub\n      swap1\n      return\n        /* \"RCC-Learning/L1/Loop.sol\":301:578  function loop () public {... */\n    tag_6:\n        /* \"RCC-Learning/L1/Loop.sol\":341:350  uint256 i */\n      0x00\n        /* \"RCC-Learning/L1/Loop.sol\":353:354  0 */\n      0x00\n        /* \"RCC-Learning/L1/Loop.sol\":341:354  uint256 i = 0 */\n      swap1\n      pop\n        /* \"RCC-Learning/L1/Loop.sol\":336:516  for (uint256 i = 0; i < 10; i++) {... */\n    tag_12:\n        /* \"RCC-Learning/L1/Loop.sol\":360:362  10 */\n      0x0a\n        /* \"RCC-Learning/L1/Loop.sol\":356:357  i */\n      dup2\n        /* \"RCC-Learning/L1/Loop.sol\":356:362  i < 10 */\n      lt\n        /* \"RCC-Learning/L1/Loop.sol\":336:516  for (uint256 i = 0; i < 10; i++) {... */\n      iszero\n      tag_13\n      jumpi\n        /* \"RCC-Learning/L1/Loop.sol\":393:394  3 */\n      0x03\n        /* \"RCC-Learning/L1/Loop.sol\":388:389  i */\n      dup2\n        /* \"RCC-Learning/L1/Loop.sol\":388:394  i == 3 */\n      sub\n        /* \"RCC-Learning/L1/Loop.sol\":384:439  if (i == 3) {... */\n      iszero\n        /* \"RCC-Learning/L1/Loop.sol\":415:423  continue */\n      tag_14\n        /* \"RCC-Learning/L1/Loop.sol\":384:439  if (i == 3) {... */\n      jumpi\n        /* \"RCC-Learning/L1/Loop.sol\":462:463  5 */\n      0x05\n        /* \"RCC-Learning/L1/Loop.sol\":457:458  i */\n      dup2\n        /* \"RCC-Learning/L1/Loop.sol\":457:463  i == 5 */\n      sub\n        /* \"RCC-Learning/L1/Loop.sol\":453:505  if (i == 5) {... */\n      iszero\n        /* \"RCC-Learning/L1/Loop.sol\":484:489  break */\n      tag_13\n        /* \"RCC-Learning/L1/Loop.sol\":453:505  if (i == 5) {... */\n      jumpi\n        /* \"RCC-Learning/L1/Loop.sol\":336:516  for (uint256 i = 0; i < 10; i++) {... */\n    tag_14:\n        /* \"RCC-Learning/L1/Loop.sol\":364:367  i++ */\n      dup1\n      dup1\n      0x01\n      add\n      swap2\n      pop\n      pop\n        /* \"RCC-Learning/L1/Loop.sol\":336:516  for (uint256 i = 0; i < 10; i++) {... */\n      jump(tag_12)\n    tag_13:\n      pop\n        /* \"RCC-Learning/L1/Loop.sol\":526:571  while (j < 10) {... */\n    tag_17:\n        /* \"RCC-Learning/L1/Loop.sol\":537:539  10 */\n      0x0a\n        /* \"RCC-Learning/L1/Loop.sol\":533:534  j */\n      sload(0x00)\n        /* \"RCC-Learning/L1/Loop.sol\":533:539  j < 10 */\n      lt\n        /* \"RCC-Learning/L1/Loop.sol\":526:571  while (j < 10) {... */\n      iszero\n      tag_18\n      jumpi\n        /* \"RCC-Learning/L1/Loop.sol\":556:557  j */\n      0x00\n      0x00\n        /* \"RCC-Learning/L1/Loop.sol\":556:559  j++ */\n      dup2\n      sload\n      dup1\n      swap3\n      swap2\n      swap1\n      tag_19\n      swap1\n      tag_20\n      jump\t// in\n    tag_19:\n      swap2\n      swap1\n      pop\n      sstore\n      pop\n        /* \"RCC-Learning/L1/Loop.sol\":526:571  while (j < 10) {... */\n      jump(tag_17)\n    tag_18:\n        /* \"RCC-Learning/L1/Loop.sol\":301:578  function loop () public {... */\n      jump\t// out\n        /* \"RCC-Learning/L1/Loop.sol\":276:292  uint256 public j */\n    tag_8:\n      sload(0x00)\n      dup2\n      jump\t// out\n        /* \"#utility.yul\":7:84   */\n    tag_21:\n        /* \"#utility.yul\":44:51   */\n      0x00\n        /* \"#utility.yul\":73:78   */\n      dup2\n        /* \"#utility.yul\":62:78   */\n      swap1\n      pop\n        /* \"#utility.yul\":7:84   */\n      swap2\n      swap1\n      pop\n      jump\t// out\n        /* \"#utility.yul\":90:208   */\n    tag_22:\n        /* \"#utility.yul\":177:201   */\n      tag_27\n        /* \"#utility.yul\":195:200   */\n      dup2\n        /* \"#utility.yul\":177:201   */\n      tag_21\n      jump\t// in\n    tag_27:\n        /* \"#utility.yul\":172:175   */\n      dup3\n        /* \"#utility.yul\":165:202   */\n      mstore\n        /* \"#utility.yul\":90:208   */\n      pop\n      pop\n      jump\t// out\n        /* \"#utility.yul\":214:436   */\n    tag_10:\n        /* \"#utility.yul\":307:311   */\n      0x00\n        /* \"#utility.yul\":345:347   */\n      0x20\n        /* \"#utility.yul\":334:343   */\n      dup3\n        /* \"#utility.yul\":330:348   */\n      add\n        /* \"#utility.yul\":322:348   */\n      swap1\n      pop\n        /* \"#utility.yul\":358:429   */\n      tag_29\n        /* \"#utility.yul\":426:427   */\n      0x00\n        /* \"#utility.yul\":415:424   */\n      dup4\n        /* \"#utility.yul\":411:428   */\n      add\n        /* \"#utility.yul\":402:408   */\n      dup5\n        /* \"#utility.yul\":358:429   */\n      tag_22\n      jump\t// in\n    tag_29:\n        /* \"#utility.yul\":214:436   */\n      swap3\n      swap2\n      pop\n      pop\n      jump\t// out\n        /* \"#utility.yul\":442:622   */\n    tag_23:\n        /* \"#utility.yul\":490:567   */\n      0x4e487b7100000000000000000000000000000000000000000000000000000000\n        /* \"#utility.yul\":487:488   */\n      0x00\n        /* \"#utility.yul\":480:568   */\n      mstore\n        /* \"#utility.yul\":587:591   */\n      0x11\n        /* \"#utility.yul\":584:585   */\n      0x04\n        /* \"#utility.yul\":577:592   */\n      mstore\n        /* \"#utility.yul\":611:615   */\n      0x24\n        /* \"#utility.yul\":608:609   */\n      0x00\n        /* \"#utility.yul\":601:616   */\n      revert\n        /* \"#utility.yul\":628:861   */\n    tag_20:\n        /* \"#utility.yul\":667:670   */\n      0x00\n        /* \"#utility.yul\":690:714   */\n      tag_32\n        /* \"#utility.yul\":708:713   */\n      dup3\n        /* \"#utility.yul\":690:714   */\n      tag_21\n      jump\t// in\n    tag_32:\n        /* \"#utility.yul\":681:714   */\n      swap2\n      pop\n        /* \"#utility.yul\":736:802   */\n      0xffffffffffffffffffffffffffffffffffffffffffffffffffffffffffffffff\n        /* \"#utility.yul\":729:734   */\n      dup3\n        /* \"#utility.yul\":726:803   */\n      sub\n        /* \"#utility.yul\":723:826   */\n      tag_33\n      jumpi\n        /* \"#utility.yul\":806:824   */\n      tag_34\n      tag_23\n      jump\t// in\n    tag_34:\n        /* \"#utility.yul\":723:826   */\n    tag_33:\n        /* \"#utility.yul\":853:854   */\n      0x01\n        /* \"#utility.yul\":846:851   */\n      dup3\n        /* \"#utility.yul\":842:855   */\n      add\n        /* \"#utility.yul\":835:855   */\n      swap1\n      pop\n        /* \"#utility.yul\":628:861   */\n      swap2\n      swap1\n      pop\n      jump\t// out\n\n    auxdata: 0xa2646970667358221220a4ed7171352a9da2270fc27fd8f504cc389fbeb1ae5ac10eac2f97959ecff3e464736f6c634300081c0033\n}\n",
				"bytecode": {
					"linkReferences": {},
					"object": "6080604052348015600e575f5ffd5b506101978061001c5f395ff3fe608060405234801561000f575f5ffd5b5060043610610034575f3560e01c8063a92100cb14610038578063b582ec5f14610042575b5f5ffd5b610040610060565b005b61004a6100b7565b60405161005791906100d4565b60405180910390f35b5f5f90505b600a81101561008e57600381031561008157600581031561008e575b8080600101915050610065565b505b600a5f5410156100b5575f5f8154809291906100ab9061011a565b9190505550610090565b565b5f5481565b5f819050919050565b6100ce816100bc565b82525050565b5f6020820190506100e75f8301846100c5565b92915050565b7f4e487b71000000000000000000000000000000000000000000000000000000005f52601160045260245ffd5b5f610124826100bc565b91507fffffffffffffffffffffffffffffffffffffffffffffffffffffffffffffffff8203610156576101556100ed565b5b60018201905091905056fea2646970667358221220a4ed7171352a9da2270fc27fd8f504cc389fbeb1ae5ac10eac2f97959ecff3e464736f6c634300081c0033",
					"opcodes": "PUSH1 0x80 PUSH1 0x40 MSTORE CALLVALUE DUP1 ISZERO PUSH1 0xE JUMPI PUSH0 PUSH0 REVERT JUMPDEST POP PUSH2 0x197 DUP1 PUSH2 0x1C PUSH0 CODECOPY PUSH0 RETURN INVALID PUSH1 0x80 PUSH1 0x40 MSTORE CALLVALUE DUP1 ISZERO PUSH2 0xF JUMPI PUSH0 PUSH0 REVERT JUMPDEST POP PUSH1 0x4 CALLDATASIZE LT PUSH2 0x34 JUMPI PUSH0 CALLDATALOAD PUSH1 0xE0 SHR DUP1 PUSH4 0xA92100CB EQ PUSH2 0x38 JUMPI DUP1 PUSH4 0xB582EC5F EQ PUSH2 0x42 JUMPI JUMPDEST PUSH0 PUSH0 REVERT JUMPDEST PUSH2 0x40 PUSH2 0x60 JUMP JUMPDEST STOP JUMPDEST PUSH2 0x4A PUSH2 0xB7 JUMP JUMPDEST PUSH1 0x40 MLOAD PUSH2 0x57 SWAP2 SWAP1 PUSH2 0xD4 JUMP JUMPDEST PUSH1 0x40 MLOAD DUP1 SWAP2 SUB SWAP1 RETURN JUMPDEST PUSH0 PUSH0 SWAP1 POP JUMPDEST PUSH1 0xA DUP2 LT ISZERO PUSH2 0x8E JUMPI PUSH1 0x3 DUP2 SUB ISZERO PUSH2 0x81 JUMPI PUSH1 0x5 DUP2 SUB ISZERO PUSH2 0x8E JUMPI JUMPDEST DUP1 DUP1 PUSH1 0x1 ADD SWAP2 POP POP PUSH2 0x65 JUMP JUMPDEST POP JUMPDEST PUSH1 0xA PUSH0 SLOAD LT ISZERO PUSH2 0xB5 JUMPI PUSH0 PUSH0 DUP2 SLOAD DUP1 SWAP3 SWAP2 SWAP1 PUSH2 0xAB SWAP1 PUSH2 0x11A JUMP JUMPDEST SWAP2 SWAP1 POP SSTORE POP PUSH2 0x90 JUMP JUMPDEST JUMP JUMPDEST PUSH0 SLOAD DUP2 JUMP JUMPDEST PUSH0 DUP2 SWAP1 POP SWAP2 SWAP1 POP JUMP JUMPDEST PUSH2 0xCE DUP2 PUSH2 0xBC JUMP JUMPDEST DUP3 MSTORE POP POP JUMP JUMPDEST PUSH0 PUSH1 0x20 DUP3 ADD SWAP1 POP PUSH2 0xE7 PUSH0 DUP4 ADD DUP5 PUSH2 0xC5 JUMP JUMPDEST SWAP3 SWAP2 POP POP JUMP JUMPDEST PUSH32 0x4E487B7100000000000000000000000000000000000000000000000000000000 PUSH0 MSTORE PUSH1 0x11 PUSH1 0x4 MSTORE PUSH1 0x24 PUSH0 REVERT JUMPDEST PUSH0 PUSH2 0x124 DUP3 PUSH2 0xBC JUMP JUMPDEST SWAP2 POP PUSH32 0xFFFFFFFFFFFFFFFFFFFFFFFFFFFFFFFFFFFFFFFFFFFFFFFFFFFFFFFFFFFFFFFF DUP3 SUB PUSH2 0x156 JUMPI PUSH2 0x155 PUSH2 0xED JUMP JUMPDEST JUMPDEST PUSH1 0x1 DUP3 ADD SWAP1 POP SWAP2 SWAP1 POP JUMP INVALID LOG2 PUSH5 0x6970667358 0x22 SLT KECCAK256 LOG4 0xED PUSH18 0x71352A9DA2270FC27FD8F504CC389FBEB1AE GAS 0xC1 0xE 0xAC 0x2F SWAP8 SWAP6 SWAP15 0xCF RETURN 0xE4 PUSH5 0x736F6C6343 STOP ADDMOD SHR STOP CALLER "
				},
				"gasEstimates": {
					"creation": {
						"codeDepositCost": "81400",
						"executionCost": "127",
						"totalCost": "81527"
					},
					"external": {
						"j()": "2424",
						"loop()": "infinite"
					}
				},
				"methodIdentifiers": {
					"j()": "b582ec5f",
					"loop()": "a92100cb"
				}
			},
			"storageLayout": {
				"storage": [
					{
						"astId": 3,
						"contract": "RCC-Learning/L1/Loop.sol:Loop",
						"label": "j",
						"offset": 0,
						"slot": "0",
						"type": "t_uint256"
					}
				],
				"types": {
					"t_uint256": {
						"encoding": "inplace",
						"label": "uint256",
						"numberOfBytes": "32"
					}
				}
			},
			"userdoc": {
				"kind": "user",
				"methods": {},
				"version": 1
			}
		}
	}
}