{
	"RCC-Learning/L1/Enum.sol": {
		"Enum": {
			"abi": [
				{
					"inputs": [],
					"name": "Green",
					"outputs": [],
					"stateMutability": "nonpayable",
					"type": "function"
				},
				{
					"inputs": [],
					"name": "get",
					"outputs": [
						{
							"internalType": "enum Enum.Light",
							"name": "",
							"type": "uint8"
						}
					],
					"stateMutability": "view",
					"type": "function"
				},
				{
					"inputs": [],
					"name": "light",
					"outputs": [
						{
							"internalType": "enum Enum.Light",
							"name": "",
							"type": "uint8"
						}
					],
					"stateMutability": "view",
					"type": "function"
				},
				{
					"inputs": [],
					"name": "reset",
					"outputs": [],
					"stateMutability": "nonpayable",
					"type": "function"
				},
				{
					"inputs": [
						{
							"internalType": "enum Enum.Light",
							"name": "_light",
							"type": "uint8"
						}
					],
					"name": "set",
					"outputs": [],
					"stateMutability": "nonpayable",
					"type": "function"
				}
			],
			"devdoc": {
				"kind": "dev",
				"methods": {},
				"version": 1
			},
			"evm": {
				"assembly": "    /* \"RCC-Learning/L1/Enum.sol\":61:683  contract Enum {... */\n  mstore(0x40, 0x80)\n  callvalue\n  dup1\n  iszero\n  tag_1\n  jumpi\n  revert(0x00, 0x00)\ntag_1:\n  pop\n  dataSize(sub_0)\n  dup1\n  dataOffset(sub_0)\n  0x00\n  codecopy\n  0x00\n  return\nstop\n\nsub_0: assembly {\n        /* \"RCC-Learning/L1/Enum.sol\":61:683  contract Enum {... */\n      mstore(0x40, 0x80)\n      callvalue\n      dup1\n      iszero\n      tag_1\n      jumpi\n      revert(0x00, 0x00)\n    tag_1:\n      pop\n      jumpi(tag_2, lt(calldatasize, 0x04))\n      shr(0xe0, calldataload(0x00))\n      dup1\n      0x24b8ba5f\n      eq\n      tag_3\n      jumpi\n      dup1\n      0x64dbe78c\n      eq\n      tag_4\n      jumpi\n      dup1\n      0x6d4ce63c\n      eq\n      tag_5\n      jumpi\n      dup1\n      0xcd59c6d5\n      eq\n      tag_6\n      jumpi\n      dup1\n      0xd826f88f\n      eq\n      tag_7\n      jumpi\n    tag_2:\n      revert(0x00, 0x00)\n        /* \"RCC-Learning/L1/Enum.sol\":484:551  function set(Light _light) public {... */\n    tag_3:\n      tag_8\n      0x04\n      dup1\n      calldatasize\n      sub\n      dup2\n      add\n      swap1\n      tag_9\n      swap2\n      swap1\n      tag_10\n      jump\t// in\n    tag_9:\n      tag_11\n      jump\t// in\n    tag_8:\n      stop\n        /* \"RCC-Learning/L1/Enum.sol\":379:397  Light public light */\n    tag_4:\n      tag_12\n      tag_13\n      jump\t// in\n    tag_12:\n      mload(0x40)\n      tag_14\n      swap2\n      swap1\n      tag_15\n      jump\t// in\n    tag_14:\n      mload(0x40)\n      dup1\n      swap2\n      sub\n      swap1\n      return\n        /* \"RCC-Learning/L1/Enum.sol\":404:478  function get() public view returns (Light) {... */\n    tag_5:\n      tag_16\n      tag_17\n      jump\t// in\n    tag_16:\n      mload(0x40)\n      tag_18\n      swap2\n      swap1\n      tag_15\n      jump\t// in\n    tag_18:\n      mload(0x40)\n      dup1\n      swap2\n      sub\n      swap1\n      return\n        /* \"RCC-Learning/L1/Enum.sol\":557:619  function Green() public {... */\n    tag_6:\n      tag_19\n      tag_20\n      jump\t// in\n    tag_19:\n      stop\n        /* \"RCC-Learning/L1/Enum.sol\":625:680  function reset() public {... */\n    tag_7:\n      tag_21\n      tag_22\n      jump\t// in\n    tag_21:\n      stop\n        /* \"RCC-Learning/L1/Enum.sol\":484:551  function set(Light _light) public {... */\n    tag_11:\n        /* \"RCC-Learning/L1/Enum.sol\":537:543  _light */\n      dup1\n        /* \"RCC-Learning/L1/Enum.sol\":529:534  light */\n      0x00\n      0x00\n        /* \"RCC-Learning/L1/Enum.sol\":529:543  light = _light */\n      0x0100\n      exp\n      dup2\n      sload\n      dup2\n      0xff\n      mul\n      not\n      and\n      swap1\n      dup4\n      0x02\n      dup2\n      gt\n      iszero\n      tag_24\n      jumpi\n      tag_25\n      tag_26\n      jump\t// in\n    tag_25:\n    tag_24:\n      mul\n      or\n      swap1\n      sstore\n      pop\n        /* \"RCC-Learning/L1/Enum.sol\":484:551  function set(Light _light) public {... */\n      pop\n      jump\t// out\n        /* \"RCC-Learning/L1/Enum.sol\":379:397  Light public light */\n    tag_13:\n      0x00\n      0x00\n      swap1\n      sload\n      swap1\n      0x0100\n      exp\n      swap1\n      div\n      0xff\n      and\n      dup2\n      jump\t// out\n        /* \"RCC-Learning/L1/Enum.sol\":404:478  function get() public view returns (Light) {... */\n    tag_17:\n        /* \"RCC-Learning/L1/Enum.sol\":440:445  Light */\n      0x00\n        /* \"RCC-Learning/L1/Enum.sol\":465:470  light */\n      0x00\n      0x00\n      swap1\n      sload\n      swap1\n      0x0100\n      exp\n      swap1\n      div\n      0xff\n      and\n        /* \"RCC-Learning/L1/Enum.sol\":458:470  return light */\n      swap1\n      pop\n        /* \"RCC-Learning/L1/Enum.sol\":404:478  function get() public view returns (Light) {... */\n      swap1\n      jump\t// out\n        /* \"RCC-Learning/L1/Enum.sol\":557:619  function Green() public {... */\n    tag_20:\n        /* \"RCC-Learning/L1/Enum.sol\":600:611  Light.GREEN */\n      0x02\n        /* \"RCC-Learning/L1/Enum.sol\":592:597  light */\n      0x00\n      0x00\n        /* \"RCC-Learning/L1/Enum.sol\":592:611  light = Light.GREEN */\n      0x0100\n      exp\n      dup2\n      sload\n      dup2\n      0xff\n      mul\n      not\n      and\n      swap1\n      dup4\n      0x02\n      dup2\n      gt\n      iszero\n      tag_29\n      jumpi\n      tag_30\n      tag_26\n      jump\t// in\n    tag_30:\n    tag_29:\n      mul\n      or\n      swap1\n      sstore\n      pop\n        /* \"RCC-Learning/L1/Enum.sol\":557:619  function Green() public {... */\n      jump\t// out\n        /* \"RCC-Learning/L1/Enum.sol\":625:680  function reset() public {... */\n    tag_22:\n        /* \"RCC-Learning/L1/Enum.sol\":667:672  light */\n      0x00\n      0x00\n        /* \"RCC-Learning/L1/Enum.sol\":660:672  delete light */\n      0x0100\n      exp\n      dup2\n      sload\n      swap1\n      0xff\n      mul\n      not\n      and\n      swap1\n      sstore\n        /* \"RCC-Learning/L1/Enum.sol\":625:680  function reset() public {... */\n      jump\t// out\n        /* \"#utility.yul\":88:205   */\n    tag_33:\n        /* \"#utility.yul\":197:198   */\n      0x00\n        /* \"#utility.yul\":194:195   */\n      0x00\n        /* \"#utility.yul\":187:199   */\n      revert\n        /* \"#utility.yul\":334:440   */\n    tag_35:\n        /* \"#utility.yul\":414:415   */\n      0x03\n        /* \"#utility.yul\":407:412   */\n      dup2\n        /* \"#utility.yul\":404:416   */\n      lt\n        /* \"#utility.yul\":394:434   */\n      tag_46\n      jumpi\n        /* \"#utility.yul\":430:431   */\n      0x00\n        /* \"#utility.yul\":427:428   */\n      0x00\n        /* \"#utility.yul\":420:432   */\n      revert\n        /* \"#utility.yul\":394:434   */\n    tag_46:\n        /* \"#utility.yul\":334:440   */\n      pop\n      jump\t// out\n        /* \"#utility.yul\":446:599   */\n    tag_36:\n        /* \"#utility.yul\":499:504   */\n      0x00\n        /* \"#utility.yul\":537:543   */\n      dup2\n        /* \"#utility.yul\":524:544   */\n      calldataload\n        /* \"#utility.yul\":515:544   */\n      swap1\n      pop\n        /* \"#utility.yul\":553:593   */\n      tag_48\n        /* \"#utility.yul\":587:592   */\n      dup2\n        /* \"#utility.yul\":553:593   */\n      tag_35\n      jump\t// in\n    tag_48:\n        /* \"#utility.yul\":446:599   */\n      swap3\n      swap2\n      pop\n      pop\n      jump\t// out\n        /* \"#utility.yul\":605:948   */\n    tag_10:\n        /* \"#utility.yul\":671:677   */\n      0x00\n        /* \"#utility.yul\":720:722   */\n      0x20\n        /* \"#utility.yul\":708:717   */\n      dup3\n        /* \"#utility.yul\":699:706   */\n      dup5\n        /* \"#utility.yul\":695:718   */\n      sub\n        /* \"#utility.yul\":691:723   */\n      slt\n        /* \"#utility.yul\":688:807   */\n      iszero\n      tag_50\n      jumpi\n        /* \"#utility.yul\":726:805   */\n      tag_51\n      tag_33\n      jump\t// in\n    tag_51:\n        /* \"#utility.yul\":688:807   */\n    tag_50:\n        /* \"#utility.yul\":846:847   */\n      0x00\n        /* \"#utility.yul\":871:931   */\n      tag_52\n        /* \"#utility.yul\":923:930   */\n      dup5\n        /* \"#utility.yul\":914:920   */\n      dup3\n        /* \"#utility.yul\":903:912   */\n      dup6\n        /* \"#utility.yul\":899:921   */\n      add\n        /* \"#utility.yul\":871:931   */\n      tag_36\n      jump\t// in\n    tag_52:\n        /* \"#utility.yul\":861:931   */\n      swap2\n      pop\n        /* \"#utility.yul\":817:941   */\n      pop\n        /* \"#utility.yul\":605:948   */\n      swap3\n      swap2\n      pop\n      pop\n      jump\t// out\n        /* \"#utility.yul\":954:1134   */\n    tag_26:\n        /* \"#utility.yul\":1002:1079   */\n      0x4e487b7100000000000000000000000000000000000000000000000000000000\n        /* \"#utility.yul\":999:1000   */\n      0x00\n        /* \"#utility.yul\":992:1080   */\n      mstore\n        /* \"#utility.yul\":1099:1103   */\n      0x21\n        /* \"#utility.yul\":1096:1097   */\n      0x04\n        /* \"#utility.yul\":1089:1104   */\n      mstore\n        /* \"#utility.yul\":1123:1127   */\n      0x24\n        /* \"#utility.yul\":1120:1121   */\n      0x00\n        /* \"#utility.yul\":1113:1128   */\n      revert\n        /* \"#utility.yul\":1140:1252   */\n    tag_37:\n        /* \"#utility.yul\":1220:1221   */\n      0x03\n        /* \"#utility.yul\":1213:1218   */\n      dup2\n        /* \"#utility.yul\":1210:1222   */\n      lt\n        /* \"#utility.yul\":1200:1246   */\n      tag_55\n      jumpi\n        /* \"#utility.yul\":1226:1244   */\n      tag_56\n      tag_26\n      jump\t// in\n    tag_56:\n        /* \"#utility.yul\":1200:1246   */\n    tag_55:\n        /* \"#utility.yul\":1140:1252   */\n      pop\n      jump\t// out\n        /* \"#utility.yul\":1258:1383   */\n    tag_38:\n        /* \"#utility.yul\":1302:1309   */\n      0x00\n        /* \"#utility.yul\":1331:1336   */\n      dup2\n        /* \"#utility.yul\":1320:1336   */\n      swap1\n      pop\n        /* \"#utility.yul\":1337:1377   */\n      tag_58\n        /* \"#utility.yul\":1371:1376   */\n      dup3\n        /* \"#utility.yul\":1337:1377   */\n      tag_37\n      jump\t// in\n    tag_58:\n        /* \"#utility.yul\":1258:1383   */\n      swap2\n      swap1\n      pop\n      jump\t// out\n        /* \"#utility.yul\":1389:1514   */\n    tag_39:\n        /* \"#utility.yul\":1444:1453   */\n      0x00\n        /* \"#utility.yul\":1477:1508   */\n      tag_60\n        /* \"#utility.yul\":1502:1507   */\n      dup3\n        /* \"#utility.yul\":1477:1508   */\n      tag_38\n      jump\t// in\n    tag_60:\n        /* \"#utility.yul\":1464:1508   */\n      swap1\n      pop\n        /* \"#utility.yul\":1389:1514   */\n      swap2\n      swap1\n      pop\n      jump\t// out\n        /* \"#utility.yul\":1520:1661   */\n    tag_40:\n        /* \"#utility.yul\":1612:1654   */\n      tag_62\n        /* \"#utility.yul\":1648:1653   */\n      dup2\n        /* \"#utility.yul\":1612:1654   */\n      tag_39\n      jump\t// in\n    tag_62:\n        /* \"#utility.yul\":1607:1610   */\n      dup3\n        /* \"#utility.yul\":1600:1655   */\n      mstore\n        /* \"#utility.yul\":1520:1661   */\n      pop\n      pop\n      jump\t// out\n        /* \"#utility.yul\":1667:1899   */\n    tag_15:\n        /* \"#utility.yul\":1765:1769   */\n      0x00\n        /* \"#utility.yul\":1803:1805   */\n      0x20\n        /* \"#utility.yul\":1792:1801   */\n      dup3\n        /* \"#utility.yul\":1788:1806   */\n      add\n        /* \"#utility.yul\":1780:1806   */\n      swap1\n      pop\n        /* \"#utility.yul\":1816:1892   */\n      tag_64\n        /* \"#utility.yul\":1889:1890   */\n      0x00\n        /* \"#utility.yul\":1878:1887   */\n      dup4\n        /* \"#utility.yul\":1874:1891   */\n      add\n        /* \"#utility.yul\":1865:1871   */\n      dup5\n        /* \"#utility.yul\":1816:1892   */\n      tag_40\n      jump\t// in\n    tag_64:\n        /* \"#utility.yul\":1667:1899   */\n      swap3\n      swap2\n      pop\n      pop\n      jump\t// out\n\n    auxdata: 0xa2646970667358221220e967cecbbb54d9512fa3b992f9f35079c6027f62e6da2a694da1d15271802dcb64736f6c634300081c0033\n}\n",
				"bytecode": {
					"linkReferences": {},
					"object": "6080604052348015600e575f5ffd5b506102668061001c5f395ff3fe608060405234801561000f575f5ffd5b5060043610610055575f3560e01c806324b8ba5f1461005957806364dbe78c146100755780636d4ce63c14610093578063cd59c6d5146100b1578063d826f88f146100bb575b5f5ffd5b610073600480360381019061006e9190610179565b6100c5565b005b61007d6100f0565b60405161008a9190610217565b60405180910390f35b61009b610101565b6040516100a89190610217565b60405180910390f35b6100b9610115565b005b6100c3610140565b005b805f5f6101000a81548160ff021916908360028111156100e8576100e76101a4565b5b021790555050565b5f5f9054906101000a900460ff1681565b5f5f5f9054906101000a900460ff16905090565b60025f5f6101000a81548160ff02191690836002811115610139576101386101a4565b5b0217905550565b5f5f6101000a81549060ff0219169055565b5f5ffd5b60038110610162575f5ffd5b50565b5f8135905061017381610156565b92915050565b5f6020828403121561018e5761018d610152565b5b5f61019b84828501610165565b91505092915050565b7f4e487b71000000000000000000000000000000000000000000000000000000005f52602160045260245ffd5b600381106101e2576101e16101a4565b5b50565b5f8190506101f2826101d1565b919050565b5f610201826101e5565b9050919050565b610211816101f7565b82525050565b5f60208201905061022a5f830184610208565b9291505056fea2646970667358221220e967cecbbb54d9512fa3b992f9f35079c6027f62e6da2a694da1d15271802dcb64736f6c634300081c0033",
					"opcodes": "PUSH1 0x80 PUSH1 0x40 MSTORE CALLVALUE DUP1 ISZERO PUSH1 0xE JUMPI PUSH0 PUSH0 REVERT JUMPDEST POP PUSH2 0x266 DUP1 PUSH2 0x1C PUSH0 CODECOPY PUSH0 RETURN INVALID PUSH1 0x80 PUSH1 0x40 MSTORE CALLVALUE DUP1 ISZERO PUSH2 0xF JUMPI PUSH0 PUSH0 REVERT JUMPDEST POP PUSH1 0x4 CALLDATASIZE LT PUSH2 0x55 JUMPI PUSH0 CALLDATALOAD PUSH1 0xE0 SHR DUP1 PUSH4 0x24B8BA5F EQ PUSH2 0x59 JUMPI DUP1 PUSH4 0x64DBE78C EQ PUSH2 0x75 JUMPI DUP1 PUSH4 0x6D4CE63C EQ PUSH2 0x93 JUMPI DUP1 PUSH4 0xCD59C6D5 EQ PUSH2 0xB1 JUMPI DUP1 PUSH4 0xD826F88F EQ PUSH2 0xBB JUMPI JUMPDEST PUSH0 PUSH0 REVERT JUMPDEST PUSH2 0x73 PUSH1 0x4 DUP1 CALLDATASIZE SUB DUP2 ADD SWAP1 PUSH2 0x6E SWAP2 SWAP1 PUSH2 0x179 JUMP JUMPDEST PUSH2 0xC5 JUMP JUMPDEST STOP JUMPDEST PUSH2 0x7D PUSH2 0xF0 JUMP JUMPDEST PUSH1 0x40 MLOAD PUSH2 0x8A SWAP2 SWAP1 PUSH2 0x217 JUMP JUMPDEST PUSH1 0x40 MLOAD DUP1 SWAP2 SUB SWAP1 RETURN JUMPDEST PUSH2 0x9B PUSH2 0x101 JUMP JUMPDEST PUSH1 0x40 MLOAD PUSH2 0xA8 SWAP2 SWAP1 PUSH2 0x217 JUMP JUMPDEST PUSH1 0x40 MLOAD DUP1 SWAP2 SUB SWAP1 RETURN JUMPDEST PUSH2 0xB9 PUSH2 0x115 JUMP JUMPDEST STOP JUMPDEST PUSH2 0xC3 PUSH2 0x140 JUMP JUMPDEST STOP JUMPDEST DUP1 PUSH0 PUSH0 PUSH2 0x100 EXP DUP2 SLOAD DUP2 PUSH1 0xFF MUL NOT AND SWAP1 DUP4 PUSH1 0x2 DUP2 GT ISZERO PUSH2 0xE8 JUMPI PUSH2 0xE7 PUSH2 0x1A4 JUMP JUMPDEST JUMPDEST MUL OR SWAP1 SSTORE POP POP JUMP JUMPDEST PUSH0 PUSH0 SWAP1 SLOAD SWAP1 PUSH2 0x100 EXP SWAP1 DIV PUSH1 0xFF AND DUP2 JUMP JUMPDEST PUSH0 PUSH0 PUSH0 SWAP1 SLOAD SWAP1 PUSH2 0x100 EXP SWAP1 DIV PUSH1 0xFF AND SWAP1 POP SWAP1 JUMP JUMPDEST PUSH1 0x2 PUSH0 PUSH0 PUSH2 0x100 EXP DUP2 SLOAD DUP2 PUSH1 0xFF MUL NOT AND SWAP1 DUP4 PUSH1 0x2 DUP2 GT ISZERO PUSH2 0x139 JUMPI PUSH2 0x138 PUSH2 0x1A4 JUMP JUMPDEST JUMPDEST MUL OR SWAP1 SSTORE POP JUMP JUMPDEST PUSH0 PUSH0 PUSH2 0x100 EXP DUP2 SLOAD SWAP1 PUSH1 0xFF MUL NOT AND SWAP1 SSTORE JUMP JUMPDEST PUSH0 PUSH0 REVERT JUMPDEST PUSH1 0x3 DUP2 LT PUSH2 0x162 JUMPI PUSH0 PUSH0 REVERT JUMPDEST POP JUMP JUMPDEST PUSH0 DUP2 CALLDATALOAD SWAP1 POP PUSH2 0x173 DUP2 PUSH2 0x156 JUMP JUMPDEST SWAP3 SWAP2 POP POP JUMP JUMPDEST PUSH0 PUSH1 0x20 DUP3 DUP5 SUB SLT ISZERO PUSH2 0x18E JUMPI PUSH2 0x18D PUSH2 0x152 JUMP JUMPDEST JUMPDEST PUSH0 PUSH2 0x19B DUP5 DUP3 DUP6 ADD PUSH2 0x165 JUMP JUMPDEST SWAP2 POP POP SWAP3 SWAP2 POP POP JUMP JUMPDEST PUSH32 0x4E487B7100000000000000000000000000000000000000000000000000000000 PUSH0 MSTORE PUSH1 0x21 PUSH1 0x4 MSTORE PUSH1 0x24 PUSH0 REVERT JUMPDEST PUSH1 0x3 DUP2 LT PUSH2 0x1E2 JUMPI PUSH2 0x1E1 PUSH2 0x1A4 JUMP JUMPDEST JUMPDEST POP JUMP JUMPDEST PUSH0 DUP2 SWAP1 POP PUSH2 0x1F2 DUP3 PUSH2 0x1D1 JUMP JUMPDEST SWAP2 SWAP1 POP JUMP JUMPDEST PUSH0 PUSH2 0x201 DUP3 PUSH2 0x1E5 JUMP JUMPDEST SWAP1 POP SWAP2 SWAP1 POP JUMP JUMPDEST PUSH2 0x211 DUP2 PUSH2 0x1F7 JUMP JUMPDEST DUP3 MSTORE POP POP JUMP JUMPDEST PUSH0 PUSH1 0x20 DUP3 ADD SWAP1 POP PUSH2 0x22A PUSH0 DUP4 ADD DUP5 PUSH2 0x208 JUMP JUMPDEST SWAP3 SWAP2 POP POP JUMP INVALID LOG2 PUSH5 0x6970667358 0x22 SLT KECCAK256 0xE9 PUSH8 0xCECBBB54D9512FA3 0xB9 SWAP3 0xF9 RETURN POP PUSH26 0xC6027F62E6DA2A694DA1D15271802DCB64736F6C634300081C00 CALLER "
				},
				"gasEstimates": {
					"creation": {
						"codeDepositCost": "122800",
						"executionCost": "169",
						"totalCost": "122969"
					},
					"external": {
						"Green()": "24472",
						"get()": "2582",
						"light()": "2553",
						"reset()": "24449",
						"set(uint8)": "24622"
					}
				},
				"methodIdentifiers": {
					"Green()": "cd59c6d5",
					"get()": "6d4ce63c",
					"light()": "64dbe78c",
					"reset()": "d826f88f",
					"set(uint8)": "24b8ba5f"
				}
			},
			"storageLayout": {
				"storage": [
					{
						"astId": 8,
						"contract": "RCC-Learning/L1/Enum.sol:Enum",
						"label": "light",
						"offset": 0,
						"slot": "0",
						"type": "t_enum(Light)5"
					}
				],
				"types": {
					"t_enum(Light)5": {
						"encoding": "inplace",
						"label": "enum Enum.Light",
						"numberOfBytes": "1"
					}
				}
			},
			"userdoc": {
				"kind": "user",
				"methods": {},
				"version": 1
			}
		}
	}
}