{
	"RCC-Learning/L1/Error.sol": {
		"ErrorTest": {
			"abi": [
				{
					"inputs": [
						{
							"internalType": "uint256",
							"name": "balance",
							"type": "uint256"
						},
						{
							"internalType": "uint256",
							"name": "withdrawAmount",
							"type": "uint256"
						}
					],
					"name": "InsufficientBalance",
					"type": "error"
				},
				{
					"inputs": [],
					"name": "num",
					"outputs": [
						{
							"internalType": "uint256",
							"name": "",
							"type": "uint256"
						}
					],
					"stateMutability": "view",
					"type": "function"
				},
				{
					"inputs": [
						{
							"internalType": "uint256",
							"name": "_i",
							"type": "uint256"
						}
					],
					"name": "test",
					"outputs": [],
					"stateMutability": "pure",
					"type": "function"
				},
				{
					"inputs": [],
					"name": "testAssert",
					"outputs": [],
					"stateMutability": "view",
					"type": "function"
				},
				{
					"inputs": [
						{
							"internalType": "uint256",
							"name": "_withdrawAmount",
							"type": "uint256"
						}
					],
					"name": "testError",
					"outputs": [],
					"stateMutability": "view",
					"type": "function"
				}
			],
			"devdoc": {
				"kind": "dev",
				"methods": {},
				"version": 1
			},
			"evm": {
				"assembly": "    /* \"RCC-Learning/L1/Error.sol\":61:1310  contract ErrorTest {... */\n  mstore(0x40, 0x80)\n  callvalue\n  dup1\n  iszero\n  tag_1\n  jumpi\n  revert(0x00, 0x00)\ntag_1:\n  pop\n  dataSize(sub_0)\n  dup1\n  dataOffset(sub_0)\n  0x00\n  codecopy\n  0x00\n  return\nstop\n\nsub_0: assembly {\n        /* \"RCC-Learning/L1/Error.sol\":61:1310  contract ErrorTest {... */\n      mstore(0x40, 0x80)\n      callvalue\n      dup1\n      iszero\n      tag_1\n      jumpi\n      revert(0x00, 0x00)\n    tag_1:\n      pop\n      jumpi(tag_2, lt(calldatasize, 0x04))\n      shr(0xe0, calldataload(0x00))\n      dup1\n      0x149835b9\n      eq\n      tag_3\n      jumpi\n      dup1\n      0x29e99f07\n      eq\n      tag_4\n      jumpi\n      dup1\n      0x2b813bc0\n      eq\n      tag_5\n      jumpi\n      dup1\n      0x4e70b1dc\n      eq\n      tag_6\n      jumpi\n    tag_2:\n      revert(0x00, 0x00)\n        /* \"RCC-Learning/L1/Error.sol\":1012:1307  function testError(uint256 _withdrawAmount) public view {... */\n    tag_3:\n      tag_7\n      0x04\n      dup1\n      calldatasize\n      sub\n      dup2\n      add\n      swap1\n      tag_8\n      swap2\n      swap1\n      tag_9\n      jump\t// in\n    tag_8:\n      tag_10\n      jump\t// in\n    tag_7:\n      stop\n        /* \"RCC-Learning/L1/Error.sol\":384:647  function test(uint256 _i) public pure {... */\n    tag_4:\n      tag_11\n      0x04\n      dup1\n      calldatasize\n      sub\n      dup2\n      add\n      swap1\n      tag_12\n      swap2\n      swap1\n      tag_9\n      jump\t// in\n    tag_12:\n      tag_13\n      jump\t// in\n    tag_11:\n      stop\n        /* \"RCC-Learning/L1/Error.sol\":742:811  function testAssert() public view {... */\n    tag_5:\n      tag_14\n      tag_15\n      jump\t// in\n    tag_14:\n      stop\n        /* \"RCC-Learning/L1/Error.sol\":717:735  uint256 public num */\n    tag_6:\n      tag_16\n      tag_17\n      jump\t// in\n    tag_16:\n      mload(0x40)\n      tag_18\n      swap2\n      swap1\n      tag_19\n      jump\t// in\n    tag_18:\n      mload(0x40)\n      dup1\n      swap2\n      sub\n      swap1\n      return\n        /* \"RCC-Learning/L1/Error.sol\":1012:1307  function testError(uint256 _withdrawAmount) public view {... */\n    tag_10:\n        /* \"RCC-Learning/L1/Error.sol\":1079:1090  uint256 bal */\n      0x00\n        /* \"RCC-Learning/L1/Error.sol\":1093:1103  msg.sender */\n      caller\n        /* \"RCC-Learning/L1/Error.sol\":1093:1111  msg.sender.balance */\n      0xffffffffffffffffffffffffffffffffffffffff\n      and\n      balance\n        /* \"RCC-Learning/L1/Error.sol\":1079:1111  uint256 bal = msg.sender.balance */\n      swap1\n      pop\n        /* \"RCC-Learning/L1/Error.sol\":1132:1147  _withdrawAmount */\n      dup2\n        /* \"RCC-Learning/L1/Error.sol\":1126:1129  bal */\n      dup2\n        /* \"RCC-Learning/L1/Error.sol\":1126:1147  bal < _withdrawAmount */\n      lt\n        /* \"RCC-Learning/L1/Error.sol\":1122:1300  if (bal < _withdrawAmount) {... */\n      iszero\n      tag_21\n      jumpi\n        /* \"RCC-Learning/L1/Error.sol\":1219:1222  bal */\n      dup1\n        /* \"RCC-Learning/L1/Error.sol\":1257:1272  _withdrawAmount */\n      dup3\n        /* \"RCC-Learning/L1/Error.sol\":1171:1288  InsufficientBalance({... */\n      mload(0x40)\n      0xcf47918100000000000000000000000000000000000000000000000000000000\n      dup2\n      mstore\n      0x04\n      add\n      tag_22\n      swap3\n      swap2\n      swap1\n      tag_23\n      jump\t// in\n    tag_22:\n      mload(0x40)\n      dup1\n      swap2\n      sub\n      swap1\n      revert\n        /* \"RCC-Learning/L1/Error.sol\":1122:1300  if (bal < _withdrawAmount) {... */\n    tag_21:\n        /* \"RCC-Learning/L1/Error.sol\":1068:1307  {... */\n      pop\n        /* \"RCC-Learning/L1/Error.sol\":1012:1307  function testError(uint256 _withdrawAmount) public view {... */\n      pop\n      jump\t// out\n        /* \"RCC-Learning/L1/Error.sol\":384:647  function test(uint256 _i) public pure {... */\n    tag_13:\n        /* \"RCC-Learning/L1/Error.sol\":466:468  10 */\n      0x0a\n        /* \"RCC-Learning/L1/Error.sol\":461:463  _i */\n      dup2\n        /* \"RCC-Learning/L1/Error.sol\":461:468  _i > 10 */\n      gt\n        /* \"RCC-Learning/L1/Error.sol\":453:502  require(_i > 10, \"Input must be greater than 10\") */\n      tag_25\n      jumpi\n      mload(0x40)\n      0x08c379a000000000000000000000000000000000000000000000000000000000\n      dup2\n      mstore\n      0x04\n      add\n      tag_26\n      swap1\n      tag_27\n      jump\t// in\n    tag_26:\n      mload(0x40)\n      dup1\n      swap2\n      sub\n      swap1\n      revert\n    tag_25:\n        /* \"RCC-Learning/L1/Error.sol\":570:572  10 */\n      0x0a\n        /* \"RCC-Learning/L1/Error.sol\":564:566  _i */\n      dup2\n        /* \"RCC-Learning/L1/Error.sol\":564:572  _i <= 10 */\n      gt\n        /* \"RCC-Learning/L1/Error.sol\":560:640  if (_i <= 10) {... */\n      tag_28\n      jumpi\n        /* \"RCC-Learning/L1/Error.sol\":589:628  revert(\"Input must be greater than 10\") */\n      mload(0x40)\n      0x08c379a000000000000000000000000000000000000000000000000000000000\n      dup2\n      mstore\n      0x04\n      add\n      tag_29\n      swap1\n      tag_27\n      jump\t// in\n    tag_29:\n      mload(0x40)\n      dup1\n      swap2\n      sub\n      swap1\n      revert\n        /* \"RCC-Learning/L1/Error.sol\":560:640  if (_i <= 10) {... */\n    tag_28:\n        /* \"RCC-Learning/L1/Error.sol\":384:647  function test(uint256 _i) public pure {... */\n      pop\n      jump\t// out\n        /* \"RCC-Learning/L1/Error.sol\":742:811  function testAssert() public view {... */\n    tag_15:\n        /* \"RCC-Learning/L1/Error.sol\":801:802  0 */\n      0x00\n        /* \"RCC-Learning/L1/Error.sol\":794:797  num */\n      sload(0x00)\n        /* \"RCC-Learning/L1/Error.sol\":794:802  num == 0 */\n      eq\n        /* \"RCC-Learning/L1/Error.sol\":787:803  assert(num == 0) */\n      tag_31\n      jumpi\n      tag_32\n      tag_33\n      jump\t// in\n    tag_32:\n    tag_31:\n        /* \"RCC-Learning/L1/Error.sol\":742:811  function testAssert() public view {... */\n      jump\t// out\n        /* \"RCC-Learning/L1/Error.sol\":717:735  uint256 public num */\n    tag_17:\n      sload(0x00)\n      dup2\n      jump\t// out\n        /* \"#utility.yul\":88:205   */\n    tag_35:\n        /* \"#utility.yul\":197:198   */\n      0x00\n        /* \"#utility.yul\":194:195   */\n      0x00\n        /* \"#utility.yul\":187:199   */\n      revert\n        /* \"#utility.yul\":334:411   */\n    tag_37:\n        /* \"#utility.yul\":371:378   */\n      0x00\n        /* \"#utility.yul\":400:405   */\n      dup2\n        /* \"#utility.yul\":389:405   */\n      swap1\n      pop\n        /* \"#utility.yul\":334:411   */\n      swap2\n      swap1\n      pop\n      jump\t// out\n        /* \"#utility.yul\":417:539   */\n    tag_38:\n        /* \"#utility.yul\":490:514   */\n      tag_50\n        /* \"#utility.yul\":508:513   */\n      dup2\n        /* \"#utility.yul\":490:514   */\n      tag_37\n      jump\t// in\n    tag_50:\n        /* \"#utility.yul\":483:488   */\n      dup2\n        /* \"#utility.yul\":480:515   */\n      eq\n        /* \"#utility.yul\":470:533   */\n      tag_51\n      jumpi\n        /* \"#utility.yul\":529:530   */\n      0x00\n        /* \"#utility.yul\":526:527   */\n      0x00\n        /* \"#utility.yul\":519:531   */\n      revert\n        /* \"#utility.yul\":470:533   */\n    tag_51:\n        /* \"#utility.yul\":417:539   */\n      pop\n      jump\t// out\n        /* \"#utility.yul\":545:684   */\n    tag_39:\n        /* \"#utility.yul\":591:596   */\n      0x00\n        /* \"#utility.yul\":629:635   */\n      dup2\n        /* \"#utility.yul\":616:636   */\n      calldataload\n        /* \"#utility.yul\":607:636   */\n      swap1\n      pop\n        /* \"#utility.yul\":645:678   */\n      tag_53\n        /* \"#utility.yul\":672:677   */\n      dup2\n        /* \"#utility.yul\":645:678   */\n      tag_38\n      jump\t// in\n    tag_53:\n        /* \"#utility.yul\":545:684   */\n      swap3\n      swap2\n      pop\n      pop\n      jump\t// out\n        /* \"#utility.yul\":690:1019   */\n    tag_9:\n        /* \"#utility.yul\":749:755   */\n      0x00\n        /* \"#utility.yul\":798:800   */\n      0x20\n        /* \"#utility.yul\":786:795   */\n      dup3\n        /* \"#utility.yul\":777:784   */\n      dup5\n        /* \"#utility.yul\":773:796   */\n      sub\n        /* \"#utility.yul\":769:801   */\n      slt\n        /* \"#utility.yul\":766:885   */\n      iszero\n      tag_55\n      jumpi\n        /* \"#utility.yul\":804:883   */\n      tag_56\n      tag_35\n      jump\t// in\n    tag_56:\n        /* \"#utility.yul\":766:885   */\n    tag_55:\n        /* \"#utility.yul\":924:925   */\n      0x00\n        /* \"#utility.yul\":949:1002   */\n      tag_57\n        /* \"#utility.yul\":994:1001   */\n      dup5\n        /* \"#utility.yul\":985:991   */\n      dup3\n        /* \"#utility.yul\":974:983   */\n      dup6\n        /* \"#utility.yul\":970:992   */\n      add\n        /* \"#utility.yul\":949:1002   */\n      tag_39\n      jump\t// in\n    tag_57:\n        /* \"#utility.yul\":939:1002   */\n      swap2\n      pop\n        /* \"#utility.yul\":895:1012   */\n      pop\n        /* \"#utility.yul\":690:1019   */\n      swap3\n      swap2\n      pop\n      pop\n      jump\t// out\n        /* \"#utility.yul\":1025:1143   */\n    tag_40:\n        /* \"#utility.yul\":1112:1136   */\n      tag_59\n        /* \"#utility.yul\":1130:1135   */\n      dup2\n        /* \"#utility.yul\":1112:1136   */\n      tag_37\n      jump\t// in\n    tag_59:\n        /* \"#utility.yul\":1107:1110   */\n      dup3\n        /* \"#utility.yul\":1100:1137   */\n      mstore\n        /* \"#utility.yul\":1025:1143   */\n      pop\n      pop\n      jump\t// out\n        /* \"#utility.yul\":1149:1371   */\n    tag_19:\n        /* \"#utility.yul\":1242:1246   */\n      0x00\n        /* \"#utility.yul\":1280:1282   */\n      0x20\n        /* \"#utility.yul\":1269:1278   */\n      dup3\n        /* \"#utility.yul\":1265:1283   */\n      add\n        /* \"#utility.yul\":1257:1283   */\n      swap1\n      pop\n        /* \"#utility.yul\":1293:1364   */\n      tag_61\n        /* \"#utility.yul\":1361:1362   */\n      0x00\n        /* \"#utility.yul\":1350:1359   */\n      dup4\n        /* \"#utility.yul\":1346:1363   */\n      add\n        /* \"#utility.yul\":1337:1343   */\n      dup5\n        /* \"#utility.yul\":1293:1364   */\n      tag_40\n      jump\t// in\n    tag_61:\n        /* \"#utility.yul\":1149:1371   */\n      swap3\n      swap2\n      pop\n      pop\n      jump\t// out\n        /* \"#utility.yul\":1377:1709   */\n    tag_23:\n        /* \"#utility.yul\":1498:1502   */\n      0x00\n        /* \"#utility.yul\":1536:1538   */\n      0x40\n        /* \"#utility.yul\":1525:1534   */\n      dup3\n        /* \"#utility.yul\":1521:1539   */\n      add\n        /* \"#utility.yul\":1513:1539   */\n      swap1\n      pop\n        /* \"#utility.yul\":1549:1620   */\n      tag_63\n        /* \"#utility.yul\":1617:1618   */\n      0x00\n        /* \"#utility.yul\":1606:1615   */\n      dup4\n        /* \"#utility.yul\":1602:1619   */\n      add\n        /* \"#utility.yul\":1593:1599   */\n      dup6\n        /* \"#utility.yul\":1549:1620   */\n      tag_40\n      jump\t// in\n    tag_63:\n        /* \"#utility.yul\":1630:1702   */\n      tag_64\n        /* \"#utility.yul\":1698:1700   */\n      0x20\n        /* \"#utility.yul\":1687:1696   */\n      dup4\n        /* \"#utility.yul\":1683:1701   */\n      add\n        /* \"#utility.yul\":1674:1680   */\n      dup5\n        /* \"#utility.yul\":1630:1702   */\n      tag_40\n      jump\t// in\n    tag_64:\n        /* \"#utility.yul\":1377:1709   */\n      swap4\n      swap3\n      pop\n      pop\n      pop\n      jump\t// out\n        /* \"#utility.yul\":1715:1884   */\n    tag_41:\n        /* \"#utility.yul\":1799:1810   */\n      0x00\n        /* \"#utility.yul\":1833:1839   */\n      dup3\n        /* \"#utility.yul\":1828:1831   */\n      dup3\n        /* \"#utility.yul\":1821:1840   */\n      mstore\n        /* \"#utility.yul\":1873:1877   */\n      0x20\n        /* \"#utility.yul\":1868:1871   */\n      dup3\n        /* \"#utility.yul\":1864:1878   */\n      add\n        /* \"#utility.yul\":1849:1878   */\n      swap1\n      pop\n        /* \"#utility.yul\":1715:1884   */\n      swap3\n      swap2\n      pop\n      pop\n      jump\t// out\n        /* \"#utility.yul\":1890:2069   */\n    tag_42:\n        /* \"#utility.yul\":2030:2061   */\n      0x496e707574206d7573742062652067726561746572207468616e203130000000\n        /* \"#utility.yul\":2026:2027   */\n      0x00\n        /* \"#utility.yul\":2018:2024   */\n      dup3\n        /* \"#utility.yul\":2014:2028   */\n      add\n        /* \"#utility.yul\":2007:2062   */\n      mstore\n        /* \"#utility.yul\":1890:2069   */\n      pop\n      jump\t// out\n        /* \"#utility.yul\":2075:2441   */\n    tag_43:\n        /* \"#utility.yul\":2217:2220   */\n      0x00\n        /* \"#utility.yul\":2238:2305   */\n      tag_68\n        /* \"#utility.yul\":2302:2304   */\n      0x1d\n        /* \"#utility.yul\":2297:2300   */\n      dup4\n        /* \"#utility.yul\":2238:2305   */\n      tag_41\n      jump\t// in\n    tag_68:\n        /* \"#utility.yul\":2231:2305   */\n      swap2\n      pop\n        /* \"#utility.yul\":2314:2407   */\n      tag_69\n        /* \"#utility.yul\":2403:2406   */\n      dup3\n        /* \"#utility.yul\":2314:2407   */\n      tag_42\n      jump\t// in\n    tag_69:\n        /* \"#utility.yul\":2432:2434   */\n      0x20\n        /* \"#utility.yul\":2427:2430   */\n      dup3\n        /* \"#utility.yul\":2423:2435   */\n      add\n        /* \"#utility.yul\":2416:2435   */\n      swap1\n      pop\n        /* \"#utility.yul\":2075:2441   */\n      swap2\n      swap1\n      pop\n      jump\t// out\n        /* \"#utility.yul\":2447:2866   */\n    tag_27:\n        /* \"#utility.yul\":2613:2617   */\n      0x00\n        /* \"#utility.yul\":2651:2653   */\n      0x20\n        /* \"#utility.yul\":2640:2649   */\n      dup3\n        /* \"#utility.yul\":2636:2654   */\n      add\n        /* \"#utility.yul\":2628:2654   */\n      swap1\n      pop\n        /* \"#utility.yul\":2700:2709   */\n      dup2\n        /* \"#utility.yul\":2694:2698   */\n      dup2\n        /* \"#utility.yul\":2690:2710   */\n      sub\n        /* \"#utility.yul\":2686:2687   */\n      0x00\n        /* \"#utility.yul\":2675:2684   */\n      dup4\n        /* \"#utility.yul\":2671:2688   */\n      add\n        /* \"#utility.yul\":2664:2711   */\n      mstore\n        /* \"#utility.yul\":2728:2859   */\n      tag_71\n        /* \"#utility.yul\":2854:2858   */\n      dup2\n        /* \"#utility.yul\":2728:2859   */\n      tag_43\n      jump\t// in\n    tag_71:\n        /* \"#utility.yul\":2720:2859   */\n      swap1\n      pop\n        /* \"#utility.yul\":2447:2866   */\n      swap2\n      swap1\n      pop\n      jump\t// out\n        /* \"#utility.yul\":2872:3052   */\n    tag_33:\n        /* \"#utility.yul\":2920:2997   */\n      0x4e487b7100000000000000000000000000000000000000000000000000000000\n        /* \"#utility.yul\":2917:2918   */\n      0x00\n        /* \"#utility.yul\":2910:2998   */\n      mstore\n        /* \"#utility.yul\":3017:3021   */\n      0x01\n        /* \"#utility.yul\":3014:3015   */\n      0x04\n        /* \"#utility.yul\":3007:3022   */\n      mstore\n        /* \"#utility.yul\":3041:3045   */\n      0x24\n        /* \"#utility.yul\":3038:3039   */\n      0x00\n        /* \"#utility.yul\":3031:3046   */\n      revert\n\n    auxdata: 0xa2646970667358221220e131feb3f561f8f3c94eb0018b211aed27a5e345aaf1893e124278f05396d85764736f6c634300081c0033\n}\n",
				"bytecode": {
					"linkReferences": {},
					"object": "6080604052348015600e575f5ffd5b506103418061001c5f395ff3fe608060405234801561000f575f5ffd5b506004361061004a575f3560e01c8063149835b91461004e57806329e99f071461006a5780632b813bc0146100865780634e70b1dc14610090575b5f5ffd5b610068600480360381019061006391906101ec565b6100ae565b005b610084600480360381019061007f91906101ec565b610114565b005b61008e61019d565b005b6100986101b0565b6040516100a59190610226565b60405180910390f35b5f3373ffffffffffffffffffffffffffffffffffffffff16319050818110156101105780826040517fcf47918100000000000000000000000000000000000000000000000000000000815260040161010792919061023f565b60405180910390fd5b5050565b600a8111610157576040517f08c379a000000000000000000000000000000000000000000000000000000000815260040161014e906102c0565b60405180910390fd5b600a811161019a576040517f08c379a0000000000000000000000000000000000000000000000000000000008152600401610191906102c0565b60405180910390fd5b50565b5f5f54146101ae576101ad6102de565b5b565b5f5481565b5f5ffd5b5f819050919050565b6101cb816101b9565b81146101d5575f5ffd5b50565b5f813590506101e6816101c2565b92915050565b5f60208284031215610201576102006101b5565b5b5f61020e848285016101d8565b91505092915050565b610220816101b9565b82525050565b5f6020820190506102395f830184610217565b92915050565b5f6040820190506102525f830185610217565b61025f6020830184610217565b9392505050565b5f82825260208201905092915050565b7f496e707574206d7573742062652067726561746572207468616e2031300000005f82015250565b5f6102aa601d83610266565b91506102b582610276565b602082019050919050565b5f6020820190508181035f8301526102d78161029e565b9050919050565b7f4e487b71000000000000000000000000000000000000000000000000000000005f52600160045260245ffdfea2646970667358221220e131feb3f561f8f3c94eb0018b211aed27a5e345aaf1893e124278f05396d85764736f6c634300081c0033",
					"opcodes": "PUSH1 0x80 PUSH1 0x40 MSTORE CALLVALUE DUP1 ISZERO PUSH1 0xE JUMPI PUSH0 PUSH0 REVERT JUMPDEST POP PUSH2 0x341 DUP1 PUSH2 0x1C PUSH0 CODECOPY PUSH0 RETURN INVALID PUSH1 0x80 PUSH1 0x40 MSTORE CALLVALUE DUP1 ISZERO PUSH2 0xF JUMPI PUSH0 PUSH0 REVERT JUMPDEST POP PUSH1 0x4 CALLDATASIZE LT PUSH2 0x4A JUMPI PUSH0 CALLDATALOAD PUSH1 0xE0 SHR DUP1 PUSH4 0x149835B9 EQ PUSH2 0x4E JUMPI DUP1 PUSH4 0x29E99F07 EQ PUSH2 0x6A JUMPI DUP1 PUSH4 0x2B813BC0 EQ PUSH2 0x86 JUMPI DUP1 PUSH4 0x4E70B1DC EQ PUSH2 0x90 JUMPI JUMPDEST PUSH0 PUSH0 REVERT JUMPDEST PUSH2 0x68 PUSH1 0x4 DUP1 CALLDATASIZE SUB DUP2 ADD SWAP1 PUSH2 0x63 SWAP2 SWAP1 PUSH2 0x1EC JUMP JUMPDEST PUSH2 0xAE JUMP JUMPDEST STOP JUMPDEST PUSH2 0x84 PUSH1 0x4 DUP1 CALLDATASIZE SUB DUP2 ADD SWAP1 PUSH2 0x7F SWAP2 SWAP1 PUSH2 0x1EC JUMP JUMPDEST PUSH2 0x114 JUMP JUMPDEST STOP JUMPDEST PUSH2 0x8E PUSH2 0x19D JUMP JUMPDEST STOP JUMPDEST PUSH2 0x98 PUSH2 0x1B0 JUMP JUMPDEST PUSH1 0x40 MLOAD PUSH2 0xA5 SWAP2 SWAP1 PUSH2 0x226 JUMP JUMPDEST PUSH1 0x40 MLOAD DUP1 SWAP2 SUB SWAP1 RETURN JUMPDEST PUSH0 CALLER PUSH20 0xFFFFFFFFFFFFFFFFFFFFFFFFFFFFFFFFFFFFFFFF AND BALANCE SWAP1 POP DUP2 DUP2 LT ISZERO PUSH2 0x110 JUMPI DUP1 DUP3 PUSH1 0x40 MLOAD PUSH32 0xCF47918100000000000000000000000000000000000000000000000000000000 DUP2 MSTORE PUSH1 0x4 ADD PUSH2 0x107 SWAP3 SWAP2 SWAP1 PUSH2 0x23F JUMP JUMPDEST PUSH1 0x40 MLOAD DUP1 SWAP2 SUB SWAP1 REVERT JUMPDEST POP POP JUMP JUMPDEST PUSH1 0xA DUP2 GT PUSH2 0x157 JUMPI PUSH1 0x40 MLOAD PUSH32 0x8C379A000000000000000000000000000000000000000000000000000000000 DUP2 MSTORE PUSH1 0x4 ADD PUSH2 0x14E SWAP1 PUSH2 0x2C0 JUMP JUMPDEST PUSH1 0x40 MLOAD DUP1 SWAP2 SUB SWAP1 REVERT JUMPDEST PUSH1 0xA DUP2 GT PUSH2 0x19A JUMPI PUSH1 0x40 MLOAD PUSH32 0x8C379A000000000000000000000000000000000000000000000000000000000 DUP2 MSTORE PUSH1 0x4 ADD PUSH2 0x191 SWAP1 PUSH2 0x2C0 JUMP JUMPDEST PUSH1 0x40 MLOAD DUP1 SWAP2 SUB SWAP1 REVERT JUMPDEST POP JUMP JUMPDEST PUSH0 PUSH0 SLOAD EQ PUSH2 0x1AE JUMPI PUSH2 0x1AD PUSH2 0x2DE JUMP JUMPDEST JUMPDEST JUMP JUMPDEST PUSH0 SLOAD DUP2 JUMP JUMPDEST PUSH0 PUSH0 REVERT JUMPDEST PUSH0 DUP2 SWAP1 POP SWAP2 SWAP1 POP JUMP JUMPDEST PUSH2 0x1CB DUP2 PUSH2 0x1B9 JUMP JUMPDEST DUP2 EQ PUSH2 0x1D5 JUMPI PUSH0 PUSH0 REVERT JUMPDEST POP JUMP JUMPDEST PUSH0 DUP2 CALLDATALOAD SWAP1 POP PUSH2 0x1E6 DUP2 PUSH2 0x1C2 JUMP JUMPDEST SWAP3 SWAP2 POP POP JUMP JUMPDEST PUSH0 PUSH1 0x20 DUP3 DUP5 SUB SLT ISZERO PUSH2 0x201 JUMPI PUSH2 0x200 PUSH2 0x1B5 JUMP JUMPDEST JUMPDEST PUSH0 PUSH2 0x20E DUP5 DUP3 DUP6 ADD PUSH2 0x1D8 JUMP JUMPDEST SWAP2 POP POP SWAP3 SWAP2 POP POP JUMP JUMPDEST PUSH2 0x220 DUP2 PUSH2 0x1B9 JUMP JUMPDEST DUP3 MSTORE POP POP JUMP JUMPDEST PUSH0 PUSH1 0x20 DUP3 ADD SWAP1 POP PUSH2 0x239 PUSH0 DUP4 ADD DUP5 PUSH2 0x217 JUMP JUMPDEST SWAP3 SWAP2 POP POP JUMP JUMPDEST PUSH0 PUSH1 0x40 DUP3 ADD SWAP1 POP PUSH2 0x252 PUSH0 DUP4 ADD DUP6 PUSH2 0x217 JUMP JUMPDEST PUSH2 0x25F PUSH1 0x20 DUP4 ADD DUP5 PUSH2 0x217 JUMP JUMPDEST SWAP4 SWAP3 POP POP POP JUMP JUMPDEST PUSH0 DUP3 DUP3 MSTORE PUSH1 0x20 DUP3 ADD SWAP1 POP SWAP3 SWAP2 POP POP JUMP JUMPDEST PUSH32 0x496E707574206D7573742062652067726561746572207468616E203130000000 PUSH0 DUP3 ADD MSTORE POP JUMP JUMPDEST PUSH0 PUSH2 0x2AA PUSH1 0x1D DUP4 PUSH2 0x266 JUMP JUMPDEST SWAP2 POP PUSH2 0x2B5 DUP3 PUSH2 0x276 JUMP JUMPDEST PUSH1 0x20 DUP3 ADD SWAP1 POP SWAP2 SWAP1 POP JUMP JUMPDEST PUSH0 PUSH1 0x20 DUP3 ADD SWAP1 POP DUP2 DUP2 SUB PUSH0 DUP4 ADD MSTORE PUSH2 0x2D7 DUP2 PUSH2 0x29E JUMP JUMPDEST SWAP1 POP SWAP2 SWAP1 POP JUMP JUMPDEST PUSH32 0x4E487B7100000000000000000000000000000000000000000000000000000000 PUSH0 MSTORE PUSH1 0x1 PUSH1 0x4 MSTORE PUSH1 0x24 PUSH0 REVERT INVALID LOG2 PUSH5 0x6970667358 0x22 SLT KECCAK256 0xE1 BALANCE INVALID 0xB3 CREATE2 PUSH2 0xF8F3 0xC9 0x4E 0xB0 ADD DUP12 0x21 BYTE 0xED 0x27 0xA5 0xE3 GASLIMIT 0xAA CALL DUP10 RETURNDATACOPY SLT TIMESTAMP PUSH25 0xF05396D85764736F6C634300081C0033000000000000000000 "
				},
				"gasEstimates": {
					"creation": {
						"codeDepositCost": "166600",
						"executionCost": "212",
						"totalCost": "166812"
					},
					"external": {
						"num()": "2468",
						"test(uint256)": "729",
						"testAssert()": "2313",
						"testError(uint256)": "infinite"
					}
				},
				"methodIdentifiers": {
					"num()": "4e70b1dc",
					"test(uint256)": "29e99f07",
					"testAssert()": "2b813bc0",
					"testError(uint256)": "149835b9"
				}
			},
			"storageLayout": {
				"storage": [
					{
						"astId": 25,
						"contract": "RCC-Learning/L1/Error.sol:ErrorTest",
						"label": "num",
						"offset": 0,
						"slot": "0",
						"type": "t_uint256"
					}
				],
				"types": {
					"t_uint256": {
						"encoding": "inplace",
						"label": "uint256",
						"numberOfBytes": "32"
					}
				}
			},
			"userdoc": {
				"kind": "user",
				"methods": {},
				"version": 1
			}
		}
	}
}