{
	"test/FundMe.sol": {
		"FundMe": {
			"abi": [
				{
					"inputs": [],
					"stateMutability": "nonpayable",
					"type": "constructor"
				},
				{
					"inputs": [],
					"name": "fund",
					"outputs": [],
					"stateMutability": "payable",
					"type": "function"
				},
				{
					"inputs": [
						{
							"internalType": "address",
							"name": "",
							"type": "address"
						}
					],
					"name": "fundersToAmount",
					"outputs": [
						{
							"internalType": "uint256",
							"name": "",
							"type": "uint256"
						}
					],
					"stateMutability": "view",
					"type": "function"
				},
				{
					"inputs": [],
					"name": "getChainLinkDataFeedLatestAnswer",
					"outputs": [
						{
							"internalType": "int256",
							"name": "",
							"type": "int256"
						}
					],
					"stateMutability": "view",
					"type": "function"
				},
				{
					"inputs": [],
					"name": "getFund",
					"outputs": [],
					"stateMutability": "nonpayable",
					"type": "function"
				},
				{
					"inputs": [],
					"name": "owner",
					"outputs": [
						{
							"internalType": "address",
							"name": "",
							"type": "address"
						}
					],
					"stateMutability": "view",
					"type": "function"
				},
				{
					"inputs": [],
					"name": "refund",
					"outputs": [],
					"stateMutability": "nonpayable",
					"type": "function"
				},
				{
					"inputs": [
						{
							"internalType": "address",
							"name": "newOwner",
							"type": "address"
						}
					],
					"name": "transferOwnership",
					"outputs": [],
					"stateMutability": "nonpayable",
					"type": "function"
				}
			],
			"devdoc": {
				"kind": "dev",
				"methods": {},
				"version": 1
			},
			"evm": {
				"assembly": "    /* \"test/FundMe.sol\":176:4835  contract FundMe{... */\n  mstore(0x40, 0x80)\n    /* \"test/FundMe.sol\":534:546  1 * 10 ** 18 */\n  0x0de0b6b3a7640000\n    /* \"test/FundMe.sol\":510:546  uint256 MINIMUM_VALUE = 1 * 10 ** 18 */\n  0x02\n  sstore\n    /* \"test/FundMe.sol\":881:1019  constructor() {... */\n  callvalue\n  dup1\n  iszero\n  tag_1\n  jumpi\n  revert(0x00, 0x00)\ntag_1:\n  pop\n    /* \"test/FundMe.sol\":914:924  msg.sender */\n  caller\n    /* \"test/FundMe.sol\":906:911  owner */\n  0x03\n  0x00\n    /* \"test/FundMe.sol\":906:924  owner = msg.sender */\n  0x0100\n  exp\n  dup2\n  sload\n  dup2\n  0xffffffffffffffffffffffffffffffffffffffff\n  mul\n  not\n  and\n  swap1\n  dup4\n  0xffffffffffffffffffffffffffffffffffffffff\n  and\n  mul\n  or\n  swap1\n  sstore\n  pop\n    /* \"test/FundMe.sol\":968:1010  0x694AA1769357215DE4FAC081bf1f309aDC325306 */\n  0x694aa1769357215de4fac081bf1f309adc325306\n    /* \"test/FundMe.sol\":935:943  dataFeed */\n  0x00\n  0x00\n    /* \"test/FundMe.sol\":935:1011  dataFeed = AggregatorV3Interface(0x694AA1769357215DE4FAC081bf1f309aDC325306) */\n  0x0100\n  exp\n  dup2\n  sload\n  dup2\n  0xffffffffffffffffffffffffffffffffffffffff\n  mul\n  not\n  and\n  swap1\n  dup4\n  0xffffffffffffffffffffffffffffffffffffffff\n  and\n  mul\n  or\n  swap1\n  sstore\n  pop\n    /* \"test/FundMe.sol\":176:4835  contract FundMe{... */\n  dataSize(sub_0)\n  dup1\n  dataOffset(sub_0)\n  0x00\n  codecopy\n  0x00\n  return\nstop\n\nsub_0: assembly {\n        /* \"test/FundMe.sol\":176:4835  contract FundMe{... */\n      mstore(0x40, 0x80)\n      jumpi(tag_1, lt(calldatasize, 0x04))\n      shr(0xe0, calldataload(0x00))\n      dup1\n      0x8edd6eb6\n      gt\n      tag_9\n      jumpi\n      dup1\n      0x8edd6eb6\n      eq\n      tag_5\n      jumpi\n      dup1\n      0x9f883a05\n      eq\n      tag_6\n      jumpi\n      dup1\n      0xb60d4288\n      eq\n      tag_7\n      jumpi\n      dup1\n      0xf2fde38b\n      eq\n      tag_8\n      jumpi\n      jump(tag_1)\n    tag_9:\n      dup1\n      0x590e1ae3\n      eq\n      tag_2\n      jumpi\n      dup1\n      0x5ab2bc20\n      eq\n      tag_3\n      jumpi\n      dup1\n      0x8da5cb5b\n      eq\n      tag_4\n      jumpi\n    tag_1:\n      revert(0x00, 0x00)\n        /* \"test/FundMe.sol\":4278:4832  function refund() external {... */\n    tag_2:\n      callvalue\n      dup1\n      iszero\n      tag_10\n      jumpi\n      revert(0x00, 0x00)\n    tag_10:\n      pop\n      tag_11\n      tag_12\n      jump\t// in\n    tag_11:\n      stop\n        /* \"test/FundMe.sol\":1424:1774  function getChainLinkDataFeedLatestAnswer() public view returns(int) {... */\n    tag_3:\n      callvalue\n      dup1\n      iszero\n      tag_13\n      jumpi\n      revert(0x00, 0x00)\n    tag_13:\n      pop\n      tag_14\n      tag_15\n      jump\t// in\n    tag_14:\n      mload(0x40)\n      tag_16\n      swap2\n      swap1\n      tag_17\n      jump\t// in\n    tag_16:\n      mload(0x40)\n      dup1\n      swap2\n      sub\n      swap1\n      return\n        /* \"test/FundMe.sol\":718:738  address public owner */\n    tag_4:\n      callvalue\n      dup1\n      iszero\n      tag_18\n      jumpi\n      revert(0x00, 0x00)\n    tag_18:\n      pop\n      tag_19\n      tag_20\n      jump\t// in\n    tag_19:\n      mload(0x40)\n      tag_21\n      swap2\n      swap1\n      tag_22\n      jump\t// in\n    tag_21:\n      mload(0x40)\n      dup1\n      swap2\n      sub\n      swap1\n      return\n        /* \"test/FundMe.sol\":2513:4171  function getFund() external {... */\n    tag_5:\n      callvalue\n      dup1\n      iszero\n      tag_23\n      jumpi\n      revert(0x00, 0x00)\n    tag_23:\n      pop\n      tag_24\n      tag_25\n      jump\t// in\n    tag_24:\n      stop\n        /* \"test/FundMe.sol\":366:417  mapping (address => uint256) public fundersToAmount */\n    tag_6:\n      callvalue\n      dup1\n      iszero\n      tag_26\n      jumpi\n      revert(0x00, 0x00)\n    tag_26:\n      pop\n      tag_27\n      0x04\n      dup1\n      calldatasize\n      sub\n      dup2\n      add\n      swap1\n      tag_28\n      swap2\n      swap1\n      tag_29\n      jump\t// in\n    tag_28:\n      tag_30\n      jump\t// in\n    tag_27:\n      mload(0x40)\n      tag_31\n      swap2\n      swap1\n      tag_32\n      jump\t// in\n    tag_31:\n      mload(0x40)\n      dup1\n      swap2\n      sub\n      swap1\n      return\n        /* \"test/FundMe.sol\":1195:1367  function fund() external payable {... */\n    tag_7:\n      tag_33\n      tag_34\n      jump\t// in\n    tag_33:\n      stop\n        /* \"test/FundMe.sol\":2265:2436  function transferOwnership(address newOwner) public {... */\n    tag_8:\n      callvalue\n      dup1\n      iszero\n      tag_35\n      jumpi\n      revert(0x00, 0x00)\n    tag_35:\n      pop\n      tag_36\n      0x04\n      dup1\n      calldatasize\n      sub\n      dup2\n      add\n      swap1\n      tag_37\n      swap2\n      swap1\n      tag_29\n      jump\t// in\n    tag_37:\n      tag_38\n      jump\t// in\n    tag_36:\n      stop\n        /* \"test/FundMe.sol\":4278:4832  function refund() external {... */\n    tag_12:\n        /* \"test/FundMe.sol\":624:637  10 * 10 ** 18 */\n      0x8ac7230489e80000\n        /* \"test/FundMe.sol\":4402:4440  convertEthToUsd(address(this).balance) */\n      tag_40\n        /* \"test/FundMe.sol\":4418:4439  address(this).balance */\n      selfbalance\n        /* \"test/FundMe.sol\":4402:4417  convertEthToUsd */\n      tag_41\n        /* \"test/FundMe.sol\":4402:4440  convertEthToUsd(address(this).balance) */\n      jump\t// in\n    tag_40:\n        /* \"test/FundMe.sol\":4402:4449  convertEthToUsd(address(this).balance) < TARGET */\n      lt\n        /* \"test/FundMe.sol\":4394:4471  require(convertEthToUsd(address(this).balance) < TARGET, \"Target is reached\") */\n      tag_42\n      jumpi\n      mload(0x40)\n      0x08c379a000000000000000000000000000000000000000000000000000000000\n      dup2\n      mstore\n      0x04\n      add\n      tag_43\n      swap1\n      tag_44\n      jump\t// in\n    tag_43:\n      mload(0x40)\n      dup1\n      swap2\n      sub\n      swap1\n      revert\n    tag_42:\n        /* \"test/FundMe.sol\":4538:4552  uint256 amount */\n      0x00\n        /* \"test/FundMe.sol\":4555:4570  fundersToAmount */\n      0x01\n        /* \"test/FundMe.sol\":4555:4582  fundersToAmount[msg.sender] */\n      0x00\n        /* \"test/FundMe.sol\":4571:4581  msg.sender */\n      caller\n        /* \"test/FundMe.sol\":4555:4582  fundersToAmount[msg.sender] */\n      0xffffffffffffffffffffffffffffffffffffffff\n      and\n      0xffffffffffffffffffffffffffffffffffffffff\n      and\n      dup2\n      mstore\n      0x20\n      add\n      swap1\n      dup2\n      mstore\n      0x20\n      add\n      0x00\n      keccak256\n      sload\n        /* \"test/FundMe.sol\":4538:4582  uint256 amount = fundersToAmount[msg.sender] */\n      swap1\n      pop\n        /* \"test/FundMe.sol\":4611:4612  0 */\n      0x00\n        /* \"test/FundMe.sol\":4601:4607  amount */\n      dup2\n        /* \"test/FundMe.sol\":4601:4612  amount != 0 */\n      sub\n        /* \"test/FundMe.sol\":4593:4641  require(amount != 0, \"there is no fund for you\") */\n      tag_45\n      jumpi\n      mload(0x40)\n      0x08c379a000000000000000000000000000000000000000000000000000000000\n      dup2\n      mstore\n      0x04\n      add\n      tag_46\n      swap1\n      tag_47\n      jump\t// in\n    tag_46:\n      mload(0x40)\n      dup1\n      swap2\n      sub\n      swap1\n      revert\n    tag_45:\n        /* \"test/FundMe.sol\":4652:4664  bool success */\n      0x00\n        /* \"test/FundMe.sol\":4697:4707  msg.sender */\n      caller\n        /* \"test/FundMe.sol\":4689:4713  payable(msg.sender).call */\n      0xffffffffffffffffffffffffffffffffffffffff\n      and\n        /* \"test/FundMe.sol\":4721:4727  amount */\n      dup3\n        /* \"test/FundMe.sol\":4689:4732  payable(msg.sender).call{value: amount}(\"\") */\n      mload(0x40)\n      tag_48\n      swap1\n      tag_49\n      jump\t// in\n    tag_48:\n      0x00\n      mload(0x40)\n      dup1\n      dup4\n      sub\n      dup2\n      dup6\n      dup8\n      gas\n      call\n      swap3\n      pop\n      pop\n      pop\n      returndatasize\n      dup1\n      0x00\n      dup2\n      eq\n      tag_52\n      jumpi\n      mload(0x40)\n      swap2\n      pop\n      and(add(returndatasize, 0x3f), not(0x1f))\n      dup3\n      add\n      0x40\n      mstore\n      returndatasize\n      dup3\n      mstore\n      returndatasize\n      0x00\n      0x20\n      dup5\n      add\n      returndatacopy\n      jump(tag_51)\n    tag_52:\n      0x60\n      swap2\n      pop\n    tag_51:\n      pop\n        /* \"test/FundMe.sol\":4675:4732  (success, ) = payable(msg.sender).call{value: amount}(\"\") */\n      pop\n      dup1\n      swap2\n      pop\n      pop\n        /* \"test/FundMe.sol\":4751:4758  success */\n      dup1\n        /* \"test/FundMe.sol\":4743:4782  require(success, \"transaction failed!\") */\n      tag_53\n      jumpi\n      mload(0x40)\n      0x08c379a000000000000000000000000000000000000000000000000000000000\n      dup2\n      mstore\n      0x04\n      add\n      tag_54\n      swap1\n      tag_55\n      jump\t// in\n    tag_54:\n      mload(0x40)\n      dup1\n      swap2\n      sub\n      swap1\n      revert\n    tag_53:\n        /* \"test/FundMe.sol\":4823:4824  0 */\n      0x00\n        /* \"test/FundMe.sol\":4793:4808  fundersToAmount */\n      0x01\n        /* \"test/FundMe.sol\":4793:4820  fundersToAmount[msg.sender] */\n      0x00\n        /* \"test/FundMe.sol\":4809:4819  msg.sender */\n      caller\n        /* \"test/FundMe.sol\":4793:4820  fundersToAmount[msg.sender] */\n      0xffffffffffffffffffffffffffffffffffffffff\n      and\n      0xffffffffffffffffffffffffffffffffffffffff\n      and\n      dup2\n      mstore\n      0x20\n      add\n      swap1\n      dup2\n      mstore\n      0x20\n      add\n      0x00\n      keccak256\n        /* \"test/FundMe.sol\":4793:4824  fundersToAmount[msg.sender] = 0 */\n      dup2\n      swap1\n      sstore\n      pop\n        /* \"test/FundMe.sol\":4305:4832  {... */\n      pop\n      pop\n        /* \"test/FundMe.sol\":4278:4832  function refund() external {... */\n      jump\t// out\n        /* \"test/FundMe.sol\":1424:1774  function getChainLinkDataFeedLatestAnswer() public view returns(int) {... */\n    tag_15:\n        /* \"test/FundMe.sol\":1488:1491  int */\n      0x00\n        /* \"test/FundMe.sol\":1582:1595  int256 answer */\n      0x00\n        /* \"test/FundMe.sol\":1716:1724  dataFeed */\n      0x00\n      0x00\n      swap1\n      sload\n      swap1\n      0x0100\n      exp\n      swap1\n      div\n      0xffffffffffffffffffffffffffffffffffffffff\n      and\n        /* \"test/FundMe.sol\":1716:1740  dataFeed.latestRoundData */\n      0xffffffffffffffffffffffffffffffffffffffff\n      and\n      0xfeaf968c\n        /* \"test/FundMe.sol\":1716:1742  dataFeed.latestRoundData() */\n      mload(0x40)\n      dup2\n      0xffffffff\n      and\n      0xe0\n      shl\n      dup2\n      mstore\n      0x04\n      add\n      0xa0\n      mload(0x40)\n      dup1\n      dup4\n      sub\n      dup2\n      dup7\n      gas\n      staticcall\n      iszero\n      dup1\n      iszero\n      tag_58\n      jumpi\n      returndatacopy(0x00, 0x00, returndatasize)\n      revert(0x00, returndatasize)\n    tag_58:\n      pop\n      pop\n      pop\n      pop\n      mload(0x40)\n      returndatasize\n      not(0x1f)\n      0x1f\n      dup3\n      add\n      and\n      dup3\n      add\n      dup1\n      0x40\n      mstore\n      pop\n      dup2\n      add\n      swap1\n      tag_59\n      swap2\n      swap1\n      tag_60\n      jump\t// in\n    tag_59:\n        /* \"test/FundMe.sol\":1532:1742  (... */\n      pop\n      pop\n      pop\n      swap2\n      pop\n      pop\n        /* \"test/FundMe.sol\":1760:1766  answer */\n      dup1\n        /* \"test/FundMe.sol\":1753:1766  return answer */\n      swap2\n      pop\n      pop\n        /* \"test/FundMe.sol\":1424:1774  function getChainLinkDataFeedLatestAnswer() public view returns(int) {... */\n      swap1\n      jump\t// out\n        /* \"test/FundMe.sol\":718:738  address public owner */\n    tag_20:\n      0x03\n      0x00\n      swap1\n      sload\n      swap1\n      0x0100\n      exp\n      swap1\n      div\n      0xffffffffffffffffffffffffffffffffffffffff\n      and\n      dup2\n      jump\t// out\n        /* \"test/FundMe.sol\":2513:4171  function getFund() external {... */\n    tag_25:\n        /* \"test/FundMe.sol\":624:637  10 * 10 ** 18 */\n      0x8ac7230489e80000\n        /* \"test/FundMe.sol\":2663:2701  convertEthToUsd(address(this).balance) */\n      tag_62\n        /* \"test/FundMe.sol\":2679:2700  address(this).balance */\n      selfbalance\n        /* \"test/FundMe.sol\":2663:2678  convertEthToUsd */\n      tag_41\n        /* \"test/FundMe.sol\":2663:2701  convertEthToUsd(address(this).balance) */\n      jump\t// in\n    tag_62:\n        /* \"test/FundMe.sol\":2663:2711  convertEthToUsd(address(this).balance) >= TARGET */\n      lt\n      iszero\n        /* \"test/FundMe.sol\":2655:2737  require(convertEthToUsd(address(this).balance) >= TARGET, \"Target is not reached\") */\n      tag_63\n      jumpi\n      mload(0x40)\n      0x08c379a000000000000000000000000000000000000000000000000000000000\n      dup2\n      mstore\n      0x04\n      add\n      tag_64\n      swap1\n      tag_65\n      jump\t// in\n    tag_64:\n      mload(0x40)\n      dup1\n      swap2\n      sub\n      swap1\n      revert\n    tag_63:\n        /* \"test/FundMe.sol\":2770:2775  owner */\n      0x03\n      0x00\n      swap1\n      sload\n      swap1\n      0x0100\n      exp\n      swap1\n      div\n      0xffffffffffffffffffffffffffffffffffffffff\n      and\n        /* \"test/FundMe.sol\":2756:2775  msg.sender == owner */\n      0xffffffffffffffffffffffffffffffffffffffff\n      and\n        /* \"test/FundMe.sol\":2756:2766  msg.sender */\n      caller\n        /* \"test/FundMe.sol\":2756:2775  msg.sender == owner */\n      0xffffffffffffffffffffffffffffffffffffffff\n      and\n      eq\n        /* \"test/FundMe.sol\":2748:2821  require(msg.sender == owner, \"this function can only be called by owner\") */\n      tag_66\n      jumpi\n      mload(0x40)\n      0x08c379a000000000000000000000000000000000000000000000000000000000\n      dup2\n      mstore\n      0x04\n      add\n      tag_67\n      swap1\n      tag_68\n      jump\t// in\n    tag_67:\n      mload(0x40)\n      dup1\n      swap2\n      sub\n      swap1\n      revert\n    tag_66:\n        /* \"test/FundMe.sol\":3976:3988  bool success */\n      0x00\n        /* \"test/FundMe.sol\":4021:4031  msg.sender */\n      caller\n        /* \"test/FundMe.sol\":4013:4037  payable(msg.sender).call */\n      0xffffffffffffffffffffffffffffffffffffffff\n      and\n        /* \"test/FundMe.sol\":4045:4066  address(this).balance */\n      selfbalance\n        /* \"test/FundMe.sol\":4013:4071  payable(msg.sender).call{value: address(this).balance}(\"\") */\n      mload(0x40)\n      tag_69\n      swap1\n      tag_49\n      jump\t// in\n    tag_69:\n      0x00\n      mload(0x40)\n      dup1\n      dup4\n      sub\n      dup2\n      dup6\n      dup8\n      gas\n      call\n      swap3\n      pop\n      pop\n      pop\n      returndatasize\n      dup1\n      0x00\n      dup2\n      eq\n      tag_72\n      jumpi\n      mload(0x40)\n      swap2\n      pop\n      and(add(returndatasize, 0x3f), not(0x1f))\n      dup3\n      add\n      0x40\n      mstore\n      returndatasize\n      dup3\n      mstore\n      returndatasize\n      0x00\n      0x20\n      dup5\n      add\n      returndatacopy\n      jump(tag_71)\n    tag_72:\n      0x60\n      swap2\n      pop\n    tag_71:\n      pop\n        /* \"test/FundMe.sol\":3999:4071  (success, ) = payable(msg.sender).call{value: address(this).balance}(\"\") */\n      pop\n      dup1\n      swap2\n      pop\n      pop\n        /* \"test/FundMe.sol\":4090:4097  success */\n      dup1\n        /* \"test/FundMe.sol\":4082:4121  require(success, \"transaction failed!\") */\n      tag_73\n      jumpi\n      mload(0x40)\n      0x08c379a000000000000000000000000000000000000000000000000000000000\n      dup2\n      mstore\n      0x04\n      add\n      tag_74\n      swap1\n      tag_55\n      jump\t// in\n    tag_74:\n      mload(0x40)\n      dup1\n      swap2\n      sub\n      swap1\n      revert\n    tag_73:\n        /* \"test/FundMe.sol\":4162:4163  0 */\n      0x00\n        /* \"test/FundMe.sol\":4132:4147  fundersToAmount */\n      0x01\n        /* \"test/FundMe.sol\":4132:4159  fundersToAmount[msg.sender] */\n      0x00\n        /* \"test/FundMe.sol\":4148:4158  msg.sender */\n      caller\n        /* \"test/FundMe.sol\":4132:4159  fundersToAmount[msg.sender] */\n      0xffffffffffffffffffffffffffffffffffffffff\n      and\n      0xffffffffffffffffffffffffffffffffffffffff\n      and\n      dup2\n      mstore\n      0x20\n      add\n      swap1\n      dup2\n      mstore\n      0x20\n      add\n      0x00\n      keccak256\n        /* \"test/FundMe.sol\":4132:4163  fundersToAmount[msg.sender] = 0 */\n      dup2\n      swap1\n      sstore\n      pop\n        /* \"test/FundMe.sol\":2541:4171  {... */\n      pop\n        /* \"test/FundMe.sol\":2513:4171  function getFund() external {... */\n      jump\t// out\n        /* \"test/FundMe.sol\":366:417  mapping (address => uint256) public fundersToAmount */\n    tag_30:\n      mstore(0x20, 0x01)\n      dup1\n      0x00\n      mstore\n      keccak256(0x00, 0x40)\n      0x00\n      swap2\n      pop\n      swap1\n      pop\n      sload\n      dup2\n      jump\t// out\n        /* \"test/FundMe.sol\":1195:1367  function fund() external payable {... */\n    tag_34:\n        /* \"test/FundMe.sol\":1277:1290  MINIMUM_VALUE */\n      sload(0x02)\n        /* \"test/FundMe.sol\":1247:1273  convertEthToUsd(msg.value) */\n      tag_76\n        /* \"test/FundMe.sol\":1263:1272  msg.value */\n      callvalue\n        /* \"test/FundMe.sol\":1247:1262  convertEthToUsd */\n      tag_41\n        /* \"test/FundMe.sol\":1247:1273  convertEthToUsd(msg.value) */\n      jump\t// in\n    tag_76:\n        /* \"test/FundMe.sol\":1247:1290  convertEthToUsd(msg.value) >= MINIMUM_VALUE */\n      lt\n      iszero\n        /* \"test/FundMe.sol\":1239:1308  require(convertEthToUsd(msg.value) >= MINIMUM_VALUE, \"send more ETH\") */\n      tag_77\n      jumpi\n      mload(0x40)\n      0x08c379a000000000000000000000000000000000000000000000000000000000\n      dup2\n      mstore\n      0x04\n      add\n      tag_78\n      swap1\n      tag_79\n      jump\t// in\n    tag_78:\n      mload(0x40)\n      dup1\n      swap2\n      sub\n      swap1\n      revert\n    tag_77:\n        /* \"test/FundMe.sol\":1350:1359  msg.value */\n      callvalue\n        /* \"test/FundMe.sol\":1319:1334  fundersToAmount */\n      0x01\n        /* \"test/FundMe.sol\":1319:1346  fundersToAmount[msg.sender] */\n      0x00\n        /* \"test/FundMe.sol\":1335:1345  msg.sender */\n      caller\n        /* \"test/FundMe.sol\":1319:1346  fundersToAmount[msg.sender] */\n      0xffffffffffffffffffffffffffffffffffffffff\n      and\n      0xffffffffffffffffffffffffffffffffffffffff\n      and\n      dup2\n      mstore\n      0x20\n      add\n      swap1\n      dup2\n      mstore\n      0x20\n      add\n      0x00\n      keccak256\n      0x00\n        /* \"test/FundMe.sol\":1319:1359  fundersToAmount[msg.sender] += msg.value */\n      dup3\n      dup3\n      sload\n      tag_80\n      swap2\n      swap1\n      tag_81\n      jump\t// in\n    tag_80:\n      swap3\n      pop\n      pop\n      dup2\n      swap1\n      sstore\n      pop\n        /* \"test/FundMe.sol\":1195:1367  function fund() external payable {... */\n      jump\t// out\n        /* \"test/FundMe.sol\":2265:2436  function transferOwnership(address newOwner) public {... */\n    tag_38:\n        /* \"test/FundMe.sol\":2350:2355  owner */\n      0x03\n      0x00\n      swap1\n      sload\n      swap1\n      0x0100\n      exp\n      swap1\n      div\n      0xffffffffffffffffffffffffffffffffffffffff\n      and\n        /* \"test/FundMe.sol\":2336:2355  msg.sender == owner */\n      0xffffffffffffffffffffffffffffffffffffffff\n      and\n        /* \"test/FundMe.sol\":2336:2346  msg.sender */\n      caller\n        /* \"test/FundMe.sol\":2336:2355  msg.sender == owner */\n      0xffffffffffffffffffffffffffffffffffffffff\n      and\n      eq\n        /* \"test/FundMe.sol\":2328:2401  require(msg.sender == owner, \"this function can only be called by owner\") */\n      tag_83\n      jumpi\n      mload(0x40)\n      0x08c379a000000000000000000000000000000000000000000000000000000000\n      dup2\n      mstore\n      0x04\n      add\n      tag_84\n      swap1\n      tag_68\n      jump\t// in\n    tag_84:\n      mload(0x40)\n      dup1\n      swap2\n      sub\n      swap1\n      revert\n    tag_83:\n        /* \"test/FundMe.sol\":2420:2428  newOwner */\n      dup1\n        /* \"test/FundMe.sol\":2412:2417  owner */\n      0x03\n      0x00\n        /* \"test/FundMe.sol\":2412:2428  owner = newOwner */\n      0x0100\n      exp\n      dup2\n      sload\n      dup2\n      0xffffffffffffffffffffffffffffffffffffffff\n      mul\n      not\n      and\n      swap1\n      dup4\n      0xffffffffffffffffffffffffffffffffffffffff\n      and\n      mul\n      or\n      swap1\n      sstore\n      pop\n        /* \"test/FundMe.sol\":2265:2436  function transferOwnership(address newOwner) public {... */\n      pop\n      jump\t// out\n        /* \"test/FundMe.sol\":1966:2169  function convertEthToUsd(uint ethAmount) internal view returns(uint256) {... */\n    tag_41:\n        /* \"test/FundMe.sol\":2029:2036  uint256 */\n      0x00\n        /* \"test/FundMe.sol\":2049:2065  uint256 ethPrice */\n      0x00\n        /* \"test/FundMe.sol\":2076:2110  getChainLinkDataFeedLatestAnswer() */\n      tag_86\n        /* \"test/FundMe.sol\":2076:2108  getChainLinkDataFeedLatestAnswer */\n      tag_15\n        /* \"test/FundMe.sol\":2076:2110  getChainLinkDataFeedLatestAnswer() */\n      jump\t// in\n    tag_86:\n        /* \"test/FundMe.sol\":2049:2111  uint256 ethPrice = uint256(getChainLinkDataFeedLatestAnswer()) */\n      swap1\n      pop\n        /* \"test/FundMe.sol\":2153:2160  10 ** 8 */\n      0x05f5e100\n        /* \"test/FundMe.sol\":2141:2149  ethPrice */\n      dup2\n        /* \"test/FundMe.sol\":2129:2138  ethAmount */\n      dup5\n        /* \"test/FundMe.sol\":2129:2149  ethAmount * ethPrice */\n      tag_87\n      swap2\n      swap1\n      tag_88\n      jump\t// in\n    tag_87:\n        /* \"test/FundMe.sol\":2129:2161  ethAmount * ethPrice / (10 ** 8) */\n      tag_89\n      swap2\n      swap1\n      tag_90\n      jump\t// in\n    tag_89:\n        /* \"test/FundMe.sol\":2122:2161  return ethAmount * ethPrice / (10 ** 8) */\n      swap2\n      pop\n      pop\n        /* \"test/FundMe.sol\":1966:2169  function convertEthToUsd(uint ethAmount) internal view returns(uint256) {... */\n      swap2\n      swap1\n      pop\n      jump\t// out\n        /* \"#utility.yul\":7:83   */\n    tag_91:\n        /* \"#utility.yul\":43:50   */\n      0x00\n        /* \"#utility.yul\":72:77   */\n      dup2\n        /* \"#utility.yul\":61:77   */\n      swap1\n      pop\n        /* \"#utility.yul\":7:83   */\n      swap2\n      swap1\n      pop\n      jump\t// out\n        /* \"#utility.yul\":89:204   */\n    tag_92:\n        /* \"#utility.yul\":174:197   */\n      tag_131\n        /* \"#utility.yul\":191:196   */\n      dup2\n        /* \"#utility.yul\":174:197   */\n      tag_91\n      jump\t// in\n    tag_131:\n        /* \"#utility.yul\":169:172   */\n      dup3\n        /* \"#utility.yul\":162:198   */\n      mstore\n        /* \"#utility.yul\":89:204   */\n      pop\n      pop\n      jump\t// out\n        /* \"#utility.yul\":210:428   */\n    tag_17:\n        /* \"#utility.yul\":301:305   */\n      0x00\n        /* \"#utility.yul\":339:341   */\n      0x20\n        /* \"#utility.yul\":328:337   */\n      dup3\n        /* \"#utility.yul\":324:342   */\n      add\n        /* \"#utility.yul\":316:342   */\n      swap1\n      pop\n        /* \"#utility.yul\":352:421   */\n      tag_133\n        /* \"#utility.yul\":418:419   */\n      0x00\n        /* \"#utility.yul\":407:416   */\n      dup4\n        /* \"#utility.yul\":403:420   */\n      add\n        /* \"#utility.yul\":394:400   */\n      dup5\n        /* \"#utility.yul\":352:421   */\n      tag_92\n      jump\t// in\n    tag_133:\n        /* \"#utility.yul\":210:428   */\n      swap3\n      swap2\n      pop\n      pop\n      jump\t// out\n        /* \"#utility.yul\":434:560   */\n    tag_93:\n        /* \"#utility.yul\":471:478   */\n      0x00\n        /* \"#utility.yul\":511:553   */\n      0xffffffffffffffffffffffffffffffffffffffff\n        /* \"#utility.yul\":504:509   */\n      dup3\n        /* \"#utility.yul\":500:554   */\n      and\n        /* \"#utility.yul\":489:554   */\n      swap1\n      pop\n        /* \"#utility.yul\":434:560   */\n      swap2\n      swap1\n      pop\n      jump\t// out\n        /* \"#utility.yul\":566:662   */\n    tag_94:\n        /* \"#utility.yul\":603:610   */\n      0x00\n        /* \"#utility.yul\":632:656   */\n      tag_136\n        /* \"#utility.yul\":650:655   */\n      dup3\n        /* \"#utility.yul\":632:656   */\n      tag_93\n      jump\t// in\n    tag_136:\n        /* \"#utility.yul\":621:656   */\n      swap1\n      pop\n        /* \"#utility.yul\":566:662   */\n      swap2\n      swap1\n      pop\n      jump\t// out\n        /* \"#utility.yul\":668:786   */\n    tag_95:\n        /* \"#utility.yul\":755:779   */\n      tag_138\n        /* \"#utility.yul\":773:778   */\n      dup2\n        /* \"#utility.yul\":755:779   */\n      tag_94\n      jump\t// in\n    tag_138:\n        /* \"#utility.yul\":750:753   */\n      dup3\n        /* \"#utility.yul\":743:780   */\n      mstore\n        /* \"#utility.yul\":668:786   */\n      pop\n      pop\n      jump\t// out\n        /* \"#utility.yul\":792:1014   */\n    tag_22:\n        /* \"#utility.yul\":885:889   */\n      0x00\n        /* \"#utility.yul\":923:925   */\n      0x20\n        /* \"#utility.yul\":912:921   */\n      dup3\n        /* \"#utility.yul\":908:926   */\n      add\n        /* \"#utility.yul\":900:926   */\n      swap1\n      pop\n        /* \"#utility.yul\":936:1007   */\n      tag_140\n        /* \"#utility.yul\":1004:1005   */\n      0x00\n        /* \"#utility.yul\":993:1002   */\n      dup4\n        /* \"#utility.yul\":989:1006   */\n      add\n        /* \"#utility.yul\":980:986   */\n      dup5\n        /* \"#utility.yul\":936:1007   */\n      tag_95\n      jump\t// in\n    tag_140:\n        /* \"#utility.yul\":792:1014   */\n      swap3\n      swap2\n      pop\n      pop\n      jump\t// out\n        /* \"#utility.yul\":1101:1218   */\n    tag_97:\n        /* \"#utility.yul\":1210:1211   */\n      0x00\n        /* \"#utility.yul\":1207:1208   */\n      0x00\n        /* \"#utility.yul\":1200:1212   */\n      revert\n        /* \"#utility.yul\":1347:1469   */\n    tag_99:\n        /* \"#utility.yul\":1420:1444   */\n      tag_145\n        /* \"#utility.yul\":1438:1443   */\n      dup2\n        /* \"#utility.yul\":1420:1444   */\n      tag_94\n      jump\t// in\n    tag_145:\n        /* \"#utility.yul\":1413:1418   */\n      dup2\n        /* \"#utility.yul\":1410:1445   */\n      eq\n        /* \"#utility.yul\":1400:1463   */\n      tag_146\n      jumpi\n        /* \"#utility.yul\":1459:1460   */\n      0x00\n        /* \"#utility.yul\":1456:1457   */\n      0x00\n        /* \"#utility.yul\":1449:1461   */\n      revert\n        /* \"#utility.yul\":1400:1463   */\n    tag_146:\n        /* \"#utility.yul\":1347:1469   */\n      pop\n      jump\t// out\n        /* \"#utility.yul\":1475:1614   */\n    tag_100:\n        /* \"#utility.yul\":1521:1526   */\n      0x00\n        /* \"#utility.yul\":1559:1565   */\n      dup2\n        /* \"#utility.yul\":1546:1566   */\n      calldataload\n        /* \"#utility.yul\":1537:1566   */\n      swap1\n      pop\n        /* \"#utility.yul\":1575:1608   */\n      tag_148\n        /* \"#utility.yul\":1602:1607   */\n      dup2\n        /* \"#utility.yul\":1575:1608   */\n      tag_99\n      jump\t// in\n    tag_148:\n        /* \"#utility.yul\":1475:1614   */\n      swap3\n      swap2\n      pop\n      pop\n      jump\t// out\n        /* \"#utility.yul\":1620:1949   */\n    tag_29:\n        /* \"#utility.yul\":1679:1685   */\n      0x00\n        /* \"#utility.yul\":1728:1730   */\n      0x20\n        /* \"#utility.yul\":1716:1725   */\n      dup3\n        /* \"#utility.yul\":1707:1714   */\n      dup5\n        /* \"#utility.yul\":1703:1726   */\n      sub\n        /* \"#utility.yul\":1699:1731   */\n      slt\n        /* \"#utility.yul\":1696:1815   */\n      iszero\n      tag_150\n      jumpi\n        /* \"#utility.yul\":1734:1813   */\n      tag_151\n      tag_97\n      jump\t// in\n    tag_151:\n        /* \"#utility.yul\":1696:1815   */\n    tag_150:\n        /* \"#utility.yul\":1854:1855   */\n      0x00\n        /* \"#utility.yul\":1879:1932   */\n      tag_152\n        /* \"#utility.yul\":1924:1931   */\n      dup5\n        /* \"#utility.yul\":1915:1921   */\n      dup3\n        /* \"#utility.yul\":1904:1913   */\n      dup6\n        /* \"#utility.yul\":1900:1922   */\n      add\n        /* \"#utility.yul\":1879:1932   */\n      tag_100\n      jump\t// in\n    tag_152:\n        /* \"#utility.yul\":1869:1932   */\n      swap2\n      pop\n        /* \"#utility.yul\":1825:1942   */\n      pop\n        /* \"#utility.yul\":1620:1949   */\n      swap3\n      swap2\n      pop\n      pop\n      jump\t// out\n        /* \"#utility.yul\":1955:2032   */\n    tag_101:\n        /* \"#utility.yul\":1992:1999   */\n      0x00\n        /* \"#utility.yul\":2021:2026   */\n      dup2\n        /* \"#utility.yul\":2010:2026   */\n      swap1\n      pop\n        /* \"#utility.yul\":1955:2032   */\n      swap2\n      swap1\n      pop\n      jump\t// out\n        /* \"#utility.yul\":2038:2156   */\n    tag_102:\n        /* \"#utility.yul\":2125:2149   */\n      tag_155\n        /* \"#utility.yul\":2143:2148   */\n      dup2\n        /* \"#utility.yul\":2125:2149   */\n      tag_101\n      jump\t// in\n    tag_155:\n        /* \"#utility.yul\":2120:2123   */\n      dup3\n        /* \"#utility.yul\":2113:2150   */\n      mstore\n        /* \"#utility.yul\":2038:2156   */\n      pop\n      pop\n      jump\t// out\n        /* \"#utility.yul\":2162:2384   */\n    tag_32:\n        /* \"#utility.yul\":2255:2259   */\n      0x00\n        /* \"#utility.yul\":2293:2295   */\n      0x20\n        /* \"#utility.yul\":2282:2291   */\n      dup3\n        /* \"#utility.yul\":2278:2296   */\n      add\n        /* \"#utility.yul\":2270:2296   */\n      swap1\n      pop\n        /* \"#utility.yul\":2306:2377   */\n      tag_157\n        /* \"#utility.yul\":2374:2375   */\n      0x00\n        /* \"#utility.yul\":2363:2372   */\n      dup4\n        /* \"#utility.yul\":2359:2376   */\n      add\n        /* \"#utility.yul\":2350:2356   */\n      dup5\n        /* \"#utility.yul\":2306:2377   */\n      tag_102\n      jump\t// in\n    tag_157:\n        /* \"#utility.yul\":2162:2384   */\n      swap3\n      swap2\n      pop\n      pop\n      jump\t// out\n        /* \"#utility.yul\":2390:2559   */\n    tag_103:\n        /* \"#utility.yul\":2474:2485   */\n      0x00\n        /* \"#utility.yul\":2508:2514   */\n      dup3\n        /* \"#utility.yul\":2503:2506   */\n      dup3\n        /* \"#utility.yul\":2496:2515   */\n      mstore\n        /* \"#utility.yul\":2548:2552   */\n      0x20\n        /* \"#utility.yul\":2543:2546   */\n      dup3\n        /* \"#utility.yul\":2539:2553   */\n      add\n        /* \"#utility.yul\":2524:2553   */\n      swap1\n      pop\n        /* \"#utility.yul\":2390:2559   */\n      swap3\n      swap2\n      pop\n      pop\n      jump\t// out\n        /* \"#utility.yul\":2565:2732   */\n    tag_104:\n        /* \"#utility.yul\":2705:2724   */\n      0x5461726765742069732072656163686564000000000000000000000000000000\n        /* \"#utility.yul\":2701:2702   */\n      0x00\n        /* \"#utility.yul\":2693:2699   */\n      dup3\n        /* \"#utility.yul\":2689:2703   */\n      add\n        /* \"#utility.yul\":2682:2725   */\n      mstore\n        /* \"#utility.yul\":2565:2732   */\n      pop\n      jump\t// out\n        /* \"#utility.yul\":2738:3104   */\n    tag_105:\n        /* \"#utility.yul\":2880:2883   */\n      0x00\n        /* \"#utility.yul\":2901:2968   */\n      tag_161\n        /* \"#utility.yul\":2965:2967   */\n      0x11\n        /* \"#utility.yul\":2960:2963   */\n      dup4\n        /* \"#utility.yul\":2901:2968   */\n      tag_103\n      jump\t// in\n    tag_161:\n        /* \"#utility.yul\":2894:2968   */\n      swap2\n      pop\n        /* \"#utility.yul\":2977:3070   */\n      tag_162\n        /* \"#utility.yul\":3066:3069   */\n      dup3\n        /* \"#utility.yul\":2977:3070   */\n      tag_104\n      jump\t// in\n    tag_162:\n        /* \"#utility.yul\":3095:3097   */\n      0x20\n        /* \"#utility.yul\":3090:3093   */\n      dup3\n        /* \"#utility.yul\":3086:3098   */\n      add\n        /* \"#utility.yul\":3079:3098   */\n      swap1\n      pop\n        /* \"#utility.yul\":2738:3104   */\n      swap2\n      swap1\n      pop\n      jump\t// out\n        /* \"#utility.yul\":3110:3529   */\n    tag_44:\n        /* \"#utility.yul\":3276:3280   */\n      0x00\n        /* \"#utility.yul\":3314:3316   */\n      0x20\n        /* \"#utility.yul\":3303:3312   */\n      dup3\n        /* \"#utility.yul\":3299:3317   */\n      add\n        /* \"#utility.yul\":3291:3317   */\n      swap1\n      pop\n        /* \"#utility.yul\":3363:3372   */\n      dup2\n        /* \"#utility.yul\":3357:3361   */\n      dup2\n        /* \"#utility.yul\":3353:3373   */\n      sub\n        /* \"#utility.yul\":3349:3350   */\n      0x00\n        /* \"#utility.yul\":3338:3347   */\n      dup4\n        /* \"#utility.yul\":3334:3351   */\n      add\n        /* \"#utility.yul\":3327:3374   */\n      mstore\n        /* \"#utility.yul\":3391:3522   */\n      tag_164\n        /* \"#utility.yul\":3517:3521   */\n      dup2\n        /* \"#utility.yul\":3391:3522   */\n      tag_105\n      jump\t// in\n    tag_164:\n        /* \"#utility.yul\":3383:3522   */\n      swap1\n      pop\n        /* \"#utility.yul\":3110:3529   */\n      swap2\n      swap1\n      pop\n      jump\t// out\n        /* \"#utility.yul\":3535:3709   */\n    tag_106:\n        /* \"#utility.yul\":3675:3701   */\n      0x7468657265206973206e6f2066756e6420666f7220796f750000000000000000\n        /* \"#utility.yul\":3671:3672   */\n      0x00\n        /* \"#utility.yul\":3663:3669   */\n      dup3\n        /* \"#utility.yul\":3659:3673   */\n      add\n        /* \"#utility.yul\":3652:3702   */\n      mstore\n        /* \"#utility.yul\":3535:3709   */\n      pop\n      jump\t// out\n        /* \"#utility.yul\":3715:4081   */\n    tag_107:\n        /* \"#utility.yul\":3857:3860   */\n      0x00\n        /* \"#utility.yul\":3878:3945   */\n      tag_167\n        /* \"#utility.yul\":3942:3944   */\n      0x18\n        /* \"#utility.yul\":3937:3940   */\n      dup4\n        /* \"#utility.yul\":3878:3945   */\n      tag_103\n      jump\t// in\n    tag_167:\n        /* \"#utility.yul\":3871:3945   */\n      swap2\n      pop\n        /* \"#utility.yul\":3954:4047   */\n      tag_168\n        /* \"#utility.yul\":4043:4046   */\n      dup3\n        /* \"#utility.yul\":3954:4047   */\n      tag_106\n      jump\t// in\n    tag_168:\n        /* \"#utility.yul\":4072:4074   */\n      0x20\n        /* \"#utility.yul\":4067:4070   */\n      dup3\n        /* \"#utility.yul\":4063:4075   */\n      add\n        /* \"#utility.yul\":4056:4075   */\n      swap1\n      pop\n        /* \"#utility.yul\":3715:4081   */\n      swap2\n      swap1\n      pop\n      jump\t// out\n        /* \"#utility.yul\":4087:4506   */\n    tag_47:\n        /* \"#utility.yul\":4253:4257   */\n      0x00\n        /* \"#utility.yul\":4291:4293   */\n      0x20\n        /* \"#utility.yul\":4280:4289   */\n      dup3\n        /* \"#utility.yul\":4276:4294   */\n      add\n        /* \"#utility.yul\":4268:4294   */\n      swap1\n      pop\n        /* \"#utility.yul\":4340:4349   */\n      dup2\n        /* \"#utility.yul\":4334:4338   */\n      dup2\n        /* \"#utility.yul\":4330:4350   */\n      sub\n        /* \"#utility.yul\":4326:4327   */\n      0x00\n        /* \"#utility.yul\":4315:4324   */\n      dup4\n        /* \"#utility.yul\":4311:4328   */\n      add\n        /* \"#utility.yul\":4304:4351   */\n      mstore\n        /* \"#utility.yul\":4368:4499   */\n      tag_170\n        /* \"#utility.yul\":4494:4498   */\n      dup2\n        /* \"#utility.yul\":4368:4499   */\n      tag_107\n      jump\t// in\n    tag_170:\n        /* \"#utility.yul\":4360:4499   */\n      swap1\n      pop\n        /* \"#utility.yul\":4087:4506   */\n      swap2\n      swap1\n      pop\n      jump\t// out\n        /* \"#utility.yul\":4512:4659   */\n    tag_108:\n        /* \"#utility.yul\":4613:4624   */\n      0x00\n        /* \"#utility.yul\":4650:4653   */\n      dup2\n        /* \"#utility.yul\":4635:4653   */\n      swap1\n      pop\n        /* \"#utility.yul\":4512:4659   */\n      swap3\n      swap2\n      pop\n      pop\n      jump\t// out\n        /* \"#utility.yul\":4665:4779   */\n    tag_109:\n      pop\n      jump\t// out\n        /* \"#utility.yul\":4785:5183   */\n    tag_110:\n        /* \"#utility.yul\":4944:4947   */\n      0x00\n        /* \"#utility.yul\":4965:5048   */\n      tag_174\n        /* \"#utility.yul\":5046:5047   */\n      0x00\n        /* \"#utility.yul\":5041:5044   */\n      dup4\n        /* \"#utility.yul\":4965:5048   */\n      tag_108\n      jump\t// in\n    tag_174:\n        /* \"#utility.yul\":4958:5048   */\n      swap2\n      pop\n        /* \"#utility.yul\":5057:5150   */\n      tag_175\n        /* \"#utility.yul\":5146:5149   */\n      dup3\n        /* \"#utility.yul\":5057:5150   */\n      tag_109\n      jump\t// in\n    tag_175:\n        /* \"#utility.yul\":5175:5176   */\n      0x00\n        /* \"#utility.yul\":5170:5173   */\n      dup3\n        /* \"#utility.yul\":5166:5177   */\n      add\n        /* \"#utility.yul\":5159:5177   */\n      swap1\n      pop\n        /* \"#utility.yul\":4785:5183   */\n      swap2\n      swap1\n      pop\n      jump\t// out\n        /* \"#utility.yul\":5189:5568   */\n    tag_49:\n        /* \"#utility.yul\":5373:5376   */\n      0x00\n        /* \"#utility.yul\":5395:5542   */\n      tag_177\n        /* \"#utility.yul\":5538:5541   */\n      dup3\n        /* \"#utility.yul\":5395:5542   */\n      tag_110\n      jump\t// in\n    tag_177:\n        /* \"#utility.yul\":5388:5542   */\n      swap2\n      pop\n        /* \"#utility.yul\":5559:5562   */\n      dup2\n        /* \"#utility.yul\":5552:5562   */\n      swap1\n      pop\n        /* \"#utility.yul\":5189:5568   */\n      swap2\n      swap1\n      pop\n      jump\t// out\n        /* \"#utility.yul\":5574:5743   */\n    tag_111:\n        /* \"#utility.yul\":5714:5735   */\n      0x7472616e73616374696f6e206661696c65642100000000000000000000000000\n        /* \"#utility.yul\":5710:5711   */\n      0x00\n        /* \"#utility.yul\":5702:5708   */\n      dup3\n        /* \"#utility.yul\":5698:5712   */\n      add\n        /* \"#utility.yul\":5691:5736   */\n      mstore\n        /* \"#utility.yul\":5574:5743   */\n      pop\n      jump\t// out\n        /* \"#utility.yul\":5749:6115   */\n    tag_112:\n        /* \"#utility.yul\":5891:5894   */\n      0x00\n        /* \"#utility.yul\":5912:5979   */\n      tag_180\n        /* \"#utility.yul\":5976:5978   */\n      0x13\n        /* \"#utility.yul\":5971:5974   */\n      dup4\n        /* \"#utility.yul\":5912:5979   */\n      tag_103\n      jump\t// in\n    tag_180:\n        /* \"#utility.yul\":5905:5979   */\n      swap2\n      pop\n        /* \"#utility.yul\":5988:6081   */\n      tag_181\n        /* \"#utility.yul\":6077:6080   */\n      dup3\n        /* \"#utility.yul\":5988:6081   */\n      tag_111\n      jump\t// in\n    tag_181:\n        /* \"#utility.yul\":6106:6108   */\n      0x20\n        /* \"#utility.yul\":6101:6104   */\n      dup3\n        /* \"#utility.yul\":6097:6109   */\n      add\n        /* \"#utility.yul\":6090:6109   */\n      swap1\n      pop\n        /* \"#utility.yul\":5749:6115   */\n      swap2\n      swap1\n      pop\n      jump\t// out\n        /* \"#utility.yul\":6121:6540   */\n    tag_55:\n        /* \"#utility.yul\":6287:6291   */\n      0x00\n        /* \"#utility.yul\":6325:6327   */\n      0x20\n        /* \"#utility.yul\":6314:6323   */\n      dup3\n        /* \"#utility.yul\":6310:6328   */\n      add\n        /* \"#utility.yul\":6302:6328   */\n      swap1\n      pop\n        /* \"#utility.yul\":6374:6383   */\n      dup2\n        /* \"#utility.yul\":6368:6372   */\n      dup2\n        /* \"#utility.yul\":6364:6384   */\n      sub\n        /* \"#utility.yul\":6360:6361   */\n      0x00\n        /* \"#utility.yul\":6349:6358   */\n      dup4\n        /* \"#utility.yul\":6345:6362   */\n      add\n        /* \"#utility.yul\":6338:6385   */\n      mstore\n        /* \"#utility.yul\":6402:6533   */\n      tag_183\n        /* \"#utility.yul\":6528:6532   */\n      dup2\n        /* \"#utility.yul\":6402:6533   */\n      tag_112\n      jump\t// in\n    tag_183:\n        /* \"#utility.yul\":6394:6533   */\n      swap1\n      pop\n        /* \"#utility.yul\":6121:6540   */\n      swap2\n      swap1\n      pop\n      jump\t// out\n        /* \"#utility.yul\":6546:6651   */\n    tag_113:\n        /* \"#utility.yul\":6582:6589   */\n      0x00\n        /* \"#utility.yul\":6622:6644   */\n      0xffffffffffffffffffff\n        /* \"#utility.yul\":6615:6620   */\n      dup3\n        /* \"#utility.yul\":6611:6645   */\n      and\n        /* \"#utility.yul\":6600:6645   */\n      swap1\n      pop\n        /* \"#utility.yul\":6546:6651   */\n      swap2\n      swap1\n      pop\n      jump\t// out\n        /* \"#utility.yul\":6657:6777   */\n    tag_114:\n        /* \"#utility.yul\":6729:6752   */\n      tag_186\n        /* \"#utility.yul\":6746:6751   */\n      dup2\n        /* \"#utility.yul\":6729:6752   */\n      tag_113\n      jump\t// in\n    tag_186:\n        /* \"#utility.yul\":6722:6727   */\n      dup2\n        /* \"#utility.yul\":6719:6753   */\n      eq\n        /* \"#utility.yul\":6709:6771   */\n      tag_187\n      jumpi\n        /* \"#utility.yul\":6767:6768   */\n      0x00\n        /* \"#utility.yul\":6764:6765   */\n      0x00\n        /* \"#utility.yul\":6757:6769   */\n      revert\n        /* \"#utility.yul\":6709:6771   */\n    tag_187:\n        /* \"#utility.yul\":6657:6777   */\n      pop\n      jump\t// out\n        /* \"#utility.yul\":6783:6924   */\n    tag_115:\n        /* \"#utility.yul\":6839:6844   */\n      0x00\n        /* \"#utility.yul\":6870:6876   */\n      dup2\n        /* \"#utility.yul\":6864:6877   */\n      mload\n        /* \"#utility.yul\":6855:6877   */\n      swap1\n      pop\n        /* \"#utility.yul\":6886:6918   */\n      tag_189\n        /* \"#utility.yul\":6912:6917   */\n      dup2\n        /* \"#utility.yul\":6886:6918   */\n      tag_114\n      jump\t// in\n    tag_189:\n        /* \"#utility.yul\":6783:6924   */\n      swap3\n      swap2\n      pop\n      pop\n      jump\t// out\n        /* \"#utility.yul\":6930:7050   */\n    tag_116:\n        /* \"#utility.yul\":7002:7025   */\n      tag_191\n        /* \"#utility.yul\":7019:7024   */\n      dup2\n        /* \"#utility.yul\":7002:7025   */\n      tag_91\n      jump\t// in\n    tag_191:\n        /* \"#utility.yul\":6995:7000   */\n      dup2\n        /* \"#utility.yul\":6992:7026   */\n      eq\n        /* \"#utility.yul\":6982:7044   */\n      tag_192\n      jumpi\n        /* \"#utility.yul\":7040:7041   */\n      0x00\n        /* \"#utility.yul\":7037:7038   */\n      0x00\n        /* \"#utility.yul\":7030:7042   */\n      revert\n        /* \"#utility.yul\":6982:7044   */\n    tag_192:\n        /* \"#utility.yul\":6930:7050   */\n      pop\n      jump\t// out\n        /* \"#utility.yul\":7056:7197   */\n    tag_117:\n        /* \"#utility.yul\":7112:7117   */\n      0x00\n        /* \"#utility.yul\":7143:7149   */\n      dup2\n        /* \"#utility.yul\":7137:7150   */\n      mload\n        /* \"#utility.yul\":7128:7150   */\n      swap1\n      pop\n        /* \"#utility.yul\":7159:7191   */\n      tag_194\n        /* \"#utility.yul\":7185:7190   */\n      dup2\n        /* \"#utility.yul\":7159:7191   */\n      tag_116\n      jump\t// in\n    tag_194:\n        /* \"#utility.yul\":7056:7197   */\n      swap3\n      swap2\n      pop\n      pop\n      jump\t// out\n        /* \"#utility.yul\":7203:7325   */\n    tag_118:\n        /* \"#utility.yul\":7276:7300   */\n      tag_196\n        /* \"#utility.yul\":7294:7299   */\n      dup2\n        /* \"#utility.yul\":7276:7300   */\n      tag_101\n      jump\t// in\n    tag_196:\n        /* \"#utility.yul\":7269:7274   */\n      dup2\n        /* \"#utility.yul\":7266:7301   */\n      eq\n        /* \"#utility.yul\":7256:7319   */\n      tag_197\n      jumpi\n        /* \"#utility.yul\":7315:7316   */\n      0x00\n        /* \"#utility.yul\":7312:7313   */\n      0x00\n        /* \"#utility.yul\":7305:7317   */\n      revert\n        /* \"#utility.yul\":7256:7319   */\n    tag_197:\n        /* \"#utility.yul\":7203:7325   */\n      pop\n      jump\t// out\n        /* \"#utility.yul\":7331:7474   */\n    tag_119:\n        /* \"#utility.yul\":7388:7393   */\n      0x00\n        /* \"#utility.yul\":7419:7425   */\n      dup2\n        /* \"#utility.yul\":7413:7426   */\n      mload\n        /* \"#utility.yul\":7404:7426   */\n      swap1\n      pop\n        /* \"#utility.yul\":7435:7468   */\n      tag_199\n        /* \"#utility.yul\":7462:7467   */\n      dup2\n        /* \"#utility.yul\":7435:7468   */\n      tag_118\n      jump\t// in\n    tag_199:\n        /* \"#utility.yul\":7331:7474   */\n      swap3\n      swap2\n      pop\n      pop\n      jump\t// out\n        /* \"#utility.yul\":7480:8451   */\n    tag_60:\n        /* \"#utility.yul\":7583:7589   */\n      0x00\n        /* \"#utility.yul\":7591:7597   */\n      0x00\n        /* \"#utility.yul\":7599:7605   */\n      0x00\n        /* \"#utility.yul\":7607:7613   */\n      0x00\n        /* \"#utility.yul\":7615:7621   */\n      0x00\n        /* \"#utility.yul\":7664:7667   */\n      0xa0\n        /* \"#utility.yul\":7652:7661   */\n      dup7\n        /* \"#utility.yul\":7643:7650   */\n      dup9\n        /* \"#utility.yul\":7639:7662   */\n      sub\n        /* \"#utility.yul\":7635:7668   */\n      slt\n        /* \"#utility.yul\":7632:7752   */\n      iszero\n      tag_201\n      jumpi\n        /* \"#utility.yul\":7671:7750   */\n      tag_202\n      tag_97\n      jump\t// in\n    tag_202:\n        /* \"#utility.yul\":7632:7752   */\n    tag_201:\n        /* \"#utility.yul\":7791:7792   */\n      0x00\n        /* \"#utility.yul\":7816:7879   */\n      tag_203\n        /* \"#utility.yul\":7871:7878   */\n      dup9\n        /* \"#utility.yul\":7862:7868   */\n      dup3\n        /* \"#utility.yul\":7851:7860   */\n      dup10\n        /* \"#utility.yul\":7847:7869   */\n      add\n        /* \"#utility.yul\":7816:7879   */\n      tag_115\n      jump\t// in\n    tag_203:\n        /* \"#utility.yul\":7806:7879   */\n      swap6\n      pop\n        /* \"#utility.yul\":7762:7889   */\n      pop\n        /* \"#utility.yul\":7928:7930   */\n      0x20\n        /* \"#utility.yul\":7954:8017   */\n      tag_204\n        /* \"#utility.yul\":8009:8016   */\n      dup9\n        /* \"#utility.yul\":8000:8006   */\n      dup3\n        /* \"#utility.yul\":7989:7998   */\n      dup10\n        /* \"#utility.yul\":7985:8007   */\n      add\n        /* \"#utility.yul\":7954:8017   */\n      tag_117\n      jump\t// in\n    tag_204:\n        /* \"#utility.yul\":7944:8017   */\n      swap5\n      pop\n        /* \"#utility.yul\":7899:8027   */\n      pop\n        /* \"#utility.yul\":8066:8068   */\n      0x40\n        /* \"#utility.yul\":8092:8156   */\n      tag_205\n        /* \"#utility.yul\":8148:8155   */\n      dup9\n        /* \"#utility.yul\":8139:8145   */\n      dup3\n        /* \"#utility.yul\":8128:8137   */\n      dup10\n        /* \"#utility.yul\":8124:8146   */\n      add\n        /* \"#utility.yul\":8092:8156   */\n      tag_119\n      jump\t// in\n    tag_205:\n        /* \"#utility.yul\":8082:8156   */\n      swap4\n      pop\n        /* \"#utility.yul\":8037:8166   */\n      pop\n        /* \"#utility.yul\":8205:8207   */\n      0x60\n        /* \"#utility.yul\":8231:8295   */\n      tag_206\n        /* \"#utility.yul\":8287:8294   */\n      dup9\n        /* \"#utility.yul\":8278:8284   */\n      dup3\n        /* \"#utility.yul\":8267:8276   */\n      dup10\n        /* \"#utility.yul\":8263:8285   */\n      add\n        /* \"#utility.yul\":8231:8295   */\n      tag_119\n      jump\t// in\n    tag_206:\n        /* \"#utility.yul\":8221:8295   */\n      swap3\n      pop\n        /* \"#utility.yul\":8176:8305   */\n      pop\n        /* \"#utility.yul\":8344:8347   */\n      0x80\n        /* \"#utility.yul\":8371:8434   */\n      tag_207\n        /* \"#utility.yul\":8426:8433   */\n      dup9\n        /* \"#utility.yul\":8417:8423   */\n      dup3\n        /* \"#utility.yul\":8406:8415   */\n      dup10\n        /* \"#utility.yul\":8402:8424   */\n      add\n        /* \"#utility.yul\":8371:8434   */\n      tag_115\n      jump\t// in\n    tag_207:\n        /* \"#utility.yul\":8361:8434   */\n      swap2\n      pop\n        /* \"#utility.yul\":8315:8444   */\n      pop\n        /* \"#utility.yul\":7480:8451   */\n      swap3\n      swap6\n      pop\n      swap3\n      swap6\n      swap1\n      swap4\n      pop\n      jump\t// out\n        /* \"#utility.yul\":8457:8628   */\n    tag_120:\n        /* \"#utility.yul\":8597:8620   */\n      0x546172676574206973206e6f7420726561636865640000000000000000000000\n        /* \"#utility.yul\":8593:8594   */\n      0x00\n        /* \"#utility.yul\":8585:8591   */\n      dup3\n        /* \"#utility.yul\":8581:8595   */\n      add\n        /* \"#utility.yul\":8574:8621   */\n      mstore\n        /* \"#utility.yul\":8457:8628   */\n      pop\n      jump\t// out\n        /* \"#utility.yul\":8634:9000   */\n    tag_121:\n        /* \"#utility.yul\":8776:8779   */\n      0x00\n        /* \"#utility.yul\":8797:8864   */\n      tag_210\n        /* \"#utility.yul\":8861:8863   */\n      0x15\n        /* \"#utility.yul\":8856:8859   */\n      dup4\n        /* \"#utility.yul\":8797:8864   */\n      tag_103\n      jump\t// in\n    tag_210:\n        /* \"#utility.yul\":8790:8864   */\n      swap2\n      pop\n        /* \"#utility.yul\":8873:8966   */\n      tag_211\n        /* \"#utility.yul\":8962:8965   */\n      dup3\n        /* \"#utility.yul\":8873:8966   */\n      tag_120\n      jump\t// in\n    tag_211:\n        /* \"#utility.yul\":8991:8993   */\n      0x20\n        /* \"#utility.yul\":8986:8989   */\n      dup3\n        /* \"#utility.yul\":8982:8994   */\n      add\n        /* \"#utility.yul\":8975:8994   */\n      swap1\n      pop\n        /* \"#utility.yul\":8634:9000   */\n      swap2\n      swap1\n      pop\n      jump\t// out\n        /* \"#utility.yul\":9006:9425   */\n    tag_65:\n        /* \"#utility.yul\":9172:9176   */\n      0x00\n        /* \"#utility.yul\":9210:9212   */\n      0x20\n        /* \"#utility.yul\":9199:9208   */\n      dup3\n        /* \"#utility.yul\":9195:9213   */\n      add\n        /* \"#utility.yul\":9187:9213   */\n      swap1\n      pop\n        /* \"#utility.yul\":9259:9268   */\n      dup2\n        /* \"#utility.yul\":9253:9257   */\n      dup2\n        /* \"#utility.yul\":9249:9269   */\n      sub\n        /* \"#utility.yul\":9245:9246   */\n      0x00\n        /* \"#utility.yul\":9234:9243   */\n      dup4\n        /* \"#utility.yul\":9230:9247   */\n      add\n        /* \"#utility.yul\":9223:9270   */\n      mstore\n        /* \"#utility.yul\":9287:9418   */\n      tag_213\n        /* \"#utility.yul\":9413:9417   */\n      dup2\n        /* \"#utility.yul\":9287:9418   */\n      tag_121\n      jump\t// in\n    tag_213:\n        /* \"#utility.yul\":9279:9418   */\n      swap1\n      pop\n        /* \"#utility.yul\":9006:9425   */\n      swap2\n      swap1\n      pop\n      jump\t// out\n        /* \"#utility.yul\":9431:9659   */\n    tag_122:\n        /* \"#utility.yul\":9571:9605   */\n      0x746869732066756e6374696f6e2063616e206f6e6c792062652063616c6c6564\n        /* \"#utility.yul\":9567:9568   */\n      0x00\n        /* \"#utility.yul\":9559:9565   */\n      dup3\n        /* \"#utility.yul\":9555:9569   */\n      add\n        /* \"#utility.yul\":9548:9606   */\n      mstore\n        /* \"#utility.yul\":9640:9651   */\n      0x206279206f776e65720000000000000000000000000000000000000000000000\n        /* \"#utility.yul\":9635:9637   */\n      0x20\n        /* \"#utility.yul\":9627:9633   */\n      dup3\n        /* \"#utility.yul\":9623:9638   */\n      add\n        /* \"#utility.yul\":9616:9652   */\n      mstore\n        /* \"#utility.yul\":9431:9659   */\n      pop\n      jump\t// out\n        /* \"#utility.yul\":9665:10031   */\n    tag_123:\n        /* \"#utility.yul\":9807:9810   */\n      0x00\n        /* \"#utility.yul\":9828:9895   */\n      tag_216\n        /* \"#utility.yul\":9892:9894   */\n      0x29\n        /* \"#utility.yul\":9887:9890   */\n      dup4\n        /* \"#utility.yul\":9828:9895   */\n      tag_103\n      jump\t// in\n    tag_216:\n        /* \"#utility.yul\":9821:9895   */\n      swap2\n      pop\n        /* \"#utility.yul\":9904:9997   */\n      tag_217\n        /* \"#utility.yul\":9993:9996   */\n      dup3\n        /* \"#utility.yul\":9904:9997   */\n      tag_122\n      jump\t// in\n    tag_217:\n        /* \"#utility.yul\":10022:10024   */\n      0x40\n        /* \"#utility.yul\":10017:10020   */\n      dup3\n        /* \"#utility.yul\":10013:10025   */\n      add\n        /* \"#utility.yul\":10006:10025   */\n      swap1\n      pop\n        /* \"#utility.yul\":9665:10031   */\n      swap2\n      swap1\n      pop\n      jump\t// out\n        /* \"#utility.yul\":10037:10456   */\n    tag_68:\n        /* \"#utility.yul\":10203:10207   */\n      0x00\n        /* \"#utility.yul\":10241:10243   */\n      0x20\n        /* \"#utility.yul\":10230:10239   */\n      dup3\n        /* \"#utility.yul\":10226:10244   */\n      add\n        /* \"#utility.yul\":10218:10244   */\n      swap1\n      pop\n        /* \"#utility.yul\":10290:10299   */\n      dup2\n        /* \"#utility.yul\":10284:10288   */\n      dup2\n        /* \"#utility.yul\":10280:10300   */\n      sub\n        /* \"#utility.yul\":10276:10277   */\n      0x00\n        /* \"#utility.yul\":10265:10274   */\n      dup4\n        /* \"#utility.yul\":10261:10278   */\n      add\n        /* \"#utility.yul\":10254:10301   */\n      mstore\n        /* \"#utility.yul\":10318:10449   */\n      tag_219\n        /* \"#utility.yul\":10444:10448   */\n      dup2\n        /* \"#utility.yul\":10318:10449   */\n      tag_123\n      jump\t// in\n    tag_219:\n        /* \"#utility.yul\":10310:10449   */\n      swap1\n      pop\n        /* \"#utility.yul\":10037:10456   */\n      swap2\n      swap1\n      pop\n      jump\t// out\n        /* \"#utility.yul\":10462:10625   */\n    tag_124:\n        /* \"#utility.yul\":10602:10617   */\n      0x73656e64206d6f72652045544800000000000000000000000000000000000000\n        /* \"#utility.yul\":10598:10599   */\n      0x00\n        /* \"#utility.yul\":10590:10596   */\n      dup3\n        /* \"#utility.yul\":10586:10600   */\n      add\n        /* \"#utility.yul\":10579:10618   */\n      mstore\n        /* \"#utility.yul\":10462:10625   */\n      pop\n      jump\t// out\n        /* \"#utility.yul\":10631:10997   */\n    tag_125:\n        /* \"#utility.yul\":10773:10776   */\n      0x00\n        /* \"#utility.yul\":10794:10861   */\n      tag_222\n        /* \"#utility.yul\":10858:10860   */\n      0x0d\n        /* \"#utility.yul\":10853:10856   */\n      dup4\n        /* \"#utility.yul\":10794:10861   */\n      tag_103\n      jump\t// in\n    tag_222:\n        /* \"#utility.yul\":10787:10861   */\n      swap2\n      pop\n        /* \"#utility.yul\":10870:10963   */\n      tag_223\n        /* \"#utility.yul\":10959:10962   */\n      dup3\n        /* \"#utility.yul\":10870:10963   */\n      tag_124\n      jump\t// in\n    tag_223:\n        /* \"#utility.yul\":10988:10990   */\n      0x20\n        /* \"#utility.yul\":10983:10986   */\n      dup3\n        /* \"#utility.yul\":10979:10991   */\n      add\n        /* \"#utility.yul\":10972:10991   */\n      swap1\n      pop\n        /* \"#utility.yul\":10631:10997   */\n      swap2\n      swap1\n      pop\n      jump\t// out\n        /* \"#utility.yul\":11003:11422   */\n    tag_79:\n        /* \"#utility.yul\":11169:11173   */\n      0x00\n        /* \"#utility.yul\":11207:11209   */\n      0x20\n        /* \"#utility.yul\":11196:11205   */\n      dup3\n        /* \"#utility.yul\":11192:11210   */\n      add\n        /* \"#utility.yul\":11184:11210   */\n      swap1\n      pop\n        /* \"#utility.yul\":11256:11265   */\n      dup2\n        /* \"#utility.yul\":11250:11254   */\n      dup2\n        /* \"#utility.yul\":11246:11266   */\n      sub\n        /* \"#utility.yul\":11242:11243   */\n      0x00\n        /* \"#utility.yul\":11231:11240   */\n      dup4\n        /* \"#utility.yul\":11227:11244   */\n      add\n        /* \"#utility.yul\":11220:11267   */\n      mstore\n        /* \"#utility.yul\":11284:11415   */\n      tag_225\n        /* \"#utility.yul\":11410:11414   */\n      dup2\n        /* \"#utility.yul\":11284:11415   */\n      tag_125\n      jump\t// in\n    tag_225:\n        /* \"#utility.yul\":11276:11415   */\n      swap1\n      pop\n        /* \"#utility.yul\":11003:11422   */\n      swap2\n      swap1\n      pop\n      jump\t// out\n        /* \"#utility.yul\":11428:11608   */\n    tag_126:\n        /* \"#utility.yul\":11476:11553   */\n      0x4e487b7100000000000000000000000000000000000000000000000000000000\n        /* \"#utility.yul\":11473:11474   */\n      0x00\n        /* \"#utility.yul\":11466:11554   */\n      mstore\n        /* \"#utility.yul\":11573:11577   */\n      0x11\n        /* \"#utility.yul\":11570:11571   */\n      0x04\n        /* \"#utility.yul\":11563:11578   */\n      mstore\n        /* \"#utility.yul\":11597:11601   */\n      0x24\n        /* \"#utility.yul\":11594:11595   */\n      0x00\n        /* \"#utility.yul\":11587:11602   */\n      revert\n        /* \"#utility.yul\":11614:11805   */\n    tag_81:\n        /* \"#utility.yul\":11654:11657   */\n      0x00\n        /* \"#utility.yul\":11673:11693   */\n      tag_228\n        /* \"#utility.yul\":11691:11692   */\n      dup3\n        /* \"#utility.yul\":11673:11693   */\n      tag_101\n      jump\t// in\n    tag_228:\n        /* \"#utility.yul\":11668:11693   */\n      swap2\n      pop\n        /* \"#utility.yul\":11707:11727   */\n      tag_229\n        /* \"#utility.yul\":11725:11726   */\n      dup4\n        /* \"#utility.yul\":11707:11727   */\n      tag_101\n      jump\t// in\n    tag_229:\n        /* \"#utility.yul\":11702:11727   */\n      swap3\n      pop\n        /* \"#utility.yul\":11750:11751   */\n      dup3\n        /* \"#utility.yul\":11747:11748   */\n      dup3\n        /* \"#utility.yul\":11743:11752   */\n      add\n        /* \"#utility.yul\":11736:11752   */\n      swap1\n      pop\n        /* \"#utility.yul\":11771:11774   */\n      dup1\n        /* \"#utility.yul\":11768:11769   */\n      dup3\n        /* \"#utility.yul\":11765:11775   */\n      gt\n        /* \"#utility.yul\":11762:11798   */\n      iszero\n      tag_230\n      jumpi\n        /* \"#utility.yul\":11778:11796   */\n      tag_231\n      tag_126\n      jump\t// in\n    tag_231:\n        /* \"#utility.yul\":11762:11798   */\n    tag_230:\n        /* \"#utility.yul\":11614:11805   */\n      swap3\n      swap2\n      pop\n      pop\n      jump\t// out\n        /* \"#utility.yul\":11811:12221   */\n    tag_88:\n        /* \"#utility.yul\":11851:11858   */\n      0x00\n        /* \"#utility.yul\":11874:11894   */\n      tag_233\n        /* \"#utility.yul\":11892:11893   */\n      dup3\n        /* \"#utility.yul\":11874:11894   */\n      tag_101\n      jump\t// in\n    tag_233:\n        /* \"#utility.yul\":11869:11894   */\n      swap2\n      pop\n        /* \"#utility.yul\":11908:11928   */\n      tag_234\n        /* \"#utility.yul\":11926:11927   */\n      dup4\n        /* \"#utility.yul\":11908:11928   */\n      tag_101\n      jump\t// in\n    tag_234:\n        /* \"#utility.yul\":11903:11928   */\n      swap3\n      pop\n        /* \"#utility.yul\":11963:11964   */\n      dup3\n        /* \"#utility.yul\":11960:11961   */\n      dup3\n        /* \"#utility.yul\":11956:11965   */\n      mul\n        /* \"#utility.yul\":11985:12015   */\n      tag_235\n        /* \"#utility.yul\":12003:12014   */\n      dup2\n        /* \"#utility.yul\":11985:12015   */\n      tag_101\n      jump\t// in\n    tag_235:\n        /* \"#utility.yul\":11974:12015   */\n      swap2\n      pop\n        /* \"#utility.yul\":12164:12165   */\n      dup3\n        /* \"#utility.yul\":12155:12162   */\n      dup3\n        /* \"#utility.yul\":12151:12166   */\n      div\n        /* \"#utility.yul\":12148:12149   */\n      dup5\n        /* \"#utility.yul\":12145:12167   */\n      eq\n        /* \"#utility.yul\":12125:12126   */\n      dup4\n        /* \"#utility.yul\":12118:12127   */\n      iszero\n        /* \"#utility.yul\":12098:12181   */\n      or\n        /* \"#utility.yul\":12075:12214   */\n      tag_236\n      jumpi\n        /* \"#utility.yul\":12194:12212   */\n      tag_237\n      tag_126\n      jump\t// in\n    tag_237:\n        /* \"#utility.yul\":12075:12214   */\n    tag_236:\n        /* \"#utility.yul\":11859:12221   */\n      pop\n        /* \"#utility.yul\":11811:12221   */\n      swap3\n      swap2\n      pop\n      pop\n      jump\t// out\n        /* \"#utility.yul\":12227:12407   */\n    tag_127:\n        /* \"#utility.yul\":12275:12352   */\n      0x4e487b7100000000000000000000000000000000000000000000000000000000\n        /* \"#utility.yul\":12272:12273   */\n      0x00\n        /* \"#utility.yul\":12265:12353   */\n      mstore\n        /* \"#utility.yul\":12372:12376   */\n      0x12\n        /* \"#utility.yul\":12369:12370   */\n      0x04\n        /* \"#utility.yul\":12362:12377   */\n      mstore\n        /* \"#utility.yul\":12396:12400   */\n      0x24\n        /* \"#utility.yul\":12393:12394   */\n      0x00\n        /* \"#utility.yul\":12386:12401   */\n      revert\n        /* \"#utility.yul\":12413:12598   */\n    tag_90:\n        /* \"#utility.yul\":12453:12454   */\n      0x00\n        /* \"#utility.yul\":12470:12490   */\n      tag_240\n        /* \"#utility.yul\":12488:12489   */\n      dup3\n        /* \"#utility.yul\":12470:12490   */\n      tag_101\n      jump\t// in\n    tag_240:\n        /* \"#utility.yul\":12465:12490   */\n      swap2\n      pop\n        /* \"#utility.yul\":12504:12524   */\n      tag_241\n        /* \"#utility.yul\":12522:12523   */\n      dup4\n        /* \"#utility.yul\":12504:12524   */\n      tag_101\n      jump\t// in\n    tag_241:\n        /* \"#utility.yul\":12499:12524   */\n      swap3\n      pop\n        /* \"#utility.yul\":12543:12544   */\n      dup3\n        /* \"#utility.yul\":12533:12568   */\n      tag_242\n      jumpi\n        /* \"#utility.yul\":12548:12566   */\n      tag_243\n      tag_127\n      jump\t// in\n    tag_243:\n        /* \"#utility.yul\":12533:12568   */\n    tag_242:\n        /* \"#utility.yul\":12590:12591   */\n      dup3\n        /* \"#utility.yul\":12587:12588   */\n      dup3\n        /* \"#utility.yul\":12583:12592   */\n      div\n        /* \"#utility.yul\":12578:12592   */\n      swap1\n      pop\n        /* \"#utility.yul\":12413:12598   */\n      swap3\n      swap2\n      pop\n      pop\n      jump\t// out\n\n    auxdata: 0xa264697066735822122063612d01e1cd8af78f94465e7c283c26fbcda355b3951c6c5ae5914da3db1fcb64736f6c634300081c0033\n}\n",
				"bytecode": {
					"linkReferences": {},
					"object": "6080604052670de0b6b3a7640000600255348015601a575f5ffd5b503360035f6101000a81548173ffffffffffffffffffffffffffffffffffffffff021916908373ffffffffffffffffffffffffffffffffffffffff16021790555073694aa1769357215de4fac081bf1f309adc3253065f5f6101000a81548173ffffffffffffffffffffffffffffffffffffffff021916908373ffffffffffffffffffffffffffffffffffffffff160217905550610da8806100bb5f395ff3fe60806040526004361061006f575f3560e01c80638edd6eb61161004d5780638edd6eb6146100dd5780639f883a05146100f3578063b60d42881461012f578063f2fde38b146101395761006f565b8063590e1ae3146100735780635ab2bc20146100895780638da5cb5b146100b3575b5f5ffd5b34801561007e575f5ffd5b50610087610161565b005b348015610094575f5ffd5b5061009d610326565b6040516100aa9190610788565b60405180910390f35b3480156100be575f5ffd5b506100c76103c2565b6040516100d491906107e0565b60405180910390f35b3480156100e8575f5ffd5b506100f16103e7565b005b3480156100fe575f5ffd5b5061011960048036038101906101149190610827565b6105b8565b604051610126919061086a565b60405180910390f35b6101376105cd565b005b348015610144575f5ffd5b5061015f600480360381019061015a9190610827565b61066f565b005b678ac7230489e8000061017347610741565b106101b3576040517f08c379a00000000000000000000000000000000000000000000000000000000081526004016101aa906108dd565b60405180910390fd5b5f60015f3373ffffffffffffffffffffffffffffffffffffffff1673ffffffffffffffffffffffffffffffffffffffff1681526020019081526020015f205490505f8103610236576040517f08c379a000000000000000000000000000000000000000000000000000000000815260040161022d90610945565b60405180910390fd5b5f3373ffffffffffffffffffffffffffffffffffffffff168260405161025b90610990565b5f6040518083038185875af1925050503d805f8114610295576040519150601f19603f3d011682016040523d82523d5f602084013e61029a565b606091505b505080915050806102e0576040517f08c379a00000000000000000000000000000000000000000000000000000000081526004016102d7906109ee565b60405180910390fd5b5f60015f3373ffffffffffffffffffffffffffffffffffffffff1673ffffffffffffffffffffffffffffffffffffffff1681526020019081526020015f20819055505050565b5f5f5f5f9054906101000a900473ffffffffffffffffffffffffffffffffffffffff1673ffffffffffffffffffffffffffffffffffffffff1663feaf968c6040518163ffffffff1660e01b815260040160a060405180830381865afa158015610391573d5f5f3e3d5ffd5b505050506040513d601f19601f820116820180604052508101906103b59190610a9f565b5050509150508091505090565b60035f9054906101000a900473ffffffffffffffffffffffffffffffffffffffff1681565b678ac7230489e800006103f947610741565b101561043a576040517f08c379a000000000000000000000000000000000000000000000000000000000815260040161043190610b60565b60405180910390fd5b60035f9054906101000a900473ffffffffffffffffffffffffffffffffffffffff1673ffffffffffffffffffffffffffffffffffffffff163373ffffffffffffffffffffffffffffffffffffffff16146104c9576040517f08c379a00000000000000000000000000000000000000000000000000000000081526004016104c090610bee565b60405180910390fd5b5f3373ffffffffffffffffffffffffffffffffffffffff16476040516104ee90610990565b5f6040518083038185875af1925050503d805f8114610528576040519150601f19603f3d011682016040523d82523d5f602084013e61052d565b606091505b50508091505080610573576040517f08c379a000000000000000000000000000000000000000000000000000000000815260040161056a906109ee565b60405180910390fd5b5f60015f3373ffffffffffffffffffffffffffffffffffffffff1673ffffffffffffffffffffffffffffffffffffffff1681526020019081526020015f208190555050565b6001602052805f5260405f205f915090505481565b6002546105d934610741565b101561061a576040517f08c379a000000000000000000000000000000000000000000000000000000000815260040161061190610c56565b60405180910390fd5b3460015f3373ffffffffffffffffffffffffffffffffffffffff1673ffffffffffffffffffffffffffffffffffffffff1681526020019081526020015f205f8282546106669190610ca1565b92505081905550565b60035f9054906101000a900473ffffffffffffffffffffffffffffffffffffffff1673ffffffffffffffffffffffffffffffffffffffff163373ffffffffffffffffffffffffffffffffffffffff16146106fe576040517f08c379a00000000000000000000000000000000000000000000000000000000081526004016106f590610bee565b60405180910390fd5b8060035f6101000a81548173ffffffffffffffffffffffffffffffffffffffff021916908373ffffffffffffffffffffffffffffffffffffffff16021790555050565b5f5f61074b610326565b90506305f5e100818461075e9190610cd4565b6107689190610d42565b915050919050565b5f819050919050565b61078281610770565b82525050565b5f60208201905061079b5f830184610779565b92915050565b5f73ffffffffffffffffffffffffffffffffffffffff82169050919050565b5f6107ca826107a1565b9050919050565b6107da816107c0565b82525050565b5f6020820190506107f35f8301846107d1565b92915050565b5f5ffd5b610806816107c0565b8114610810575f5ffd5b50565b5f81359050610821816107fd565b92915050565b5f6020828403121561083c5761083b6107f9565b5b5f61084984828501610813565b91505092915050565b5f819050919050565b61086481610852565b82525050565b5f60208201905061087d5f83018461085b565b92915050565b5f82825260208201905092915050565b7f54617267657420697320726561636865640000000000000000000000000000005f82015250565b5f6108c7601183610883565b91506108d282610893565b602082019050919050565b5f6020820190508181035f8301526108f4816108bb565b9050919050565b7f7468657265206973206e6f2066756e6420666f7220796f7500000000000000005f82015250565b5f61092f601883610883565b915061093a826108fb565b602082019050919050565b5f6020820190508181035f83015261095c81610923565b9050919050565b5f81905092915050565b50565b5f61097b5f83610963565b91506109868261096d565b5f82019050919050565b5f61099a82610970565b9150819050919050565b7f7472616e73616374696f6e206661696c656421000000000000000000000000005f82015250565b5f6109d8601383610883565b91506109e3826109a4565b602082019050919050565b5f6020820190508181035f830152610a05816109cc565b9050919050565b5f69ffffffffffffffffffff82169050919050565b610a2a81610a0c565b8114610a34575f5ffd5b50565b5f81519050610a4581610a21565b92915050565b610a5481610770565b8114610a5e575f5ffd5b50565b5f81519050610a6f81610a4b565b92915050565b610a7e81610852565b8114610a88575f5ffd5b50565b5f81519050610a9981610a75565b92915050565b5f5f5f5f5f60a08688031215610ab857610ab76107f9565b5b5f610ac588828901610a37565b9550506020610ad688828901610a61565b9450506040610ae788828901610a8b565b9350506060610af888828901610a8b565b9250506080610b0988828901610a37565b9150509295509295909350565b7f546172676574206973206e6f74207265616368656400000000000000000000005f82015250565b5f610b4a601583610883565b9150610b5582610b16565b602082019050919050565b5f6020820190508181035f830152610b7781610b3e565b9050919050565b7f746869732066756e6374696f6e2063616e206f6e6c792062652063616c6c65645f8201527f206279206f776e65720000000000000000000000000000000000000000000000602082015250565b5f610bd8602983610883565b9150610be382610b7e565b604082019050919050565b5f6020820190508181035f830152610c0581610bcc565b9050919050565b7f73656e64206d6f726520455448000000000000000000000000000000000000005f82015250565b5f610c40600d83610883565b9150610c4b82610c0c565b602082019050919050565b5f6020820190508181035f830152610c6d81610c34565b9050919050565b7f4e487b71000000000000000000000000000000000000000000000000000000005f52601160045260245ffd5b5f610cab82610852565b9150610cb683610852565b9250828201905080821115610cce57610ccd610c74565b5b92915050565b5f610cde82610852565b9150610ce983610852565b9250828202610cf781610852565b91508282048414831517610d0e57610d0d610c74565b5b5092915050565b7f4e487b71000000000000000000000000000000000000000000000000000000005f52601260045260245ffd5b5f610d4c82610852565b9150610d5783610852565b925082610d6757610d66610d15565b5b82820490509291505056fea264697066735822122063612d01e1cd8af78f94465e7c283c26fbcda355b3951c6c5ae5914da3db1fcb64736f6c634300081c0033",
					"opcodes": "PUSH1 0x80 PUSH1 0x40 MSTORE PUSH8 0xDE0B6B3A7640000 PUSH1 0x2 SSTORE CALLVALUE DUP1 ISZERO PUSH1 0x1A JUMPI PUSH0 PUSH0 REVERT JUMPDEST POP CALLER PUSH1 0x3 PUSH0 PUSH2 0x100 EXP DUP2 SLOAD DUP2 PUSH20 0xFFFFFFFFFFFFFFFFFFFFFFFFFFFFFFFFFFFFFFFF MUL NOT AND SWAP1 DUP4 PUSH20 0xFFFFFFFFFFFFFFFFFFFFFFFFFFFFFFFFFFFFFFFF AND MUL OR SWAP1 SSTORE POP PUSH20 0x694AA1769357215DE4FAC081BF1F309ADC325306 PUSH0 PUSH0 PUSH2 0x100 EXP DUP2 SLOAD DUP2 PUSH20 0xFFFFFFFFFFFFFFFFFFFFFFFFFFFFFFFFFFFFFFFF MUL NOT AND SWAP1 DUP4 PUSH20 0xFFFFFFFFFFFFFFFFFFFFFFFFFFFFFFFFFFFFFFFF AND MUL OR SWAP1 SSTORE POP PUSH2 0xDA8 DUP1 PUSH2 0xBB PUSH0 CODECOPY PUSH0 RETURN INVALID PUSH1 0x80 PUSH1 0x40 MSTORE PUSH1 0x4 CALLDATASIZE LT PUSH2 0x6F JUMPI PUSH0 CALLDATALOAD PUSH1 0xE0 SHR DUP1 PUSH4 0x8EDD6EB6 GT PUSH2 0x4D JUMPI DUP1 PUSH4 0x8EDD6EB6 EQ PUSH2 0xDD JUMPI DUP1 PUSH4 0x9F883A05 EQ PUSH2 0xF3 JUMPI DUP1 PUSH4 0xB60D4288 EQ PUSH2 0x12F JUMPI DUP1 PUSH4 0xF2FDE38B EQ PUSH2 0x139 JUMPI PUSH2 0x6F JUMP JUMPDEST DUP1 PUSH4 0x590E1AE3 EQ PUSH2 0x73 JUMPI DUP1 PUSH4 0x5AB2BC20 EQ PUSH2 0x89 JUMPI DUP1 PUSH4 0x8DA5CB5B EQ PUSH2 0xB3 JUMPI JUMPDEST PUSH0 PUSH0 REVERT JUMPDEST CALLVALUE DUP1 ISZERO PUSH2 0x7E JUMPI PUSH0 PUSH0 REVERT JUMPDEST POP PUSH2 0x87 PUSH2 0x161 JUMP JUMPDEST STOP JUMPDEST CALLVALUE DUP1 ISZERO PUSH2 0x94 JUMPI PUSH0 PUSH0 REVERT JUMPDEST POP PUSH2 0x9D PUSH2 0x326 JUMP JUMPDEST PUSH1 0x40 MLOAD PUSH2 0xAA SWAP2 SWAP1 PUSH2 0x788 JUMP JUMPDEST PUSH1 0x40 MLOAD DUP1 SWAP2 SUB SWAP1 RETURN JUMPDEST CALLVALUE DUP1 ISZERO PUSH2 0xBE JUMPI PUSH0 PUSH0 REVERT JUMPDEST POP PUSH2 0xC7 PUSH2 0x3C2 JUMP JUMPDEST PUSH1 0x40 MLOAD PUSH2 0xD4 SWAP2 SWAP1 PUSH2 0x7E0 JUMP JUMPDEST PUSH1 0x40 MLOAD DUP1 SWAP2 SUB SWAP1 RETURN JUMPDEST CALLVALUE DUP1 ISZERO PUSH2 0xE8 JUMPI PUSH0 PUSH0 REVERT JUMPDEST POP PUSH2 0xF1 PUSH2 0x3E7 JUMP JUMPDEST STOP JUMPDEST CALLVALUE DUP1 ISZERO PUSH2 0xFE JUMPI PUSH0 PUSH0 REVERT JUMPDEST POP PUSH2 0x119 PUSH1 0x4 DUP1 CALLDATASIZE SUB DUP2 ADD SWAP1 PUSH2 0x114 SWAP2 SWAP1 PUSH2 0x827 JUMP JUMPDEST PUSH2 0x5B8 JUMP JUMPDEST PUSH1 0x40 MLOAD PUSH2 0x126 SWAP2 SWAP1 PUSH2 0x86A JUMP JUMPDEST PUSH1 0x40 MLOAD DUP1 SWAP2 SUB SWAP1 RETURN JUMPDEST PUSH2 0x137 PUSH2 0x5CD JUMP JUMPDEST STOP JUMPDEST CALLVALUE DUP1 ISZERO PUSH2 0x144 JUMPI PUSH0 PUSH0 REVERT JUMPDEST POP PUSH2 0x15F PUSH1 0x4 DUP1 CALLDATASIZE SUB DUP2 ADD SWAP1 PUSH2 0x15A SWAP2 SWAP1 PUSH2 0x827 JUMP JUMPDEST PUSH2 0x66F JUMP JUMPDEST STOP JUMPDEST PUSH8 0x8AC7230489E80000 PUSH2 0x173 SELFBALANCE PUSH2 0x741 JUMP JUMPDEST LT PUSH2 0x1B3 JUMPI PUSH1 0x40 MLOAD PUSH32 0x8C379A000000000000000000000000000000000000000000000000000000000 DUP2 MSTORE PUSH1 0x4 ADD PUSH2 0x1AA SWAP1 PUSH2 0x8DD JUMP JUMPDEST PUSH1 0x40 MLOAD DUP1 SWAP2 SUB SWAP1 REVERT JUMPDEST PUSH0 PUSH1 0x1 PUSH0 CALLER PUSH20 0xFFFFFFFFFFFFFFFFFFFFFFFFFFFFFFFFFFFFFFFF AND PUSH20 0xFFFFFFFFFFFFFFFFFFFFFFFFFFFFFFFFFFFFFFFF AND DUP2 MSTORE PUSH1 0x20 ADD SWAP1 DUP2 MSTORE PUSH1 0x20 ADD PUSH0 KECCAK256 SLOAD SWAP1 POP PUSH0 DUP2 SUB PUSH2 0x236 JUMPI PUSH1 0x40 MLOAD PUSH32 0x8C379A000000000000000000000000000000000000000000000000000000000 DUP2 MSTORE PUSH1 0x4 ADD PUSH2 0x22D SWAP1 PUSH2 0x945 JUMP JUMPDEST PUSH1 0x40 MLOAD DUP1 SWAP2 SUB SWAP1 REVERT JUMPDEST PUSH0 CALLER PUSH20 0xFFFFFFFFFFFFFFFFFFFFFFFFFFFFFFFFFFFFFFFF AND DUP3 PUSH1 0x40 MLOAD PUSH2 0x25B SWAP1 PUSH2 0x990 JUMP JUMPDEST PUSH0 PUSH1 0x40 MLOAD DUP1 DUP4 SUB DUP2 DUP6 DUP8 GAS CALL SWAP3 POP POP POP RETURNDATASIZE DUP1 PUSH0 DUP2 EQ PUSH2 0x295 JUMPI PUSH1 0x40 MLOAD SWAP2 POP PUSH1 0x1F NOT PUSH1 0x3F RETURNDATASIZE ADD AND DUP3 ADD PUSH1 0x40 MSTORE RETURNDATASIZE DUP3 MSTORE RETURNDATASIZE PUSH0 PUSH1 0x20 DUP5 ADD RETURNDATACOPY PUSH2 0x29A JUMP JUMPDEST PUSH1 0x60 SWAP2 POP JUMPDEST POP POP DUP1 SWAP2 POP POP DUP1 PUSH2 0x2E0 JUMPI PUSH1 0x40 MLOAD PUSH32 0x8C379A000000000000000000000000000000000000000000000000000000000 DUP2 MSTORE PUSH1 0x4 ADD PUSH2 0x2D7 SWAP1 PUSH2 0x9EE JUMP JUMPDEST PUSH1 0x40 MLOAD DUP1 SWAP2 SUB SWAP1 REVERT JUMPDEST PUSH0 PUSH1 0x1 PUSH0 CALLER PUSH20 0xFFFFFFFFFFFFFFFFFFFFFFFFFFFFFFFFFFFFFFFF AND PUSH20 0xFFFFFFFFFFFFFFFFFFFFFFFFFFFFFFFFFFFFFFFF AND DUP2 MSTORE PUSH1 0x20 ADD SWAP1 DUP2 MSTORE PUSH1 0x20 ADD PUSH0 KECCAK256 DUP2 SWAP1 SSTORE POP POP POP JUMP JUMPDEST PUSH0 PUSH0 PUSH0 PUSH0 SWAP1 SLOAD SWAP1 PUSH2 0x100 EXP SWAP1 DIV PUSH20 0xFFFFFFFFFFFFFFFFFFFFFFFFFFFFFFFFFFFFFFFF AND PUSH20 0xFFFFFFFFFFFFFFFFFFFFFFFFFFFFFFFFFFFFFFFF AND PUSH4 0xFEAF968C PUSH1 0x40 MLOAD DUP2 PUSH4 0xFFFFFFFF AND PUSH1 0xE0 SHL DUP2 MSTORE PUSH1 0x4 ADD PUSH1 0xA0 PUSH1 0x40 MLOAD DUP1 DUP4 SUB DUP2 DUP7 GAS STATICCALL ISZERO DUP1 ISZERO PUSH2 0x391 JUMPI RETURNDATASIZE PUSH0 PUSH0 RETURNDATACOPY RETURNDATASIZE PUSH0 REVERT JUMPDEST POP POP POP POP PUSH1 0x40 MLOAD RETURNDATASIZE PUSH1 0x1F NOT PUSH1 0x1F DUP3 ADD AND DUP3 ADD DUP1 PUSH1 0x40 MSTORE POP DUP2 ADD SWAP1 PUSH2 0x3B5 SWAP2 SWAP1 PUSH2 0xA9F JUMP JUMPDEST POP POP POP SWAP2 POP POP DUP1 SWAP2 POP POP SWAP1 JUMP JUMPDEST PUSH1 0x3 PUSH0 SWAP1 SLOAD SWAP1 PUSH2 0x100 EXP SWAP1 DIV PUSH20 0xFFFFFFFFFFFFFFFFFFFFFFFFFFFFFFFFFFFFFFFF AND DUP2 JUMP JUMPDEST PUSH8 0x8AC7230489E80000 PUSH2 0x3F9 SELFBALANCE PUSH2 0x741 JUMP JUMPDEST LT ISZERO PUSH2 0x43A JUMPI PUSH1 0x40 MLOAD PUSH32 0x8C379A000000000000000000000000000000000000000000000000000000000 DUP2 MSTORE PUSH1 0x4 ADD PUSH2 0x431 SWAP1 PUSH2 0xB60 JUMP JUMPDEST PUSH1 0x40 MLOAD DUP1 SWAP2 SUB SWAP1 REVERT JUMPDEST PUSH1 0x3 PUSH0 SWAP1 SLOAD SWAP1 PUSH2 0x100 EXP SWAP1 DIV PUSH20 0xFFFFFFFFFFFFFFFFFFFFFFFFFFFFFFFFFFFFFFFF AND PUSH20 0xFFFFFFFFFFFFFFFFFFFFFFFFFFFFFFFFFFFFFFFF AND CALLER PUSH20 0xFFFFFFFFFFFFFFFFFFFFFFFFFFFFFFFFFFFFFFFF AND EQ PUSH2 0x4C9 JUMPI PUSH1 0x40 MLOAD PUSH32 0x8C379A000000000000000000000000000000000000000000000000000000000 DUP2 MSTORE PUSH1 0x4 ADD PUSH2 0x4C0 SWAP1 PUSH2 0xBEE JUMP JUMPDEST PUSH1 0x40 MLOAD DUP1 SWAP2 SUB SWAP1 REVERT JUMPDEST PUSH0 CALLER PUSH20 0xFFFFFFFFFFFFFFFFFFFFFFFFFFFFFFFFFFFFFFFF AND SELFBALANCE PUSH1 0x40 MLOAD PUSH2 0x4EE SWAP1 PUSH2 0x990 JUMP JUMPDEST PUSH0 PUSH1 0x40 MLOAD DUP1 DUP4 SUB DUP2 DUP6 DUP8 GAS CALL SWAP3 POP POP POP RETURNDATASIZE DUP1 PUSH0 DUP2 EQ PUSH2 0x528 JUMPI PUSH1 0x40 MLOAD SWAP2 POP PUSH1 0x1F NOT PUSH1 0x3F RETURNDATASIZE ADD AND DUP3 ADD PUSH1 0x40 MSTORE RETURNDATASIZE DUP3 MSTORE RETURNDATASIZE PUSH0 PUSH1 0x20 DUP5 ADD RETURNDATACOPY PUSH2 0x52D JUMP JUMPDEST PUSH1 0x60 SWAP2 POP JUMPDEST POP POP DUP1 SWAP2 POP POP DUP1 PUSH2 0x573 JUMPI PUSH1 0x40 MLOAD PUSH32 0x8C379A000000000000000000000000000000000000000000000000000000000 DUP2 MSTORE PUSH1 0x4 ADD PUSH2 0x56A SWAP1 PUSH2 0x9EE JUMP JUMPDEST PUSH1 0x40 MLOAD DUP1 SWAP2 SUB SWAP1 REVERT JUMPDEST PUSH0 PUSH1 0x1 PUSH0 CALLER PUSH20 0xFFFFFFFFFFFFFFFFFFFFFFFFFFFFFFFFFFFFFFFF AND PUSH20 0xFFFFFFFFFFFFFFFFFFFFFFFFFFFFFFFFFFFFFFFF AND DUP2 MSTORE PUSH1 0x20 ADD SWAP1 DUP2 MSTORE PUSH1 0x20 ADD PUSH0 KECCAK256 DUP2 SWAP1 SSTORE POP POP JUMP JUMPDEST PUSH1 0x1 PUSH1 0x20 MSTORE DUP1 PUSH0 MSTORE PUSH1 0x40 PUSH0 KECCAK256 PUSH0 SWAP2 POP SWAP1 POP SLOAD DUP2 JUMP JUMPDEST PUSH1 0x2 SLOAD PUSH2 0x5D9 CALLVALUE PUSH2 0x741 JUMP JUMPDEST LT ISZERO PUSH2 0x61A JUMPI PUSH1 0x40 MLOAD PUSH32 0x8C379A000000000000000000000000000000000000000000000000000000000 DUP2 MSTORE PUSH1 0x4 ADD PUSH2 0x611 SWAP1 PUSH2 0xC56 JUMP JUMPDEST PUSH1 0x40 MLOAD DUP1 SWAP2 SUB SWAP1 REVERT JUMPDEST CALLVALUE PUSH1 0x1 PUSH0 CALLER PUSH20 0xFFFFFFFFFFFFFFFFFFFFFFFFFFFFFFFFFFFFFFFF AND PUSH20 0xFFFFFFFFFFFFFFFFFFFFFFFFFFFFFFFFFFFFFFFF AND DUP2 MSTORE PUSH1 0x20 ADD SWAP1 DUP2 MSTORE PUSH1 0x20 ADD PUSH0 KECCAK256 PUSH0 DUP3 DUP3 SLOAD PUSH2 0x666 SWAP2 SWAP1 PUSH2 0xCA1 JUMP JUMPDEST SWAP3 POP POP DUP2 SWAP1 SSTORE POP JUMP JUMPDEST PUSH1 0x3 PUSH0 SWAP1 SLOAD SWAP1 PUSH2 0x100 EXP SWAP1 DIV PUSH20 0xFFFFFFFFFFFFFFFFFFFFFFFFFFFFFFFFFFFFFFFF AND PUSH20 0xFFFFFFFFFFFFFFFFFFFFFFFFFFFFFFFFFFFFFFFF AND CALLER PUSH20 0xFFFFFFFFFFFFFFFFFFFFFFFFFFFFFFFFFFFFFFFF AND EQ PUSH2 0x6FE JUMPI PUSH1 0x40 MLOAD PUSH32 0x8C379A000000000000000000000000000000000000000000000000000000000 DUP2 MSTORE PUSH1 0x4 ADD PUSH2 0x6F5 SWAP1 PUSH2 0xBEE JUMP JUMPDEST PUSH1 0x40 MLOAD DUP1 SWAP2 SUB SWAP1 REVERT JUMPDEST DUP1 PUSH1 0x3 PUSH0 PUSH2 0x100 EXP DUP2 SLOAD DUP2 PUSH20 0xFFFFFFFFFFFFFFFFFFFFFFFFFFFFFFFFFFFFFFFF MUL NOT AND SWAP1 DUP4 PUSH20 0xFFFFFFFFFFFFFFFFFFFFFFFFFFFFFFFFFFFFFFFF AND MUL OR SWAP1 SSTORE POP POP JUMP JUMPDEST PUSH0 PUSH0 PUSH2 0x74B PUSH2 0x326 JUMP JUMPDEST SWAP1 POP PUSH4 0x5F5E100 DUP2 DUP5 PUSH2 0x75E SWAP2 SWAP1 PUSH2 0xCD4 JUMP JUMPDEST PUSH2 0x768 SWAP2 SWAP1 PUSH2 0xD42 JUMP JUMPDEST SWAP2 POP POP SWAP2 SWAP1 POP JUMP JUMPDEST PUSH0 DUP2 SWAP1 POP SWAP2 SWAP1 POP JUMP JUMPDEST PUSH2 0x782 DUP2 PUSH2 0x770 JUMP JUMPDEST DUP3 MSTORE POP POP JUMP JUMPDEST PUSH0 PUSH1 0x20 DUP3 ADD SWAP1 POP PUSH2 0x79B PUSH0 DUP4 ADD DUP5 PUSH2 0x779 JUMP JUMPDEST SWAP3 SWAP2 POP POP JUMP JUMPDEST PUSH0 PUSH20 0xFFFFFFFFFFFFFFFFFFFFFFFFFFFFFFFFFFFFFFFF DUP3 AND SWAP1 POP SWAP2 SWAP1 POP JUMP JUMPDEST PUSH0 PUSH2 0x7CA DUP3 PUSH2 0x7A1 JUMP JUMPDEST SWAP1 POP SWAP2 SWAP1 POP JUMP JUMPDEST PUSH2 0x7DA DUP2 PUSH2 0x7C0 JUMP JUMPDEST DUP3 MSTORE POP POP JUMP JUMPDEST PUSH0 PUSH1 0x20 DUP3 ADD SWAP1 POP PUSH2 0x7F3 PUSH0 DUP4 ADD DUP5 PUSH2 0x7D1 JUMP JUMPDEST SWAP3 SWAP2 POP POP JUMP JUMPDEST PUSH0 PUSH0 REVERT JUMPDEST PUSH2 0x806 DUP2 PUSH2 0x7C0 JUMP JUMPDEST DUP2 EQ PUSH2 0x810 JUMPI PUSH0 PUSH0 REVERT JUMPDEST POP JUMP JUMPDEST PUSH0 DUP2 CALLDATALOAD SWAP1 POP PUSH2 0x821 DUP2 PUSH2 0x7FD JUMP JUMPDEST SWAP3 SWAP2 POP POP JUMP JUMPDEST PUSH0 PUSH1 0x20 DUP3 DUP5 SUB SLT ISZERO PUSH2 0x83C JUMPI PUSH2 0x83B PUSH2 0x7F9 JUMP JUMPDEST JUMPDEST PUSH0 PUSH2 0x849 DUP5 DUP3 DUP6 ADD PUSH2 0x813 JUMP JUMPDEST SWAP2 POP POP SWAP3 SWAP2 POP POP JUMP JUMPDEST PUSH0 DUP2 SWAP1 POP SWAP2 SWAP1 POP JUMP JUMPDEST PUSH2 0x864 DUP2 PUSH2 0x852 JUMP JUMPDEST DUP3 MSTORE POP POP JUMP JUMPDEST PUSH0 PUSH1 0x20 DUP3 ADD SWAP1 POP PUSH2 0x87D PUSH0 DUP4 ADD DUP5 PUSH2 0x85B JUMP JUMPDEST SWAP3 SWAP2 POP POP JUMP JUMPDEST PUSH0 DUP3 DUP3 MSTORE PUSH1 0x20 DUP3 ADD SWAP1 POP SWAP3 SWAP2 POP POP JUMP JUMPDEST PUSH32 0x5461726765742069732072656163686564000000000000000000000000000000 PUSH0 DUP3 ADD MSTORE POP JUMP JUMPDEST PUSH0 PUSH2 0x8C7 PUSH1 0x11 DUP4 PUSH2 0x883 JUMP JUMPDEST SWAP2 POP PUSH2 0x8D2 DUP3 PUSH2 0x893 JUMP JUMPDEST PUSH1 0x20 DUP3 ADD SWAP1 POP SWAP2 SWAP1 POP JUMP JUMPDEST PUSH0 PUSH1 0x20 DUP3 ADD SWAP1 POP DUP2 DUP2 SUB PUSH0 DUP4 ADD MSTORE PUSH2 0x8F4 DUP2 PUSH2 0x8BB JUMP JUMPDEST SWAP1 POP SWAP2 SWAP1 POP JUMP JUMPDEST PUSH32 0x7468657265206973206E6F2066756E6420666F7220796F750000000000000000 PUSH0 DUP3 ADD MSTORE POP JUMP JUMPDEST PUSH0 PUSH2 0x92F PUSH1 0x18 DUP4 PUSH2 0x883 JUMP JUMPDEST SWAP2 POP PUSH2 0x93A DUP3 PUSH2 0x8FB JUMP JUMPDEST PUSH1 0x20 DUP3 ADD SWAP1 POP SWAP2 SWAP1 POP JUMP JUMPDEST PUSH0 PUSH1 0x20 DUP3 ADD SWAP1 POP DUP2 DUP2 SUB PUSH0 DUP4 ADD MSTORE PUSH2 0x95C DUP2 PUSH2 0x923 JUMP JUMPDEST SWAP1 POP SWAP2 SWAP1 POP JUMP JUMPDEST PUSH0 DUP2 SWAP1 POP SWAP3 SWAP2 POP POP JUMP JUMPDEST POP JUMP JUMPDEST PUSH0 PUSH2 0x97B PUSH0 DUP4 PUSH2 0x963 JUMP JUMPDEST SWAP2 POP PUSH2 0x986 DUP3 PUSH2 0x96D JUMP JUMPDEST PUSH0 DUP3 ADD SWAP1 POP SWAP2 SWAP1 POP JUMP JUMPDEST PUSH0 PUSH2 0x99A DUP3 PUSH2 0x970 JUMP JUMPDEST SWAP2 POP DUP2 SWAP1 POP SWAP2 SWAP1 POP JUMP JUMPDEST PUSH32 0x7472616E73616374696F6E206661696C65642100000000000000000000000000 PUSH0 DUP3 ADD MSTORE POP JUMP JUMPDEST PUSH0 PUSH2 0x9D8 PUSH1 0x13 DUP4 PUSH2 0x883 JUMP JUMPDEST SWAP2 POP PUSH2 0x9E3 DUP3 PUSH2 0x9A4 JUMP JUMPDEST PUSH1 0x20 DUP3 ADD SWAP1 POP SWAP2 SWAP1 POP JUMP JUMPDEST PUSH0 PUSH1 0x20 DUP3 ADD SWAP1 POP DUP2 DUP2 SUB PUSH0 DUP4 ADD MSTORE PUSH2 0xA05 DUP2 PUSH2 0x9CC JUMP JUMPDEST SWAP1 POP SWAP2 SWAP1 POP JUMP JUMPDEST PUSH0 PUSH10 0xFFFFFFFFFFFFFFFFFFFF DUP3 AND SWAP1 POP SWAP2 SWAP1 POP JUMP JUMPDEST PUSH2 0xA2A DUP2 PUSH2 0xA0C JUMP JUMPDEST DUP2 EQ PUSH2 0xA34 JUMPI PUSH0 PUSH0 REVERT JUMPDEST POP JUMP JUMPDEST PUSH0 DUP2 MLOAD SWAP1 POP PUSH2 0xA45 DUP2 PUSH2 0xA21 JUMP JUMPDEST SWAP3 SWAP2 POP POP JUMP JUMPDEST PUSH2 0xA54 DUP2 PUSH2 0x770 JUMP JUMPDEST DUP2 EQ PUSH2 0xA5E JUMPI PUSH0 PUSH0 REVERT JUMPDEST POP JUMP JUMPDEST PUSH0 DUP2 MLOAD SWAP1 POP PUSH2 0xA6F DUP2 PUSH2 0xA4B JUMP JUMPDEST SWAP3 SWAP2 POP POP JUMP JUMPDEST PUSH2 0xA7E DUP2 PUSH2 0x852 JUMP JUMPDEST DUP2 EQ PUSH2 0xA88 JUMPI PUSH0 PUSH0 REVERT JUMPDEST POP JUMP JUMPDEST PUSH0 DUP2 MLOAD SWAP1 POP PUSH2 0xA99 DUP2 PUSH2 0xA75 JUMP JUMPDEST SWAP3 SWAP2 POP POP JUMP JUMPDEST PUSH0 PUSH0 PUSH0 PUSH0 PUSH0 PUSH1 0xA0 DUP7 DUP9 SUB SLT ISZERO PUSH2 0xAB8 JUMPI PUSH2 0xAB7 PUSH2 0x7F9 JUMP JUMPDEST JUMPDEST PUSH0 PUSH2 0xAC5 DUP9 DUP3 DUP10 ADD PUSH2 0xA37 JUMP JUMPDEST SWAP6 POP POP PUSH1 0x20 PUSH2 0xAD6 DUP9 DUP3 DUP10 ADD PUSH2 0xA61 JUMP JUMPDEST SWAP5 POP POP PUSH1 0x40 PUSH2 0xAE7 DUP9 DUP3 DUP10 ADD PUSH2 0xA8B JUMP JUMPDEST SWAP4 POP POP PUSH1 0x60 PUSH2 0xAF8 DUP9 DUP3 DUP10 ADD PUSH2 0xA8B JUMP JUMPDEST SWAP3 POP POP PUSH1 0x80 PUSH2 0xB09 DUP9 DUP3 DUP10 ADD PUSH2 0xA37 JUMP JUMPDEST SWAP2 POP POP SWAP3 SWAP6 POP SWAP3 SWAP6 SWAP1 SWAP4 POP JUMP JUMPDEST PUSH32 0x546172676574206973206E6F7420726561636865640000000000000000000000 PUSH0 DUP3 ADD MSTORE POP JUMP JUMPDEST PUSH0 PUSH2 0xB4A PUSH1 0x15 DUP4 PUSH2 0x883 JUMP JUMPDEST SWAP2 POP PUSH2 0xB55 DUP3 PUSH2 0xB16 JUMP JUMPDEST PUSH1 0x20 DUP3 ADD SWAP1 POP SWAP2 SWAP1 POP JUMP JUMPDEST PUSH0 PUSH1 0x20 DUP3 ADD SWAP1 POP DUP2 DUP2 SUB PUSH0 DUP4 ADD MSTORE PUSH2 0xB77 DUP2 PUSH2 0xB3E JUMP JUMPDEST SWAP1 POP SWAP2 SWAP1 POP JUMP JUMPDEST PUSH32 0x746869732066756E6374696F6E2063616E206F6E6C792062652063616C6C6564 PUSH0 DUP3 ADD MSTORE PUSH32 0x206279206F776E65720000000000000000000000000000000000000000000000 PUSH1 0x20 DUP3 ADD MSTORE POP JUMP JUMPDEST PUSH0 PUSH2 0xBD8 PUSH1 0x29 DUP4 PUSH2 0x883 JUMP JUMPDEST SWAP2 POP PUSH2 0xBE3 DUP3 PUSH2 0xB7E JUMP JUMPDEST PUSH1 0x40 DUP3 ADD SWAP1 POP SWAP2 SWAP1 POP JUMP JUMPDEST PUSH0 PUSH1 0x20 DUP3 ADD SWAP1 POP DUP2 DUP2 SUB PUSH0 DUP4 ADD MSTORE PUSH2 0xC05 DUP2 PUSH2 0xBCC JUMP JUMPDEST SWAP1 POP SWAP2 SWAP1 POP JUMP JUMPDEST PUSH32 0x73656E64206D6F72652045544800000000000000000000000000000000000000 PUSH0 DUP3 ADD MSTORE POP JUMP JUMPDEST PUSH0 PUSH2 0xC40 PUSH1 0xD DUP4 PUSH2 0x883 JUMP JUMPDEST SWAP2 POP PUSH2 0xC4B DUP3 PUSH2 0xC0C JUMP JUMPDEST PUSH1 0x20 DUP3 ADD SWAP1 POP SWAP2 SWAP1 POP JUMP JUMPDEST PUSH0 PUSH1 0x20 DUP3 ADD SWAP1 POP DUP2 DUP2 SUB PUSH0 DUP4 ADD MSTORE PUSH2 0xC6D DUP2 PUSH2 0xC34 JUMP JUMPDEST SWAP1 POP SWAP2 SWAP1 POP JUMP JUMPDEST PUSH32 0x4E487B7100000000000000000000000000000000000000000000000000000000 PUSH0 MSTORE PUSH1 0x11 PUSH1 0x4 MSTORE PUSH1 0x24 PUSH0 REVERT JUMPDEST PUSH0 PUSH2 0xCAB DUP3 PUSH2 0x852 JUMP JUMPDEST SWAP2 POP PUSH2 0xCB6 DUP4 PUSH2 0x852 JUMP JUMPDEST SWAP3 POP DUP3 DUP3 ADD SWAP1 POP DUP1 DUP3 GT ISZERO PUSH2 0xCCE JUMPI PUSH2 0xCCD PUSH2 0xC74 JUMP JUMPDEST JUMPDEST SWAP3 SWAP2 POP POP JUMP JUMPDEST PUSH0 PUSH2 0xCDE DUP3 PUSH2 0x852 JUMP JUMPDEST SWAP2 POP PUSH2 0xCE9 DUP4 PUSH2 0x852 JUMP JUMPDEST SWAP3 POP DUP3 DUP3 MUL PUSH2 0xCF7 DUP2 PUSH2 0x852 JUMP JUMPDEST SWAP2 POP DUP3 DUP3 DIV DUP5 EQ DUP4 ISZERO OR PUSH2 0xD0E JUMPI PUSH2 0xD0D PUSH2 0xC74 JUMP JUMPDEST JUMPDEST POP SWAP3 SWAP2 POP POP JUMP JUMPDEST PUSH32 0x4E487B7100000000000000000000000000000000000000000000000000000000 PUSH0 MSTORE PUSH1 0x12 PUSH1 0x4 MSTORE PUSH1 0x24 PUSH0 REVERT JUMPDEST PUSH0 PUSH2 0xD4C DUP3 PUSH2 0x852 JUMP JUMPDEST SWAP2 POP PUSH2 0xD57 DUP4 PUSH2 0x852 JUMP JUMPDEST SWAP3 POP DUP3 PUSH2 0xD67 JUMPI PUSH2 0xD66 PUSH2 0xD15 JUMP JUMPDEST JUMPDEST DUP3 DUP3 DIV SWAP1 POP SWAP3 SWAP2 POP POP JUMP INVALID LOG2 PUSH5 0x6970667358 0x22 SLT KECCAK256 PUSH4 0x612D01E1 0xCD DUP11 0xF7 DUP16 SWAP5 CHAINID MCOPY PUSH29 0x283C26FBCDA355B3951C6C5AE5914DA3DB1FCB64736F6C634300081C00 CALLER "
				},
				"gasEstimates": {
					"creation": {
						"codeDepositCost": "699200",
						"executionCost": "71368",
						"totalCost": "770568"
					},
					"external": {
						"fund()": "infinite",
						"fundersToAmount(address)": "2824",
						"getChainLinkDataFeedLatestAnswer()": "infinite",
						"getFund()": "infinite",
						"owner()": "2553",
						"refund()": "infinite",
						"transferOwnership(address)": "26950"
					},
					"internal": {
						"convertEthToUsd(uint256)": "infinite"
					}
				},
				"methodIdentifiers": {
					"fund()": "b60d4288",
					"fundersToAmount(address)": "9f883a05",
					"getChainLinkDataFeedLatestAnswer()": "5ab2bc20",
					"getFund()": "8edd6eb6",
					"owner()": "8da5cb5b",
					"refund()": "590e1ae3",
					"transferOwnership(address)": "f2fde38b"
				}
			},
			"storageLayout": {
				"storage": [
					{
						"astId": 53,
						"contract": "test/FundMe.sol:FundMe",
						"label": "dataFeed",
						"offset": 0,
						"slot": "0",
						"type": "t_contract(AggregatorV3Interface)45"
					},
					{
						"astId": 58,
						"contract": "test/FundMe.sol:FundMe",
						"label": "fundersToAmount",
						"offset": 0,
						"slot": "1",
						"type": "t_mapping(t_address,t_uint256)"
					},
					{
						"astId": 66,
						"contract": "test/FundMe.sol:FundMe",
						"label": "MINIMUM_VALUE",
						"offset": 0,
						"slot": "2",
						"type": "t_uint256"
					},
					{
						"astId": 77,
						"contract": "test/FundMe.sol:FundMe",
						"label": "owner",
						"offset": 0,
						"slot": "3",
						"type": "t_address"
					}
				],
				"types": {
					"t_address": {
						"encoding": "inplace",
						"label": "address",
						"numberOfBytes": "20"
					},
					"t_contract(AggregatorV3Interface)45": {
						"encoding": "inplace",
						"label": "contract AggregatorV3Interface",
						"numberOfBytes": "20"
					},
					"t_mapping(t_address,t_uint256)": {
						"encoding": "mapping",
						"key": "t_address",
						"label": "mapping(address => uint256)",
						"numberOfBytes": "32",
						"value": "t_uint256"
					},
					"t_uint256": {
						"encoding": "inplace",
						"label": "uint256",
						"numberOfBytes": "32"
					}
				}
			},
			"userdoc": {
				"kind": "user",
				"methods": {
					"constructor": {
						"notice": "NetWork:Sepolia testNet Aggregator:ETH/USD Address:0x694AA1769357215DE4FAC081bf1f309aDC325306"
					},
					"fund()": {
						"notice": "筹集资金，将资金捐赠人的地址和金额以key value的形式存入map中 require：最小收款金额应 >= MINIMUM_VALUE"
					},
					"fundersToAmount(address)": {
						"notice": "维护收款账户与金额的map"
					},
					"getChainLinkDataFeedLatestAnswer()": {
						"notice": "获得ETH/USD的汇率"
					},
					"getFund()": {
						"notice": "获取资金，将筹得的资金取出来"
					},
					"owner()": {
						"notice": "合约拥有者(在合约部署时赋值)"
					},
					"refund()": {
						"notice": "如果在指定期间内未达到筹集目标的金额，则进行退款"
					},
					"transferOwnership(address)": {
						"notice": "转换合约拥有者,需要当前合约拥有者本人调用"
					}
				},
				"version": 1
			}
		}
	}
}