{
	"test/test.sol": {
		"MyContract": {
			"abi": [
				{
					"inputs": [
						{
							"internalType": "uint8",
							"name": "_id",
							"type": "uint8"
						}
					],
					"name": "sayHellow",
					"outputs": [
						{
							"internalType": "string",
							"name": "",
							"type": "string"
						},
						{
							"internalType": "uint8",
							"name": "count",
							"type": "uint8"
						}
					],
					"stateMutability": "view",
					"type": "function"
				},
				{
					"inputs": [
						{
							"internalType": "uint8",
							"name": "_id",
							"type": "uint8"
						}
					],
					"name": "sayHellowFromMapping",
					"outputs": [
						{
							"internalType": "string",
							"name": "",
							"type": "string"
						}
					],
					"stateMutability": "view",
					"type": "function"
				},
				{
					"inputs": [
						{
							"internalType": "string",
							"name": "newString",
							"type": "string"
						}
					],
					"name": "setHello",
					"outputs": [],
					"stateMutability": "nonpayable",
					"type": "function"
				},
				{
					"inputs": [
						{
							"internalType": "string",
							"name": "str",
							"type": "string"
						},
						{
							"internalType": "uint8",
							"name": "_id",
							"type": "uint8"
						}
					],
					"name": "setInfo",
					"outputs": [],
					"stateMutability": "nonpayable",
					"type": "function"
				}
			],
			"devdoc": {
				"kind": "dev",
				"methods": {},
				"version": 1
			},
			"evm": {
				"assembly": "    /* \"test/test.sol\":99:3023  contract MyContract {... */\n  mstore(0x40, 0x80)\n    /* \"test/test.sol\":203:207  true */\n  0x01\n    /* \"test/test.sol\":189:207  bool bVar_1 = true */\n  0x00\n  exp(0x0100, 0x00)\n  dup2\n  sload\n  dup2\n  0xff\n  mul\n  not\n  and\n  swap1\n  dup4\n  iszero\n  iszero\n  mul\n  or\n  swap1\n  sstore\n  pop\n    /* \"test/test.sol\":228:233  false */\n  0x00\n    /* \"test/test.sol\":214:233  bool bVar_2 = false */\n  0x00\n  exp(0x0100, 0x01)\n  dup2\n  sload\n  dup2\n  0xff\n  mul\n  not\n  and\n  swap1\n  dup4\n  iszero\n  iszero\n  mul\n  or\n  swap1\n  sstore\n  pop\n    /* \"test/test.sol\":347:350  255 */\n  0xff\n    /* \"test/test.sol\":337:350  uint8 a = 255 */\n  0x00\n  exp(0x0100, 0x02)\n  dup2\n  sload\n  dup2\n  0xff\n  mul\n  not\n  and\n  swap1\n  dup4\n  0xff\n  and\n  mul\n  or\n  swap1\n  sstore\n  pop\n    /* \"test/test.sol\":369:446  44444444444444444444444444444444444444444444444444444444444444444444444444444 */\n  0x6242aa02f8e1440820dc068a41c19be2f67ca8a2dc5d9c71c71c71c71c71c71c\n    /* \"test/test.sol\":357:446  uint256 b = 44444444444444444444444444444444444444444444444444444444444444444444444444444 */\n  0x01\n  sstore\n    /* \"test/test.sol\":514:516  -1 */\n  0xffffffffffffffffffffffffffffffffffffffffffffffffffffffffffffffff\n    /* \"test/test.sol\":496:516  int256 intVar_1 = -1 */\n  0x02\n  sstore\n    /* \"test/test.sol\":673:701  bytes8 bytesVar = \"aaaaaaaa\" */\n  0x6161616161616161000000000000000000000000000000000000000000000000\n  0x03\n  exp(0x0100, 0x00)\n  dup2\n  sload\n  dup2\n  0xffffffffffffffff\n  mul\n  not\n  and\n  swap1\n  dup4\n  0xc0\n  shr\n  mul\n  or\n  swap1\n  sstore\n  pop\n    /* \"test/test.sol\":708:737  string strVar = \"Hello World\" */\n  mload(0x40)\n  dup1\n  0x40\n  add\n  0x40\n  mstore\n  dup1\n  0x0b\n  dup2\n  mstore\n  0x20\n  add\n  0x48656c6c6f20576f726c64000000000000000000000000000000000000000000\n  dup2\n  mstore\n  pop\n  0x04\n  swap1\n  dup2\n  tag_1\n  swap2\n  swap1\n  tag_2\n  jump\t// in\ntag_1:\n  pop\n    /* \"test/test.sol\":825:867  0x5B38Da6a701c568545dCfcB03FcB875f56beddC4 */\n  0x5b38da6a701c568545dcfcb03fcb875f56beddc4\n    /* \"test/test.sol\":807:867  address addrVar = 0x5B38Da6a701c568545dCfcB03FcB875f56beddC4 */\n  0x05\n  exp(0x0100, 0x00)\n  dup2\n  sload\n  dup2\n  0xffffffffffffffffffffffffffffffffffffffff\n  mul\n  not\n  and\n  swap1\n  dup4\n  0xffffffffffffffffffffffffffffffffffffffff\n  and\n  mul\n  or\n  swap1\n  sstore\n  pop\n    /* \"test/test.sol\":99:3023  contract MyContract {... */\n  callvalue\n  dup1\n  iszero\n  tag_3\n  jumpi\n  revert(0x00, 0x00)\ntag_3:\n  pop\n  jump(tag_4)\n    /* \"#utility.yul\":7:106   */\ntag_5:\n    /* \"#utility.yul\":59:65   */\n  0x00\n    /* \"#utility.yul\":93:98   */\n  dup2\n    /* \"#utility.yul\":87:99   */\n  mload\n    /* \"#utility.yul\":77:99   */\n  swap1\n  pop\n    /* \"#utility.yul\":7:106   */\n  swap2\n  swap1\n  pop\n  jump\t// out\n    /* \"#utility.yul\":112:292   */\ntag_6:\n    /* \"#utility.yul\":160:237   */\n  0x4e487b7100000000000000000000000000000000000000000000000000000000\n    /* \"#utility.yul\":157:158   */\n  0x00\n    /* \"#utility.yul\":150:238   */\n  mstore\n    /* \"#utility.yul\":257:261   */\n  0x41\n    /* \"#utility.yul\":254:255   */\n  0x04\n    /* \"#utility.yul\":247:262   */\n  mstore\n    /* \"#utility.yul\":281:285   */\n  0x24\n    /* \"#utility.yul\":278:279   */\n  0x00\n    /* \"#utility.yul\":271:286   */\n  revert\n    /* \"#utility.yul\":298:478   */\ntag_7:\n    /* \"#utility.yul\":346:423   */\n  0x4e487b7100000000000000000000000000000000000000000000000000000000\n    /* \"#utility.yul\":343:344   */\n  0x00\n    /* \"#utility.yul\":336:424   */\n  mstore\n    /* \"#utility.yul\":443:447   */\n  0x22\n    /* \"#utility.yul\":440:441   */\n  0x04\n    /* \"#utility.yul\":433:448   */\n  mstore\n    /* \"#utility.yul\":467:471   */\n  0x24\n    /* \"#utility.yul\":464:465   */\n  0x00\n    /* \"#utility.yul\":457:472   */\n  revert\n    /* \"#utility.yul\":484:804   */\ntag_8:\n    /* \"#utility.yul\":528:534   */\n  0x00\n    /* \"#utility.yul\":565:566   */\n  0x02\n    /* \"#utility.yul\":559:563   */\n  dup3\n    /* \"#utility.yul\":555:567   */\n  div\n    /* \"#utility.yul\":545:567   */\n  swap1\n  pop\n    /* \"#utility.yul\":612:613   */\n  0x01\n    /* \"#utility.yul\":606:610   */\n  dup3\n    /* \"#utility.yul\":602:614   */\n  and\n    /* \"#utility.yul\":633:651   */\n  dup1\n    /* \"#utility.yul\":623:704   */\n  tag_30\n  jumpi\n    /* \"#utility.yul\":689:693   */\n  0x7f\n    /* \"#utility.yul\":681:687   */\n  dup3\n    /* \"#utility.yul\":677:694   */\n  and\n    /* \"#utility.yul\":667:694   */\n  swap2\n  pop\n    /* \"#utility.yul\":623:704   */\ntag_30:\n    /* \"#utility.yul\":751:753   */\n  0x20\n    /* \"#utility.yul\":743:749   */\n  dup3\n    /* \"#utility.yul\":740:754   */\n  lt\n    /* \"#utility.yul\":720:738   */\n  dup2\n    /* \"#utility.yul\":717:755   */\n  sub\n    /* \"#utility.yul\":714:798   */\n  tag_31\n  jumpi\n    /* \"#utility.yul\":770:788   */\n  tag_32\n  tag_7\n  jump\t// in\ntag_32:\n    /* \"#utility.yul\":714:798   */\ntag_31:\n    /* \"#utility.yul\":535:804   */\n  pop\n    /* \"#utility.yul\":484:804   */\n  swap2\n  swap1\n  pop\n  jump\t// out\n    /* \"#utility.yul\":810:951   */\ntag_9:\n    /* \"#utility.yul\":859:863   */\n  0x00\n    /* \"#utility.yul\":882:885   */\n  dup2\n    /* \"#utility.yul\":874:885   */\n  swap1\n  pop\n    /* \"#utility.yul\":905:908   */\n  dup2\n    /* \"#utility.yul\":902:903   */\n  0x00\n    /* \"#utility.yul\":895:909   */\n  mstore\n    /* \"#utility.yul\":939:943   */\n  0x20\n    /* \"#utility.yul\":936:937   */\n  0x00\n    /* \"#utility.yul\":926:944   */\n  keccak256\n    /* \"#utility.yul\":918:944   */\n  swap1\n  pop\n    /* \"#utility.yul\":810:951   */\n  swap2\n  swap1\n  pop\n  jump\t// out\n    /* \"#utility.yul\":957:1050   */\ntag_10:\n    /* \"#utility.yul\":994:1000   */\n  0x00\n    /* \"#utility.yul\":1041:1043   */\n  0x20\n    /* \"#utility.yul\":1036:1038   */\n  0x1f\n    /* \"#utility.yul\":1029:1034   */\n  dup4\n    /* \"#utility.yul\":1025:1039   */\n  add\n    /* \"#utility.yul\":1021:1044   */\n  div\n    /* \"#utility.yul\":1011:1044   */\n  swap1\n  pop\n    /* \"#utility.yul\":957:1050   */\n  swap2\n  swap1\n  pop\n  jump\t// out\n    /* \"#utility.yul\":1056:1163   */\ntag_11:\n    /* \"#utility.yul\":1100:1108   */\n  0x00\n    /* \"#utility.yul\":1150:1155   */\n  dup3\n    /* \"#utility.yul\":1144:1148   */\n  dup3\n    /* \"#utility.yul\":1140:1156   */\n  shl\n    /* \"#utility.yul\":1119:1156   */\n  swap1\n  pop\n    /* \"#utility.yul\":1056:1163   */\n  swap3\n  swap2\n  pop\n  pop\n  jump\t// out\n    /* \"#utility.yul\":1169:1562   */\ntag_12:\n    /* \"#utility.yul\":1238:1244   */\n  0x00\n    /* \"#utility.yul\":1288:1289   */\n  0x08\n    /* \"#utility.yul\":1276:1286   */\n  dup4\n    /* \"#utility.yul\":1272:1290   */\n  mul\n    /* \"#utility.yul\":1311:1408   */\n  tag_37\n    /* \"#utility.yul\":1341:1407   */\n  0xffffffffffffffffffffffffffffffffffffffffffffffffffffffffffffffff\n    /* \"#utility.yul\":1330:1339   */\n  dup3\n    /* \"#utility.yul\":1311:1408   */\n  tag_11\n  jump\t// in\ntag_37:\n    /* \"#utility.yul\":1429:1468   */\n  tag_38\n    /* \"#utility.yul\":1459:1467   */\n  dup7\n    /* \"#utility.yul\":1448:1457   */\n  dup4\n    /* \"#utility.yul\":1429:1468   */\n  tag_11\n  jump\t// in\ntag_38:\n    /* \"#utility.yul\":1417:1468   */\n  swap6\n  pop\n    /* \"#utility.yul\":1501:1505   */\n  dup1\n    /* \"#utility.yul\":1497:1506   */\n  not\n    /* \"#utility.yul\":1490:1495   */\n  dup5\n    /* \"#utility.yul\":1486:1507   */\n  and\n    /* \"#utility.yul\":1477:1507   */\n  swap4\n  pop\n    /* \"#utility.yul\":1550:1554   */\n  dup1\n    /* \"#utility.yul\":1540:1548   */\n  dup7\n    /* \"#utility.yul\":1536:1555   */\n  and\n    /* \"#utility.yul\":1529:1534   */\n  dup5\n    /* \"#utility.yul\":1526:1556   */\n  or\n    /* \"#utility.yul\":1516:1556   */\n  swap3\n  pop\n    /* \"#utility.yul\":1245:1562   */\n  pop\n  pop\n    /* \"#utility.yul\":1169:1562   */\n  swap4\n  swap3\n  pop\n  pop\n  pop\n  jump\t// out\n    /* \"#utility.yul\":1568:1645   */\ntag_13:\n    /* \"#utility.yul\":1605:1612   */\n  0x00\n    /* \"#utility.yul\":1634:1639   */\n  dup2\n    /* \"#utility.yul\":1623:1639   */\n  swap1\n  pop\n    /* \"#utility.yul\":1568:1645   */\n  swap2\n  swap1\n  pop\n  jump\t// out\n    /* \"#utility.yul\":1651:1711   */\ntag_14:\n    /* \"#utility.yul\":1679:1682   */\n  0x00\n    /* \"#utility.yul\":1700:1705   */\n  dup2\n    /* \"#utility.yul\":1693:1705   */\n  swap1\n  pop\n    /* \"#utility.yul\":1651:1711   */\n  swap2\n  swap1\n  pop\n  jump\t// out\n    /* \"#utility.yul\":1717:1859   */\ntag_15:\n    /* \"#utility.yul\":1767:1776   */\n  0x00\n    /* \"#utility.yul\":1800:1853   */\n  tag_42\n    /* \"#utility.yul\":1818:1852   */\n  tag_43\n    /* \"#utility.yul\":1827:1851   */\n  tag_44\n    /* \"#utility.yul\":1845:1850   */\n  dup5\n    /* \"#utility.yul\":1827:1851   */\n  tag_13\n  jump\t// in\ntag_44:\n    /* \"#utility.yul\":1818:1852   */\n  tag_14\n  jump\t// in\ntag_43:\n    /* \"#utility.yul\":1800:1853   */\n  tag_13\n  jump\t// in\ntag_42:\n    /* \"#utility.yul\":1787:1853   */\n  swap1\n  pop\n    /* \"#utility.yul\":1717:1859   */\n  swap2\n  swap1\n  pop\n  jump\t// out\n    /* \"#utility.yul\":1865:1940   */\ntag_16:\n    /* \"#utility.yul\":1908:1911   */\n  0x00\n    /* \"#utility.yul\":1929:1934   */\n  dup2\n    /* \"#utility.yul\":1922:1934   */\n  swap1\n  pop\n    /* \"#utility.yul\":1865:1940   */\n  swap2\n  swap1\n  pop\n  jump\t// out\n    /* \"#utility.yul\":1946:2215   */\ntag_17:\n    /* \"#utility.yul\":2056:2095   */\n  tag_47\n    /* \"#utility.yul\":2087:2094   */\n  dup4\n    /* \"#utility.yul\":2056:2095   */\n  tag_15\n  jump\t// in\ntag_47:\n    /* \"#utility.yul\":2117:2208   */\n  tag_48\n    /* \"#utility.yul\":2166:2207   */\n  tag_49\n    /* \"#utility.yul\":2190:2206   */\n  dup3\n    /* \"#utility.yul\":2166:2207   */\n  tag_16\n  jump\t// in\ntag_49:\n    /* \"#utility.yul\":2158:2164   */\n  dup5\n    /* \"#utility.yul\":2151:2155   */\n  dup5\n    /* \"#utility.yul\":2145:2156   */\n  sload\n    /* \"#utility.yul\":2117:2208   */\n  tag_12\n  jump\t// in\ntag_48:\n    /* \"#utility.yul\":2111:2115   */\n  dup3\n    /* \"#utility.yul\":2104:2209   */\n  sstore\n    /* \"#utility.yul\":2022:2215   */\n  pop\n    /* \"#utility.yul\":1946:2215   */\n  pop\n  pop\n  pop\n  jump\t// out\n    /* \"#utility.yul\":2221:2294   */\ntag_18:\n    /* \"#utility.yul\":2266:2269   */\n  0x00\n    /* \"#utility.yul\":2287:2288   */\n  0x00\n    /* \"#utility.yul\":2280:2288   */\n  swap1\n  pop\n    /* \"#utility.yul\":2221:2294   */\n  swap1\n  jump\t// out\n    /* \"#utility.yul\":2300:2489   */\ntag_19:\n    /* \"#utility.yul\":2377:2409   */\n  tag_52\n  tag_18\n  jump\t// in\ntag_52:\n    /* \"#utility.yul\":2418:2483   */\n  tag_53\n    /* \"#utility.yul\":2476:2482   */\n  dup2\n    /* \"#utility.yul\":2468:2474   */\n  dup5\n    /* \"#utility.yul\":2462:2466   */\n  dup5\n    /* \"#utility.yul\":2418:2483   */\n  tag_17\n  jump\t// in\ntag_53:\n    /* \"#utility.yul\":2353:2489   */\n  pop\n    /* \"#utility.yul\":2300:2489   */\n  pop\n  pop\n  jump\t// out\n    /* \"#utility.yul\":2495:2681   */\ntag_20:\n    /* \"#utility.yul\":2555:2675   */\ntag_55:\n    /* \"#utility.yul\":2572:2575   */\n  dup2\n    /* \"#utility.yul\":2565:2570   */\n  dup2\n    /* \"#utility.yul\":2562:2576   */\n  lt\n    /* \"#utility.yul\":2555:2675   */\n  iszero\n  tag_57\n  jumpi\n    /* \"#utility.yul\":2626:2665   */\n  tag_58\n    /* \"#utility.yul\":2663:2664   */\n  0x00\n    /* \"#utility.yul\":2656:2661   */\n  dup3\n    /* \"#utility.yul\":2626:2665   */\n  tag_19\n  jump\t// in\ntag_58:\n    /* \"#utility.yul\":2599:2600   */\n  0x01\n    /* \"#utility.yul\":2592:2597   */\n  dup2\n    /* \"#utility.yul\":2588:2601   */\n  add\n    /* \"#utility.yul\":2579:2601   */\n  swap1\n  pop\n    /* \"#utility.yul\":2555:2675   */\n  jump(tag_55)\ntag_57:\n    /* \"#utility.yul\":2495:2681   */\n  pop\n  pop\n  jump\t// out\n    /* \"#utility.yul\":2687:3230   */\ntag_21:\n    /* \"#utility.yul\":2788:2790   */\n  0x1f\n    /* \"#utility.yul\":2783:2786   */\n  dup3\n    /* \"#utility.yul\":2780:2791   */\n  gt\n    /* \"#utility.yul\":2777:3223   */\n  iszero\n  tag_60\n  jumpi\n    /* \"#utility.yul\":2822:2860   */\n  tag_61\n    /* \"#utility.yul\":2854:2859   */\n  dup2\n    /* \"#utility.yul\":2822:2860   */\n  tag_9\n  jump\t// in\ntag_61:\n    /* \"#utility.yul\":2906:2935   */\n  tag_62\n    /* \"#utility.yul\":2924:2934   */\n  dup5\n    /* \"#utility.yul\":2906:2935   */\n  tag_10\n  jump\t// in\ntag_62:\n    /* \"#utility.yul\":2896:2904   */\n  dup2\n    /* \"#utility.yul\":2892:2936   */\n  add\n    /* \"#utility.yul\":3089:3091   */\n  0x20\n    /* \"#utility.yul\":3077:3087   */\n  dup6\n    /* \"#utility.yul\":3074:3092   */\n  lt\n    /* \"#utility.yul\":3071:3120   */\n  iszero\n  tag_63\n  jumpi\n    /* \"#utility.yul\":3110:3118   */\n  dup2\n    /* \"#utility.yul\":3095:3118   */\n  swap1\n  pop\n    /* \"#utility.yul\":3071:3120   */\ntag_63:\n    /* \"#utility.yul\":3133:3213   */\n  tag_64\n    /* \"#utility.yul\":3189:3211   */\n  tag_65\n    /* \"#utility.yul\":3207:3210   */\n  dup6\n    /* \"#utility.yul\":3189:3211   */\n  tag_10\n  jump\t// in\ntag_65:\n    /* \"#utility.yul\":3179:3187   */\n  dup4\n    /* \"#utility.yul\":3175:3212   */\n  add\n    /* \"#utility.yul\":3162:3173   */\n  dup3\n    /* \"#utility.yul\":3133:3213   */\n  tag_20\n  jump\t// in\ntag_64:\n    /* \"#utility.yul\":2792:3223   */\n  pop\n  pop\n    /* \"#utility.yul\":2777:3223   */\ntag_60:\n    /* \"#utility.yul\":2687:3230   */\n  pop\n  pop\n  pop\n  jump\t// out\n    /* \"#utility.yul\":3236:3353   */\ntag_22:\n    /* \"#utility.yul\":3290:3298   */\n  0x00\n    /* \"#utility.yul\":3340:3345   */\n  dup3\n    /* \"#utility.yul\":3334:3338   */\n  dup3\n    /* \"#utility.yul\":3330:3346   */\n  shr\n    /* \"#utility.yul\":3309:3346   */\n  swap1\n  pop\n    /* \"#utility.yul\":3236:3353   */\n  swap3\n  swap2\n  pop\n  pop\n  jump\t// out\n    /* \"#utility.yul\":3359:3528   */\ntag_23:\n    /* \"#utility.yul\":3403:3409   */\n  0x00\n    /* \"#utility.yul\":3436:3487   */\n  tag_68\n    /* \"#utility.yul\":3484:3485   */\n  0x00\n    /* \"#utility.yul\":3480:3486   */\n  not\n    /* \"#utility.yul\":3472:3477   */\n  dup5\n    /* \"#utility.yul\":3469:3470   */\n  0x08\n    /* \"#utility.yul\":3465:3478   */\n  mul\n    /* \"#utility.yul\":3436:3487   */\n  tag_22\n  jump\t// in\ntag_68:\n    /* \"#utility.yul\":3432:3488   */\n  not\n    /* \"#utility.yul\":3517:3521   */\n  dup1\n    /* \"#utility.yul\":3511:3515   */\n  dup4\n    /* \"#utility.yul\":3507:3522   */\n  and\n    /* \"#utility.yul\":3497:3522   */\n  swap2\n  pop\n    /* \"#utility.yul\":3410:3528   */\n  pop\n    /* \"#utility.yul\":3359:3528   */\n  swap3\n  swap2\n  pop\n  pop\n  jump\t// out\n    /* \"#utility.yul\":3533:3828   */\ntag_24:\n    /* \"#utility.yul\":3609:3613   */\n  0x00\n    /* \"#utility.yul\":3755:3784   */\n  tag_70\n    /* \"#utility.yul\":3780:3783   */\n  dup4\n    /* \"#utility.yul\":3774:3778   */\n  dup4\n    /* \"#utility.yul\":3755:3784   */\n  tag_23\n  jump\t// in\ntag_70:\n    /* \"#utility.yul\":3747:3784   */\n  swap2\n  pop\n    /* \"#utility.yul\":3817:3820   */\n  dup3\n    /* \"#utility.yul\":3814:3815   */\n  0x02\n    /* \"#utility.yul\":3810:3821   */\n  mul\n    /* \"#utility.yul\":3804:3808   */\n  dup3\n    /* \"#utility.yul\":3801:3822   */\n  or\n    /* \"#utility.yul\":3793:3822   */\n  swap1\n  pop\n    /* \"#utility.yul\":3533:3828   */\n  swap3\n  swap2\n  pop\n  pop\n  jump\t// out\n    /* \"#utility.yul\":3833:5228   */\ntag_2:\n    /* \"#utility.yul\":3950:3987   */\n  tag_72\n    /* \"#utility.yul\":3983:3986   */\n  dup3\n    /* \"#utility.yul\":3950:3987   */\n  tag_5\n  jump\t// in\ntag_72:\n    /* \"#utility.yul\":4052:4070   */\n  0xffffffffffffffff\n    /* \"#utility.yul\":4044:4050   */\n  dup2\n    /* \"#utility.yul\":4041:4071   */\n  gt\n    /* \"#utility.yul\":4038:4094   */\n  iszero\n  tag_73\n  jumpi\n    /* \"#utility.yul\":4074:4092   */\n  tag_74\n  tag_6\n  jump\t// in\ntag_74:\n    /* \"#utility.yul\":4038:4094   */\ntag_73:\n    /* \"#utility.yul\":4118:4156   */\n  tag_75\n    /* \"#utility.yul\":4150:4154   */\n  dup3\n    /* \"#utility.yul\":4144:4155   */\n  sload\n    /* \"#utility.yul\":4118:4156   */\n  tag_8\n  jump\t// in\ntag_75:\n    /* \"#utility.yul\":4203:4270   */\n  tag_76\n    /* \"#utility.yul\":4263:4269   */\n  dup3\n    /* \"#utility.yul\":4255:4261   */\n  dup3\n    /* \"#utility.yul\":4249:4253   */\n  dup6\n    /* \"#utility.yul\":4203:4270   */\n  tag_21\n  jump\t// in\ntag_76:\n    /* \"#utility.yul\":4297:4298   */\n  0x00\n    /* \"#utility.yul\":4321:4325   */\n  0x20\n    /* \"#utility.yul\":4308:4325   */\n  swap1\n  pop\n    /* \"#utility.yul\":4353:4355   */\n  0x1f\n    /* \"#utility.yul\":4345:4351   */\n  dup4\n    /* \"#utility.yul\":4342:4356   */\n  gt\n    /* \"#utility.yul\":4370:4371   */\n  0x01\n    /* \"#utility.yul\":4365:4983   */\n  dup2\n  eq\n  tag_78\n  jumpi\n    /* \"#utility.yul\":5027:5028   */\n  0x00\n    /* \"#utility.yul\":5044:5050   */\n  dup5\n    /* \"#utility.yul\":5041:5118   */\n  iszero\n  tag_79\n  jumpi\n    /* \"#utility.yul\":5093:5102   */\n  dup3\n    /* \"#utility.yul\":5088:5091   */\n  dup8\n    /* \"#utility.yul\":5084:5103   */\n  add\n    /* \"#utility.yul\":5078:5104   */\n  mload\n    /* \"#utility.yul\":5069:5104   */\n  swap1\n  pop\n    /* \"#utility.yul\":5041:5118   */\ntag_79:\n    /* \"#utility.yul\":5144:5211   */\n  tag_80\n    /* \"#utility.yul\":5204:5210   */\n  dup6\n    /* \"#utility.yul\":5197:5202   */\n  dup3\n    /* \"#utility.yul\":5144:5211   */\n  tag_24\n  jump\t// in\ntag_80:\n    /* \"#utility.yul\":5138:5142   */\n  dup7\n    /* \"#utility.yul\":5131:5212   */\n  sstore\n    /* \"#utility.yul\":5000:5222   */\n  pop\n    /* \"#utility.yul\":4335:5222   */\n  jump(tag_77)\n    /* \"#utility.yul\":4365:4983   */\ntag_78:\n    /* \"#utility.yul\":4417:4421   */\n  0x1f\n    /* \"#utility.yul\":4413:4422   */\n  not\n    /* \"#utility.yul\":4405:4411   */\n  dup5\n    /* \"#utility.yul\":4401:4423   */\n  and\n    /* \"#utility.yul\":4451:4488   */\n  tag_81\n    /* \"#utility.yul\":4483:4487   */\n  dup7\n    /* \"#utility.yul\":4451:4488   */\n  tag_9\n  jump\t// in\ntag_81:\n    /* \"#utility.yul\":4510:4511   */\n  0x00\n    /* \"#utility.yul\":4524:4732   */\ntag_82:\n    /* \"#utility.yul\":4538:4545   */\n  dup3\n    /* \"#utility.yul\":4535:4536   */\n  dup2\n    /* \"#utility.yul\":4532:4546   */\n  lt\n    /* \"#utility.yul\":4524:4732   */\n  iszero\n  tag_84\n  jumpi\n    /* \"#utility.yul\":4617:4626   */\n  dup5\n    /* \"#utility.yul\":4612:4615   */\n  dup10\n    /* \"#utility.yul\":4608:4627   */\n  add\n    /* \"#utility.yul\":4602:4628   */\n  mload\n    /* \"#utility.yul\":4594:4600   */\n  dup3\n    /* \"#utility.yul\":4587:4629   */\n  sstore\n    /* \"#utility.yul\":4668:4669   */\n  0x01\n    /* \"#utility.yul\":4660:4666   */\n  dup3\n    /* \"#utility.yul\":4656:4670   */\n  add\n    /* \"#utility.yul\":4646:4670   */\n  swap2\n  pop\n    /* \"#utility.yul\":4715:4717   */\n  0x20\n    /* \"#utility.yul\":4704:4713   */\n  dup6\n    /* \"#utility.yul\":4700:4718   */\n  add\n    /* \"#utility.yul\":4687:4718   */\n  swap5\n  pop\n    /* \"#utility.yul\":4561:4565   */\n  0x20\n    /* \"#utility.yul\":4558:4559   */\n  dup2\n    /* \"#utility.yul\":4554:4566   */\n  add\n    /* \"#utility.yul\":4549:4566   */\n  swap1\n  pop\n    /* \"#utility.yul\":4524:4732   */\n  jump(tag_82)\ntag_84:\n    /* \"#utility.yul\":4760:4766   */\n  dup7\n    /* \"#utility.yul\":4751:4758   */\n  dup4\n    /* \"#utility.yul\":4748:4767   */\n  lt\n    /* \"#utility.yul\":4745:4924   */\n  iszero\n  tag_85\n  jumpi\n    /* \"#utility.yul\":4818:4827   */\n  dup5\n    /* \"#utility.yul\":4813:4816   */\n  dup10\n    /* \"#utility.yul\":4809:4828   */\n  add\n    /* \"#utility.yul\":4803:4829   */\n  mload\n    /* \"#utility.yul\":4861:4909   */\n  tag_86\n    /* \"#utility.yul\":4903:4907   */\n  0x1f\n    /* \"#utility.yul\":4895:4901   */\n  dup10\n    /* \"#utility.yul\":4891:4908   */\n  and\n    /* \"#utility.yul\":4880:4889   */\n  dup3\n    /* \"#utility.yul\":4861:4909   */\n  tag_23\n  jump\t// in\ntag_86:\n    /* \"#utility.yul\":4853:4859   */\n  dup4\n    /* \"#utility.yul\":4846:4910   */\n  sstore\n    /* \"#utility.yul\":4768:4924   */\n  pop\n    /* \"#utility.yul\":4745:4924   */\ntag_85:\n    /* \"#utility.yul\":4970:4971   */\n  0x01\n    /* \"#utility.yul\":4966:4967   */\n  0x02\n    /* \"#utility.yul\":4958:4964   */\n  dup9\n    /* \"#utility.yul\":4954:4968   */\n  mul\n    /* \"#utility.yul\":4950:4972   */\n  add\n    /* \"#utility.yul\":4944:4948   */\n  dup9\n    /* \"#utility.yul\":4937:4973   */\n  sstore\n    /* \"#utility.yul\":4372:4983   */\n  pop\n  pop\n  pop\n    /* \"#utility.yul\":4335:5222   */\ntag_77:\n  pop\n    /* \"#utility.yul\":3925:5228   */\n  pop\n  pop\n  pop\n    /* \"#utility.yul\":3833:5228   */\n  pop\n  pop\n  jump\t// out\n    /* \"test/test.sol\":99:3023  contract MyContract {... */\ntag_4:\n  dataSize(sub_0)\n  dup1\n  dataOffset(sub_0)\n  0x00\n  codecopy\n  0x00\n  return\nstop\n\nsub_0: assembly {\n        /* \"test/test.sol\":99:3023  contract MyContract {... */\n      mstore(0x40, 0x80)\n      callvalue\n      dup1\n      iszero\n      tag_1\n      jumpi\n      revert(0x00, 0x00)\n    tag_1:\n      pop\n      jumpi(tag_2, lt(calldatasize, 0x04))\n      shr(0xe0, calldataload(0x00))\n      dup1\n      0x435ffe94\n      eq\n      tag_3\n      jumpi\n      dup1\n      0x46f8840a\n      eq\n      tag_4\n      jumpi\n      dup1\n      0xac8e64c8\n      eq\n      tag_5\n      jumpi\n      dup1\n      0xacb180ff\n      eq\n      tag_6\n      jumpi\n    tag_2:\n      revert(0x00, 0x00)\n        /* \"test/test.sol\":1602:1689  function setHello(string memory newString) public {... */\n    tag_3:\n      tag_7\n      0x04\n      dup1\n      calldatasize\n      sub\n      dup2\n      add\n      swap1\n      tag_8\n      swap2\n      swap1\n      tag_9\n      jump\t// in\n    tag_8:\n      tag_10\n      jump\t// in\n    tag_7:\n      stop\n        /* \"test/test.sol\":2761:3020  function sayHellowFromMapping(uint8 _id) external view returns(string memory) {... */\n    tag_4:\n      tag_11\n      0x04\n      dup1\n      calldatasize\n      sub\n      dup2\n      add\n      swap1\n      tag_12\n      swap2\n      swap1\n      tag_13\n      jump\t// in\n    tag_12:\n      tag_14\n      jump\t// in\n    tag_11:\n      mload(0x40)\n      tag_15\n      swap2\n      swap1\n      tag_16\n      jump\t// in\n    tag_15:\n      mload(0x40)\n      dup1\n      swap2\n      sub\n      swap1\n      return\n        /* \"test/test.sol\":2292:2702  function sayHellow(uint8 _id) external view returns(string memory, uint8 count) {... */\n    tag_5:\n      tag_17\n      0x04\n      dup1\n      calldatasize\n      sub\n      dup2\n      add\n      swap1\n      tag_18\n      swap2\n      swap1\n      tag_13\n      jump\t// in\n    tag_18:\n      tag_19\n      jump\t// in\n    tag_17:\n      mload(0x40)\n      tag_20\n      swap3\n      swap2\n      swap1\n      tag_21\n      jump\t// in\n    tag_20:\n      mload(0x40)\n      dup1\n      swap2\n      sub\n      swap1\n      return\n        /* \"test/test.sol\":2103:2284  function setInfo(string memory str, uint8 _id) external {... */\n    tag_6:\n      tag_22\n      0x04\n      dup1\n      calldatasize\n      sub\n      dup2\n      add\n      swap1\n      tag_23\n      swap2\n      swap1\n      tag_24\n      jump\t// in\n    tag_23:\n      tag_25\n      jump\t// in\n    tag_22:\n      stop\n        /* \"test/test.sol\":1602:1689  function setHello(string memory newString) public {... */\n    tag_10:\n        /* \"test/test.sol\":1672:1681  newString */\n      dup1\n        /* \"test/test.sol\":1663:1669  strVar */\n      0x04\n        /* \"test/test.sol\":1663:1681  strVar = newString */\n      swap1\n      dup2\n      tag_27\n      swap2\n      swap1\n      tag_28\n      jump\t// in\n    tag_27:\n      pop\n        /* \"test/test.sol\":1602:1689  function setHello(string memory newString) public {... */\n      pop\n      jump\t// out\n        /* \"test/test.sol\":2761:3020  function sayHellowFromMapping(uint8 _id) external view returns(string memory) {... */\n    tag_14:\n        /* \"test/test.sol\":2824:2837  string memory */\n      0x60\n        /* \"test/test.sol\":2887:2890  0x0 */\n      0x00\n        /* \"test/test.sol\":2854:2891  infoMapping[_id].addr != address(0x0) */\n      0xffffffffffffffffffffffffffffffffffffffff\n      and\n        /* \"test/test.sol\":2854:2865  infoMapping */\n      0x07\n        /* \"test/test.sol\":2854:2870  infoMapping[_id] */\n      0x00\n        /* \"test/test.sol\":2866:2869  _id */\n      dup5\n        /* \"test/test.sol\":2854:2870  infoMapping[_id] */\n      0xff\n      and\n      0xff\n      and\n      dup2\n      mstore\n      0x20\n      add\n      swap1\n      dup2\n      mstore\n      0x20\n      add\n      0x00\n      keccak256\n        /* \"test/test.sol\":2854:2875  infoMapping[_id].addr */\n      0x01\n      add\n      0x01\n      swap1\n      sload\n      swap1\n      0x0100\n      exp\n      swap1\n      div\n      0xffffffffffffffffffffffffffffffffffffffff\n      and\n        /* \"test/test.sol\":2854:2891  infoMapping[_id].addr != address(0x0) */\n      0xffffffffffffffffffffffffffffffffffffffff\n      and\n      eq\n        /* \"test/test.sol\":2850:3013  if (infoMapping[_id].addr != address(0x0)) {... */\n      tag_30\n      jumpi\n        /* \"test/test.sol\":2915:2947  addInfo(infoMapping[_id].phrase) */\n      tag_31\n        /* \"test/test.sol\":2923:2934  infoMapping */\n      0x07\n        /* \"test/test.sol\":2923:2939  infoMapping[_id] */\n      0x00\n        /* \"test/test.sol\":2935:2938  _id */\n      dup5\n        /* \"test/test.sol\":2923:2939  infoMapping[_id] */\n      0xff\n      and\n      0xff\n      and\n      dup2\n      mstore\n      0x20\n      add\n      swap1\n      dup2\n      mstore\n      0x20\n      add\n      0x00\n      keccak256\n        /* \"test/test.sol\":2923:2946  infoMapping[_id].phrase */\n      0x00\n      add\n        /* \"test/test.sol\":2915:2947  addInfo(infoMapping[_id].phrase) */\n      dup1\n      sload\n      tag_32\n      swap1\n      tag_33\n      jump\t// in\n    tag_32:\n      dup1\n      0x1f\n      add\n      0x20\n      dup1\n      swap2\n      div\n      mul\n      0x20\n      add\n      mload(0x40)\n      swap1\n      dup2\n      add\n      0x40\n      mstore\n      dup1\n      swap3\n      swap2\n      swap1\n      dup2\n      dup2\n      mstore\n      0x20\n      add\n      dup3\n      dup1\n      sload\n      tag_34\n      swap1\n      tag_33\n      jump\t// in\n    tag_34:\n      dup1\n      iszero\n      tag_35\n      jumpi\n      dup1\n      0x1f\n      lt\n      tag_36\n      jumpi\n      0x0100\n      dup1\n      dup4\n      sload\n      div\n      mul\n      dup4\n      mstore\n      swap2\n      0x20\n      add\n      swap2\n      jump(tag_35)\n    tag_36:\n      dup3\n      add\n      swap2\n      swap1\n      0x00\n      mstore\n      keccak256(0x00, 0x20)\n      swap1\n    tag_37:\n      dup2\n      sload\n      dup2\n      mstore\n      swap1\n      0x01\n      add\n      swap1\n      0x20\n      add\n      dup1\n      dup4\n      gt\n      tag_37\n      jumpi\n      dup3\n      swap1\n      sub\n      0x1f\n      and\n      dup3\n      add\n      swap2\n    tag_35:\n      pop\n      pop\n      pop\n      pop\n      pop\n        /* \"test/test.sol\":2915:2922  addInfo */\n      tag_38\n        /* \"test/test.sol\":2915:2947  addInfo(infoMapping[_id].phrase) */\n      jump\t// in\n    tag_31:\n        /* \"test/test.sol\":2908:2947  return addInfo(infoMapping[_id].phrase) */\n      swap1\n      pop\n      jump(tag_29)\n        /* \"test/test.sol\":2850:3013  if (infoMapping[_id].addr != address(0x0)) {... */\n    tag_30:\n        /* \"test/test.sol\":2987:3001  testFunction() */\n      tag_40\n        /* \"test/test.sol\":2987:2999  testFunction */\n      tag_41\n        /* \"test/test.sol\":2987:3001  testFunction() */\n      jump\t// in\n    tag_40:\n        /* \"test/test.sol\":2980:3001  return testFunction() */\n      swap1\n      pop\n        /* \"test/test.sol\":2761:3020  function sayHellowFromMapping(uint8 _id) external view returns(string memory) {... */\n    tag_29:\n      swap2\n      swap1\n      pop\n      jump\t// out\n        /* \"test/test.sol\":2292:2702  function sayHellow(uint8 _id) external view returns(string memory, uint8 count) {... */\n    tag_19:\n        /* \"test/test.sol\":2344:2357  string memory */\n      0x60\n        /* \"test/test.sol\":2359:2370  uint8 count */\n      0x00\n        /* \"test/test.sol\":2391:2392  0 */\n      0x00\n        /* \"test/test.sol\":2383:2392  count = 0 */\n      swap1\n      pop\n        /* \"test/test.sol\":2408:2415  uint8 i */\n      0x00\n        /* \"test/test.sol\":2418:2419  0 */\n      0x00\n        /* \"test/test.sol\":2408:2419  uint8 i = 0 */\n      swap1\n      pop\n        /* \"test/test.sol\":2403:2654  for (uint8 i = 0; i < infos.length; i++) {... */\n    tag_43:\n        /* \"test/test.sol\":2425:2430  infos */\n      0x06\n        /* \"test/test.sol\":2425:2437  infos.length */\n      dup1\n      sload\n      swap1\n      pop\n        /* \"test/test.sol\":2421:2422  i */\n      dup2\n        /* \"test/test.sol\":2421:2437  i < infos.length */\n      0xff\n      and\n      lt\n        /* \"test/test.sol\":2403:2654  for (uint8 i = 0; i < infos.length; i++) {... */\n      iszero\n      tag_44\n      jumpi\n        /* \"test/test.sol\":2478:2481  _id */\n      dup4\n        /* \"test/test.sol\":2463:2481  infos[i].id == _id */\n      0xff\n      and\n        /* \"test/test.sol\":2463:2468  infos */\n      0x06\n        /* \"test/test.sol\":2469:2470  i */\n      dup3\n        /* \"test/test.sol\":2463:2471  infos[i] */\n      0xff\n      and\n      dup2\n      sload\n      dup2\n      lt\n      tag_46\n      jumpi\n      tag_47\n      tag_48\n      jump\t// in\n    tag_47:\n    tag_46:\n      swap1\n      0x00\n      mstore\n      keccak256(0x00, 0x20)\n      swap1\n      0x02\n      mul\n      add\n        /* \"test/test.sol\":2463:2474  infos[i].id */\n      0x01\n      add\n      0x00\n      swap1\n      sload\n      swap1\n      0x0100\n      exp\n      swap1\n      div\n      0xff\n      and\n        /* \"test/test.sol\":2463:2481  infos[i].id == _id */\n      0xff\n      and\n      sub\n        /* \"test/test.sol\":2459:2643  if (infos[i].id == _id) {... */\n      tag_50\n      jumpi\n        /* \"test/test.sol\":2502:2509  count++ */\n      dup2\n      dup1\n      tag_51\n      swap1\n      tag_52\n      jump\t// in\n    tag_51:\n      swap3\n      pop\n      pop\n        /* \"test/test.sol\":2541:2543  10 */\n      0x0a\n        /* \"test/test.sol\":2532:2537  count */\n      dup3\n        /* \"test/test.sol\":2532:2543  count == 10 */\n      0xff\n      and\n      sub\n        /* \"test/test.sol\":2528:2628  if (count == 10) {... */\n      tag_53\n      jumpi\n        /* \"test/test.sol\":2576:2600  addInfo(infos[i].phrase) */\n      tag_54\n        /* \"test/test.sol\":2584:2589  infos */\n      0x06\n        /* \"test/test.sol\":2590:2591  i */\n      dup3\n        /* \"test/test.sol\":2584:2592  infos[i] */\n      0xff\n      and\n      dup2\n      sload\n      dup2\n      lt\n      tag_55\n      jumpi\n      tag_56\n      tag_48\n      jump\t// in\n    tag_56:\n    tag_55:\n      swap1\n      0x00\n      mstore\n      keccak256(0x00, 0x20)\n      swap1\n      0x02\n      mul\n      add\n        /* \"test/test.sol\":2584:2599  infos[i].phrase */\n      0x00\n      add\n        /* \"test/test.sol\":2576:2600  addInfo(infos[i].phrase) */\n      dup1\n      sload\n      tag_58\n      swap1\n      tag_33\n      jump\t// in\n    tag_58:\n      dup1\n      0x1f\n      add\n      0x20\n      dup1\n      swap2\n      div\n      mul\n      0x20\n      add\n      mload(0x40)\n      swap1\n      dup2\n      add\n      0x40\n      mstore\n      dup1\n      swap3\n      swap2\n      swap1\n      dup2\n      dup2\n      mstore\n      0x20\n      add\n      dup3\n      dup1\n      sload\n      tag_59\n      swap1\n      tag_33\n      jump\t// in\n    tag_59:\n      dup1\n      iszero\n      tag_60\n      jumpi\n      dup1\n      0x1f\n      lt\n      tag_61\n      jumpi\n      0x0100\n      dup1\n      dup4\n      sload\n      div\n      mul\n      dup4\n      mstore\n      swap2\n      0x20\n      add\n      swap2\n      jump(tag_60)\n    tag_61:\n      dup3\n      add\n      swap2\n      swap1\n      0x00\n      mstore\n      keccak256(0x00, 0x20)\n      swap1\n    tag_62:\n      dup2\n      sload\n      dup2\n      mstore\n      swap1\n      0x01\n      add\n      swap1\n      0x20\n      add\n      dup1\n      dup4\n      gt\n      tag_62\n      jumpi\n      dup3\n      swap1\n      sub\n      0x1f\n      and\n      dup3\n      add\n      swap2\n    tag_60:\n      pop\n      pop\n      pop\n      pop\n      pop\n        /* \"test/test.sol\":2576:2583  addInfo */\n      tag_38\n        /* \"test/test.sol\":2576:2600  addInfo(infos[i].phrase) */\n      jump\t// in\n    tag_54:\n        /* \"test/test.sol\":2568:2608  return (addInfo(infos[i].phrase), count) */\n      swap3\n      pop\n      pop\n      jump(tag_42)\n        /* \"test/test.sol\":2528:2628  if (count == 10) {... */\n    tag_53:\n        /* \"test/test.sol\":2459:2643  if (infos[i].id == _id) {... */\n    tag_50:\n        /* \"test/test.sol\":2439:2442  i++ */\n      dup1\n      dup1\n      tag_63\n      swap1\n      tag_52\n      jump\t// in\n    tag_63:\n      swap2\n      pop\n      pop\n        /* \"test/test.sol\":2403:2654  for (uint8 i = 0; i < infos.length; i++) {... */\n      jump(tag_43)\n    tag_44:\n      pop\n        /* \"test/test.sol\":2672:2686  testFunction() */\n      tag_64\n        /* \"test/test.sol\":2672:2684  testFunction */\n      tag_41\n        /* \"test/test.sol\":2672:2686  testFunction() */\n      jump\t// in\n    tag_64:\n        /* \"test/test.sol\":2664:2694  return (testFunction(), count) */\n      swap2\n      pop\n        /* \"test/test.sol\":2292:2702  function sayHellow(uint8 _id) external view returns(string memory, uint8 count) {... */\n    tag_42:\n      swap2\n      pop\n      swap2\n      jump\t// out\n        /* \"test/test.sol\":2103:2284  function setInfo(string memory str, uint8 _id) external {... */\n    tag_25:\n        /* \"test/test.sol\":2170:2186  Info memory info */\n      0x00\n        /* \"test/test.sol\":2189:2215  Info(str, _id, msg.sender) */\n      mload(0x40)\n      dup1\n      0x60\n      add\n      0x40\n      mstore\n      dup1\n        /* \"test/test.sol\":2194:2197  str */\n      dup5\n        /* \"test/test.sol\":2189:2215  Info(str, _id, msg.sender) */\n      dup2\n      mstore\n      0x20\n      add\n        /* \"test/test.sol\":2199:2202  _id */\n      dup4\n        /* \"test/test.sol\":2189:2215  Info(str, _id, msg.sender) */\n      0xff\n      and\n      dup2\n      mstore\n      0x20\n      add\n        /* \"test/test.sol\":2204:2214  msg.sender */\n      caller\n        /* \"test/test.sol\":2189:2215  Info(str, _id, msg.sender) */\n      0xffffffffffffffffffffffffffffffffffffffff\n      and\n      dup2\n      mstore\n      pop\n        /* \"test/test.sol\":2170:2215  Info memory info = Info(str, _id, msg.sender) */\n      swap1\n      pop\n        /* \"test/test.sol\":2226:2231  infos */\n      0x06\n        /* \"test/test.sol\":2237:2241  info */\n      dup2\n        /* \"test/test.sol\":2226:2242  infos.push(info) */\n      swap1\n      dup1\n      0x01\n      dup2\n      sload\n      add\n      dup1\n      dup3\n      sstore\n      dup1\n      swap2\n      pop\n      pop\n      0x01\n      swap1\n      sub\n      swap1\n      0x00\n      mstore\n      keccak256(0x00, 0x20)\n      swap1\n      0x02\n      mul\n      add\n      0x00\n      swap1\n      swap2\n      swap1\n      swap2\n      swap1\n      swap2\n      pop\n      0x00\n      dup3\n      add\n      mload\n      dup2\n      0x00\n      add\n      swap1\n      dup2\n      tag_67\n      swap2\n      swap1\n      tag_28\n      jump\t// in\n    tag_67:\n      pop\n      0x20\n      dup3\n      add\n      mload\n      dup2\n      0x01\n      add\n      exp(0x0100, 0x00)\n      dup2\n      sload\n      dup2\n      0xff\n      mul\n      not\n      and\n      swap1\n      dup4\n      0xff\n      and\n      mul\n      or\n      swap1\n      sstore\n      pop\n      0x40\n      dup3\n      add\n      mload\n      dup2\n      0x01\n      add\n      exp(0x0100, 0x01)\n      dup2\n      sload\n      dup2\n      0xffffffffffffffffffffffffffffffffffffffff\n      mul\n      not\n      and\n      swap1\n      dup4\n      0xffffffffffffffffffffffffffffffffffffffff\n      and\n      mul\n      or\n      swap1\n      sstore\n      pop\n      pop\n      pop\n        /* \"test/test.sol\":2272:2276  info */\n      dup1\n        /* \"test/test.sol\":2253:2264  infoMapping */\n      0x07\n        /* \"test/test.sol\":2253:2269  infoMapping[_id] */\n      0x00\n        /* \"test/test.sol\":2265:2268  _id */\n      dup5\n        /* \"test/test.sol\":2253:2269  infoMapping[_id] */\n      0xff\n      and\n      0xff\n      and\n      dup2\n      mstore\n      0x20\n      add\n      swap1\n      dup2\n      mstore\n      0x20\n      add\n      0x00\n      keccak256\n        /* \"test/test.sol\":2253:2276  infoMapping[_id] = info */\n      0x00\n      dup3\n      add\n      mload\n      dup2\n      0x00\n      add\n      swap1\n      dup2\n      tag_68\n      swap2\n      swap1\n      tag_28\n      jump\t// in\n    tag_68:\n      pop\n      0x20\n      dup3\n      add\n      mload\n      dup2\n      0x01\n      add\n      exp(0x0100, 0x00)\n      dup2\n      sload\n      dup2\n      0xff\n      mul\n      not\n      and\n      swap1\n      dup4\n      0xff\n      and\n      mul\n      or\n      swap1\n      sstore\n      pop\n      0x40\n      dup3\n      add\n      mload\n      dup2\n      0x01\n      add\n      exp(0x0100, 0x01)\n      dup2\n      sload\n      dup2\n      0xffffffffffffffffffffffffffffffffffffffff\n      mul\n      not\n      and\n      swap1\n      dup4\n      0xffffffffffffffffffffffffffffffffffffffff\n      and\n      mul\n      or\n      swap1\n      sstore\n      pop\n      swap1\n      pop\n      pop\n        /* \"test/test.sol\":2159:2284  {... */\n      pop\n        /* \"test/test.sol\":2103:2284  function setInfo(string memory str, uint8 _id) external {... */\n      pop\n      pop\n      jump\t// out\n        /* \"test/test.sol\":1697:1858  function addInfo(string memory helloWorldStr) internal pure returns(string memory) {... */\n    tag_38:\n        /* \"test/test.sol\":1765:1778  string memory */\n      0x60\n        /* \"test/test.sol\":1812:1825  helloWorldStr */\n      dup2\n        /* \"test/test.sol\":1798:1850  string.concat(helloWorldStr, \" from pzw's contract\") */\n      add(0x20, mload(0x40))\n      tag_70\n      swap2\n      swap1\n      tag_71\n      jump\t// in\n    tag_70:\n      mload(0x40)\n      0x20\n      dup2\n      dup4\n      sub\n      sub\n      dup2\n      mstore\n      swap1\n      0x40\n      mstore\n        /* \"test/test.sol\":1791:1850  return string.concat(helloWorldStr, \" from pzw's contract\") */\n      swap1\n      pop\n        /* \"test/test.sol\":1697:1858  function addInfo(string memory helloWorldStr) internal pure returns(string memory) {... */\n      swap2\n      swap1\n      pop\n      jump\t// out\n        /* \"test/test.sol\":1493:1594  function testFunction() private view returns(string memory) {... */\n    tag_41:\n        /* \"test/test.sol\":1538:1551  string memory */\n      0x60\n        /* \"test/test.sol\":1571:1586  addInfo(strVar) */\n      tag_73\n        /* \"test/test.sol\":1579:1585  strVar */\n      0x04\n        /* \"test/test.sol\":1571:1586  addInfo(strVar) */\n      dup1\n      sload\n      tag_74\n      swap1\n      tag_33\n      jump\t// in\n    tag_74:\n      dup1\n      0x1f\n      add\n      0x20\n      dup1\n      swap2\n      div\n      mul\n      0x20\n      add\n      mload(0x40)\n      swap1\n      dup2\n      add\n      0x40\n      mstore\n      dup1\n      swap3\n      swap2\n      swap1\n      dup2\n      dup2\n      mstore\n      0x20\n      add\n      dup3\n      dup1\n      sload\n      tag_75\n      swap1\n      tag_33\n      jump\t// in\n    tag_75:\n      dup1\n      iszero\n      tag_76\n      jumpi\n      dup1\n      0x1f\n      lt\n      tag_77\n      jumpi\n      0x0100\n      dup1\n      dup4\n      sload\n      div\n      mul\n      dup4\n      mstore\n      swap2\n      0x20\n      add\n      swap2\n      jump(tag_76)\n    tag_77:\n      dup3\n      add\n      swap2\n      swap1\n      0x00\n      mstore\n      keccak256(0x00, 0x20)\n      swap1\n    tag_78:\n      dup2\n      sload\n      dup2\n      mstore\n      swap1\n      0x01\n      add\n      swap1\n      0x20\n      add\n      dup1\n      dup4\n      gt\n      tag_78\n      jumpi\n      dup3\n      swap1\n      sub\n      0x1f\n      and\n      dup3\n      add\n      swap2\n    tag_76:\n      pop\n      pop\n      pop\n      pop\n      pop\n        /* \"test/test.sol\":1571:1578  addInfo */\n      tag_38\n        /* \"test/test.sol\":1571:1586  addInfo(strVar) */\n      jump\t// in\n    tag_73:\n        /* \"test/test.sol\":1564:1586  return addInfo(strVar) */\n      swap1\n      pop\n        /* \"test/test.sol\":1493:1594  function testFunction() private view returns(string memory) {... */\n      swap1\n      jump\t// out\n        /* \"#utility.yul\":7:82   */\n    tag_79:\n        /* \"#utility.yul\":40:46   */\n      0x00\n        /* \"#utility.yul\":73:75   */\n      0x40\n        /* \"#utility.yul\":67:76   */\n      mload\n        /* \"#utility.yul\":57:76   */\n      swap1\n      pop\n        /* \"#utility.yul\":7:82   */\n      swap1\n      jump\t// out\n        /* \"#utility.yul\":88:205   */\n    tag_80:\n        /* \"#utility.yul\":197:198   */\n      0x00\n        /* \"#utility.yul\":194:195   */\n      0x00\n        /* \"#utility.yul\":187:199   */\n      revert\n        /* \"#utility.yul\":211:328   */\n    tag_81:\n        /* \"#utility.yul\":320:321   */\n      0x00\n        /* \"#utility.yul\":317:318   */\n      0x00\n        /* \"#utility.yul\":310:322   */\n      revert\n        /* \"#utility.yul\":334:451   */\n    tag_82:\n        /* \"#utility.yul\":443:444   */\n      0x00\n        /* \"#utility.yul\":440:441   */\n      0x00\n        /* \"#utility.yul\":433:445   */\n      revert\n        /* \"#utility.yul\":457:574   */\n    tag_83:\n        /* \"#utility.yul\":566:567   */\n      0x00\n        /* \"#utility.yul\":563:564   */\n      0x00\n        /* \"#utility.yul\":556:568   */\n      revert\n        /* \"#utility.yul\":580:682   */\n    tag_84:\n        /* \"#utility.yul\":621:627   */\n      0x00\n        /* \"#utility.yul\":672:674   */\n      0x1f\n        /* \"#utility.yul\":668:675   */\n      not\n        /* \"#utility.yul\":663:665   */\n      0x1f\n        /* \"#utility.yul\":656:661   */\n      dup4\n        /* \"#utility.yul\":652:666   */\n      add\n        /* \"#utility.yul\":648:676   */\n      and\n        /* \"#utility.yul\":638:676   */\n      swap1\n      pop\n        /* \"#utility.yul\":580:682   */\n      swap2\n      swap1\n      pop\n      jump\t// out\n        /* \"#utility.yul\":688:868   */\n    tag_85:\n        /* \"#utility.yul\":736:813   */\n      0x4e487b7100000000000000000000000000000000000000000000000000000000\n        /* \"#utility.yul\":733:734   */\n      0x00\n        /* \"#utility.yul\":726:814   */\n      mstore\n        /* \"#utility.yul\":833:837   */\n      0x41\n        /* \"#utility.yul\":830:831   */\n      0x04\n        /* \"#utility.yul\":823:838   */\n      mstore\n        /* \"#utility.yul\":857:861   */\n      0x24\n        /* \"#utility.yul\":854:855   */\n      0x00\n        /* \"#utility.yul\":847:862   */\n      revert\n        /* \"#utility.yul\":874:1155   */\n    tag_86:\n        /* \"#utility.yul\":957:984   */\n      tag_130\n        /* \"#utility.yul\":979:983   */\n      dup3\n        /* \"#utility.yul\":957:984   */\n      tag_84\n      jump\t// in\n    tag_130:\n        /* \"#utility.yul\":949:955   */\n      dup2\n        /* \"#utility.yul\":945:985   */\n      add\n        /* \"#utility.yul\":1087:1093   */\n      dup2\n        /* \"#utility.yul\":1075:1085   */\n      dup2\n        /* \"#utility.yul\":1072:1094   */\n      lt\n        /* \"#utility.yul\":1051:1069   */\n      0xffffffffffffffff\n        /* \"#utility.yul\":1039:1049   */\n      dup3\n        /* \"#utility.yul\":1036:1070   */\n      gt\n        /* \"#utility.yul\":1033:1095   */\n      or\n        /* \"#utility.yul\":1030:1118   */\n      iszero\n      tag_131\n      jumpi\n        /* \"#utility.yul\":1098:1116   */\n      tag_132\n      tag_85\n      jump\t// in\n    tag_132:\n        /* \"#utility.yul\":1030:1118   */\n    tag_131:\n        /* \"#utility.yul\":1138:1148   */\n      dup1\n        /* \"#utility.yul\":1134:1136   */\n      0x40\n        /* \"#utility.yul\":1127:1149   */\n      mstore\n        /* \"#utility.yul\":917:1155   */\n      pop\n        /* \"#utility.yul\":874:1155   */\n      pop\n      pop\n      jump\t// out\n        /* \"#utility.yul\":1161:1290   */\n    tag_87:\n        /* \"#utility.yul\":1195:1201   */\n      0x00\n        /* \"#utility.yul\":1222:1242   */\n      tag_134\n      tag_79\n      jump\t// in\n    tag_134:\n        /* \"#utility.yul\":1212:1242   */\n      swap1\n      pop\n        /* \"#utility.yul\":1251:1284   */\n      tag_135\n        /* \"#utility.yul\":1279:1283   */\n      dup3\n        /* \"#utility.yul\":1271:1277   */\n      dup3\n        /* \"#utility.yul\":1251:1284   */\n      tag_86\n      jump\t// in\n    tag_135:\n        /* \"#utility.yul\":1161:1290   */\n      swap2\n      swap1\n      pop\n      jump\t// out\n        /* \"#utility.yul\":1296:1604   */\n    tag_88:\n        /* \"#utility.yul\":1358:1362   */\n      0x00\n        /* \"#utility.yul\":1448:1466   */\n      0xffffffffffffffff\n        /* \"#utility.yul\":1440:1446   */\n      dup3\n        /* \"#utility.yul\":1437:1467   */\n      gt\n        /* \"#utility.yul\":1434:1490   */\n      iszero\n      tag_137\n      jumpi\n        /* \"#utility.yul\":1470:1488   */\n      tag_138\n      tag_85\n      jump\t// in\n    tag_138:\n        /* \"#utility.yul\":1434:1490   */\n    tag_137:\n        /* \"#utility.yul\":1508:1537   */\n      tag_139\n        /* \"#utility.yul\":1530:1536   */\n      dup3\n        /* \"#utility.yul\":1508:1537   */\n      tag_84\n      jump\t// in\n    tag_139:\n        /* \"#utility.yul\":1500:1537   */\n      swap1\n      pop\n        /* \"#utility.yul\":1592:1596   */\n      0x20\n        /* \"#utility.yul\":1586:1590   */\n      dup2\n        /* \"#utility.yul\":1582:1597   */\n      add\n        /* \"#utility.yul\":1574:1597   */\n      swap1\n      pop\n        /* \"#utility.yul\":1296:1604   */\n      swap2\n      swap1\n      pop\n      jump\t// out\n        /* \"#utility.yul\":1610:1758   */\n    tag_89:\n        /* \"#utility.yul\":1708:1714   */\n      dup3\n        /* \"#utility.yul\":1703:1706   */\n      dup2\n        /* \"#utility.yul\":1698:1701   */\n      dup4\n        /* \"#utility.yul\":1685:1715   */\n      calldatacopy\n        /* \"#utility.yul\":1749:1750   */\n      0x00\n        /* \"#utility.yul\":1740:1746   */\n      dup4\n        /* \"#utility.yul\":1735:1738   */\n      dup4\n        /* \"#utility.yul\":1731:1747   */\n      add\n        /* \"#utility.yul\":1724:1751   */\n      mstore\n        /* \"#utility.yul\":1610:1758   */\n      pop\n      pop\n      pop\n      jump\t// out\n        /* \"#utility.yul\":1764:2189   */\n    tag_90:\n        /* \"#utility.yul\":1842:1847   */\n      0x00\n        /* \"#utility.yul\":1867:1933   */\n      tag_142\n        /* \"#utility.yul\":1883:1932   */\n      tag_143\n        /* \"#utility.yul\":1925:1931   */\n      dup5\n        /* \"#utility.yul\":1883:1932   */\n      tag_88\n      jump\t// in\n    tag_143:\n        /* \"#utility.yul\":1867:1933   */\n      tag_87\n      jump\t// in\n    tag_142:\n        /* \"#utility.yul\":1858:1933   */\n      swap1\n      pop\n        /* \"#utility.yul\":1956:1962   */\n      dup3\n        /* \"#utility.yul\":1949:1954   */\n      dup2\n        /* \"#utility.yul\":1942:1963   */\n      mstore\n        /* \"#utility.yul\":1994:1998   */\n      0x20\n        /* \"#utility.yul\":1987:1992   */\n      dup2\n        /* \"#utility.yul\":1983:1999   */\n      add\n        /* \"#utility.yul\":2032:2035   */\n      dup5\n        /* \"#utility.yul\":2023:2029   */\n      dup5\n        /* \"#utility.yul\":2018:2021   */\n      dup5\n        /* \"#utility.yul\":2014:2030   */\n      add\n        /* \"#utility.yul\":2011:2036   */\n      gt\n        /* \"#utility.yul\":2008:2120   */\n      iszero\n      tag_144\n      jumpi\n        /* \"#utility.yul\":2039:2118   */\n      tag_145\n      tag_83\n      jump\t// in\n    tag_145:\n        /* \"#utility.yul\":2008:2120   */\n    tag_144:\n        /* \"#utility.yul\":2129:2183   */\n      tag_146\n        /* \"#utility.yul\":2176:2182   */\n      dup5\n        /* \"#utility.yul\":2171:2174   */\n      dup3\n        /* \"#utility.yul\":2166:2169   */\n      dup6\n        /* \"#utility.yul\":2129:2183   */\n      tag_89\n      jump\t// in\n    tag_146:\n        /* \"#utility.yul\":1848:2189   */\n      pop\n        /* \"#utility.yul\":1764:2189   */\n      swap4\n      swap3\n      pop\n      pop\n      pop\n      jump\t// out\n        /* \"#utility.yul\":2209:2549   */\n    tag_91:\n        /* \"#utility.yul\":2265:2270   */\n      0x00\n        /* \"#utility.yul\":2314:2317   */\n      dup3\n        /* \"#utility.yul\":2307:2311   */\n      0x1f\n        /* \"#utility.yul\":2299:2305   */\n      dup4\n        /* \"#utility.yul\":2295:2312   */\n      add\n        /* \"#utility.yul\":2291:2318   */\n      slt\n        /* \"#utility.yul\":2281:2403   */\n      tag_148\n      jumpi\n        /* \"#utility.yul\":2322:2401   */\n      tag_149\n      tag_82\n      jump\t// in\n    tag_149:\n        /* \"#utility.yul\":2281:2403   */\n    tag_148:\n        /* \"#utility.yul\":2439:2445   */\n      dup2\n        /* \"#utility.yul\":2426:2446   */\n      calldataload\n        /* \"#utility.yul\":2464:2543   */\n      tag_150\n        /* \"#utility.yul\":2539:2542   */\n      dup5\n        /* \"#utility.yul\":2531:2537   */\n      dup3\n        /* \"#utility.yul\":2524:2528   */\n      0x20\n        /* \"#utility.yul\":2516:2522   */\n      dup7\n        /* \"#utility.yul\":2512:2529   */\n      add\n        /* \"#utility.yul\":2464:2543   */\n      tag_90\n      jump\t// in\n    tag_150:\n        /* \"#utility.yul\":2455:2543   */\n      swap2\n      pop\n        /* \"#utility.yul\":2271:2549   */\n      pop\n        /* \"#utility.yul\":2209:2549   */\n      swap3\n      swap2\n      pop\n      pop\n      jump\t// out\n        /* \"#utility.yul\":2555:3064   */\n    tag_9:\n        /* \"#utility.yul\":2624:2630   */\n      0x00\n        /* \"#utility.yul\":2673:2675   */\n      0x20\n        /* \"#utility.yul\":2661:2670   */\n      dup3\n        /* \"#utility.yul\":2652:2659   */\n      dup5\n        /* \"#utility.yul\":2648:2671   */\n      sub\n        /* \"#utility.yul\":2644:2676   */\n      slt\n        /* \"#utility.yul\":2641:2760   */\n      iszero\n      tag_152\n      jumpi\n        /* \"#utility.yul\":2679:2758   */\n      tag_153\n      tag_80\n      jump\t// in\n    tag_153:\n        /* \"#utility.yul\":2641:2760   */\n    tag_152:\n        /* \"#utility.yul\":2827:2828   */\n      0x00\n        /* \"#utility.yul\":2816:2825   */\n      dup3\n        /* \"#utility.yul\":2812:2829   */\n      add\n        /* \"#utility.yul\":2799:2830   */\n      calldataload\n        /* \"#utility.yul\":2857:2875   */\n      0xffffffffffffffff\n        /* \"#utility.yul\":2849:2855   */\n      dup2\n        /* \"#utility.yul\":2846:2876   */\n      gt\n        /* \"#utility.yul\":2843:2960   */\n      iszero\n      tag_154\n      jumpi\n        /* \"#utility.yul\":2879:2958   */\n      tag_155\n      tag_81\n      jump\t// in\n    tag_155:\n        /* \"#utility.yul\":2843:2960   */\n    tag_154:\n        /* \"#utility.yul\":2984:3047   */\n      tag_156\n        /* \"#utility.yul\":3039:3046   */\n      dup5\n        /* \"#utility.yul\":3030:3036   */\n      dup3\n        /* \"#utility.yul\":3019:3028   */\n      dup6\n        /* \"#utility.yul\":3015:3037   */\n      add\n        /* \"#utility.yul\":2984:3047   */\n      tag_91\n      jump\t// in\n    tag_156:\n        /* \"#utility.yul\":2974:3047   */\n      swap2\n      pop\n        /* \"#utility.yul\":2770:3057   */\n      pop\n        /* \"#utility.yul\":2555:3064   */\n      swap3\n      swap2\n      pop\n      pop\n      jump\t// out\n        /* \"#utility.yul\":3070:3156   */\n    tag_92:\n        /* \"#utility.yul\":3105:3112   */\n      0x00\n        /* \"#utility.yul\":3145:3149   */\n      0xff\n        /* \"#utility.yul\":3138:3143   */\n      dup3\n        /* \"#utility.yul\":3134:3150   */\n      and\n        /* \"#utility.yul\":3123:3150   */\n      swap1\n      pop\n        /* \"#utility.yul\":3070:3156   */\n      swap2\n      swap1\n      pop\n      jump\t// out\n        /* \"#utility.yul\":3162:3280   */\n    tag_93:\n        /* \"#utility.yul\":3233:3255   */\n      tag_159\n        /* \"#utility.yul\":3249:3254   */\n      dup2\n        /* \"#utility.yul\":3233:3255   */\n      tag_92\n      jump\t// in\n    tag_159:\n        /* \"#utility.yul\":3226:3231   */\n      dup2\n        /* \"#utility.yul\":3223:3256   */\n      eq\n        /* \"#utility.yul\":3213:3274   */\n      tag_160\n      jumpi\n        /* \"#utility.yul\":3270:3271   */\n      0x00\n        /* \"#utility.yul\":3267:3268   */\n      0x00\n        /* \"#utility.yul\":3260:3272   */\n      revert\n        /* \"#utility.yul\":3213:3274   */\n    tag_160:\n        /* \"#utility.yul\":3162:3280   */\n      pop\n      jump\t// out\n        /* \"#utility.yul\":3286:3421   */\n    tag_94:\n        /* \"#utility.yul\":3330:3335   */\n      0x00\n        /* \"#utility.yul\":3368:3374   */\n      dup2\n        /* \"#utility.yul\":3355:3375   */\n      calldataload\n        /* \"#utility.yul\":3346:3375   */\n      swap1\n      pop\n        /* \"#utility.yul\":3384:3415   */\n      tag_162\n        /* \"#utility.yul\":3409:3414   */\n      dup2\n        /* \"#utility.yul\":3384:3415   */\n      tag_93\n      jump\t// in\n    tag_162:\n        /* \"#utility.yul\":3286:3421   */\n      swap3\n      swap2\n      pop\n      pop\n      jump\t// out\n        /* \"#utility.yul\":3427:3752   */\n    tag_13:\n        /* \"#utility.yul\":3484:3490   */\n      0x00\n        /* \"#utility.yul\":3533:3535   */\n      0x20\n        /* \"#utility.yul\":3521:3530   */\n      dup3\n        /* \"#utility.yul\":3512:3519   */\n      dup5\n        /* \"#utility.yul\":3508:3531   */\n      sub\n        /* \"#utility.yul\":3504:3536   */\n      slt\n        /* \"#utility.yul\":3501:3620   */\n      iszero\n      tag_164\n      jumpi\n        /* \"#utility.yul\":3539:3618   */\n      tag_165\n      tag_80\n      jump\t// in\n    tag_165:\n        /* \"#utility.yul\":3501:3620   */\n    tag_164:\n        /* \"#utility.yul\":3659:3660   */\n      0x00\n        /* \"#utility.yul\":3684:3735   */\n      tag_166\n        /* \"#utility.yul\":3727:3734   */\n      dup5\n        /* \"#utility.yul\":3718:3724   */\n      dup3\n        /* \"#utility.yul\":3707:3716   */\n      dup6\n        /* \"#utility.yul\":3703:3725   */\n      add\n        /* \"#utility.yul\":3684:3735   */\n      tag_94\n      jump\t// in\n    tag_166:\n        /* \"#utility.yul\":3674:3735   */\n      swap2\n      pop\n        /* \"#utility.yul\":3630:3745   */\n      pop\n        /* \"#utility.yul\":3427:3752   */\n      swap3\n      swap2\n      pop\n      pop\n      jump\t// out\n        /* \"#utility.yul\":3758:3857   */\n    tag_95:\n        /* \"#utility.yul\":3810:3816   */\n      0x00\n        /* \"#utility.yul\":3844:3849   */\n      dup2\n        /* \"#utility.yul\":3838:3850   */\n      mload\n        /* \"#utility.yul\":3828:3850   */\n      swap1\n      pop\n        /* \"#utility.yul\":3758:3857   */\n      swap2\n      swap1\n      pop\n      jump\t// out\n        /* \"#utility.yul\":3863:4032   */\n    tag_96:\n        /* \"#utility.yul\":3947:3958   */\n      0x00\n        /* \"#utility.yul\":3981:3987   */\n      dup3\n        /* \"#utility.yul\":3976:3979   */\n      dup3\n        /* \"#utility.yul\":3969:3988   */\n      mstore\n        /* \"#utility.yul\":4021:4025   */\n      0x20\n        /* \"#utility.yul\":4016:4019   */\n      dup3\n        /* \"#utility.yul\":4012:4026   */\n      add\n        /* \"#utility.yul\":3997:4026   */\n      swap1\n      pop\n        /* \"#utility.yul\":3863:4032   */\n      swap3\n      swap2\n      pop\n      pop\n      jump\t// out\n        /* \"#utility.yul\":4038:4177   */\n    tag_97:\n        /* \"#utility.yul\":4127:4133   */\n      dup3\n        /* \"#utility.yul\":4122:4125   */\n      dup2\n        /* \"#utility.yul\":4117:4120   */\n      dup4\n        /* \"#utility.yul\":4111:4134   */\n      mcopy\n        /* \"#utility.yul\":4168:4169   */\n      0x00\n        /* \"#utility.yul\":4159:4165   */\n      dup4\n        /* \"#utility.yul\":4154:4157   */\n      dup4\n        /* \"#utility.yul\":4150:4166   */\n      add\n        /* \"#utility.yul\":4143:4170   */\n      mstore\n        /* \"#utility.yul\":4038:4177   */\n      pop\n      pop\n      pop\n      jump\t// out\n        /* \"#utility.yul\":4183:4560   */\n    tag_98:\n        /* \"#utility.yul\":4271:4274   */\n      0x00\n        /* \"#utility.yul\":4299:4338   */\n      tag_171\n        /* \"#utility.yul\":4332:4337   */\n      dup3\n        /* \"#utility.yul\":4299:4338   */\n      tag_95\n      jump\t// in\n    tag_171:\n        /* \"#utility.yul\":4354:4425   */\n      tag_172\n        /* \"#utility.yul\":4418:4424   */\n      dup2\n        /* \"#utility.yul\":4413:4416   */\n      dup6\n        /* \"#utility.yul\":4354:4425   */\n      tag_96\n      jump\t// in\n    tag_172:\n        /* \"#utility.yul\":4347:4425   */\n      swap4\n      pop\n        /* \"#utility.yul\":4434:4499   */\n      tag_173\n        /* \"#utility.yul\":4492:4498   */\n      dup2\n        /* \"#utility.yul\":4487:4490   */\n      dup6\n        /* \"#utility.yul\":4480:4484   */\n      0x20\n        /* \"#utility.yul\":4473:4478   */\n      dup7\n        /* \"#utility.yul\":4469:4485   */\n      add\n        /* \"#utility.yul\":4434:4499   */\n      tag_97\n      jump\t// in\n    tag_173:\n        /* \"#utility.yul\":4524:4553   */\n      tag_174\n        /* \"#utility.yul\":4546:4552   */\n      dup2\n        /* \"#utility.yul\":4524:4553   */\n      tag_84\n      jump\t// in\n    tag_174:\n        /* \"#utility.yul\":4519:4522   */\n      dup5\n        /* \"#utility.yul\":4515:4554   */\n      add\n        /* \"#utility.yul\":4508:4554   */\n      swap2\n      pop\n        /* \"#utility.yul\":4275:4560   */\n      pop\n        /* \"#utility.yul\":4183:4560   */\n      swap3\n      swap2\n      pop\n      pop\n      jump\t// out\n        /* \"#utility.yul\":4566:4879   */\n    tag_16:\n        /* \"#utility.yul\":4679:4683   */\n      0x00\n        /* \"#utility.yul\":4717:4719   */\n      0x20\n        /* \"#utility.yul\":4706:4715   */\n      dup3\n        /* \"#utility.yul\":4702:4720   */\n      add\n        /* \"#utility.yul\":4694:4720   */\n      swap1\n      pop\n        /* \"#utility.yul\":4766:4775   */\n      dup2\n        /* \"#utility.yul\":4760:4764   */\n      dup2\n        /* \"#utility.yul\":4756:4776   */\n      sub\n        /* \"#utility.yul\":4752:4753   */\n      0x00\n        /* \"#utility.yul\":4741:4750   */\n      dup4\n        /* \"#utility.yul\":4737:4754   */\n      add\n        /* \"#utility.yul\":4730:4777   */\n      mstore\n        /* \"#utility.yul\":4794:4872   */\n      tag_176\n        /* \"#utility.yul\":4867:4871   */\n      dup2\n        /* \"#utility.yul\":4858:4864   */\n      dup5\n        /* \"#utility.yul\":4794:4872   */\n      tag_98\n      jump\t// in\n    tag_176:\n        /* \"#utility.yul\":4786:4872   */\n      swap1\n      pop\n        /* \"#utility.yul\":4566:4879   */\n      swap3\n      swap2\n      pop\n      pop\n      jump\t// out\n        /* \"#utility.yul\":4885:4997   */\n    tag_99:\n        /* \"#utility.yul\":4968:4990   */\n      tag_178\n        /* \"#utility.yul\":4984:4989   */\n      dup2\n        /* \"#utility.yul\":4968:4990   */\n      tag_92\n      jump\t// in\n    tag_178:\n        /* \"#utility.yul\":4963:4966   */\n      dup3\n        /* \"#utility.yul\":4956:4991   */\n      mstore\n        /* \"#utility.yul\":4885:4997   */\n      pop\n      pop\n      jump\t// out\n        /* \"#utility.yul\":5003:5418   */\n    tag_21:\n        /* \"#utility.yul\":5140:5144   */\n      0x00\n        /* \"#utility.yul\":5178:5180   */\n      0x40\n        /* \"#utility.yul\":5167:5176   */\n      dup3\n        /* \"#utility.yul\":5163:5181   */\n      add\n        /* \"#utility.yul\":5155:5181   */\n      swap1\n      pop\n        /* \"#utility.yul\":5227:5236   */\n      dup2\n        /* \"#utility.yul\":5221:5225   */\n      dup2\n        /* \"#utility.yul\":5217:5237   */\n      sub\n        /* \"#utility.yul\":5213:5214   */\n      0x00\n        /* \"#utility.yul\":5202:5211   */\n      dup4\n        /* \"#utility.yul\":5198:5215   */\n      add\n        /* \"#utility.yul\":5191:5238   */\n      mstore\n        /* \"#utility.yul\":5255:5333   */\n      tag_180\n        /* \"#utility.yul\":5328:5332   */\n      dup2\n        /* \"#utility.yul\":5319:5325   */\n      dup6\n        /* \"#utility.yul\":5255:5333   */\n      tag_98\n      jump\t// in\n    tag_180:\n        /* \"#utility.yul\":5247:5333   */\n      swap1\n      pop\n        /* \"#utility.yul\":5343:5411   */\n      tag_181\n        /* \"#utility.yul\":5407:5409   */\n      0x20\n        /* \"#utility.yul\":5396:5405   */\n      dup4\n        /* \"#utility.yul\":5392:5410   */\n      add\n        /* \"#utility.yul\":5383:5389   */\n      dup5\n        /* \"#utility.yul\":5343:5411   */\n      tag_99\n      jump\t// in\n    tag_181:\n        /* \"#utility.yul\":5003:5418   */\n      swap4\n      swap3\n      pop\n      pop\n      pop\n      jump\t// out\n        /* \"#utility.yul\":5424:6074   */\n    tag_24:\n        /* \"#utility.yul\":5500:5506   */\n      0x00\n        /* \"#utility.yul\":5508:5514   */\n      0x00\n        /* \"#utility.yul\":5557:5559   */\n      0x40\n        /* \"#utility.yul\":5545:5554   */\n      dup4\n        /* \"#utility.yul\":5536:5543   */\n      dup6\n        /* \"#utility.yul\":5532:5555   */\n      sub\n        /* \"#utility.yul\":5528:5560   */\n      slt\n        /* \"#utility.yul\":5525:5644   */\n      iszero\n      tag_183\n      jumpi\n        /* \"#utility.yul\":5563:5642   */\n      tag_184\n      tag_80\n      jump\t// in\n    tag_184:\n        /* \"#utility.yul\":5525:5644   */\n    tag_183:\n        /* \"#utility.yul\":5711:5712   */\n      0x00\n        /* \"#utility.yul\":5700:5709   */\n      dup4\n        /* \"#utility.yul\":5696:5713   */\n      add\n        /* \"#utility.yul\":5683:5714   */\n      calldataload\n        /* \"#utility.yul\":5741:5759   */\n      0xffffffffffffffff\n        /* \"#utility.yul\":5733:5739   */\n      dup2\n        /* \"#utility.yul\":5730:5760   */\n      gt\n        /* \"#utility.yul\":5727:5844   */\n      iszero\n      tag_185\n      jumpi\n        /* \"#utility.yul\":5763:5842   */\n      tag_186\n      tag_81\n      jump\t// in\n    tag_186:\n        /* \"#utility.yul\":5727:5844   */\n    tag_185:\n        /* \"#utility.yul\":5868:5931   */\n      tag_187\n        /* \"#utility.yul\":5923:5930   */\n      dup6\n        /* \"#utility.yul\":5914:5920   */\n      dup3\n        /* \"#utility.yul\":5903:5912   */\n      dup7\n        /* \"#utility.yul\":5899:5921   */\n      add\n        /* \"#utility.yul\":5868:5931   */\n      tag_91\n      jump\t// in\n    tag_187:\n        /* \"#utility.yul\":5858:5931   */\n      swap3\n      pop\n        /* \"#utility.yul\":5654:5941   */\n      pop\n        /* \"#utility.yul\":5980:5982   */\n      0x20\n        /* \"#utility.yul\":6006:6057   */\n      tag_188\n        /* \"#utility.yul\":6049:6056   */\n      dup6\n        /* \"#utility.yul\":6040:6046   */\n      dup3\n        /* \"#utility.yul\":6029:6038   */\n      dup7\n        /* \"#utility.yul\":6025:6047   */\n      add\n        /* \"#utility.yul\":6006:6057   */\n      tag_94\n      jump\t// in\n    tag_188:\n        /* \"#utility.yul\":5996:6057   */\n      swap2\n      pop\n        /* \"#utility.yul\":5951:6067   */\n      pop\n        /* \"#utility.yul\":5424:6074   */\n      swap3\n      pop\n      swap3\n      swap1\n      pop\n      jump\t// out\n        /* \"#utility.yul\":6080:6260   */\n    tag_100:\n        /* \"#utility.yul\":6128:6205   */\n      0x4e487b7100000000000000000000000000000000000000000000000000000000\n        /* \"#utility.yul\":6125:6126   */\n      0x00\n        /* \"#utility.yul\":6118:6206   */\n      mstore\n        /* \"#utility.yul\":6225:6229   */\n      0x22\n        /* \"#utility.yul\":6222:6223   */\n      0x04\n        /* \"#utility.yul\":6215:6230   */\n      mstore\n        /* \"#utility.yul\":6249:6253   */\n      0x24\n        /* \"#utility.yul\":6246:6247   */\n      0x00\n        /* \"#utility.yul\":6239:6254   */\n      revert\n        /* \"#utility.yul\":6266:6586   */\n    tag_33:\n        /* \"#utility.yul\":6310:6316   */\n      0x00\n        /* \"#utility.yul\":6347:6348   */\n      0x02\n        /* \"#utility.yul\":6341:6345   */\n      dup3\n        /* \"#utility.yul\":6337:6349   */\n      div\n        /* \"#utility.yul\":6327:6349   */\n      swap1\n      pop\n        /* \"#utility.yul\":6394:6395   */\n      0x01\n        /* \"#utility.yul\":6388:6392   */\n      dup3\n        /* \"#utility.yul\":6384:6396   */\n      and\n        /* \"#utility.yul\":6415:6433   */\n      dup1\n        /* \"#utility.yul\":6405:6486   */\n      tag_191\n      jumpi\n        /* \"#utility.yul\":6471:6475   */\n      0x7f\n        /* \"#utility.yul\":6463:6469   */\n      dup3\n        /* \"#utility.yul\":6459:6476   */\n      and\n        /* \"#utility.yul\":6449:6476   */\n      swap2\n      pop\n        /* \"#utility.yul\":6405:6486   */\n    tag_191:\n        /* \"#utility.yul\":6533:6535   */\n      0x20\n        /* \"#utility.yul\":6525:6531   */\n      dup3\n        /* \"#utility.yul\":6522:6536   */\n      lt\n        /* \"#utility.yul\":6502:6520   */\n      dup2\n        /* \"#utility.yul\":6499:6537   */\n      sub\n        /* \"#utility.yul\":6496:6580   */\n      tag_192\n      jumpi\n        /* \"#utility.yul\":6552:6570   */\n      tag_193\n      tag_100\n      jump\t// in\n    tag_193:\n        /* \"#utility.yul\":6496:6580   */\n    tag_192:\n        /* \"#utility.yul\":6317:6586   */\n      pop\n        /* \"#utility.yul\":6266:6586   */\n      swap2\n      swap1\n      pop\n      jump\t// out\n        /* \"#utility.yul\":6592:6733   */\n    tag_101:\n        /* \"#utility.yul\":6641:6645   */\n      0x00\n        /* \"#utility.yul\":6664:6667   */\n      dup2\n        /* \"#utility.yul\":6656:6667   */\n      swap1\n      pop\n        /* \"#utility.yul\":6687:6690   */\n      dup2\n        /* \"#utility.yul\":6684:6685   */\n      0x00\n        /* \"#utility.yul\":6677:6691   */\n      mstore\n        /* \"#utility.yul\":6721:6725   */\n      0x20\n        /* \"#utility.yul\":6718:6719   */\n      0x00\n        /* \"#utility.yul\":6708:6726   */\n      keccak256\n        /* \"#utility.yul\":6700:6726   */\n      swap1\n      pop\n        /* \"#utility.yul\":6592:6733   */\n      swap2\n      swap1\n      pop\n      jump\t// out\n        /* \"#utility.yul\":6739:6832   */\n    tag_102:\n        /* \"#utility.yul\":6776:6782   */\n      0x00\n        /* \"#utility.yul\":6823:6825   */\n      0x20\n        /* \"#utility.yul\":6818:6820   */\n      0x1f\n        /* \"#utility.yul\":6811:6816   */\n      dup4\n        /* \"#utility.yul\":6807:6821   */\n      add\n        /* \"#utility.yul\":6803:6826   */\n      div\n        /* \"#utility.yul\":6793:6826   */\n      swap1\n      pop\n        /* \"#utility.yul\":6739:6832   */\n      swap2\n      swap1\n      pop\n      jump\t// out\n        /* \"#utility.yul\":6838:6945   */\n    tag_103:\n        /* \"#utility.yul\":6882:6890   */\n      0x00\n        /* \"#utility.yul\":6932:6937   */\n      dup3\n        /* \"#utility.yul\":6926:6930   */\n      dup3\n        /* \"#utility.yul\":6922:6938   */\n      shl\n        /* \"#utility.yul\":6901:6938   */\n      swap1\n      pop\n        /* \"#utility.yul\":6838:6945   */\n      swap3\n      swap2\n      pop\n      pop\n      jump\t// out\n        /* \"#utility.yul\":6951:7344   */\n    tag_104:\n        /* \"#utility.yul\":7020:7026   */\n      0x00\n        /* \"#utility.yul\":7070:7071   */\n      0x08\n        /* \"#utility.yul\":7058:7068   */\n      dup4\n        /* \"#utility.yul\":7054:7072   */\n      mul\n        /* \"#utility.yul\":7093:7190   */\n      tag_198\n        /* \"#utility.yul\":7123:7189   */\n      0xffffffffffffffffffffffffffffffffffffffffffffffffffffffffffffffff\n        /* \"#utility.yul\":7112:7121   */\n      dup3\n        /* \"#utility.yul\":7093:7190   */\n      tag_103\n      jump\t// in\n    tag_198:\n        /* \"#utility.yul\":7211:7250   */\n      tag_199\n        /* \"#utility.yul\":7241:7249   */\n      dup7\n        /* \"#utility.yul\":7230:7239   */\n      dup4\n        /* \"#utility.yul\":7211:7250   */\n      tag_103\n      jump\t// in\n    tag_199:\n        /* \"#utility.yul\":7199:7250   */\n      swap6\n      pop\n        /* \"#utility.yul\":7283:7287   */\n      dup1\n        /* \"#utility.yul\":7279:7288   */\n      not\n        /* \"#utility.yul\":7272:7277   */\n      dup5\n        /* \"#utility.yul\":7268:7289   */\n      and\n        /* \"#utility.yul\":7259:7289   */\n      swap4\n      pop\n        /* \"#utility.yul\":7332:7336   */\n      dup1\n        /* \"#utility.yul\":7322:7330   */\n      dup7\n        /* \"#utility.yul\":7318:7337   */\n      and\n        /* \"#utility.yul\":7311:7316   */\n      dup5\n        /* \"#utility.yul\":7308:7338   */\n      or\n        /* \"#utility.yul\":7298:7338   */\n      swap3\n      pop\n        /* \"#utility.yul\":7027:7344   */\n      pop\n      pop\n        /* \"#utility.yul\":6951:7344   */\n      swap4\n      swap3\n      pop\n      pop\n      pop\n      jump\t// out\n        /* \"#utility.yul\":7350:7427   */\n    tag_105:\n        /* \"#utility.yul\":7387:7394   */\n      0x00\n        /* \"#utility.yul\":7416:7421   */\n      dup2\n        /* \"#utility.yul\":7405:7421   */\n      swap1\n      pop\n        /* \"#utility.yul\":7350:7427   */\n      swap2\n      swap1\n      pop\n      jump\t// out\n        /* \"#utility.yul\":7433:7493   */\n    tag_106:\n        /* \"#utility.yul\":7461:7464   */\n      0x00\n        /* \"#utility.yul\":7482:7487   */\n      dup2\n        /* \"#utility.yul\":7475:7487   */\n      swap1\n      pop\n        /* \"#utility.yul\":7433:7493   */\n      swap2\n      swap1\n      pop\n      jump\t// out\n        /* \"#utility.yul\":7499:7641   */\n    tag_107:\n        /* \"#utility.yul\":7549:7558   */\n      0x00\n        /* \"#utility.yul\":7582:7635   */\n      tag_203\n        /* \"#utility.yul\":7600:7634   */\n      tag_204\n        /* \"#utility.yul\":7609:7633   */\n      tag_205\n        /* \"#utility.yul\":7627:7632   */\n      dup5\n        /* \"#utility.yul\":7609:7633   */\n      tag_105\n      jump\t// in\n    tag_205:\n        /* \"#utility.yul\":7600:7634   */\n      tag_106\n      jump\t// in\n    tag_204:\n        /* \"#utility.yul\":7582:7635   */\n      tag_105\n      jump\t// in\n    tag_203:\n        /* \"#utility.yul\":7569:7635   */\n      swap1\n      pop\n        /* \"#utility.yul\":7499:7641   */\n      swap2\n      swap1\n      pop\n      jump\t// out\n        /* \"#utility.yul\":7647:7722   */\n    tag_108:\n        /* \"#utility.yul\":7690:7693   */\n      0x00\n        /* \"#utility.yul\":7711:7716   */\n      dup2\n        /* \"#utility.yul\":7704:7716   */\n      swap1\n      pop\n        /* \"#utility.yul\":7647:7722   */\n      swap2\n      swap1\n      pop\n      jump\t// out\n        /* \"#utility.yul\":7728:7997   */\n    tag_109:\n        /* \"#utility.yul\":7838:7877   */\n      tag_208\n        /* \"#utility.yul\":7869:7876   */\n      dup4\n        /* \"#utility.yul\":7838:7877   */\n      tag_107\n      jump\t// in\n    tag_208:\n        /* \"#utility.yul\":7899:7990   */\n      tag_209\n        /* \"#utility.yul\":7948:7989   */\n      tag_210\n        /* \"#utility.yul\":7972:7988   */\n      dup3\n        /* \"#utility.yul\":7948:7989   */\n      tag_108\n      jump\t// in\n    tag_210:\n        /* \"#utility.yul\":7940:7946   */\n      dup5\n        /* \"#utility.yul\":7933:7937   */\n      dup5\n        /* \"#utility.yul\":7927:7938   */\n      sload\n        /* \"#utility.yul\":7899:7990   */\n      tag_104\n      jump\t// in\n    tag_209:\n        /* \"#utility.yul\":7893:7897   */\n      dup3\n        /* \"#utility.yul\":7886:7991   */\n      sstore\n        /* \"#utility.yul\":7804:7997   */\n      pop\n        /* \"#utility.yul\":7728:7997   */\n      pop\n      pop\n      pop\n      jump\t// out\n        /* \"#utility.yul\":8003:8076   */\n    tag_110:\n        /* \"#utility.yul\":8048:8051   */\n      0x00\n        /* \"#utility.yul\":8069:8070   */\n      0x00\n        /* \"#utility.yul\":8062:8070   */\n      swap1\n      pop\n        /* \"#utility.yul\":8003:8076   */\n      swap1\n      jump\t// out\n        /* \"#utility.yul\":8082:8271   */\n    tag_111:\n        /* \"#utility.yul\":8159:8191   */\n      tag_213\n      tag_110\n      jump\t// in\n    tag_213:\n        /* \"#utility.yul\":8200:8265   */\n      tag_214\n        /* \"#utility.yul\":8258:8264   */\n      dup2\n        /* \"#utility.yul\":8250:8256   */\n      dup5\n        /* \"#utility.yul\":8244:8248   */\n      dup5\n        /* \"#utility.yul\":8200:8265   */\n      tag_109\n      jump\t// in\n    tag_214:\n        /* \"#utility.yul\":8135:8271   */\n      pop\n        /* \"#utility.yul\":8082:8271   */\n      pop\n      pop\n      jump\t// out\n        /* \"#utility.yul\":8277:8463   */\n    tag_112:\n        /* \"#utility.yul\":8337:8457   */\n    tag_216:\n        /* \"#utility.yul\":8354:8357   */\n      dup2\n        /* \"#utility.yul\":8347:8352   */\n      dup2\n        /* \"#utility.yul\":8344:8358   */\n      lt\n        /* \"#utility.yul\":8337:8457   */\n      iszero\n      tag_218\n      jumpi\n        /* \"#utility.yul\":8408:8447   */\n      tag_219\n        /* \"#utility.yul\":8445:8446   */\n      0x00\n        /* \"#utility.yul\":8438:8443   */\n      dup3\n        /* \"#utility.yul\":8408:8447   */\n      tag_111\n      jump\t// in\n    tag_219:\n        /* \"#utility.yul\":8381:8382   */\n      0x01\n        /* \"#utility.yul\":8374:8379   */\n      dup2\n        /* \"#utility.yul\":8370:8383   */\n      add\n        /* \"#utility.yul\":8361:8383   */\n      swap1\n      pop\n        /* \"#utility.yul\":8337:8457   */\n      jump(tag_216)\n    tag_218:\n        /* \"#utility.yul\":8277:8463   */\n      pop\n      pop\n      jump\t// out\n        /* \"#utility.yul\":8469:9012   */\n    tag_113:\n        /* \"#utility.yul\":8570:8572   */\n      0x1f\n        /* \"#utility.yul\":8565:8568   */\n      dup3\n        /* \"#utility.yul\":8562:8573   */\n      gt\n        /* \"#utility.yul\":8559:9005   */\n      iszero\n      tag_221\n      jumpi\n        /* \"#utility.yul\":8604:8642   */\n      tag_222\n        /* \"#utility.yul\":8636:8641   */\n      dup2\n        /* \"#utility.yul\":8604:8642   */\n      tag_101\n      jump\t// in\n    tag_222:\n        /* \"#utility.yul\":8688:8717   */\n      tag_223\n        /* \"#utility.yul\":8706:8716   */\n      dup5\n        /* \"#utility.yul\":8688:8717   */\n      tag_102\n      jump\t// in\n    tag_223:\n        /* \"#utility.yul\":8678:8686   */\n      dup2\n        /* \"#utility.yul\":8674:8718   */\n      add\n        /* \"#utility.yul\":8871:8873   */\n      0x20\n        /* \"#utility.yul\":8859:8869   */\n      dup6\n        /* \"#utility.yul\":8856:8874   */\n      lt\n        /* \"#utility.yul\":8853:8902   */\n      iszero\n      tag_224\n      jumpi\n        /* \"#utility.yul\":8892:8900   */\n      dup2\n        /* \"#utility.yul\":8877:8900   */\n      swap1\n      pop\n        /* \"#utility.yul\":8853:8902   */\n    tag_224:\n        /* \"#utility.yul\":8915:8995   */\n      tag_225\n        /* \"#utility.yul\":8971:8993   */\n      tag_226\n        /* \"#utility.yul\":8989:8992   */\n      dup6\n        /* \"#utility.yul\":8971:8993   */\n      tag_102\n      jump\t// in\n    tag_226:\n        /* \"#utility.yul\":8961:8969   */\n      dup4\n        /* \"#utility.yul\":8957:8994   */\n      add\n        /* \"#utility.yul\":8944:8955   */\n      dup3\n        /* \"#utility.yul\":8915:8995   */\n      tag_112\n      jump\t// in\n    tag_225:\n        /* \"#utility.yul\":8574:9005   */\n      pop\n      pop\n        /* \"#utility.yul\":8559:9005   */\n    tag_221:\n        /* \"#utility.yul\":8469:9012   */\n      pop\n      pop\n      pop\n      jump\t// out\n        /* \"#utility.yul\":9018:9135   */\n    tag_114:\n        /* \"#utility.yul\":9072:9080   */\n      0x00\n        /* \"#utility.yul\":9122:9127   */\n      dup3\n        /* \"#utility.yul\":9116:9120   */\n      dup3\n        /* \"#utility.yul\":9112:9128   */\n      shr\n        /* \"#utility.yul\":9091:9128   */\n      swap1\n      pop\n        /* \"#utility.yul\":9018:9135   */\n      swap3\n      swap2\n      pop\n      pop\n      jump\t// out\n        /* \"#utility.yul\":9141:9310   */\n    tag_115:\n        /* \"#utility.yul\":9185:9191   */\n      0x00\n        /* \"#utility.yul\":9218:9269   */\n      tag_229\n        /* \"#utility.yul\":9266:9267   */\n      0x00\n        /* \"#utility.yul\":9262:9268   */\n      not\n        /* \"#utility.yul\":9254:9259   */\n      dup5\n        /* \"#utility.yul\":9251:9252   */\n      0x08\n        /* \"#utility.yul\":9247:9260   */\n      mul\n        /* \"#utility.yul\":9218:9269   */\n      tag_114\n      jump\t// in\n    tag_229:\n        /* \"#utility.yul\":9214:9270   */\n      not\n        /* \"#utility.yul\":9299:9303   */\n      dup1\n        /* \"#utility.yul\":9293:9297   */\n      dup4\n        /* \"#utility.yul\":9289:9304   */\n      and\n        /* \"#utility.yul\":9279:9304   */\n      swap2\n      pop\n        /* \"#utility.yul\":9192:9310   */\n      pop\n        /* \"#utility.yul\":9141:9310   */\n      swap3\n      swap2\n      pop\n      pop\n      jump\t// out\n        /* \"#utility.yul\":9315:9610   */\n    tag_116:\n        /* \"#utility.yul\":9391:9395   */\n      0x00\n        /* \"#utility.yul\":9537:9566   */\n      tag_231\n        /* \"#utility.yul\":9562:9565   */\n      dup4\n        /* \"#utility.yul\":9556:9560   */\n      dup4\n        /* \"#utility.yul\":9537:9566   */\n      tag_115\n      jump\t// in\n    tag_231:\n        /* \"#utility.yul\":9529:9566   */\n      swap2\n      pop\n        /* \"#utility.yul\":9599:9602   */\n      dup3\n        /* \"#utility.yul\":9596:9597   */\n      0x02\n        /* \"#utility.yul\":9592:9603   */\n      mul\n        /* \"#utility.yul\":9586:9590   */\n      dup3\n        /* \"#utility.yul\":9583:9604   */\n      or\n        /* \"#utility.yul\":9575:9604   */\n      swap1\n      pop\n        /* \"#utility.yul\":9315:9610   */\n      swap3\n      swap2\n      pop\n      pop\n      jump\t// out\n        /* \"#utility.yul\":9615:11010   */\n    tag_28:\n        /* \"#utility.yul\":9732:9769   */\n      tag_233\n        /* \"#utility.yul\":9765:9768   */\n      dup3\n        /* \"#utility.yul\":9732:9769   */\n      tag_95\n      jump\t// in\n    tag_233:\n        /* \"#utility.yul\":9834:9852   */\n      0xffffffffffffffff\n        /* \"#utility.yul\":9826:9832   */\n      dup2\n        /* \"#utility.yul\":9823:9853   */\n      gt\n        /* \"#utility.yul\":9820:9876   */\n      iszero\n      tag_234\n      jumpi\n        /* \"#utility.yul\":9856:9874   */\n      tag_235\n      tag_85\n      jump\t// in\n    tag_235:\n        /* \"#utility.yul\":9820:9876   */\n    tag_234:\n        /* \"#utility.yul\":9900:9938   */\n      tag_236\n        /* \"#utility.yul\":9932:9936   */\n      dup3\n        /* \"#utility.yul\":9926:9937   */\n      sload\n        /* \"#utility.yul\":9900:9938   */\n      tag_33\n      jump\t// in\n    tag_236:\n        /* \"#utility.yul\":9985:10052   */\n      tag_237\n        /* \"#utility.yul\":10045:10051   */\n      dup3\n        /* \"#utility.yul\":10037:10043   */\n      dup3\n        /* \"#utility.yul\":10031:10035   */\n      dup6\n        /* \"#utility.yul\":9985:10052   */\n      tag_113\n      jump\t// in\n    tag_237:\n        /* \"#utility.yul\":10079:10080   */\n      0x00\n        /* \"#utility.yul\":10103:10107   */\n      0x20\n        /* \"#utility.yul\":10090:10107   */\n      swap1\n      pop\n        /* \"#utility.yul\":10135:10137   */\n      0x1f\n        /* \"#utility.yul\":10127:10133   */\n      dup4\n        /* \"#utility.yul\":10124:10138   */\n      gt\n        /* \"#utility.yul\":10152:10153   */\n      0x01\n        /* \"#utility.yul\":10147:10765   */\n      dup2\n      eq\n      tag_239\n      jumpi\n        /* \"#utility.yul\":10809:10810   */\n      0x00\n        /* \"#utility.yul\":10826:10832   */\n      dup5\n        /* \"#utility.yul\":10823:10900   */\n      iszero\n      tag_240\n      jumpi\n        /* \"#utility.yul\":10875:10884   */\n      dup3\n        /* \"#utility.yul\":10870:10873   */\n      dup8\n        /* \"#utility.yul\":10866:10885   */\n      add\n        /* \"#utility.yul\":10860:10886   */\n      mload\n        /* \"#utility.yul\":10851:10886   */\n      swap1\n      pop\n        /* \"#utility.yul\":10823:10900   */\n    tag_240:\n        /* \"#utility.yul\":10926:10993   */\n      tag_241\n        /* \"#utility.yul\":10986:10992   */\n      dup6\n        /* \"#utility.yul\":10979:10984   */\n      dup3\n        /* \"#utility.yul\":10926:10993   */\n      tag_116\n      jump\t// in\n    tag_241:\n        /* \"#utility.yul\":10920:10924   */\n      dup7\n        /* \"#utility.yul\":10913:10994   */\n      sstore\n        /* \"#utility.yul\":10782:11004   */\n      pop\n        /* \"#utility.yul\":10117:11004   */\n      jump(tag_238)\n        /* \"#utility.yul\":10147:10765   */\n    tag_239:\n        /* \"#utility.yul\":10199:10203   */\n      0x1f\n        /* \"#utility.yul\":10195:10204   */\n      not\n        /* \"#utility.yul\":10187:10193   */\n      dup5\n        /* \"#utility.yul\":10183:10205   */\n      and\n        /* \"#utility.yul\":10233:10270   */\n      tag_242\n        /* \"#utility.yul\":10265:10269   */\n      dup7\n        /* \"#utility.yul\":10233:10270   */\n      tag_101\n      jump\t// in\n    tag_242:\n        /* \"#utility.yul\":10292:10293   */\n      0x00\n        /* \"#utility.yul\":10306:10514   */\n    tag_243:\n        /* \"#utility.yul\":10320:10327   */\n      dup3\n        /* \"#utility.yul\":10317:10318   */\n      dup2\n        /* \"#utility.yul\":10314:10328   */\n      lt\n        /* \"#utility.yul\":10306:10514   */\n      iszero\n      tag_245\n      jumpi\n        /* \"#utility.yul\":10399:10408   */\n      dup5\n        /* \"#utility.yul\":10394:10397   */\n      dup10\n        /* \"#utility.yul\":10390:10409   */\n      add\n        /* \"#utility.yul\":10384:10410   */\n      mload\n        /* \"#utility.yul\":10376:10382   */\n      dup3\n        /* \"#utility.yul\":10369:10411   */\n      sstore\n        /* \"#utility.yul\":10450:10451   */\n      0x01\n        /* \"#utility.yul\":10442:10448   */\n      dup3\n        /* \"#utility.yul\":10438:10452   */\n      add\n        /* \"#utility.yul\":10428:10452   */\n      swap2\n      pop\n        /* \"#utility.yul\":10497:10499   */\n      0x20\n        /* \"#utility.yul\":10486:10495   */\n      dup6\n        /* \"#utility.yul\":10482:10500   */\n      add\n        /* \"#utility.yul\":10469:10500   */\n      swap5\n      pop\n        /* \"#utility.yul\":10343:10347   */\n      0x20\n        /* \"#utility.yul\":10340:10341   */\n      dup2\n        /* \"#utility.yul\":10336:10348   */\n      add\n        /* \"#utility.yul\":10331:10348   */\n      swap1\n      pop\n        /* \"#utility.yul\":10306:10514   */\n      jump(tag_243)\n    tag_245:\n        /* \"#utility.yul\":10542:10548   */\n      dup7\n        /* \"#utility.yul\":10533:10540   */\n      dup4\n        /* \"#utility.yul\":10530:10549   */\n      lt\n        /* \"#utility.yul\":10527:10706   */\n      iszero\n      tag_246\n      jumpi\n        /* \"#utility.yul\":10600:10609   */\n      dup5\n        /* \"#utility.yul\":10595:10598   */\n      dup10\n        /* \"#utility.yul\":10591:10610   */\n      add\n        /* \"#utility.yul\":10585:10611   */\n      mload\n        /* \"#utility.yul\":10643:10691   */\n      tag_247\n        /* \"#utility.yul\":10685:10689   */\n      0x1f\n        /* \"#utility.yul\":10677:10683   */\n      dup10\n        /* \"#utility.yul\":10673:10690   */\n      and\n        /* \"#utility.yul\":10662:10671   */\n      dup3\n        /* \"#utility.yul\":10643:10691   */\n      tag_115\n      jump\t// in\n    tag_247:\n        /* \"#utility.yul\":10635:10641   */\n      dup4\n        /* \"#utility.yul\":10628:10692   */\n      sstore\n        /* \"#utility.yul\":10550:10706   */\n      pop\n        /* \"#utility.yul\":10527:10706   */\n    tag_246:\n        /* \"#utility.yul\":10752:10753   */\n      0x01\n        /* \"#utility.yul\":10748:10749   */\n      0x02\n        /* \"#utility.yul\":10740:10746   */\n      dup9\n        /* \"#utility.yul\":10736:10750   */\n      mul\n        /* \"#utility.yul\":10732:10754   */\n      add\n        /* \"#utility.yul\":10726:10730   */\n      dup9\n        /* \"#utility.yul\":10719:10755   */\n      sstore\n        /* \"#utility.yul\":10154:10765   */\n      pop\n      pop\n      pop\n        /* \"#utility.yul\":10117:11004   */\n    tag_238:\n      pop\n        /* \"#utility.yul\":9707:11010   */\n      pop\n      pop\n      pop\n        /* \"#utility.yul\":9615:11010   */\n      pop\n      pop\n      jump\t// out\n        /* \"#utility.yul\":11016:11196   */\n    tag_48:\n        /* \"#utility.yul\":11064:11141   */\n      0x4e487b7100000000000000000000000000000000000000000000000000000000\n        /* \"#utility.yul\":11061:11062   */\n      0x00\n        /* \"#utility.yul\":11054:11142   */\n      mstore\n        /* \"#utility.yul\":11161:11165   */\n      0x32\n        /* \"#utility.yul\":11158:11159   */\n      0x04\n        /* \"#utility.yul\":11151:11166   */\n      mstore\n        /* \"#utility.yul\":11185:11189   */\n      0x24\n        /* \"#utility.yul\":11182:11183   */\n      0x00\n        /* \"#utility.yul\":11175:11190   */\n      revert\n        /* \"#utility.yul\":11202:11382   */\n    tag_117:\n        /* \"#utility.yul\":11250:11327   */\n      0x4e487b7100000000000000000000000000000000000000000000000000000000\n        /* \"#utility.yul\":11247:11248   */\n      0x00\n        /* \"#utility.yul\":11240:11328   */\n      mstore\n        /* \"#utility.yul\":11347:11351   */\n      0x11\n        /* \"#utility.yul\":11344:11345   */\n      0x04\n        /* \"#utility.yul\":11337:11352   */\n      mstore\n        /* \"#utility.yul\":11371:11375   */\n      0x24\n        /* \"#utility.yul\":11368:11369   */\n      0x00\n        /* \"#utility.yul\":11361:11376   */\n      revert\n        /* \"#utility.yul\":11388:11555   */\n    tag_52:\n        /* \"#utility.yul\":11425:11428   */\n      0x00\n        /* \"#utility.yul\":11448:11470   */\n      tag_251\n        /* \"#utility.yul\":11464:11469   */\n      dup3\n        /* \"#utility.yul\":11448:11470   */\n      tag_92\n      jump\t// in\n    tag_251:\n        /* \"#utility.yul\":11439:11470   */\n      swap2\n      pop\n        /* \"#utility.yul\":11492:11496   */\n      0xff\n        /* \"#utility.yul\":11485:11490   */\n      dup3\n        /* \"#utility.yul\":11482:11497   */\n      sub\n        /* \"#utility.yul\":11479:11520   */\n      tag_252\n      jumpi\n        /* \"#utility.yul\":11500:11518   */\n      tag_253\n      tag_117\n      jump\t// in\n    tag_253:\n        /* \"#utility.yul\":11479:11520   */\n    tag_252:\n        /* \"#utility.yul\":11547:11548   */\n      0x01\n        /* \"#utility.yul\":11540:11545   */\n      dup3\n        /* \"#utility.yul\":11536:11549   */\n      add\n        /* \"#utility.yul\":11529:11549   */\n      swap1\n      pop\n        /* \"#utility.yul\":11388:11555   */\n      swap2\n      swap1\n      pop\n      jump\t// out\n        /* \"#utility.yul\":11561:11709   */\n    tag_118:\n        /* \"#utility.yul\":11663:11674   */\n      0x00\n        /* \"#utility.yul\":11700:11703   */\n      dup2\n        /* \"#utility.yul\":11685:11703   */\n      swap1\n      pop\n        /* \"#utility.yul\":11561:11709   */\n      swap3\n      swap2\n      pop\n      pop\n      jump\t// out\n        /* \"#utility.yul\":11715:12105   */\n    tag_119:\n        /* \"#utility.yul\":11821:11824   */\n      0x00\n        /* \"#utility.yul\":11849:11888   */\n      tag_256\n        /* \"#utility.yul\":11882:11887   */\n      dup3\n        /* \"#utility.yul\":11849:11888   */\n      tag_95\n      jump\t// in\n    tag_256:\n        /* \"#utility.yul\":11904:11993   */\n      tag_257\n        /* \"#utility.yul\":11986:11992   */\n      dup2\n        /* \"#utility.yul\":11981:11984   */\n      dup6\n        /* \"#utility.yul\":11904:11993   */\n      tag_118\n      jump\t// in\n    tag_257:\n        /* \"#utility.yul\":11897:11993   */\n      swap4\n      pop\n        /* \"#utility.yul\":12002:12067   */\n      tag_258\n        /* \"#utility.yul\":12060:12066   */\n      dup2\n        /* \"#utility.yul\":12055:12058   */\n      dup6\n        /* \"#utility.yul\":12048:12052   */\n      0x20\n        /* \"#utility.yul\":12041:12046   */\n      dup7\n        /* \"#utility.yul\":12037:12053   */\n      add\n        /* \"#utility.yul\":12002:12067   */\n      tag_97\n      jump\t// in\n    tag_258:\n        /* \"#utility.yul\":12092:12098   */\n      dup1\n        /* \"#utility.yul\":12087:12090   */\n      dup5\n        /* \"#utility.yul\":12083:12099   */\n      add\n        /* \"#utility.yul\":12076:12099   */\n      swap2\n      pop\n        /* \"#utility.yul\":11825:12105   */\n      pop\n        /* \"#utility.yul\":11715:12105   */\n      swap3\n      swap2\n      pop\n      pop\n      jump\t// out\n        /* \"#utility.yul\":12111:12309   */\n    tag_120:\n        /* \"#utility.yul\":12280:12302   */\n      0x2066726f6d20707a77277320636f6e7472616374000000000000000000000000\n        /* \"#utility.yul\":12275:12278   */\n      dup2\n        /* \"#utility.yul\":12268:12303   */\n      mstore\n        /* \"#utility.yul\":12111:12309   */\n      pop\n      jump\t// out\n        /* \"#utility.yul\":12315:12857   */\n    tag_71:\n        /* \"#utility.yul\":12538:12541   */\n      0x00\n        /* \"#utility.yul\":12560:12655   */\n      tag_261\n        /* \"#utility.yul\":12651:12654   */\n      dup3\n        /* \"#utility.yul\":12642:12648   */\n      dup5\n        /* \"#utility.yul\":12560:12655   */\n      tag_119\n      jump\t// in\n    tag_261:\n        /* \"#utility.yul\":12553:12655   */\n      swap2\n      pop\n        /* \"#utility.yul\":12665:12803   */\n      tag_262\n        /* \"#utility.yul\":12799:12802   */\n      dup3\n        /* \"#utility.yul\":12665:12803   */\n      tag_120\n      jump\t// in\n    tag_262:\n        /* \"#utility.yul\":12828:12830   */\n      0x14\n        /* \"#utility.yul\":12823:12826   */\n      dup3\n        /* \"#utility.yul\":12819:12831   */\n      add\n        /* \"#utility.yul\":12812:12831   */\n      swap2\n      pop\n        /* \"#utility.yul\":12848:12851   */\n      dup2\n        /* \"#utility.yul\":12841:12851   */\n      swap1\n      pop\n        /* \"#utility.yul\":12315:12857   */\n      swap3\n      swap2\n      pop\n      pop\n      jump\t// out\n\n    auxdata: 0xa264697066735822122002daae13daeacf093c6dcbf95f3a8df5f289d8001ece863f0928d854fd57108064736f6c634300081c0033\n}\n",
				"bytecode": {
					"linkReferences": {},
					"object": "608060405260015f5f6101000a81548160ff0219169083151502179055505f5f60016101000a81548160ff02191690831515021790555060ff5f60026101000a81548160ff021916908360ff1602179055507f6242aa02f8e1440820dc068a41c19be2f67ca8a2dc5d9c71c71c71c71c71c71c6001557fffffffffffffffffffffffffffffffffffffffffffffffffffffffffffffffff6002557f616161616161616100000000000000000000000000000000000000000000000060035f6101000a81548167ffffffffffffffff021916908360c01c02179055506040518060400160405280600b81526020017f48656c6c6f20576f726c640000000000000000000000000000000000000000008152506004908161011e91906103c1565b50735b38da6a701c568545dcfcb03fcb875f56beddc460055f6101000a81548173ffffffffffffffffffffffffffffffffffffffff021916908373ffffffffffffffffffffffffffffffffffffffff16021790555034801561017e575f5ffd5b50610490565b5f81519050919050565b7f4e487b71000000000000000000000000000000000000000000000000000000005f52604160045260245ffd5b7f4e487b71000000000000000000000000000000000000000000000000000000005f52602260045260245ffd5b5f60028204905060018216806101ff57607f821691505b602082108103610212576102116101bb565b5b50919050565b5f819050815f5260205f209050919050565b5f6020601f8301049050919050565b5f82821b905092915050565b5f600883026102747fffffffffffffffffffffffffffffffffffffffffffffffffffffffffffffffff82610239565b61027e8683610239565b95508019841693508086168417925050509392505050565b5f819050919050565b5f819050919050565b5f6102c26102bd6102b884610296565b61029f565b610296565b9050919050565b5f819050919050565b6102db836102a8565b6102ef6102e7826102c9565b848454610245565b825550505050565b5f5f905090565b6103066102f7565b6103118184846102d2565b505050565b5b81811015610334576103295f826102fe565b600181019050610317565b5050565b601f8211156103795761034a81610218565b6103538461022a565b81016020851015610362578190505b61037661036e8561022a565b830182610316565b50505b505050565b5f82821c905092915050565b5f6103995f198460080261037e565b1980831691505092915050565b5f6103b1838361038a565b9150826002028217905092915050565b6103ca82610184565b67ffffffffffffffff8111156103e3576103e261018e565b5b6103ed82546101e8565b6103f8828285610338565b5f60209050601f831160018114610429575f8415610417578287015190505b61042185826103a6565b865550610488565b601f19841661043786610218565b5f5b8281101561045e57848901518255600182019150602085019450602081019050610439565b8683101561047b5784890151610477601f89168261038a565b8355505b6001600288020188555050505b505050505050565b610cd38061049d5f395ff3fe608060405234801561000f575f5ffd5b506004361061004a575f3560e01c8063435ffe941461004e57806346f8840a1461006a578063ac8e64c81461009a578063acb180ff146100cb575b5f5ffd5b61006860048036038101906100639190610702565b6100e7565b005b610084600480360381019061007f919061077f565b6100fa565b604051610091919061080a565b60405180910390f35b6100b460048036038101906100af919061077f565b610228565b6040516100c2929190610839565b60405180910390f35b6100e560048036038101906100e09190610867565b61037c565b005b80600490816100f69190610ac7565b5050565b60605f73ffffffffffffffffffffffffffffffffffffffff1660075f8460ff1660ff1681526020019081526020015f2060010160019054906101000a900473ffffffffffffffffffffffffffffffffffffffff1673ffffffffffffffffffffffffffffffffffffffff16146102185761021160075f8460ff1660ff1681526020019081526020015f205f018054610190906108ee565b80601f01602080910402602001604051908101604052809291908181526020018280546101bc906108ee565b80156102075780601f106101de57610100808354040283529160200191610207565b820191905f5260205f20905b8154815290600101906020018083116101ea57829003601f168201915b50505050506104f4565b9050610223565b61022061051d565b90505b919050565b60605f5f90505f5f90505b6006805490508160ff16101561036b578360ff1660068260ff168154811061025e5761025d610b96565b5b905f5260205f2090600202016001015f9054906101000a900460ff1660ff160361035857818061028d90610bf0565b925050600a8260ff16036103575761034f60068260ff16815481106102b5576102b4610b96565b5b905f5260205f2090600202015f0180546102ce906108ee565b80601f01602080910402602001604051908101604052809291908181526020018280546102fa906108ee565b80156103455780601f1061031c57610100808354040283529160200191610345565b820191905f5260205f20905b81548152906001019060200180831161032857829003601f168201915b50505050506104f4565b925050610377565b5b808061036390610bf0565b915050610233565b5061037461051d565b91505b915091565b5f60405180606001604052808481526020018360ff1681526020013373ffffffffffffffffffffffffffffffffffffffff168152509050600681908060018154018082558091505060019003905f5260205f2090600202015f909190919091505f820151815f0190816103ef9190610ac7565b506020820151816001015f6101000a81548160ff021916908360ff16021790555060408201518160010160016101000a81548173ffffffffffffffffffffffffffffffffffffffff021916908373ffffffffffffffffffffffffffffffffffffffff16021790555050508060075f8460ff1660ff1681526020019081526020015f205f820151815f0190816104849190610ac7565b506020820151816001015f6101000a81548160ff021916908360ff16021790555060408201518160010160016101000a81548173ffffffffffffffffffffffffffffffffffffffff021916908373ffffffffffffffffffffffffffffffffffffffff160217905550905050505050565b6060816040516020016105079190610c78565b6040516020818303038152906040529050919050565b60606105b06004805461052f906108ee565b80601f016020809104026020016040519081016040528092919081815260200182805461055b906108ee565b80156105a65780601f1061057d576101008083540402835291602001916105a6565b820191905f5260205f20905b81548152906001019060200180831161058957829003601f168201915b50505050506104f4565b905090565b5f604051905090565b5f5ffd5b5f5ffd5b5f5ffd5b5f5ffd5b5f601f19601f8301169050919050565b7f4e487b71000000000000000000000000000000000000000000000000000000005f52604160045260245ffd5b610614826105ce565b810181811067ffffffffffffffff82111715610633576106326105de565b5b80604052505050565b5f6106456105b5565b9050610651828261060b565b919050565b5f67ffffffffffffffff8211156106705761066f6105de565b5b610679826105ce565b9050602081019050919050565b828183375f83830152505050565b5f6106a66106a184610656565b61063c565b9050828152602081018484840111156106c2576106c16105ca565b5b6106cd848285610686565b509392505050565b5f82601f8301126106e9576106e86105c6565b5b81356106f9848260208601610694565b91505092915050565b5f60208284031215610717576107166105be565b5b5f82013567ffffffffffffffff811115610734576107336105c2565b5b610740848285016106d5565b91505092915050565b5f60ff82169050919050565b61075e81610749565b8114610768575f5ffd5b50565b5f8135905061077981610755565b92915050565b5f60208284031215610794576107936105be565b5b5f6107a18482850161076b565b91505092915050565b5f81519050919050565b5f82825260208201905092915050565b8281835e5f83830152505050565b5f6107dc826107aa565b6107e681856107b4565b93506107f68185602086016107c4565b6107ff816105ce565b840191505092915050565b5f6020820190508181035f83015261082281846107d2565b905092915050565b61083381610749565b82525050565b5f6040820190508181035f83015261085181856107d2565b9050610860602083018461082a565b9392505050565b5f5f6040838503121561087d5761087c6105be565b5b5f83013567ffffffffffffffff81111561089a576108996105c2565b5b6108a6858286016106d5565b92505060206108b78582860161076b565b9150509250929050565b7f4e487b71000000000000000000000000000000000000000000000000000000005f52602260045260245ffd5b5f600282049050600182168061090557607f821691505b602082108103610918576109176108c1565b5b50919050565b5f819050815f5260205f209050919050565b5f6020601f8301049050919050565b5f82821b905092915050565b5f6008830261097a7fffffffffffffffffffffffffffffffffffffffffffffffffffffffffffffffff8261093f565b610984868361093f565b95508019841693508086168417925050509392505050565b5f819050919050565b5f819050919050565b5f6109c86109c36109be8461099c565b6109a5565b61099c565b9050919050565b5f819050919050565b6109e1836109ae565b6109f56109ed826109cf565b84845461094b565b825550505050565b5f5f905090565b610a0c6109fd565b610a178184846109d8565b505050565b5b81811015610a3a57610a2f5f82610a04565b600181019050610a1d565b5050565b601f821115610a7f57610a508161091e565b610a5984610930565b81016020851015610a68578190505b610a7c610a7485610930565b830182610a1c565b50505b505050565b5f82821c905092915050565b5f610a9f5f1984600802610a84565b1980831691505092915050565b5f610ab78383610a90565b9150826002028217905092915050565b610ad0826107aa565b67ffffffffffffffff811115610ae957610ae86105de565b5b610af382546108ee565b610afe828285610a3e565b5f60209050601f831160018114610b2f575f8415610b1d578287015190505b610b278582610aac565b865550610b8e565b601f198416610b3d8661091e565b5f5b82811015610b6457848901518255600182019150602085019450602081019050610b3f565b86831015610b815784890151610b7d601f891682610a90565b8355505b6001600288020188555050505b505050505050565b7f4e487b71000000000000000000000000000000000000000000000000000000005f52603260045260245ffd5b7f4e487b71000000000000000000000000000000000000000000000000000000005f52601160045260245ffd5b5f610bfa82610749565b915060ff8203610c0d57610c0c610bc3565b5b600182019050919050565b5f81905092915050565b5f610c2c826107aa565b610c368185610c18565b9350610c468185602086016107c4565b80840191505092915050565b7f2066726f6d20707a77277320636f6e7472616374000000000000000000000000815250565b5f610c838284610c22565b9150610c8e82610c52565b6014820191508190509291505056fea264697066735822122002daae13daeacf093c6dcbf95f3a8df5f289d8001ece863f0928d854fd57108064736f6c634300081c0033",
					"opcodes": "PUSH1 0x80 PUSH1 0x40 MSTORE PUSH1 0x1 PUSH0 PUSH0 PUSH2 0x100 EXP DUP2 SLOAD DUP2 PUSH1 0xFF MUL NOT AND SWAP1 DUP4 ISZERO ISZERO MUL OR SWAP1 SSTORE POP PUSH0 PUSH0 PUSH1 0x1 PUSH2 0x100 EXP DUP2 SLOAD DUP2 PUSH1 0xFF MUL NOT AND SWAP1 DUP4 ISZERO ISZERO MUL OR SWAP1 SSTORE POP PUSH1 0xFF PUSH0 PUSH1 0x2 PUSH2 0x100 EXP DUP2 SLOAD DUP2 PUSH1 0xFF MUL NOT AND SWAP1 DUP4 PUSH1 0xFF AND MUL OR SWAP1 SSTORE POP PUSH32 0x6242AA02F8E1440820DC068A41C19BE2F67CA8A2DC5D9C71C71C71C71C71C71C PUSH1 0x1 SSTORE PUSH32 0xFFFFFFFFFFFFFFFFFFFFFFFFFFFFFFFFFFFFFFFFFFFFFFFFFFFFFFFFFFFFFFFF PUSH1 0x2 SSTORE PUSH32 0x6161616161616161000000000000000000000000000000000000000000000000 PUSH1 0x3 PUSH0 PUSH2 0x100 EXP DUP2 SLOAD DUP2 PUSH8 0xFFFFFFFFFFFFFFFF MUL NOT AND SWAP1 DUP4 PUSH1 0xC0 SHR MUL OR SWAP1 SSTORE POP PUSH1 0x40 MLOAD DUP1 PUSH1 0x40 ADD PUSH1 0x40 MSTORE DUP1 PUSH1 0xB DUP2 MSTORE PUSH1 0x20 ADD PUSH32 0x48656C6C6F20576F726C64000000000000000000000000000000000000000000 DUP2 MSTORE POP PUSH1 0x4 SWAP1 DUP2 PUSH2 0x11E SWAP2 SWAP1 PUSH2 0x3C1 JUMP JUMPDEST POP PUSH20 0x5B38DA6A701C568545DCFCB03FCB875F56BEDDC4 PUSH1 0x5 PUSH0 PUSH2 0x100 EXP DUP2 SLOAD DUP2 PUSH20 0xFFFFFFFFFFFFFFFFFFFFFFFFFFFFFFFFFFFFFFFF MUL NOT AND SWAP1 DUP4 PUSH20 0xFFFFFFFFFFFFFFFFFFFFFFFFFFFFFFFFFFFFFFFF AND MUL OR SWAP1 SSTORE POP CALLVALUE DUP1 ISZERO PUSH2 0x17E JUMPI PUSH0 PUSH0 REVERT JUMPDEST POP PUSH2 0x490 JUMP JUMPDEST PUSH0 DUP2 MLOAD SWAP1 POP SWAP2 SWAP1 POP JUMP JUMPDEST PUSH32 0x4E487B7100000000000000000000000000000000000000000000000000000000 PUSH0 MSTORE PUSH1 0x41 PUSH1 0x4 MSTORE PUSH1 0x24 PUSH0 REVERT JUMPDEST PUSH32 0x4E487B7100000000000000000000000000000000000000000000000000000000 PUSH0 MSTORE PUSH1 0x22 PUSH1 0x4 MSTORE PUSH1 0x24 PUSH0 REVERT JUMPDEST PUSH0 PUSH1 0x2 DUP3 DIV SWAP1 POP PUSH1 0x1 DUP3 AND DUP1 PUSH2 0x1FF JUMPI PUSH1 0x7F DUP3 AND SWAP2 POP JUMPDEST PUSH1 0x20 DUP3 LT DUP2 SUB PUSH2 0x212 JUMPI PUSH2 0x211 PUSH2 0x1BB JUMP JUMPDEST JUMPDEST POP SWAP2 SWAP1 POP JUMP JUMPDEST PUSH0 DUP2 SWAP1 POP DUP2 PUSH0 MSTORE PUSH1 0x20 PUSH0 KECCAK256 SWAP1 POP SWAP2 SWAP1 POP JUMP JUMPDEST PUSH0 PUSH1 0x20 PUSH1 0x1F DUP4 ADD DIV SWAP1 POP SWAP2 SWAP1 POP JUMP JUMPDEST PUSH0 DUP3 DUP3 SHL SWAP1 POP SWAP3 SWAP2 POP POP JUMP JUMPDEST PUSH0 PUSH1 0x8 DUP4 MUL PUSH2 0x274 PUSH32 0xFFFFFFFFFFFFFFFFFFFFFFFFFFFFFFFFFFFFFFFFFFFFFFFFFFFFFFFFFFFFFFFF DUP3 PUSH2 0x239 JUMP JUMPDEST PUSH2 0x27E DUP7 DUP4 PUSH2 0x239 JUMP JUMPDEST SWAP6 POP DUP1 NOT DUP5 AND SWAP4 POP DUP1 DUP7 AND DUP5 OR SWAP3 POP POP POP SWAP4 SWAP3 POP POP POP JUMP JUMPDEST PUSH0 DUP2 SWAP1 POP SWAP2 SWAP1 POP JUMP JUMPDEST PUSH0 DUP2 SWAP1 POP SWAP2 SWAP1 POP JUMP JUMPDEST PUSH0 PUSH2 0x2C2 PUSH2 0x2BD PUSH2 0x2B8 DUP5 PUSH2 0x296 JUMP JUMPDEST PUSH2 0x29F JUMP JUMPDEST PUSH2 0x296 JUMP JUMPDEST SWAP1 POP SWAP2 SWAP1 POP JUMP JUMPDEST PUSH0 DUP2 SWAP1 POP SWAP2 SWAP1 POP JUMP JUMPDEST PUSH2 0x2DB DUP4 PUSH2 0x2A8 JUMP JUMPDEST PUSH2 0x2EF PUSH2 0x2E7 DUP3 PUSH2 0x2C9 JUMP JUMPDEST DUP5 DUP5 SLOAD PUSH2 0x245 JUMP JUMPDEST DUP3 SSTORE POP POP POP POP JUMP JUMPDEST PUSH0 PUSH0 SWAP1 POP SWAP1 JUMP JUMPDEST PUSH2 0x306 PUSH2 0x2F7 JUMP JUMPDEST PUSH2 0x311 DUP2 DUP5 DUP5 PUSH2 0x2D2 JUMP JUMPDEST POP POP POP JUMP JUMPDEST JUMPDEST DUP2 DUP2 LT ISZERO PUSH2 0x334 JUMPI PUSH2 0x329 PUSH0 DUP3 PUSH2 0x2FE JUMP JUMPDEST PUSH1 0x1 DUP2 ADD SWAP1 POP PUSH2 0x317 JUMP JUMPDEST POP POP JUMP JUMPDEST PUSH1 0x1F DUP3 GT ISZERO PUSH2 0x379 JUMPI PUSH2 0x34A DUP2 PUSH2 0x218 JUMP JUMPDEST PUSH2 0x353 DUP5 PUSH2 0x22A JUMP JUMPDEST DUP2 ADD PUSH1 0x20 DUP6 LT ISZERO PUSH2 0x362 JUMPI DUP2 SWAP1 POP JUMPDEST PUSH2 0x376 PUSH2 0x36E DUP6 PUSH2 0x22A JUMP JUMPDEST DUP4 ADD DUP3 PUSH2 0x316 JUMP JUMPDEST POP POP JUMPDEST POP POP POP JUMP JUMPDEST PUSH0 DUP3 DUP3 SHR SWAP1 POP SWAP3 SWAP2 POP POP JUMP JUMPDEST PUSH0 PUSH2 0x399 PUSH0 NOT DUP5 PUSH1 0x8 MUL PUSH2 0x37E JUMP JUMPDEST NOT DUP1 DUP4 AND SWAP2 POP POP SWAP3 SWAP2 POP POP JUMP JUMPDEST PUSH0 PUSH2 0x3B1 DUP4 DUP4 PUSH2 0x38A JUMP JUMPDEST SWAP2 POP DUP3 PUSH1 0x2 MUL DUP3 OR SWAP1 POP SWAP3 SWAP2 POP POP JUMP JUMPDEST PUSH2 0x3CA DUP3 PUSH2 0x184 JUMP JUMPDEST PUSH8 0xFFFFFFFFFFFFFFFF DUP2 GT ISZERO PUSH2 0x3E3 JUMPI PUSH2 0x3E2 PUSH2 0x18E JUMP JUMPDEST JUMPDEST PUSH2 0x3ED DUP3 SLOAD PUSH2 0x1E8 JUMP JUMPDEST PUSH2 0x3F8 DUP3 DUP3 DUP6 PUSH2 0x338 JUMP JUMPDEST PUSH0 PUSH1 0x20 SWAP1 POP PUSH1 0x1F DUP4 GT PUSH1 0x1 DUP2 EQ PUSH2 0x429 JUMPI PUSH0 DUP5 ISZERO PUSH2 0x417 JUMPI DUP3 DUP8 ADD MLOAD SWAP1 POP JUMPDEST PUSH2 0x421 DUP6 DUP3 PUSH2 0x3A6 JUMP JUMPDEST DUP7 SSTORE POP PUSH2 0x488 JUMP JUMPDEST PUSH1 0x1F NOT DUP5 AND PUSH2 0x437 DUP7 PUSH2 0x218 JUMP JUMPDEST PUSH0 JUMPDEST DUP3 DUP2 LT ISZERO PUSH2 0x45E JUMPI DUP5 DUP10 ADD MLOAD DUP3 SSTORE PUSH1 0x1 DUP3 ADD SWAP2 POP PUSH1 0x20 DUP6 ADD SWAP5 POP PUSH1 0x20 DUP2 ADD SWAP1 POP PUSH2 0x439 JUMP JUMPDEST DUP7 DUP4 LT ISZERO PUSH2 0x47B JUMPI DUP5 DUP10 ADD MLOAD PUSH2 0x477 PUSH1 0x1F DUP10 AND DUP3 PUSH2 0x38A JUMP JUMPDEST DUP4 SSTORE POP JUMPDEST PUSH1 0x1 PUSH1 0x2 DUP9 MUL ADD DUP9 SSTORE POP POP POP JUMPDEST POP POP POP POP POP POP JUMP JUMPDEST PUSH2 0xCD3 DUP1 PUSH2 0x49D PUSH0 CODECOPY PUSH0 RETURN INVALID PUSH1 0x80 PUSH1 0x40 MSTORE CALLVALUE DUP1 ISZERO PUSH2 0xF JUMPI PUSH0 PUSH0 REVERT JUMPDEST POP PUSH1 0x4 CALLDATASIZE LT PUSH2 0x4A JUMPI PUSH0 CALLDATALOAD PUSH1 0xE0 SHR DUP1 PUSH4 0x435FFE94 EQ PUSH2 0x4E JUMPI DUP1 PUSH4 0x46F8840A EQ PUSH2 0x6A JUMPI DUP1 PUSH4 0xAC8E64C8 EQ PUSH2 0x9A JUMPI DUP1 PUSH4 0xACB180FF EQ PUSH2 0xCB JUMPI JUMPDEST PUSH0 PUSH0 REVERT JUMPDEST PUSH2 0x68 PUSH1 0x4 DUP1 CALLDATASIZE SUB DUP2 ADD SWAP1 PUSH2 0x63 SWAP2 SWAP1 PUSH2 0x702 JUMP JUMPDEST PUSH2 0xE7 JUMP JUMPDEST STOP JUMPDEST PUSH2 0x84 PUSH1 0x4 DUP1 CALLDATASIZE SUB DUP2 ADD SWAP1 PUSH2 0x7F SWAP2 SWAP1 PUSH2 0x77F JUMP JUMPDEST PUSH2 0xFA JUMP JUMPDEST PUSH1 0x40 MLOAD PUSH2 0x91 SWAP2 SWAP1 PUSH2 0x80A JUMP JUMPDEST PUSH1 0x40 MLOAD DUP1 SWAP2 SUB SWAP1 RETURN JUMPDEST PUSH2 0xB4 PUSH1 0x4 DUP1 CALLDATASIZE SUB DUP2 ADD SWAP1 PUSH2 0xAF SWAP2 SWAP1 PUSH2 0x77F JUMP JUMPDEST PUSH2 0x228 JUMP JUMPDEST PUSH1 0x40 MLOAD PUSH2 0xC2 SWAP3 SWAP2 SWAP1 PUSH2 0x839 JUMP JUMPDEST PUSH1 0x40 MLOAD DUP1 SWAP2 SUB SWAP1 RETURN JUMPDEST PUSH2 0xE5 PUSH1 0x4 DUP1 CALLDATASIZE SUB DUP2 ADD SWAP1 PUSH2 0xE0 SWAP2 SWAP1 PUSH2 0x867 JUMP JUMPDEST PUSH2 0x37C JUMP JUMPDEST STOP JUMPDEST DUP1 PUSH1 0x4 SWAP1 DUP2 PUSH2 0xF6 SWAP2 SWAP1 PUSH2 0xAC7 JUMP JUMPDEST POP POP JUMP JUMPDEST PUSH1 0x60 PUSH0 PUSH20 0xFFFFFFFFFFFFFFFFFFFFFFFFFFFFFFFFFFFFFFFF AND PUSH1 0x7 PUSH0 DUP5 PUSH1 0xFF AND PUSH1 0xFF AND DUP2 MSTORE PUSH1 0x20 ADD SWAP1 DUP2 MSTORE PUSH1 0x20 ADD PUSH0 KECCAK256 PUSH1 0x1 ADD PUSH1 0x1 SWAP1 SLOAD SWAP1 PUSH2 0x100 EXP SWAP1 DIV PUSH20 0xFFFFFFFFFFFFFFFFFFFFFFFFFFFFFFFFFFFFFFFF AND PUSH20 0xFFFFFFFFFFFFFFFFFFFFFFFFFFFFFFFFFFFFFFFF AND EQ PUSH2 0x218 JUMPI PUSH2 0x211 PUSH1 0x7 PUSH0 DUP5 PUSH1 0xFF AND PUSH1 0xFF AND DUP2 MSTORE PUSH1 0x20 ADD SWAP1 DUP2 MSTORE PUSH1 0x20 ADD PUSH0 KECCAK256 PUSH0 ADD DUP1 SLOAD PUSH2 0x190 SWAP1 PUSH2 0x8EE JUMP JUMPDEST DUP1 PUSH1 0x1F ADD PUSH1 0x20 DUP1 SWAP2 DIV MUL PUSH1 0x20 ADD PUSH1 0x40 MLOAD SWAP1 DUP2 ADD PUSH1 0x40 MSTORE DUP1 SWAP3 SWAP2 SWAP1 DUP2 DUP2 MSTORE PUSH1 0x20 ADD DUP3 DUP1 SLOAD PUSH2 0x1BC SWAP1 PUSH2 0x8EE JUMP JUMPDEST DUP1 ISZERO PUSH2 0x207 JUMPI DUP1 PUSH1 0x1F LT PUSH2 0x1DE JUMPI PUSH2 0x100 DUP1 DUP4 SLOAD DIV MUL DUP4 MSTORE SWAP2 PUSH1 0x20 ADD SWAP2 PUSH2 0x207 JUMP JUMPDEST DUP3 ADD SWAP2 SWAP1 PUSH0 MSTORE PUSH1 0x20 PUSH0 KECCAK256 SWAP1 JUMPDEST DUP2 SLOAD DUP2 MSTORE SWAP1 PUSH1 0x1 ADD SWAP1 PUSH1 0x20 ADD DUP1 DUP4 GT PUSH2 0x1EA JUMPI DUP3 SWAP1 SUB PUSH1 0x1F AND DUP3 ADD SWAP2 JUMPDEST POP POP POP POP POP PUSH2 0x4F4 JUMP JUMPDEST SWAP1 POP PUSH2 0x223 JUMP JUMPDEST PUSH2 0x220 PUSH2 0x51D JUMP JUMPDEST SWAP1 POP JUMPDEST SWAP2 SWAP1 POP JUMP JUMPDEST PUSH1 0x60 PUSH0 PUSH0 SWAP1 POP PUSH0 PUSH0 SWAP1 POP JUMPDEST PUSH1 0x6 DUP1 SLOAD SWAP1 POP DUP2 PUSH1 0xFF AND LT ISZERO PUSH2 0x36B JUMPI DUP4 PUSH1 0xFF AND PUSH1 0x6 DUP3 PUSH1 0xFF AND DUP2 SLOAD DUP2 LT PUSH2 0x25E JUMPI PUSH2 0x25D PUSH2 0xB96 JUMP JUMPDEST JUMPDEST SWAP1 PUSH0 MSTORE PUSH1 0x20 PUSH0 KECCAK256 SWAP1 PUSH1 0x2 MUL ADD PUSH1 0x1 ADD PUSH0 SWAP1 SLOAD SWAP1 PUSH2 0x100 EXP SWAP1 DIV PUSH1 0xFF AND PUSH1 0xFF AND SUB PUSH2 0x358 JUMPI DUP2 DUP1 PUSH2 0x28D SWAP1 PUSH2 0xBF0 JUMP JUMPDEST SWAP3 POP POP PUSH1 0xA DUP3 PUSH1 0xFF AND SUB PUSH2 0x357 JUMPI PUSH2 0x34F PUSH1 0x6 DUP3 PUSH1 0xFF AND DUP2 SLOAD DUP2 LT PUSH2 0x2B5 JUMPI PUSH2 0x2B4 PUSH2 0xB96 JUMP JUMPDEST JUMPDEST SWAP1 PUSH0 MSTORE PUSH1 0x20 PUSH0 KECCAK256 SWAP1 PUSH1 0x2 MUL ADD PUSH0 ADD DUP1 SLOAD PUSH2 0x2CE SWAP1 PUSH2 0x8EE JUMP JUMPDEST DUP1 PUSH1 0x1F ADD PUSH1 0x20 DUP1 SWAP2 DIV MUL PUSH1 0x20 ADD PUSH1 0x40 MLOAD SWAP1 DUP2 ADD PUSH1 0x40 MSTORE DUP1 SWAP3 SWAP2 SWAP1 DUP2 DUP2 MSTORE PUSH1 0x20 ADD DUP3 DUP1 SLOAD PUSH2 0x2FA SWAP1 PUSH2 0x8EE JUMP JUMPDEST DUP1 ISZERO PUSH2 0x345 JUMPI DUP1 PUSH1 0x1F LT PUSH2 0x31C JUMPI PUSH2 0x100 DUP1 DUP4 SLOAD DIV MUL DUP4 MSTORE SWAP2 PUSH1 0x20 ADD SWAP2 PUSH2 0x345 JUMP JUMPDEST DUP3 ADD SWAP2 SWAP1 PUSH0 MSTORE PUSH1 0x20 PUSH0 KECCAK256 SWAP1 JUMPDEST DUP2 SLOAD DUP2 MSTORE SWAP1 PUSH1 0x1 ADD SWAP1 PUSH1 0x20 ADD DUP1 DUP4 GT PUSH2 0x328 JUMPI DUP3 SWAP1 SUB PUSH1 0x1F AND DUP3 ADD SWAP2 JUMPDEST POP POP POP POP POP PUSH2 0x4F4 JUMP JUMPDEST SWAP3 POP POP PUSH2 0x377 JUMP JUMPDEST JUMPDEST DUP1 DUP1 PUSH2 0x363 SWAP1 PUSH2 0xBF0 JUMP JUMPDEST SWAP2 POP POP PUSH2 0x233 JUMP JUMPDEST POP PUSH2 0x374 PUSH2 0x51D JUMP JUMPDEST SWAP2 POP JUMPDEST SWAP2 POP SWAP2 JUMP JUMPDEST PUSH0 PUSH1 0x40 MLOAD DUP1 PUSH1 0x60 ADD PUSH1 0x40 MSTORE DUP1 DUP5 DUP2 MSTORE PUSH1 0x20 ADD DUP4 PUSH1 0xFF AND DUP2 MSTORE PUSH1 0x20 ADD CALLER PUSH20 0xFFFFFFFFFFFFFFFFFFFFFFFFFFFFFFFFFFFFFFFF AND DUP2 MSTORE POP SWAP1 POP PUSH1 0x6 DUP2 SWAP1 DUP1 PUSH1 0x1 DUP2 SLOAD ADD DUP1 DUP3 SSTORE DUP1 SWAP2 POP POP PUSH1 0x1 SWAP1 SUB SWAP1 PUSH0 MSTORE PUSH1 0x20 PUSH0 KECCAK256 SWAP1 PUSH1 0x2 MUL ADD PUSH0 SWAP1 SWAP2 SWAP1 SWAP2 SWAP1 SWAP2 POP PUSH0 DUP3 ADD MLOAD DUP2 PUSH0 ADD SWAP1 DUP2 PUSH2 0x3EF SWAP2 SWAP1 PUSH2 0xAC7 JUMP JUMPDEST POP PUSH1 0x20 DUP3 ADD MLOAD DUP2 PUSH1 0x1 ADD PUSH0 PUSH2 0x100 EXP DUP2 SLOAD DUP2 PUSH1 0xFF MUL NOT AND SWAP1 DUP4 PUSH1 0xFF AND MUL OR SWAP1 SSTORE POP PUSH1 0x40 DUP3 ADD MLOAD DUP2 PUSH1 0x1 ADD PUSH1 0x1 PUSH2 0x100 EXP DUP2 SLOAD DUP2 PUSH20 0xFFFFFFFFFFFFFFFFFFFFFFFFFFFFFFFFFFFFFFFF MUL NOT AND SWAP1 DUP4 PUSH20 0xFFFFFFFFFFFFFFFFFFFFFFFFFFFFFFFFFFFFFFFF AND MUL OR SWAP1 SSTORE POP POP POP DUP1 PUSH1 0x7 PUSH0 DUP5 PUSH1 0xFF AND PUSH1 0xFF AND DUP2 MSTORE PUSH1 0x20 ADD SWAP1 DUP2 MSTORE PUSH1 0x20 ADD PUSH0 KECCAK256 PUSH0 DUP3 ADD MLOAD DUP2 PUSH0 ADD SWAP1 DUP2 PUSH2 0x484 SWAP2 SWAP1 PUSH2 0xAC7 JUMP JUMPDEST POP PUSH1 0x20 DUP3 ADD MLOAD DUP2 PUSH1 0x1 ADD PUSH0 PUSH2 0x100 EXP DUP2 SLOAD DUP2 PUSH1 0xFF MUL NOT AND SWAP1 DUP4 PUSH1 0xFF AND MUL OR SWAP1 SSTORE POP PUSH1 0x40 DUP3 ADD MLOAD DUP2 PUSH1 0x1 ADD PUSH1 0x1 PUSH2 0x100 EXP DUP2 SLOAD DUP2 PUSH20 0xFFFFFFFFFFFFFFFFFFFFFFFFFFFFFFFFFFFFFFFF MUL NOT AND SWAP1 DUP4 PUSH20 0xFFFFFFFFFFFFFFFFFFFFFFFFFFFFFFFFFFFFFFFF AND MUL OR SWAP1 SSTORE POP SWAP1 POP POP POP POP POP JUMP JUMPDEST PUSH1 0x60 DUP2 PUSH1 0x40 MLOAD PUSH1 0x20 ADD PUSH2 0x507 SWAP2 SWAP1 PUSH2 0xC78 JUMP JUMPDEST PUSH1 0x40 MLOAD PUSH1 0x20 DUP2 DUP4 SUB SUB DUP2 MSTORE SWAP1 PUSH1 0x40 MSTORE SWAP1 POP SWAP2 SWAP1 POP JUMP JUMPDEST PUSH1 0x60 PUSH2 0x5B0 PUSH1 0x4 DUP1 SLOAD PUSH2 0x52F SWAP1 PUSH2 0x8EE JUMP JUMPDEST DUP1 PUSH1 0x1F ADD PUSH1 0x20 DUP1 SWAP2 DIV MUL PUSH1 0x20 ADD PUSH1 0x40 MLOAD SWAP1 DUP2 ADD PUSH1 0x40 MSTORE DUP1 SWAP3 SWAP2 SWAP1 DUP2 DUP2 MSTORE PUSH1 0x20 ADD DUP3 DUP1 SLOAD PUSH2 0x55B SWAP1 PUSH2 0x8EE JUMP JUMPDEST DUP1 ISZERO PUSH2 0x5A6 JUMPI DUP1 PUSH1 0x1F LT PUSH2 0x57D JUMPI PUSH2 0x100 DUP1 DUP4 SLOAD DIV MUL DUP4 MSTORE SWAP2 PUSH1 0x20 ADD SWAP2 PUSH2 0x5A6 JUMP JUMPDEST DUP3 ADD SWAP2 SWAP1 PUSH0 MSTORE PUSH1 0x20 PUSH0 KECCAK256 SWAP1 JUMPDEST DUP2 SLOAD DUP2 MSTORE SWAP1 PUSH1 0x1 ADD SWAP1 PUSH1 0x20 ADD DUP1 DUP4 GT PUSH2 0x589 JUMPI DUP3 SWAP1 SUB PUSH1 0x1F AND DUP3 ADD SWAP2 JUMPDEST POP POP POP POP POP PUSH2 0x4F4 JUMP JUMPDEST SWAP1 POP SWAP1 JUMP JUMPDEST PUSH0 PUSH1 0x40 MLOAD SWAP1 POP SWAP1 JUMP JUMPDEST PUSH0 PUSH0 REVERT JUMPDEST PUSH0 PUSH0 REVERT JUMPDEST PUSH0 PUSH0 REVERT JUMPDEST PUSH0 PUSH0 REVERT JUMPDEST PUSH0 PUSH1 0x1F NOT PUSH1 0x1F DUP4 ADD AND SWAP1 POP SWAP2 SWAP1 POP JUMP JUMPDEST PUSH32 0x4E487B7100000000000000000000000000000000000000000000000000000000 PUSH0 MSTORE PUSH1 0x41 PUSH1 0x4 MSTORE PUSH1 0x24 PUSH0 REVERT JUMPDEST PUSH2 0x614 DUP3 PUSH2 0x5CE JUMP JUMPDEST DUP2 ADD DUP2 DUP2 LT PUSH8 0xFFFFFFFFFFFFFFFF DUP3 GT OR ISZERO PUSH2 0x633 JUMPI PUSH2 0x632 PUSH2 0x5DE JUMP JUMPDEST JUMPDEST DUP1 PUSH1 0x40 MSTORE POP POP POP JUMP JUMPDEST PUSH0 PUSH2 0x645 PUSH2 0x5B5 JUMP JUMPDEST SWAP1 POP PUSH2 0x651 DUP3 DUP3 PUSH2 0x60B JUMP JUMPDEST SWAP2 SWAP1 POP JUMP JUMPDEST PUSH0 PUSH8 0xFFFFFFFFFFFFFFFF DUP3 GT ISZERO PUSH2 0x670 JUMPI PUSH2 0x66F PUSH2 0x5DE JUMP JUMPDEST JUMPDEST PUSH2 0x679 DUP3 PUSH2 0x5CE JUMP JUMPDEST SWAP1 POP PUSH1 0x20 DUP2 ADD SWAP1 POP SWAP2 SWAP1 POP JUMP JUMPDEST DUP3 DUP2 DUP4 CALLDATACOPY PUSH0 DUP4 DUP4 ADD MSTORE POP POP POP JUMP JUMPDEST PUSH0 PUSH2 0x6A6 PUSH2 0x6A1 DUP5 PUSH2 0x656 JUMP JUMPDEST PUSH2 0x63C JUMP JUMPDEST SWAP1 POP DUP3 DUP2 MSTORE PUSH1 0x20 DUP2 ADD DUP5 DUP5 DUP5 ADD GT ISZERO PUSH2 0x6C2 JUMPI PUSH2 0x6C1 PUSH2 0x5CA JUMP JUMPDEST JUMPDEST PUSH2 0x6CD DUP5 DUP3 DUP6 PUSH2 0x686 JUMP JUMPDEST POP SWAP4 SWAP3 POP POP POP JUMP JUMPDEST PUSH0 DUP3 PUSH1 0x1F DUP4 ADD SLT PUSH2 0x6E9 JUMPI PUSH2 0x6E8 PUSH2 0x5C6 JUMP JUMPDEST JUMPDEST DUP2 CALLDATALOAD PUSH2 0x6F9 DUP5 DUP3 PUSH1 0x20 DUP7 ADD PUSH2 0x694 JUMP JUMPDEST SWAP2 POP POP SWAP3 SWAP2 POP POP JUMP JUMPDEST PUSH0 PUSH1 0x20 DUP3 DUP5 SUB SLT ISZERO PUSH2 0x717 JUMPI PUSH2 0x716 PUSH2 0x5BE JUMP JUMPDEST JUMPDEST PUSH0 DUP3 ADD CALLDATALOAD PUSH8 0xFFFFFFFFFFFFFFFF DUP2 GT ISZERO PUSH2 0x734 JUMPI PUSH2 0x733 PUSH2 0x5C2 JUMP JUMPDEST JUMPDEST PUSH2 0x740 DUP5 DUP3 DUP6 ADD PUSH2 0x6D5 JUMP JUMPDEST SWAP2 POP POP SWAP3 SWAP2 POP POP JUMP JUMPDEST PUSH0 PUSH1 0xFF DUP3 AND SWAP1 POP SWAP2 SWAP1 POP JUMP JUMPDEST PUSH2 0x75E DUP2 PUSH2 0x749 JUMP JUMPDEST DUP2 EQ PUSH2 0x768 JUMPI PUSH0 PUSH0 REVERT JUMPDEST POP JUMP JUMPDEST PUSH0 DUP2 CALLDATALOAD SWAP1 POP PUSH2 0x779 DUP2 PUSH2 0x755 JUMP JUMPDEST SWAP3 SWAP2 POP POP JUMP JUMPDEST PUSH0 PUSH1 0x20 DUP3 DUP5 SUB SLT ISZERO PUSH2 0x794 JUMPI PUSH2 0x793 PUSH2 0x5BE JUMP JUMPDEST JUMPDEST PUSH0 PUSH2 0x7A1 DUP5 DUP3 DUP6 ADD PUSH2 0x76B JUMP JUMPDEST SWAP2 POP POP SWAP3 SWAP2 POP POP JUMP JUMPDEST PUSH0 DUP2 MLOAD SWAP1 POP SWAP2 SWAP1 POP JUMP JUMPDEST PUSH0 DUP3 DUP3 MSTORE PUSH1 0x20 DUP3 ADD SWAP1 POP SWAP3 SWAP2 POP POP JUMP JUMPDEST DUP3 DUP2 DUP4 MCOPY PUSH0 DUP4 DUP4 ADD MSTORE POP POP POP JUMP JUMPDEST PUSH0 PUSH2 0x7DC DUP3 PUSH2 0x7AA JUMP JUMPDEST PUSH2 0x7E6 DUP2 DUP6 PUSH2 0x7B4 JUMP JUMPDEST SWAP4 POP PUSH2 0x7F6 DUP2 DUP6 PUSH1 0x20 DUP7 ADD PUSH2 0x7C4 JUMP JUMPDEST PUSH2 0x7FF DUP2 PUSH2 0x5CE JUMP JUMPDEST DUP5 ADD SWAP2 POP POP SWAP3 SWAP2 POP POP JUMP JUMPDEST PUSH0 PUSH1 0x20 DUP3 ADD SWAP1 POP DUP2 DUP2 SUB PUSH0 DUP4 ADD MSTORE PUSH2 0x822 DUP2 DUP5 PUSH2 0x7D2 JUMP JUMPDEST SWAP1 POP SWAP3 SWAP2 POP POP JUMP JUMPDEST PUSH2 0x833 DUP2 PUSH2 0x749 JUMP JUMPDEST DUP3 MSTORE POP POP JUMP JUMPDEST PUSH0 PUSH1 0x40 DUP3 ADD SWAP1 POP DUP2 DUP2 SUB PUSH0 DUP4 ADD MSTORE PUSH2 0x851 DUP2 DUP6 PUSH2 0x7D2 JUMP JUMPDEST SWAP1 POP PUSH2 0x860 PUSH1 0x20 DUP4 ADD DUP5 PUSH2 0x82A JUMP JUMPDEST SWAP4 SWAP3 POP POP POP JUMP JUMPDEST PUSH0 PUSH0 PUSH1 0x40 DUP4 DUP6 SUB SLT ISZERO PUSH2 0x87D JUMPI PUSH2 0x87C PUSH2 0x5BE JUMP JUMPDEST JUMPDEST PUSH0 DUP4 ADD CALLDATALOAD PUSH8 0xFFFFFFFFFFFFFFFF DUP2 GT ISZERO PUSH2 0x89A JUMPI PUSH2 0x899 PUSH2 0x5C2 JUMP JUMPDEST JUMPDEST PUSH2 0x8A6 DUP6 DUP3 DUP7 ADD PUSH2 0x6D5 JUMP JUMPDEST SWAP3 POP POP PUSH1 0x20 PUSH2 0x8B7 DUP6 DUP3 DUP7 ADD PUSH2 0x76B JUMP JUMPDEST SWAP2 POP POP SWAP3 POP SWAP3 SWAP1 POP JUMP JUMPDEST PUSH32 0x4E487B7100000000000000000000000000000000000000000000000000000000 PUSH0 MSTORE PUSH1 0x22 PUSH1 0x4 MSTORE PUSH1 0x24 PUSH0 REVERT JUMPDEST PUSH0 PUSH1 0x2 DUP3 DIV SWAP1 POP PUSH1 0x1 DUP3 AND DUP1 PUSH2 0x905 JUMPI PUSH1 0x7F DUP3 AND SWAP2 POP JUMPDEST PUSH1 0x20 DUP3 LT DUP2 SUB PUSH2 0x918 JUMPI PUSH2 0x917 PUSH2 0x8C1 JUMP JUMPDEST JUMPDEST POP SWAP2 SWAP1 POP JUMP JUMPDEST PUSH0 DUP2 SWAP1 POP DUP2 PUSH0 MSTORE PUSH1 0x20 PUSH0 KECCAK256 SWAP1 POP SWAP2 SWAP1 POP JUMP JUMPDEST PUSH0 PUSH1 0x20 PUSH1 0x1F DUP4 ADD DIV SWAP1 POP SWAP2 SWAP1 POP JUMP JUMPDEST PUSH0 DUP3 DUP3 SHL SWAP1 POP SWAP3 SWAP2 POP POP JUMP JUMPDEST PUSH0 PUSH1 0x8 DUP4 MUL PUSH2 0x97A PUSH32 0xFFFFFFFFFFFFFFFFFFFFFFFFFFFFFFFFFFFFFFFFFFFFFFFFFFFFFFFFFFFFFFFF DUP3 PUSH2 0x93F JUMP JUMPDEST PUSH2 0x984 DUP7 DUP4 PUSH2 0x93F JUMP JUMPDEST SWAP6 POP DUP1 NOT DUP5 AND SWAP4 POP DUP1 DUP7 AND DUP5 OR SWAP3 POP POP POP SWAP4 SWAP3 POP POP POP JUMP JUMPDEST PUSH0 DUP2 SWAP1 POP SWAP2 SWAP1 POP JUMP JUMPDEST PUSH0 DUP2 SWAP1 POP SWAP2 SWAP1 POP JUMP JUMPDEST PUSH0 PUSH2 0x9C8 PUSH2 0x9C3 PUSH2 0x9BE DUP5 PUSH2 0x99C JUMP JUMPDEST PUSH2 0x9A5 JUMP JUMPDEST PUSH2 0x99C JUMP JUMPDEST SWAP1 POP SWAP2 SWAP1 POP JUMP JUMPDEST PUSH0 DUP2 SWAP1 POP SWAP2 SWAP1 POP JUMP JUMPDEST PUSH2 0x9E1 DUP4 PUSH2 0x9AE JUMP JUMPDEST PUSH2 0x9F5 PUSH2 0x9ED DUP3 PUSH2 0x9CF JUMP JUMPDEST DUP5 DUP5 SLOAD PUSH2 0x94B JUMP JUMPDEST DUP3 SSTORE POP POP POP POP JUMP JUMPDEST PUSH0 PUSH0 SWAP1 POP SWAP1 JUMP JUMPDEST PUSH2 0xA0C PUSH2 0x9FD JUMP JUMPDEST PUSH2 0xA17 DUP2 DUP5 DUP5 PUSH2 0x9D8 JUMP JUMPDEST POP POP POP JUMP JUMPDEST JUMPDEST DUP2 DUP2 LT ISZERO PUSH2 0xA3A JUMPI PUSH2 0xA2F PUSH0 DUP3 PUSH2 0xA04 JUMP JUMPDEST PUSH1 0x1 DUP2 ADD SWAP1 POP PUSH2 0xA1D JUMP JUMPDEST POP POP JUMP JUMPDEST PUSH1 0x1F DUP3 GT ISZERO PUSH2 0xA7F JUMPI PUSH2 0xA50 DUP2 PUSH2 0x91E JUMP JUMPDEST PUSH2 0xA59 DUP5 PUSH2 0x930 JUMP JUMPDEST DUP2 ADD PUSH1 0x20 DUP6 LT ISZERO PUSH2 0xA68 JUMPI DUP2 SWAP1 POP JUMPDEST PUSH2 0xA7C PUSH2 0xA74 DUP6 PUSH2 0x930 JUMP JUMPDEST DUP4 ADD DUP3 PUSH2 0xA1C JUMP JUMPDEST POP POP JUMPDEST POP POP POP JUMP JUMPDEST PUSH0 DUP3 DUP3 SHR SWAP1 POP SWAP3 SWAP2 POP POP JUMP JUMPDEST PUSH0 PUSH2 0xA9F PUSH0 NOT DUP5 PUSH1 0x8 MUL PUSH2 0xA84 JUMP JUMPDEST NOT DUP1 DUP4 AND SWAP2 POP POP SWAP3 SWAP2 POP POP JUMP JUMPDEST PUSH0 PUSH2 0xAB7 DUP4 DUP4 PUSH2 0xA90 JUMP JUMPDEST SWAP2 POP DUP3 PUSH1 0x2 MUL DUP3 OR SWAP1 POP SWAP3 SWAP2 POP POP JUMP JUMPDEST PUSH2 0xAD0 DUP3 PUSH2 0x7AA JUMP JUMPDEST PUSH8 0xFFFFFFFFFFFFFFFF DUP2 GT ISZERO PUSH2 0xAE9 JUMPI PUSH2 0xAE8 PUSH2 0x5DE JUMP JUMPDEST JUMPDEST PUSH2 0xAF3 DUP3 SLOAD PUSH2 0x8EE JUMP JUMPDEST PUSH2 0xAFE DUP3 DUP3 DUP6 PUSH2 0xA3E JUMP JUMPDEST PUSH0 PUSH1 0x20 SWAP1 POP PUSH1 0x1F DUP4 GT PUSH1 0x1 DUP2 EQ PUSH2 0xB2F JUMPI PUSH0 DUP5 ISZERO PUSH2 0xB1D JUMPI DUP3 DUP8 ADD MLOAD SWAP1 POP JUMPDEST PUSH2 0xB27 DUP6 DUP3 PUSH2 0xAAC JUMP JUMPDEST DUP7 SSTORE POP PUSH2 0xB8E JUMP JUMPDEST PUSH1 0x1F NOT DUP5 AND PUSH2 0xB3D DUP7 PUSH2 0x91E JUMP JUMPDEST PUSH0 JUMPDEST DUP3 DUP2 LT ISZERO PUSH2 0xB64 JUMPI DUP5 DUP10 ADD MLOAD DUP3 SSTORE PUSH1 0x1 DUP3 ADD SWAP2 POP PUSH1 0x20 DUP6 ADD SWAP5 POP PUSH1 0x20 DUP2 ADD SWAP1 POP PUSH2 0xB3F JUMP JUMPDEST DUP7 DUP4 LT ISZERO PUSH2 0xB81 JUMPI DUP5 DUP10 ADD MLOAD PUSH2 0xB7D PUSH1 0x1F DUP10 AND DUP3 PUSH2 0xA90 JUMP JUMPDEST DUP4 SSTORE POP JUMPDEST PUSH1 0x1 PUSH1 0x2 DUP9 MUL ADD DUP9 SSTORE POP POP POP JUMPDEST POP POP POP POP POP POP JUMP JUMPDEST PUSH32 0x4E487B7100000000000000000000000000000000000000000000000000000000 PUSH0 MSTORE PUSH1 0x32 PUSH1 0x4 MSTORE PUSH1 0x24 PUSH0 REVERT JUMPDEST PUSH32 0x4E487B7100000000000000000000000000000000000000000000000000000000 PUSH0 MSTORE PUSH1 0x11 PUSH1 0x4 MSTORE PUSH1 0x24 PUSH0 REVERT JUMPDEST PUSH0 PUSH2 0xBFA DUP3 PUSH2 0x749 JUMP JUMPDEST SWAP2 POP PUSH1 0xFF DUP3 SUB PUSH2 0xC0D JUMPI PUSH2 0xC0C PUSH2 0xBC3 JUMP JUMPDEST JUMPDEST PUSH1 0x1 DUP3 ADD SWAP1 POP SWAP2 SWAP1 POP JUMP JUMPDEST PUSH0 DUP2 SWAP1 POP SWAP3 SWAP2 POP POP JUMP JUMPDEST PUSH0 PUSH2 0xC2C DUP3 PUSH2 0x7AA JUMP JUMPDEST PUSH2 0xC36 DUP2 DUP6 PUSH2 0xC18 JUMP JUMPDEST SWAP4 POP PUSH2 0xC46 DUP2 DUP6 PUSH1 0x20 DUP7 ADD PUSH2 0x7C4 JUMP JUMPDEST DUP1 DUP5 ADD SWAP2 POP POP SWAP3 SWAP2 POP POP JUMP JUMPDEST PUSH32 0x2066726F6D20707A77277320636F6E7472616374000000000000000000000000 DUP2 MSTORE POP JUMP JUMPDEST PUSH0 PUSH2 0xC83 DUP3 DUP5 PUSH2 0xC22 JUMP JUMPDEST SWAP2 POP PUSH2 0xC8E DUP3 PUSH2 0xC52 JUMP JUMPDEST PUSH1 0x14 DUP3 ADD SWAP2 POP DUP2 SWAP1 POP SWAP3 SWAP2 POP POP JUMP INVALID LOG2 PUSH5 0x6970667358 0x22 SLT KECCAK256 MUL 0xDA 0xAE SGT 0xDA 0xEA 0xCF MULMOD EXTCODECOPY PUSH14 0xCBF95F3A8DF5F289D8001ECE863F MULMOD 0x28 0xD8 SLOAD REVERT JUMPI LT DUP1 PUSH5 0x736F6C6343 STOP ADDMOD SHR STOP CALLER "
				},
				"gasEstimates": {
					"creation": {
						"codeDepositCost": "656600",
						"executionCost": "infinite",
						"totalCost": "infinite"
					},
					"external": {
						"sayHellow(uint8)": "infinite",
						"sayHellowFromMapping(uint8)": "infinite",
						"setHello(string)": "infinite",
						"setInfo(string,uint8)": "infinite"
					},
					"internal": {
						"addInfo(string memory)": "infinite",
						"testFunction()": "infinite"
					}
				},
				"methodIdentifiers": {
					"sayHellow(uint8)": "ac8e64c8",
					"sayHellowFromMapping(uint8)": "46f8840a",
					"setHello(string)": "435ffe94",
					"setInfo(string,uint8)": "acb180ff"
				}
			},
			"storageLayout": {
				"storage": [
					{
						"astId": 4,
						"contract": "test/test.sol:MyContract",
						"label": "bVar_1",
						"offset": 0,
						"slot": "0",
						"type": "t_bool"
					},
					{
						"astId": 7,
						"contract": "test/test.sol:MyContract",
						"label": "bVar_2",
						"offset": 1,
						"slot": "0",
						"type": "t_bool"
					},
					{
						"astId": 10,
						"contract": "test/test.sol:MyContract",
						"label": "a",
						"offset": 2,
						"slot": "0",
						"type": "t_uint8"
					},
					{
						"astId": 13,
						"contract": "test/test.sol:MyContract",
						"label": "b",
						"offset": 0,
						"slot": "1",
						"type": "t_uint256"
					},
					{
						"astId": 17,
						"contract": "test/test.sol:MyContract",
						"label": "intVar_1",
						"offset": 0,
						"slot": "2",
						"type": "t_int256"
					},
					{
						"astId": 20,
						"contract": "test/test.sol:MyContract",
						"label": "bytesVar",
						"offset": 0,
						"slot": "3",
						"type": "t_bytes8"
					},
					{
						"astId": 23,
						"contract": "test/test.sol:MyContract",
						"label": "strVar",
						"offset": 0,
						"slot": "4",
						"type": "t_string_storage"
					},
					{
						"astId": 26,
						"contract": "test/test.sol:MyContract",
						"label": "addrVar",
						"offset": 0,
						"slot": "5",
						"type": "t_address"
					},
					{
						"astId": 72,
						"contract": "test/test.sol:MyContract",
						"label": "infos",
						"offset": 0,
						"slot": "6",
						"type": "t_array(t_struct(Info)68_storage)dyn_storage"
					},
					{
						"astId": 164,
						"contract": "test/test.sol:MyContract",
						"label": "infoMapping",
						"offset": 0,
						"slot": "7",
						"type": "t_mapping(t_uint8,t_struct(Info)68_storage)"
					}
				],
				"types": {
					"t_address": {
						"encoding": "inplace",
						"label": "address",
						"numberOfBytes": "20"
					},
					"t_array(t_struct(Info)68_storage)dyn_storage": {
						"base": "t_struct(Info)68_storage",
						"encoding": "dynamic_array",
						"label": "struct MyContract.Info[]",
						"numberOfBytes": "32"
					},
					"t_bool": {
						"encoding": "inplace",
						"label": "bool",
						"numberOfBytes": "1"
					},
					"t_bytes8": {
						"encoding": "inplace",
						"label": "bytes8",
						"numberOfBytes": "8"
					},
					"t_int256": {
						"encoding": "inplace",
						"label": "int256",
						"numberOfBytes": "32"
					},
					"t_mapping(t_uint8,t_struct(Info)68_storage)": {
						"encoding": "mapping",
						"key": "t_uint8",
						"label": "mapping(uint8 => struct MyContract.Info)",
						"numberOfBytes": "32",
						"value": "t_struct(Info)68_storage"
					},
					"t_string_storage": {
						"encoding": "bytes",
						"label": "string",
						"numberOfBytes": "32"
					},
					"t_struct(Info)68_storage": {
						"encoding": "inplace",
						"label": "struct MyContract.Info",
						"members": [
							{
								"astId": 63,
								"contract": "test/test.sol:MyContract",
								"label": "phrase",
								"offset": 0,
								"slot": "0",
								"type": "t_string_storage"
							},
							{
								"astId": 65,
								"contract": "test/test.sol:MyContract",
								"label": "id",
								"offset": 0,
								"slot": "1",
								"type": "t_uint8"
							},
							{
								"astId": 67,
								"contract": "test/test.sol:MyContract",
								"label": "addr",
								"offset": 1,
								"slot": "1",
								"type": "t_address"
							}
						],
						"numberOfBytes": "64"
					},
					"t_uint256": {
						"encoding": "inplace",
						"label": "uint256",
						"numberOfBytes": "32"
					},
					"t_uint8": {
						"encoding": "inplace",
						"label": "uint8",
						"numberOfBytes": "1"
					}
				}
			},
			"userdoc": {
				"kind": "user",
				"methods": {},
				"version": 1
			}
		}
	}
}