{
	"data": {
		"bytecode": {
			"linkReferences": {},
			"object": "6080604052348015600e575f5ffd5b506102668061001c5f395ff3fe608060405234801561000f575f5ffd5b506004361061003f575f3560e01c8063371303c014610043578063a87d942c1461004d578063b3bcfa821461006b575b5f5ffd5b61004b610075565b005b61005561008f565b604051610062919061010c565b60405180910390f35b610073610097565b005b60015f5f8282546100869190610152565b92505081905550565b5f5f54905090565b5f5f54116100da576040517f08c379a00000000000000000000000000000000000000000000000000000000081526004016100d1906101df565b60405180910390fd5b60015f5f8282546100eb91906101fd565b92505081905550565b5f819050919050565b610106816100f4565b82525050565b5f60208201905061011f5f8301846100fd565b92915050565b7f4e487b71000000000000000000000000000000000000000000000000000000005f52601160045260245ffd5b5f61015c826100f4565b9150610167836100f4565b925082820190508082111561017f5761017e610125565b5b92915050565b5f82825260208201905092915050565b7f54686520636f756e742063616e206e6f74206c657373207468616e207a65726f5f82015250565b5f6101c9602083610185565b91506101d482610195565b602082019050919050565b5f6020820190508181035f8301526101f6816101bd565b9050919050565b5f610207826100f4565b9150610212836100f4565b925082820390508181111561022a57610229610125565b5b9291505056fea26469706673582212209391433da164611c22c3eabe001554ced85abc837a37641d3087d00f6adcbb2464736f6c634300081c0033",
			"opcodes": "PUSH1 0x80 PUSH1 0x40 MSTORE CALLVALUE DUP1 ISZERO PUSH1 0xE JUMPI PUSH0 PUSH0 REVERT JUMPDEST POP PUSH2 0x266 DUP1 PUSH2 0x1C PUSH0 CODECOPY PUSH0 RETURN INVALID PUSH1 0x80 PUSH1 0x40 MSTORE CALLVALUE DUP1 ISZERO PUSH2 0xF JUMPI PUSH0 PUSH0 REVERT JUMPDEST POP PUSH1 0x4 CALLDATASIZE LT PUSH2 0x3F JUMPI PUSH0 CALLDATALOAD PUSH1 0xE0 SHR DUP1 PUSH4 0x371303C0 EQ PUSH2 0x43 JUMPI DUP1 PUSH4 0xA87D942C EQ PUSH2 0x4D JUMPI DUP1 PUSH4 0xB3BCFA82 EQ PUSH2 0x6B JUMPI JUMPDEST PUSH0 PUSH0 REVERT JUMPDEST PUSH2 0x4B PUSH2 0x75 JUMP JUMPDEST STOP JUMPDEST PUSH2 0x55 PUSH2 0x8F JUMP JUMPDEST PUSH1 0x40 MLOAD PUSH2 0x62 SWAP2 SWAP1 PUSH2 0x10C JUMP JUMPDEST PUSH1 0x40 MLOAD DUP1 SWAP2 SUB SWAP1 RETURN JUMPDEST PUSH2 0x73 PUSH2 0x97 JUMP JUMPDEST STOP JUMPDEST PUSH1 0x1 PUSH0 PUSH0 DUP3 DUP3 SLOAD PUSH2 0x86 SWAP2 SWAP1 PUSH2 0x152 JUMP JUMPDEST SWAP3 POP POP DUP2 SWAP1 SSTORE POP JUMP JUMPDEST PUSH0 PUSH0 SLOAD SWAP1 POP SWAP1 JUMP JUMPDEST PUSH0 PUSH0 SLOAD GT PUSH2 0xDA JUMPI PUSH1 0x40 MLOAD PUSH32 0x8C379A000000000000000000000000000000000000000000000000000000000 DUP2 MSTORE PUSH1 0x4 ADD PUSH2 0xD1 SWAP1 PUSH2 0x1DF JUMP JUMPDEST PUSH1 0x40 MLOAD DUP1 SWAP2 SUB SWAP1 REVERT JUMPDEST PUSH1 0x1 PUSH0 PUSH0 DUP3 DUP3 SLOAD PUSH2 0xEB SWAP2 SWAP1 PUSH2 0x1FD JUMP JUMPDEST SWAP3 POP POP DUP2 SWAP1 SSTORE POP JUMP JUMPDEST PUSH0 DUP2 SWAP1 POP SWAP2 SWAP1 POP JUMP JUMPDEST PUSH2 0x106 DUP2 PUSH2 0xF4 JUMP JUMPDEST DUP3 MSTORE POP POP JUMP JUMPDEST PUSH0 PUSH1 0x20 DUP3 ADD SWAP1 POP PUSH2 0x11F PUSH0 DUP4 ADD DUP5 PUSH2 0xFD JUMP JUMPDEST SWAP3 SWAP2 POP POP JUMP JUMPDEST PUSH32 0x4E487B7100000000000000000000000000000000000000000000000000000000 PUSH0 MSTORE PUSH1 0x11 PUSH1 0x4 MSTORE PUSH1 0x24 PUSH0 REVERT JUMPDEST PUSH0 PUSH2 0x15C DUP3 PUSH2 0xF4 JUMP JUMPDEST SWAP2 POP PUSH2 0x167 DUP4 PUSH2 0xF4 JUMP JUMPDEST SWAP3 POP DUP3 DUP3 ADD SWAP1 POP DUP1 DUP3 GT ISZERO PUSH2 0x17F JUMPI PUSH2 0x17E PUSH2 0x125 JUMP JUMPDEST JUMPDEST SWAP3 SWAP2 POP POP JUMP JUMPDEST PUSH0 DUP3 DUP3 MSTORE PUSH1 0x20 DUP3 ADD SWAP1 POP SWAP3 SWAP2 POP POP JUMP JUMPDEST PUSH32 0x54686520636F756E742063616E206E6F74206C657373207468616E207A65726F PUSH0 DUP3 ADD MSTORE POP JUMP JUMPDEST PUSH0 PUSH2 0x1C9 PUSH1 0x20 DUP4 PUSH2 0x185 JUMP JUMPDEST SWAP2 POP PUSH2 0x1D4 DUP3 PUSH2 0x195 JUMP JUMPDEST PUSH1 0x20 DUP3 ADD SWAP1 POP SWAP2 SWAP1 POP JUMP JUMPDEST PUSH0 PUSH1 0x20 DUP3 ADD SWAP1 POP DUP2 DUP2 SUB PUSH0 DUP4 ADD MSTORE PUSH2 0x1F6 DUP2 PUSH2 0x1BD JUMP JUMPDEST SWAP1 POP SWAP2 SWAP1 POP JUMP JUMPDEST PUSH0 PUSH2 0x207 DUP3 PUSH2 0xF4 JUMP JUMPDEST SWAP2 POP PUSH2 0x212 DUP4 PUSH2 0xF4 JUMP JUMPDEST SWAP3 POP DUP3 DUP3 SUB SWAP1 POP DUP2 DUP2 GT ISZERO PUSH2 0x22A JUMPI PUSH2 0x229 PUSH2 0x125 JUMP JUMPDEST JUMPDEST SWAP3 SWAP2 POP POP JUMP INVALID LOG2 PUSH5 0x6970667358 0x22 SLT KECCAK256 SWAP4 SWAP2 NUMBER RETURNDATASIZE LOG1 PUSH5 0x611C22C3EA 0xBE STOP ISZERO SLOAD 0xCE 0xD8 GAS 0xBC DUP4 PUSH27 0x37641D3087D00F6ADCBB2464736F6C634300081C00330000000000 "
		},
		"gasEstimates": {
			"creation": {
				"codeDepositCost": "122800",
				"executionCost": "169",
				"totalCost": "122969"
			},
			"external": {
				"dec()": "infinite",
				"getCount()": "2431",
				"inc()": "infinite"
			}
		},
		"methodIdentifiers": {
			"dec()": "b3bcfa82",
			"getCount()": "a87d942c",
			"inc()": "371303c0"
		}
	},
	"abi": [
		{
			"inputs": [],
			"name": "dec",
			"outputs": [],
			"stateMutability": "nonpayable",
			"type": "function"
		},
		{
			"inputs": [],
			"name": "getCount",
			"outputs": [
				{
					"internalType": "uint256",
					"name": "",
					"type": "uint256"
				}
			],
			"stateMutability": "view",
			"type": "function"
		},
		{
			"inputs": [],
			"name": "inc",
			"outputs": [],
			"stateMutability": "nonpayable",
			"type": "function"
		}
	]
}