{
	"data": {
		"bytecode": {
			"linkReferences": {},
			"object": "608060405260015f5f6101000a81548160ff02191690831515021790555060ff5f60016101000a81548160ff021916908360ff160217905550660b324d0c5da4036001557fffffffffffffffffffffffffffffffffffffffffffffffffffffffffffffff8060025f6101000a81548160ff02191690835f0b60ff160217905550607f600260016101000a81548160ff02191690835f0b60ff16021790555060405180604001604052600a8152806020017f48656c6c6f576f726c6400000000000000000000000000000000000000000000815250600390816100e19190610430565b50604051806020016100f2906101d9565b6020820181038252601f19601f82011660405250600490816101149190610561565b5060405180602001610125906101e6565b6020820181038252601f19601f82011660405250600590816101479190610561565b507f800000000000000000000000000000000000000000000000000000000000000060065f6101000a81548160ff02191690835f0b60ff160217905550607f5f0b60075560b560f81b60085f6101000a81548160ff021916908360f81c0217905550605660f81b600860016101000a81548160ff021916908360f81c02179055503480156101d3575f5ffd5b50610630565b61016a80610ecb83390190565b61014e8061103583390190565b5f81519050919050565b7f4e487b71000000000000000000000000000000000000000000000000000000005f52604160045260245ffd5b7f4e487b71000000000000000000000000000000000000000000000000000000005f52602260045260245ffd5b5f600282049050600182168061026e57607f821691505b6020821081036102815761028061022a565b5b50919050565b5f819050815f5260205f209050919050565b5f6020601f8301049050919050565b5f82821b905092915050565b5f600883026102e37fffffffffffffffffffffffffffffffffffffffffffffffffffffffffffffffff826102a8565b6102ed86836102a8565b95508019841693508086168417925050509392505050565b5f819050919050565b5f819050919050565b5f61033161032c61032784610305565b61030e565b610305565b9050919050565b5f819050919050565b61034a83610317565b61035e61035682610338565b8484546102b4565b825550505050565b5f5f905090565b610375610366565b610380818484610341565b505050565b5b818110156103a3576103985f8261036d565b600181019050610386565b5050565b601f8211156103e8576103b981610287565b6103c284610299565b810160208510156103d1578190505b6103e56103dd85610299565b830182610385565b50505b505050565b5f82821c905092915050565b5f6104085f19846008026103ed565b1980831691505092915050565b5f61042083836103f9565b9150826002028217905092915050565b610439826101f3565b67ffffffffffffffff811115610452576104516101fd565b5b61045c8254610257565b6104678282856103a7565b5f60209050601f831160018114610498575f8415610486578287015190505b6104908582610415565b8655506104f7565b601f1984166104a686610287565b5f5b828110156104cd578489015182556001820191506020850194506020810190506104a8565b868310156104ea57848901516104e6601f8916826103f9565b8355505b6001600288020188555050505b505050505050565b5f81519050919050565b5f819050815f5260205f209050919050565b601f82111561055c5761052d81610509565b61053684610299565b81016020851015610545578190505b61055961055185610299565b830182610385565b50505b505050565b61056a826104ff565b67ffffffffffffffff811115610583576105826101fd565b5b61058d8254610257565b61059882828561051b565b5f60209050601f8311600181146105c9575f84156105b7578287015190505b6105c18582610415565b865550610628565b601f1984166105d786610509565b5f5b828110156105fe578489015182556001820191506020850194506020810190506105d9565b8683101561061b5784890151610617601f8916826103f9565b8355505b6001600288020188555050505b505050505050565b61088e8061063d5f395ff3fe608060405234801561000f575f5ffd5b50600436106100fe575f3560e01c80637a4c257111610095578063c3da42b811610064578063c3da42b81461026a578063d668f5b514610288578063ee495002146102a6578063f2427d37146102c4576100fe565b80637a4c2571146101f25780637e4e14cc14610210578063890eba681461022e5780638a054ac21461024c576100fe565b80634df7e3d0116100d15780634df7e3d01461017a5780635abe622b146101985780637213edad146101b657806375d0c0dc146101d4576100fe565b80630add6ef2146101025780630dbe671f146101205780631570c2cb1461013e57806340e708061461015c575b5f5ffd5b61010a6102e2565b604051610117919061058c565b60405180910390f35b6101286102f5565b60405161013591906105c0565b60405180910390f35b610146610307565b60405161015391906105f1565b60405180910390f35b61016461030d565b604051610171919061067a565b60405180910390f35b610182610399565b60405161018f91906105f1565b60405180910390f35b6101a061039f565b6040516101ad91906106b2565b60405180910390f35b6101be6103a5565b6040516101cb919061067a565b60405180910390f35b6101dc610431565b6040516101e9919061071d565b60405180910390f35b6101fa6104bd565b60405161020791906106b2565b60405180910390f35b6102186104c3565b6040516102259190610757565b60405180910390f35b6102366104d4565b604051610243919061078a565b60405180910390f35b6102546104e5565b6040516102619190610757565b60405180910390f35b6102726104f7565b60405161027f9190610757565b60405180910390f35b610290610508565b60405161029d919061078a565b60405180910390f35b6102ae61051b565b6040516102bb919061058c565b60405180910390f35b6102cc61052d565b6040516102d991906107e2565b60405180910390f35b600860019054906101000a900460f81b81565b5f60019054906101000a900460ff1681565b60095481565b6005805461031a90610828565b80601f016020809104026020016040519081016040528092919081815260200182805461034690610828565b80156103915780601f1061036857610100808354040283529160200191610391565b820191905f5260205f20905b81548152906001019060200180831161037457829003601f168201915b505050505081565b60015481565b600a5481565b600480546103b290610828565b80601f01602080910402602001604051908101604052809291908181526020018280546103de90610828565b80156104295780601f1061040057610100808354040283529160200191610429565b820191905f5260205f20905b81548152906001019060200180831161040c57829003601f168201915b505050505081565b6003805461043e90610828565b80601f016020809104026020016040519081016040528092919081815260200182805461046a90610828565b80156104b55780601f1061048c576101008083540402835291602001916104b5565b820191905f5260205f20905b81548152906001019060200180831161049857829003601f168201915b505050505081565b60075481565b60065f9054906101000a90045f0b81565b5f5f9054906101000a900460ff1681565b600260019054906101000a90045f0b81565b60025f9054906101000a90045f0b81565b600860029054906101000a900460ff1681565b60085f9054906101000a900460f81b81565b600b5f9054906101000a900473ffffffffffffffffffffffffffffffffffffffff1681565b5f7fff0000000000000000000000000000000000000000000000000000000000000082169050919050565b61058681610552565b82525050565b5f60208201905061059f5f83018461057d565b92915050565b5f60ff82169050919050565b6105ba816105a5565b82525050565b5f6020820190506105d35f8301846105b1565b92915050565b5f819050919050565b6105eb816105d9565b82525050565b5f6020820190506106045f8301846105e2565b92915050565b5f81519050919050565b5f82825260208201905092915050565b8281835e5f83830152505050565b5f601f19601f8301169050919050565b5f61064c8261060a565b6106568185610614565b9350610666818560208601610624565b61066f81610632565b840191505092915050565b5f6020820190508181035f8301526106928184610642565b905092915050565b5f819050919050565b6106ac8161069a565b82525050565b5f6020820190506106c55f8301846106a3565b92915050565b5f81519050919050565b5f82825260208201905092915050565b5f6106ef826106cb565b6106f981856106d5565b9350610709818560208601610624565b61071281610632565b840191505092915050565b5f6020820190508181035f83015261073581846106e5565b905092915050565b5f815f0b9050919050565b6107518161073d565b82525050565b5f60208201905061076a5f830184610748565b92915050565b5f8115159050919050565b61078481610770565b82525050565b5f60208201905061079d5f83018461077b565b92915050565b5f73ffffffffffffffffffffffffffffffffffffffff82169050919050565b5f6107cc826107a3565b9050919050565b6107dc816107c2565b82525050565b5f6020820190506107f55f8301846107d3565b92915050565b7f4e487b71000000000000000000000000000000000000000000000000000000005f52602260045260245ffd5b5f600282049050600182168061083f57607f821691505b602082108103610852576108516107fb565b5b5091905056fea26469706673582212205089dd9d83945b78ae86bb070fcf97667082a23c483a0fbf6f0f962f5f91bf9d64736f6c634300081c00336080604052348015600e575f5ffd5b5061014e8061001c5f395ff3fe608060405234801561000f575f5ffd5b5060043610610029575f3560e01c8063ef5fb05b1461002d575b5f5ffd5b61003561004b565b60405161004291906100f8565b60405180910390f35b60606040518060400160405280600a81526020017f48656c6c6f576f726c6400000000000000000000000000000000000000000000815250905090565b5f81519050919050565b5f82825260208201905092915050565b8281835e5f83830152505050565b5f601f19601f8301169050919050565b5f6100ca82610088565b6100d48185610092565b93506100e48185602086016100a2565b6100ed816100b0565b840191505092915050565b5f6020820190508181035f83015261011081846100c0565b90509291505056fea26469706673582212200c93f150e5f1114c28ed3fb16562fa96a48ae4a94412f68ea81c35a34022e74364736f6c634300081c0033608060405234801561000f575f5ffd5b5060043610610029575f3560e01c8063ef5fb05b1461002d575b5f5ffd5b61003561004b565b60405161004291906100f8565b60405180910390f35b60606040518060400160405280600a81526020017f48656c6c6f576f726c6400000000000000000000000000000000000000000000815250905090565b5f81519050919050565b5f82825260208201905092915050565b8281835e5f83830152505050565b5f601f19601f8301169050919050565b5f6100ca82610088565b6100d48185610092565b93506100e48185602086016100a2565b6100ed816100b0565b840191505092915050565b5f6020820190508181035f83015261011081846100c0565b90509291505056fea26469706673582212200c93f150e5f1114c28ed3fb16562fa96a48ae4a94412f68ea81c35a34022e74364736f6c634300081c0033",
			"opcodes": "PUSH1 0x80 PUSH1 0x40 MSTORE PUSH1 0x1 PUSH0 PUSH0 PUSH2 0x100 EXP DUP2 SLOAD DUP2 PUSH1 0xFF MUL NOT AND SWAP1 DUP4 ISZERO ISZERO MUL OR SWAP1 SSTORE POP PUSH1 0xFF PUSH0 PUSH1 0x1 PUSH2 0x100 EXP DUP2 SLOAD DUP2 PUSH1 0xFF MUL NOT AND SWAP1 DUP4 PUSH1 0xFF AND MUL OR SWAP1 SSTORE POP PUSH7 0xB324D0C5DA403 PUSH1 0x1 SSTORE PUSH32 0xFFFFFFFFFFFFFFFFFFFFFFFFFFFFFFFFFFFFFFFFFFFFFFFFFFFFFFFFFFFFFF80 PUSH1 0x2 PUSH0 PUSH2 0x100 EXP DUP2 SLOAD DUP2 PUSH1 0xFF MUL NOT AND SWAP1 DUP4 PUSH0 SIGNEXTEND PUSH1 0xFF AND MUL OR SWAP1 SSTORE POP PUSH1 0x7F PUSH1 0x2 PUSH1 0x1 PUSH2 0x100 EXP DUP2 SLOAD DUP2 PUSH1 0xFF MUL NOT AND SWAP1 DUP4 PUSH0 SIGNEXTEND PUSH1 0xFF AND MUL OR SWAP1 SSTORE POP PUSH1 0x40 MLOAD DUP1 PUSH1 0x40 ADD PUSH1 0x40 MSTORE PUSH1 0xA DUP2 MSTORE DUP1 PUSH1 0x20 ADD PUSH32 0x48656C6C6F576F726C6400000000000000000000000000000000000000000000 DUP2 MSTORE POP PUSH1 0x3 SWAP1 DUP2 PUSH2 0xE1 SWAP2 SWAP1 PUSH2 0x430 JUMP JUMPDEST POP PUSH1 0x40 MLOAD DUP1 PUSH1 0x20 ADD PUSH2 0xF2 SWAP1 PUSH2 0x1D9 JUMP JUMPDEST PUSH1 0x20 DUP3 ADD DUP2 SUB DUP3 MSTORE PUSH1 0x1F NOT PUSH1 0x1F DUP3 ADD AND PUSH1 0x40 MSTORE POP PUSH1 0x4 SWAP1 DUP2 PUSH2 0x114 SWAP2 SWAP1 PUSH2 0x561 JUMP JUMPDEST POP PUSH1 0x40 MLOAD DUP1 PUSH1 0x20 ADD PUSH2 0x125 SWAP1 PUSH2 0x1E6 JUMP JUMPDEST PUSH1 0x20 DUP3 ADD DUP2 SUB DUP3 MSTORE PUSH1 0x1F NOT PUSH1 0x1F DUP3 ADD AND PUSH1 0x40 MSTORE POP PUSH1 0x5 SWAP1 DUP2 PUSH2 0x147 SWAP2 SWAP1 PUSH2 0x561 JUMP JUMPDEST POP PUSH32 0x8000000000000000000000000000000000000000000000000000000000000000 PUSH1 0x6 PUSH0 PUSH2 0x100 EXP DUP2 SLOAD DUP2 PUSH1 0xFF MUL NOT AND SWAP1 DUP4 PUSH0 SIGNEXTEND PUSH1 0xFF AND MUL OR SWAP1 SSTORE POP PUSH1 0x7F PUSH0 SIGNEXTEND PUSH1 0x7 SSTORE PUSH1 0xB5 PUSH1 0xF8 SHL PUSH1 0x8 PUSH0 PUSH2 0x100 EXP DUP2 SLOAD DUP2 PUSH1 0xFF MUL NOT AND SWAP1 DUP4 PUSH1 0xF8 SHR MUL OR SWAP1 SSTORE POP PUSH1 0x56 PUSH1 0xF8 SHL PUSH1 0x8 PUSH1 0x1 PUSH2 0x100 EXP DUP2 SLOAD DUP2 PUSH1 0xFF MUL NOT AND SWAP1 DUP4 PUSH1 0xF8 SHR MUL OR SWAP1 SSTORE POP CALLVALUE DUP1 ISZERO PUSH2 0x1D3 JUMPI PUSH0 PUSH0 REVERT JUMPDEST POP PUSH2 0x630 JUMP JUMPDEST PUSH2 0x16A DUP1 PUSH2 0xECB DUP4 CODECOPY ADD SWAP1 JUMP JUMPDEST PUSH2 0x14E DUP1 PUSH2 0x1035 DUP4 CODECOPY ADD SWAP1 JUMP JUMPDEST PUSH0 DUP2 MLOAD SWAP1 POP SWAP2 SWAP1 POP JUMP JUMPDEST PUSH32 0x4E487B7100000000000000000000000000000000000000000000000000000000 PUSH0 MSTORE PUSH1 0x41 PUSH1 0x4 MSTORE PUSH1 0x24 PUSH0 REVERT JUMPDEST PUSH32 0x4E487B7100000000000000000000000000000000000000000000000000000000 PUSH0 MSTORE PUSH1 0x22 PUSH1 0x4 MSTORE PUSH1 0x24 PUSH0 REVERT JUMPDEST PUSH0 PUSH1 0x2 DUP3 DIV SWAP1 POP PUSH1 0x1 DUP3 AND DUP1 PUSH2 0x26E JUMPI PUSH1 0x7F DUP3 AND SWAP2 POP JUMPDEST PUSH1 0x20 DUP3 LT DUP2 SUB PUSH2 0x281 JUMPI PUSH2 0x280 PUSH2 0x22A JUMP JUMPDEST JUMPDEST POP SWAP2 SWAP1 POP JUMP JUMPDEST PUSH0 DUP2 SWAP1 POP DUP2 PUSH0 MSTORE PUSH1 0x20 PUSH0 KECCAK256 SWAP1 POP SWAP2 SWAP1 POP JUMP JUMPDEST PUSH0 PUSH1 0x20 PUSH1 0x1F DUP4 ADD DIV SWAP1 POP SWAP2 SWAP1 POP JUMP JUMPDEST PUSH0 DUP3 DUP3 SHL SWAP1 POP SWAP3 SWAP2 POP POP JUMP JUMPDEST PUSH0 PUSH1 0x8 DUP4 MUL PUSH2 0x2E3 PUSH32 0xFFFFFFFFFFFFFFFFFFFFFFFFFFFFFFFFFFFFFFFFFFFFFFFFFFFFFFFFFFFFFFFF DUP3 PUSH2 0x2A8 JUMP JUMPDEST PUSH2 0x2ED DUP7 DUP4 PUSH2 0x2A8 JUMP JUMPDEST SWAP6 POP DUP1 NOT DUP5 AND SWAP4 POP DUP1 DUP7 AND DUP5 OR SWAP3 POP POP POP SWAP4 SWAP3 POP POP POP JUMP JUMPDEST PUSH0 DUP2 SWAP1 POP SWAP2 SWAP1 POP JUMP JUMPDEST PUSH0 DUP2 SWAP1 POP SWAP2 SWAP1 POP JUMP JUMPDEST PUSH0 PUSH2 0x331 PUSH2 0x32C PUSH2 0x327 DUP5 PUSH2 0x305 JUMP JUMPDEST PUSH2 0x30E JUMP JUMPDEST PUSH2 0x305 JUMP JUMPDEST SWAP1 POP SWAP2 SWAP1 POP JUMP JUMPDEST PUSH0 DUP2 SWAP1 POP SWAP2 SWAP1 POP JUMP JUMPDEST PUSH2 0x34A DUP4 PUSH2 0x317 JUMP JUMPDEST PUSH2 0x35E PUSH2 0x356 DUP3 PUSH2 0x338 JUMP JUMPDEST DUP5 DUP5 SLOAD PUSH2 0x2B4 JUMP JUMPDEST DUP3 SSTORE POP POP POP POP JUMP JUMPDEST PUSH0 PUSH0 SWAP1 POP SWAP1 JUMP JUMPDEST PUSH2 0x375 PUSH2 0x366 JUMP JUMPDEST PUSH2 0x380 DUP2 DUP5 DUP5 PUSH2 0x341 JUMP JUMPDEST POP POP POP JUMP JUMPDEST JUMPDEST DUP2 DUP2 LT ISZERO PUSH2 0x3A3 JUMPI PUSH2 0x398 PUSH0 DUP3 PUSH2 0x36D JUMP JUMPDEST PUSH1 0x1 DUP2 ADD SWAP1 POP PUSH2 0x386 JUMP JUMPDEST POP POP JUMP JUMPDEST PUSH1 0x1F DUP3 GT ISZERO PUSH2 0x3E8 JUMPI PUSH2 0x3B9 DUP2 PUSH2 0x287 JUMP JUMPDEST PUSH2 0x3C2 DUP5 PUSH2 0x299 JUMP JUMPDEST DUP2 ADD PUSH1 0x20 DUP6 LT ISZERO PUSH2 0x3D1 JUMPI DUP2 SWAP1 POP JUMPDEST PUSH2 0x3E5 PUSH2 0x3DD DUP6 PUSH2 0x299 JUMP JUMPDEST DUP4 ADD DUP3 PUSH2 0x385 JUMP JUMPDEST POP POP JUMPDEST POP POP POP JUMP JUMPDEST PUSH0 DUP3 DUP3 SHR SWAP1 POP SWAP3 SWAP2 POP POP JUMP JUMPDEST PUSH0 PUSH2 0x408 PUSH0 NOT DUP5 PUSH1 0x8 MUL PUSH2 0x3ED JUMP JUMPDEST NOT DUP1 DUP4 AND SWAP2 POP POP SWAP3 SWAP2 POP POP JUMP JUMPDEST PUSH0 PUSH2 0x420 DUP4 DUP4 PUSH2 0x3F9 JUMP JUMPDEST SWAP2 POP DUP3 PUSH1 0x2 MUL DUP3 OR SWAP1 POP SWAP3 SWAP2 POP POP JUMP JUMPDEST PUSH2 0x439 DUP3 PUSH2 0x1F3 JUMP JUMPDEST PUSH8 0xFFFFFFFFFFFFFFFF DUP2 GT ISZERO PUSH2 0x452 JUMPI PUSH2 0x451 PUSH2 0x1FD JUMP JUMPDEST JUMPDEST PUSH2 0x45C DUP3 SLOAD PUSH2 0x257 JUMP JUMPDEST PUSH2 0x467 DUP3 DUP3 DUP6 PUSH2 0x3A7 JUMP JUMPDEST PUSH0 PUSH1 0x20 SWAP1 POP PUSH1 0x1F DUP4 GT PUSH1 0x1 DUP2 EQ PUSH2 0x498 JUMPI PUSH0 DUP5 ISZERO PUSH2 0x486 JUMPI DUP3 DUP8 ADD MLOAD SWAP1 POP JUMPDEST PUSH2 0x490 DUP6 DUP3 PUSH2 0x415 JUMP JUMPDEST DUP7 SSTORE POP PUSH2 0x4F7 JUMP JUMPDEST PUSH1 0x1F NOT DUP5 AND PUSH2 0x4A6 DUP7 PUSH2 0x287 JUMP JUMPDEST PUSH0 JUMPDEST DUP3 DUP2 LT ISZERO PUSH2 0x4CD JUMPI DUP5 DUP10 ADD MLOAD DUP3 SSTORE PUSH1 0x1 DUP3 ADD SWAP2 POP PUSH1 0x20 DUP6 ADD SWAP5 POP PUSH1 0x20 DUP2 ADD SWAP1 POP PUSH2 0x4A8 JUMP JUMPDEST DUP7 DUP4 LT ISZERO PUSH2 0x4EA JUMPI DUP5 DUP10 ADD MLOAD PUSH2 0x4E6 PUSH1 0x1F DUP10 AND DUP3 PUSH2 0x3F9 JUMP JUMPDEST DUP4 SSTORE POP JUMPDEST PUSH1 0x1 PUSH1 0x2 DUP9 MUL ADD DUP9 SSTORE POP POP POP JUMPDEST POP POP POP POP POP POP JUMP JUMPDEST PUSH0 DUP2 MLOAD SWAP1 POP SWAP2 SWAP1 POP JUMP JUMPDEST PUSH0 DUP2 SWAP1 POP DUP2 PUSH0 MSTORE PUSH1 0x20 PUSH0 KECCAK256 SWAP1 POP SWAP2 SWAP1 POP JUMP JUMPDEST PUSH1 0x1F DUP3 GT ISZERO PUSH2 0x55C JUMPI PUSH2 0x52D DUP2 PUSH2 0x509 JUMP JUMPDEST PUSH2 0x536 DUP5 PUSH2 0x299 JUMP JUMPDEST DUP2 ADD PUSH1 0x20 DUP6 LT ISZERO PUSH2 0x545 JUMPI DUP2 SWAP1 POP JUMPDEST PUSH2 0x559 PUSH2 0x551 DUP6 PUSH2 0x299 JUMP JUMPDEST DUP4 ADD DUP3 PUSH2 0x385 JUMP JUMPDEST POP POP JUMPDEST POP POP POP JUMP JUMPDEST PUSH2 0x56A DUP3 PUSH2 0x4FF JUMP JUMPDEST PUSH8 0xFFFFFFFFFFFFFFFF DUP2 GT ISZERO PUSH2 0x583 JUMPI PUSH2 0x582 PUSH2 0x1FD JUMP JUMPDEST JUMPDEST PUSH2 0x58D DUP3 SLOAD PUSH2 0x257 JUMP JUMPDEST PUSH2 0x598 DUP3 DUP3 DUP6 PUSH2 0x51B JUMP JUMPDEST PUSH0 PUSH1 0x20 SWAP1 POP PUSH1 0x1F DUP4 GT PUSH1 0x1 DUP2 EQ PUSH2 0x5C9 JUMPI PUSH0 DUP5 ISZERO PUSH2 0x5B7 JUMPI DUP3 DUP8 ADD MLOAD SWAP1 POP JUMPDEST PUSH2 0x5C1 DUP6 DUP3 PUSH2 0x415 JUMP JUMPDEST DUP7 SSTORE POP PUSH2 0x628 JUMP JUMPDEST PUSH1 0x1F NOT DUP5 AND PUSH2 0x5D7 DUP7 PUSH2 0x509 JUMP JUMPDEST PUSH0 JUMPDEST DUP3 DUP2 LT ISZERO PUSH2 0x5FE JUMPI DUP5 DUP10 ADD MLOAD DUP3 SSTORE PUSH1 0x1 DUP3 ADD SWAP2 POP PUSH1 0x20 DUP6 ADD SWAP5 POP PUSH1 0x20 DUP2 ADD SWAP1 POP PUSH2 0x5D9 JUMP JUMPDEST DUP7 DUP4 LT ISZERO PUSH2 0x61B JUMPI DUP5 DUP10 ADD MLOAD PUSH2 0x617 PUSH1 0x1F DUP10 AND DUP3 PUSH2 0x3F9 JUMP JUMPDEST DUP4 SSTORE POP JUMPDEST PUSH1 0x1 PUSH1 0x2 DUP9 MUL ADD DUP9 SSTORE POP POP POP JUMPDEST POP POP POP POP POP POP JUMP JUMPDEST PUSH2 0x88E DUP1 PUSH2 0x63D PUSH0 CODECOPY PUSH0 RETURN INVALID PUSH1 0x80 PUSH1 0x40 MSTORE CALLVALUE DUP1 ISZERO PUSH2 0xF JUMPI PUSH0 PUSH0 REVERT JUMPDEST POP PUSH1 0x4 CALLDATASIZE LT PUSH2 0xFE JUMPI PUSH0 CALLDATALOAD PUSH1 0xE0 SHR DUP1 PUSH4 0x7A4C2571 GT PUSH2 0x95 JUMPI DUP1 PUSH4 0xC3DA42B8 GT PUSH2 0x64 JUMPI DUP1 PUSH4 0xC3DA42B8 EQ PUSH2 0x26A JUMPI DUP1 PUSH4 0xD668F5B5 EQ PUSH2 0x288 JUMPI DUP1 PUSH4 0xEE495002 EQ PUSH2 0x2A6 JUMPI DUP1 PUSH4 0xF2427D37 EQ PUSH2 0x2C4 JUMPI PUSH2 0xFE JUMP JUMPDEST DUP1 PUSH4 0x7A4C2571 EQ PUSH2 0x1F2 JUMPI DUP1 PUSH4 0x7E4E14CC EQ PUSH2 0x210 JUMPI DUP1 PUSH4 0x890EBA68 EQ PUSH2 0x22E JUMPI DUP1 PUSH4 0x8A054AC2 EQ PUSH2 0x24C JUMPI PUSH2 0xFE JUMP JUMPDEST DUP1 PUSH4 0x4DF7E3D0 GT PUSH2 0xD1 JUMPI DUP1 PUSH4 0x4DF7E3D0 EQ PUSH2 0x17A JUMPI DUP1 PUSH4 0x5ABE622B EQ PUSH2 0x198 JUMPI DUP1 PUSH4 0x7213EDAD EQ PUSH2 0x1B6 JUMPI DUP1 PUSH4 0x75D0C0DC EQ PUSH2 0x1D4 JUMPI PUSH2 0xFE JUMP JUMPDEST DUP1 PUSH4 0xADD6EF2 EQ PUSH2 0x102 JUMPI DUP1 PUSH4 0xDBE671F EQ PUSH2 0x120 JUMPI DUP1 PUSH4 0x1570C2CB EQ PUSH2 0x13E JUMPI DUP1 PUSH4 0x40E70806 EQ PUSH2 0x15C JUMPI JUMPDEST PUSH0 PUSH0 REVERT JUMPDEST PUSH2 0x10A PUSH2 0x2E2 JUMP JUMPDEST PUSH1 0x40 MLOAD PUSH2 0x117 SWAP2 SWAP1 PUSH2 0x58C JUMP JUMPDEST PUSH1 0x40 MLOAD DUP1 SWAP2 SUB SWAP1 RETURN JUMPDEST PUSH2 0x128 PUSH2 0x2F5 JUMP JUMPDEST PUSH1 0x40 MLOAD PUSH2 0x135 SWAP2 SWAP1 PUSH2 0x5C0 JUMP JUMPDEST PUSH1 0x40 MLOAD DUP1 SWAP2 SUB SWAP1 RETURN JUMPDEST PUSH2 0x146 PUSH2 0x307 JUMP JUMPDEST PUSH1 0x40 MLOAD PUSH2 0x153 SWAP2 SWAP1 PUSH2 0x5F1 JUMP JUMPDEST PUSH1 0x40 MLOAD DUP1 SWAP2 SUB SWAP1 RETURN JUMPDEST PUSH2 0x164 PUSH2 0x30D JUMP JUMPDEST PUSH1 0x40 MLOAD PUSH2 0x171 SWAP2 SWAP1 PUSH2 0x67A JUMP JUMPDEST PUSH1 0x40 MLOAD DUP1 SWAP2 SUB SWAP1 RETURN JUMPDEST PUSH2 0x182 PUSH2 0x399 JUMP JUMPDEST PUSH1 0x40 MLOAD PUSH2 0x18F SWAP2 SWAP1 PUSH2 0x5F1 JUMP JUMPDEST PUSH1 0x40 MLOAD DUP1 SWAP2 SUB SWAP1 RETURN JUMPDEST PUSH2 0x1A0 PUSH2 0x39F JUMP JUMPDEST PUSH1 0x40 MLOAD PUSH2 0x1AD SWAP2 SWAP1 PUSH2 0x6B2 JUMP JUMPDEST PUSH1 0x40 MLOAD DUP1 SWAP2 SUB SWAP1 RETURN JUMPDEST PUSH2 0x1BE PUSH2 0x3A5 JUMP JUMPDEST PUSH1 0x40 MLOAD PUSH2 0x1CB SWAP2 SWAP1 PUSH2 0x67A JUMP JUMPDEST PUSH1 0x40 MLOAD DUP1 SWAP2 SUB SWAP1 RETURN JUMPDEST PUSH2 0x1DC PUSH2 0x431 JUMP JUMPDEST PUSH1 0x40 MLOAD PUSH2 0x1E9 SWAP2 SWAP1 PUSH2 0x71D JUMP JUMPDEST PUSH1 0x40 MLOAD DUP1 SWAP2 SUB SWAP1 RETURN JUMPDEST PUSH2 0x1FA PUSH2 0x4BD JUMP JUMPDEST PUSH1 0x40 MLOAD PUSH2 0x207 SWAP2 SWAP1 PUSH2 0x6B2 JUMP JUMPDEST PUSH1 0x40 MLOAD DUP1 SWAP2 SUB SWAP1 RETURN JUMPDEST PUSH2 0x218 PUSH2 0x4C3 JUMP JUMPDEST PUSH1 0x40 MLOAD PUSH2 0x225 SWAP2 SWAP1 PUSH2 0x757 JUMP JUMPDEST PUSH1 0x40 MLOAD DUP1 SWAP2 SUB SWAP1 RETURN JUMPDEST PUSH2 0x236 PUSH2 0x4D4 JUMP JUMPDEST PUSH1 0x40 MLOAD PUSH2 0x243 SWAP2 SWAP1 PUSH2 0x78A JUMP JUMPDEST PUSH1 0x40 MLOAD DUP1 SWAP2 SUB SWAP1 RETURN JUMPDEST PUSH2 0x254 PUSH2 0x4E5 JUMP JUMPDEST PUSH1 0x40 MLOAD PUSH2 0x261 SWAP2 SWAP1 PUSH2 0x757 JUMP JUMPDEST PUSH1 0x40 MLOAD DUP1 SWAP2 SUB SWAP1 RETURN JUMPDEST PUSH2 0x272 PUSH2 0x4F7 JUMP JUMPDEST PUSH1 0x40 MLOAD PUSH2 0x27F SWAP2 SWAP1 PUSH2 0x757 JUMP JUMPDEST PUSH1 0x40 MLOAD DUP1 SWAP2 SUB SWAP1 RETURN JUMPDEST PUSH2 0x290 PUSH2 0x508 JUMP JUMPDEST PUSH1 0x40 MLOAD PUSH2 0x29D SWAP2 SWAP1 PUSH2 0x78A JUMP JUMPDEST PUSH1 0x40 MLOAD DUP1 SWAP2 SUB SWAP1 RETURN JUMPDEST PUSH2 0x2AE PUSH2 0x51B JUMP JUMPDEST PUSH1 0x40 MLOAD PUSH2 0x2BB SWAP2 SWAP1 PUSH2 0x58C JUMP JUMPDEST PUSH1 0x40 MLOAD DUP1 SWAP2 SUB SWAP1 RETURN JUMPDEST PUSH2 0x2CC PUSH2 0x52D JUMP JUMPDEST PUSH1 0x40 MLOAD PUSH2 0x2D9 SWAP2 SWAP1 PUSH2 0x7E2 JUMP JUMPDEST PUSH1 0x40 MLOAD DUP1 SWAP2 SUB SWAP1 RETURN JUMPDEST PUSH1 0x8 PUSH1 0x1 SWAP1 SLOAD SWAP1 PUSH2 0x100 EXP SWAP1 DIV PUSH1 0xF8 SHL DUP2 JUMP JUMPDEST PUSH0 PUSH1 0x1 SWAP1 SLOAD SWAP1 PUSH2 0x100 EXP SWAP1 DIV PUSH1 0xFF AND DUP2 JUMP JUMPDEST PUSH1 0x9 SLOAD DUP2 JUMP JUMPDEST PUSH1 0x5 DUP1 SLOAD PUSH2 0x31A SWAP1 PUSH2 0x828 JUMP JUMPDEST DUP1 PUSH1 0x1F ADD PUSH1 0x20 DUP1 SWAP2 DIV MUL PUSH1 0x20 ADD PUSH1 0x40 MLOAD SWAP1 DUP2 ADD PUSH1 0x40 MSTORE DUP1 SWAP3 SWAP2 SWAP1 DUP2 DUP2 MSTORE PUSH1 0x20 ADD DUP3 DUP1 SLOAD PUSH2 0x346 SWAP1 PUSH2 0x828 JUMP JUMPDEST DUP1 ISZERO PUSH2 0x391 JUMPI DUP1 PUSH1 0x1F LT PUSH2 0x368 JUMPI PUSH2 0x100 DUP1 DUP4 SLOAD DIV MUL DUP4 MSTORE SWAP2 PUSH1 0x20 ADD SWAP2 PUSH2 0x391 JUMP JUMPDEST DUP3 ADD SWAP2 SWAP1 PUSH0 MSTORE PUSH1 0x20 PUSH0 KECCAK256 SWAP1 JUMPDEST DUP2 SLOAD DUP2 MSTORE SWAP1 PUSH1 0x1 ADD SWAP1 PUSH1 0x20 ADD DUP1 DUP4 GT PUSH2 0x374 JUMPI DUP3 SWAP1 SUB PUSH1 0x1F AND DUP3 ADD SWAP2 JUMPDEST POP POP POP POP POP DUP2 JUMP JUMPDEST PUSH1 0x1 SLOAD DUP2 JUMP JUMPDEST PUSH1 0xA SLOAD DUP2 JUMP JUMPDEST PUSH1 0x4 DUP1 SLOAD PUSH2 0x3B2 SWAP1 PUSH2 0x828 JUMP JUMPDEST DUP1 PUSH1 0x1F ADD PUSH1 0x20 DUP1 SWAP2 DIV MUL PUSH1 0x20 ADD PUSH1 0x40 MLOAD SWAP1 DUP2 ADD PUSH1 0x40 MSTORE DUP1 SWAP3 SWAP2 SWAP1 DUP2 DUP2 MSTORE PUSH1 0x20 ADD DUP3 DUP1 SLOAD PUSH2 0x3DE SWAP1 PUSH2 0x828 JUMP JUMPDEST DUP1 ISZERO PUSH2 0x429 JUMPI DUP1 PUSH1 0x1F LT PUSH2 0x400 JUMPI PUSH2 0x100 DUP1 DUP4 SLOAD DIV MUL DUP4 MSTORE SWAP2 PUSH1 0x20 ADD SWAP2 PUSH2 0x429 JUMP JUMPDEST DUP3 ADD SWAP2 SWAP1 PUSH0 MSTORE PUSH1 0x20 PUSH0 KECCAK256 SWAP1 JUMPDEST DUP2 SLOAD DUP2 MSTORE SWAP1 PUSH1 0x1 ADD SWAP1 PUSH1 0x20 ADD DUP1 DUP4 GT PUSH2 0x40C JUMPI DUP3 SWAP1 SUB PUSH1 0x1F AND DUP3 ADD SWAP2 JUMPDEST POP POP POP POP POP DUP2 JUMP JUMPDEST PUSH1 0x3 DUP1 SLOAD PUSH2 0x43E SWAP1 PUSH2 0x828 JUMP JUMPDEST DUP1 PUSH1 0x1F ADD PUSH1 0x20 DUP1 SWAP2 DIV MUL PUSH1 0x20 ADD PUSH1 0x40 MLOAD SWAP1 DUP2 ADD PUSH1 0x40 MSTORE DUP1 SWAP3 SWAP2 SWAP1 DUP2 DUP2 MSTORE PUSH1 0x20 ADD DUP3 DUP1 SLOAD PUSH2 0x46A SWAP1 PUSH2 0x828 JUMP JUMPDEST DUP1 ISZERO PUSH2 0x4B5 JUMPI DUP1 PUSH1 0x1F LT PUSH2 0x48C JUMPI PUSH2 0x100 DUP1 DUP4 SLOAD DIV MUL DUP4 MSTORE SWAP2 PUSH1 0x20 ADD SWAP2 PUSH2 0x4B5 JUMP JUMPDEST DUP3 ADD SWAP2 SWAP1 PUSH0 MSTORE PUSH1 0x20 PUSH0 KECCAK256 SWAP1 JUMPDEST DUP2 SLOAD DUP2 MSTORE SWAP1 PUSH1 0x1 ADD SWAP1 PUSH1 0x20 ADD DUP1 DUP4 GT PUSH2 0x498 JUMPI DUP3 SWAP1 SUB PUSH1 0x1F AND DUP3 ADD SWAP2 JUMPDEST POP POP POP POP POP DUP2 JUMP JUMPDEST PUSH1 0x7 SLOAD DUP2 JUMP JUMPDEST PUSH1 0x6 PUSH0 SWAP1 SLOAD SWAP1 PUSH2 0x100 EXP SWAP1 DIV PUSH0 SIGNEXTEND DUP2 JUMP JUMPDEST PUSH0 PUSH0 SWAP1 SLOAD SWAP1 PUSH2 0x100 EXP SWAP1 DIV PUSH1 0xFF AND DUP2 JUMP JUMPDEST PUSH1 0x2 PUSH1 0x1 SWAP1 SLOAD SWAP1 PUSH2 0x100 EXP SWAP1 DIV PUSH0 SIGNEXTEND DUP2 JUMP JUMPDEST PUSH1 0x2 PUSH0 SWAP1 SLOAD SWAP1 PUSH2 0x100 EXP SWAP1 DIV PUSH0 SIGNEXTEND DUP2 JUMP JUMPDEST PUSH1 0x8 PUSH1 0x2 SWAP1 SLOAD SWAP1 PUSH2 0x100 EXP SWAP1 DIV PUSH1 0xFF AND DUP2 JUMP JUMPDEST PUSH1 0x8 PUSH0 SWAP1 SLOAD SWAP1 PUSH2 0x100 EXP SWAP1 DIV PUSH1 0xF8 SHL DUP2 JUMP JUMPDEST PUSH1 0xB PUSH0 SWAP1 SLOAD SWAP1 PUSH2 0x100 EXP SWAP1 DIV PUSH20 0xFFFFFFFFFFFFFFFFFFFFFFFFFFFFFFFFFFFFFFFF AND DUP2 JUMP JUMPDEST PUSH0 PUSH32 0xFF00000000000000000000000000000000000000000000000000000000000000 DUP3 AND SWAP1 POP SWAP2 SWAP1 POP JUMP JUMPDEST PUSH2 0x586 DUP2 PUSH2 0x552 JUMP JUMPDEST DUP3 MSTORE POP POP JUMP JUMPDEST PUSH0 PUSH1 0x20 DUP3 ADD SWAP1 POP PUSH2 0x59F PUSH0 DUP4 ADD DUP5 PUSH2 0x57D JUMP JUMPDEST SWAP3 SWAP2 POP POP JUMP JUMPDEST PUSH0 PUSH1 0xFF DUP3 AND SWAP1 POP SWAP2 SWAP1 POP JUMP JUMPDEST PUSH2 0x5BA DUP2 PUSH2 0x5A5 JUMP JUMPDEST DUP3 MSTORE POP POP JUMP JUMPDEST PUSH0 PUSH1 0x20 DUP3 ADD SWAP1 POP PUSH2 0x5D3 PUSH0 DUP4 ADD DUP5 PUSH2 0x5B1 JUMP JUMPDEST SWAP3 SWAP2 POP POP JUMP JUMPDEST PUSH0 DUP2 SWAP1 POP SWAP2 SWAP1 POP JUMP JUMPDEST PUSH2 0x5EB DUP2 PUSH2 0x5D9 JUMP JUMPDEST DUP3 MSTORE POP POP JUMP JUMPDEST PUSH0 PUSH1 0x20 DUP3 ADD SWAP1 POP PUSH2 0x604 PUSH0 DUP4 ADD DUP5 PUSH2 0x5E2 JUMP JUMPDEST SWAP3 SWAP2 POP POP JUMP JUMPDEST PUSH0 DUP2 MLOAD SWAP1 POP SWAP2 SWAP1 POP JUMP JUMPDEST PUSH0 DUP3 DUP3 MSTORE PUSH1 0x20 DUP3 ADD SWAP1 POP SWAP3 SWAP2 POP POP JUMP JUMPDEST DUP3 DUP2 DUP4 MCOPY PUSH0 DUP4 DUP4 ADD MSTORE POP POP POP JUMP JUMPDEST PUSH0 PUSH1 0x1F NOT PUSH1 0x1F DUP4 ADD AND SWAP1 POP SWAP2 SWAP1 POP JUMP JUMPDEST PUSH0 PUSH2 0x64C DUP3 PUSH2 0x60A JUMP JUMPDEST PUSH2 0x656 DUP2 DUP6 PUSH2 0x614 JUMP JUMPDEST SWAP4 POP PUSH2 0x666 DUP2 DUP6 PUSH1 0x20 DUP7 ADD PUSH2 0x624 JUMP JUMPDEST PUSH2 0x66F DUP2 PUSH2 0x632 JUMP JUMPDEST DUP5 ADD SWAP2 POP POP SWAP3 SWAP2 POP POP JUMP JUMPDEST PUSH0 PUSH1 0x20 DUP3 ADD SWAP1 POP DUP2 DUP2 SUB PUSH0 DUP4 ADD MSTORE PUSH2 0x692 DUP2 DUP5 PUSH2 0x642 JUMP JUMPDEST SWAP1 POP SWAP3 SWAP2 POP POP JUMP JUMPDEST PUSH0 DUP2 SWAP1 POP SWAP2 SWAP1 POP JUMP JUMPDEST PUSH2 0x6AC DUP2 PUSH2 0x69A JUMP JUMPDEST DUP3 MSTORE POP POP JUMP JUMPDEST PUSH0 PUSH1 0x20 DUP3 ADD SWAP1 POP PUSH2 0x6C5 PUSH0 DUP4 ADD DUP5 PUSH2 0x6A3 JUMP JUMPDEST SWAP3 SWAP2 POP POP JUMP JUMPDEST PUSH0 DUP2 MLOAD SWAP1 POP SWAP2 SWAP1 POP JUMP JUMPDEST PUSH0 DUP3 DUP3 MSTORE PUSH1 0x20 DUP3 ADD SWAP1 POP SWAP3 SWAP2 POP POP JUMP JUMPDEST PUSH0 PUSH2 0x6EF DUP3 PUSH2 0x6CB JUMP JUMPDEST PUSH2 0x6F9 DUP2 DUP6 PUSH2 0x6D5 JUMP JUMPDEST SWAP4 POP PUSH2 0x709 DUP2 DUP6 PUSH1 0x20 DUP7 ADD PUSH2 0x624 JUMP JUMPDEST PUSH2 0x712 DUP2 PUSH2 0x632 JUMP JUMPDEST DUP5 ADD SWAP2 POP POP SWAP3 SWAP2 POP POP JUMP JUMPDEST PUSH0 PUSH1 0x20 DUP3 ADD SWAP1 POP DUP2 DUP2 SUB PUSH0 DUP4 ADD MSTORE PUSH2 0x735 DUP2 DUP5 PUSH2 0x6E5 JUMP JUMPDEST SWAP1 POP SWAP3 SWAP2 POP POP JUMP JUMPDEST PUSH0 DUP2 PUSH0 SIGNEXTEND SWAP1 POP SWAP2 SWAP1 POP JUMP JUMPDEST PUSH2 0x751 DUP2 PUSH2 0x73D JUMP JUMPDEST DUP3 MSTORE POP POP JUMP JUMPDEST PUSH0 PUSH1 0x20 DUP3 ADD SWAP1 POP PUSH2 0x76A PUSH0 DUP4 ADD DUP5 PUSH2 0x748 JUMP JUMPDEST SWAP3 SWAP2 POP POP JUMP JUMPDEST PUSH0 DUP2 ISZERO ISZERO SWAP1 POP SWAP2 SWAP1 POP JUMP JUMPDEST PUSH2 0x784 DUP2 PUSH2 0x770 JUMP JUMPDEST DUP3 MSTORE POP POP JUMP JUMPDEST PUSH0 PUSH1 0x20 DUP3 ADD SWAP1 POP PUSH2 0x79D PUSH0 DUP4 ADD DUP5 PUSH2 0x77B JUMP JUMPDEST SWAP3 SWAP2 POP POP JUMP JUMPDEST PUSH0 PUSH20 0xFFFFFFFFFFFFFFFFFFFFFFFFFFFFFFFFFFFFFFFF DUP3 AND SWAP1 POP SWAP2 SWAP1 POP JUMP JUMPDEST PUSH0 PUSH2 0x7CC DUP3 PUSH2 0x7A3 JUMP JUMPDEST SWAP1 POP SWAP2 SWAP1 POP JUMP JUMPDEST PUSH2 0x7DC DUP2 PUSH2 0x7C2 JUMP JUMPDEST DUP3 MSTORE POP POP JUMP JUMPDEST PUSH0 PUSH1 0x20 DUP3 ADD SWAP1 POP PUSH2 0x7F5 PUSH0 DUP4 ADD DUP5 PUSH2 0x7D3 JUMP JUMPDEST SWAP3 SWAP2 POP POP JUMP JUMPDEST PUSH32 0x4E487B7100000000000000000000000000000000000000000000000000000000 PUSH0 MSTORE PUSH1 0x22 PUSH1 0x4 MSTORE PUSH1 0x24 PUSH0 REVERT JUMPDEST PUSH0 PUSH1 0x2 DUP3 DIV SWAP1 POP PUSH1 0x1 DUP3 AND DUP1 PUSH2 0x83F JUMPI PUSH1 0x7F DUP3 AND SWAP2 POP JUMPDEST PUSH1 0x20 DUP3 LT DUP2 SUB PUSH2 0x852 JUMPI PUSH2 0x851 PUSH2 0x7FB JUMP JUMPDEST JUMPDEST POP SWAP2 SWAP1 POP JUMP INVALID LOG2 PUSH5 0x6970667358 0x22 SLT KECCAK256 POP DUP10 0xDD SWAP14 DUP4 SWAP5 JUMPDEST PUSH25 0xAE86BB070FCF97667082A23C483A0FBF6F0F962F5F91BF9D64 PUSH20 0x6F6C634300081C00336080604052348015600E57 PUSH0 PUSH0 REVERT JUMPDEST POP PUSH2 0x14E DUP1 PUSH2 0x1C PUSH0 CODECOPY PUSH0 RETURN INVALID PUSH1 0x80 PUSH1 0x40 MSTORE CALLVALUE DUP1 ISZERO PUSH2 0xF JUMPI PUSH0 PUSH0 REVERT JUMPDEST POP PUSH1 0x4 CALLDATASIZE LT PUSH2 0x29 JUMPI PUSH0 CALLDATALOAD PUSH1 0xE0 SHR DUP1 PUSH4 0xEF5FB05B EQ PUSH2 0x2D JUMPI JUMPDEST PUSH0 PUSH0 REVERT JUMPDEST PUSH2 0x35 PUSH2 0x4B JUMP JUMPDEST PUSH1 0x40 MLOAD PUSH2 0x42 SWAP2 SWAP1 PUSH2 0xF8 JUMP JUMPDEST PUSH1 0x40 MLOAD DUP1 SWAP2 SUB SWAP1 RETURN JUMPDEST PUSH1 0x60 PUSH1 0x40 MLOAD DUP1 PUSH1 0x40 ADD PUSH1 0x40 MSTORE DUP1 PUSH1 0xA DUP2 MSTORE PUSH1 0x20 ADD PUSH32 0x48656C6C6F576F726C6400000000000000000000000000000000000000000000 DUP2 MSTORE POP SWAP1 POP SWAP1 JUMP JUMPDEST PUSH0 DUP2 MLOAD SWAP1 POP SWAP2 SWAP1 POP JUMP JUMPDEST PUSH0 DUP3 DUP3 MSTORE PUSH1 0x20 DUP3 ADD SWAP1 POP SWAP3 SWAP2 POP POP JUMP JUMPDEST DUP3 DUP2 DUP4 MCOPY PUSH0 DUP4 DUP4 ADD MSTORE POP POP POP JUMP JUMPDEST PUSH0 PUSH1 0x1F NOT PUSH1 0x1F DUP4 ADD AND SWAP1 POP SWAP2 SWAP1 POP JUMP JUMPDEST PUSH0 PUSH2 0xCA DUP3 PUSH2 0x88 JUMP JUMPDEST PUSH2 0xD4 DUP2 DUP6 PUSH2 0x92 JUMP JUMPDEST SWAP4 POP PUSH2 0xE4 DUP2 DUP6 PUSH1 0x20 DUP7 ADD PUSH2 0xA2 JUMP JUMPDEST PUSH2 0xED DUP2 PUSH2 0xB0 JUMP JUMPDEST DUP5 ADD SWAP2 POP POP SWAP3 SWAP2 POP POP JUMP JUMPDEST PUSH0 PUSH1 0x20 DUP3 ADD SWAP1 POP DUP2 DUP2 SUB PUSH0 DUP4 ADD MSTORE PUSH2 0x110 DUP2 DUP5 PUSH2 0xC0 JUMP JUMPDEST SWAP1 POP SWAP3 SWAP2 POP POP JUMP INVALID LOG2 PUSH5 0x6970667358 0x22 SLT KECCAK256 0xC SWAP4 CALL POP 0xE5 CALL GT 0x4C 0x28 0xED EXTCODEHASH 0xB1 PUSH6 0x62FA96A48AE4 0xA9 PREVRANDAO SLT 0xF6 DUP15 0xA8 SHR CALLDATALOAD LOG3 BLOCKHASH 0x22 0xE7 NUMBER PUSH5 0x736F6C6343 STOP ADDMOD SHR STOP CALLER PUSH1 0x80 PUSH1 0x40 MSTORE CALLVALUE DUP1 ISZERO PUSH2 0xF JUMPI PUSH0 PUSH0 REVERT JUMPDEST POP PUSH1 0x4 CALLDATASIZE LT PUSH2 0x29 JUMPI PUSH0 CALLDATALOAD PUSH1 0xE0 SHR DUP1 PUSH4 0xEF5FB05B EQ PUSH2 0x2D JUMPI JUMPDEST PUSH0 PUSH0 REVERT JUMPDEST PUSH2 0x35 PUSH2 0x4B JUMP JUMPDEST PUSH1 0x40 MLOAD PUSH2 0x42 SWAP2 SWAP1 PUSH2 0xF8 JUMP JUMPDEST PUSH1 0x40 MLOAD DUP1 SWAP2 SUB SWAP1 RETURN JUMPDEST PUSH1 0x60 PUSH1 0x40 MLOAD DUP1 PUSH1 0x40 ADD PUSH1 0x40 MSTORE DUP1 PUSH1 0xA DUP2 MSTORE PUSH1 0x20 ADD PUSH32 0x48656C6C6F576F726C6400000000000000000000000000000000000000000000 DUP2 MSTORE POP SWAP1 POP SWAP1 JUMP JUMPDEST PUSH0 DUP2 MLOAD SWAP1 POP SWAP2 SWAP1 POP JUMP JUMPDEST PUSH0 DUP3 DUP3 MSTORE PUSH1 0x20 DUP3 ADD SWAP1 POP SWAP3 SWAP2 POP POP JUMP JUMPDEST DUP3 DUP2 DUP4 MCOPY PUSH0 DUP4 DUP4 ADD MSTORE POP POP POP JUMP JUMPDEST PUSH0 PUSH1 0x1F NOT PUSH1 0x1F DUP4 ADD AND SWAP1 POP SWAP2 SWAP1 POP JUMP JUMPDEST PUSH0 PUSH2 0xCA DUP3 PUSH2 0x88 JUMP JUMPDEST PUSH2 0xD4 DUP2 DUP6 PUSH2 0x92 JUMP JUMPDEST SWAP4 POP PUSH2 0xE4 DUP2 DUP6 PUSH1 0x20 DUP7 ADD PUSH2 0xA2 JUMP JUMPDEST PUSH2 0xED DUP2 PUSH2 0xB0 JUMP JUMPDEST DUP5 ADD SWAP2 POP POP SWAP3 SWAP2 POP POP JUMP JUMPDEST PUSH0 PUSH1 0x20 DUP3 ADD SWAP1 POP DUP2 DUP2 SUB PUSH0 DUP4 ADD MSTORE PUSH2 0x110 DUP2 DUP5 PUSH2 0xC0 JUMP JUMPDEST SWAP1 POP SWAP3 SWAP2 POP POP JUMP INVALID LOG2 PUSH5 0x6970667358 0x22 SLT KECCAK256 0xC SWAP4 CALL POP 0xE5 CALL GT 0x4C 0x28 0xED EXTCODEHASH 0xB1 PUSH6 0x62FA96A48AE4 0xA9 PREVRANDAO SLT 0xF6 DUP15 0xA8 SHR CALLDATALOAD LOG3 BLOCKHASH 0x22 0xE7 NUMBER PUSH5 0x736F6C6343 STOP ADDMOD SHR STOP CALLER "
		},
		"gasEstimates": {
			"creation": {
				"codeDepositCost": "438000",
				"executionCost": "infinite",
				"totalCost": "infinite"
			},
			"external": {
				"a()": "2562",
				"b()": "2448",
				"b1()": "2532",
				"b2()": "2541",
				"c()": "2490",
				"contractName()": "infinite",
				"creationCode()": "infinite",
				"d()": "2608",
				"defaultAddr()": "2596",
				"defaultBool()": "2561",
				"defaultInt()": "2470",
				"defaultUint()": "2493",
				"flag()": "2532",
				"maxInt()": "2448",
				"minInt()": "2513",
				"runtimeCode()": "infinite"
			}
		},
		"methodIdentifiers": {
			"a()": "0dbe671f",
			"b()": "4df7e3d0",
			"b1()": "ee495002",
			"b2()": "0add6ef2",
			"c()": "c3da42b8",
			"contractName()": "75d0c0dc",
			"creationCode()": "7213edad",
			"d()": "8a054ac2",
			"defaultAddr()": "f2427d37",
			"defaultBool()": "d668f5b5",
			"defaultInt()": "5abe622b",
			"defaultUint()": "1570c2cb",
			"flag()": "890eba68",
			"maxInt()": "7a4c2571",
			"minInt()": "7e4e14cc",
			"runtimeCode()": "40e70806"
		}
	},
	"abi": [
		{
			"inputs": [],
			"name": "a",
			"outputs": [
				{
					"internalType": "uint8",
					"name": "",
					"type": "uint8"
				}
			],
			"stateMutability": "view",
			"type": "function"
		},
		{
			"inputs": [],
			"name": "b",
			"outputs": [
				{
					"internalType": "uint256",
					"name": "",
					"type": "uint256"
				}
			],
			"stateMutability": "view",
			"type": "function"
		},
		{
			"inputs": [],
			"name": "b1",
			"outputs": [
				{
					"internalType": "bytes1",
					"name": "",
					"type": "bytes1"
				}
			],
			"stateMutability": "view",
			"type": "function"
		},
		{
			"inputs": [],
			"name": "b2",
			"outputs": [
				{
					"internalType": "bytes1",
					"name": "",
					"type": "bytes1"
				}
			],
			"stateMutability": "view",
			"type": "function"
		},
		{
			"inputs": [],
			"name": "c",
			"outputs": [
				{
					"internalType": "int8",
					"name": "",
					"type": "int8"
				}
			],
			"stateMutability": "view",
			"type": "function"
		},
		{
			"inputs": [],
			"name": "contractName",
			"outputs": [
				{
					"internalType": "string",
					"name": "",
					"type": "string"
				}
			],
			"stateMutability": "view",
			"type": "function"
		},
		{
			"inputs": [],
			"name": "creationCode",
			"outputs": [
				{
					"internalType": "bytes",
					"name": "",
					"type": "bytes"
				}
			],
			"stateMutability": "view",
			"type": "function"
		},
		{
			"inputs": [],
			"name": "d",
			"outputs": [
				{
					"internalType": "int8",
					"name": "",
					"type": "int8"
				}
			],
			"stateMutability": "view",
			"type": "function"
		},
		{
			"inputs": [],
			"name": "defaultAddr",
			"outputs": [
				{
					"internalType": "address",
					"name": "",
					"type": "address"
				}
			],
			"stateMutability": "view",
			"type": "function"
		},
		{
			"inputs": [],
			"name": "defaultBool",
			"outputs": [
				{
					"internalType": "bool",
					"name": "",
					"type": "bool"
				}
			],
			"stateMutability": "view",
			"type": "function"
		},
		{
			"inputs": [],
			"name": "defaultInt",
			"outputs": [
				{
					"internalType": "int256",
					"name": "",
					"type": "int256"
				}
			],
			"stateMutability": "view",
			"type": "function"
		},
		{
			"inputs": [],
			"name": "defaultUint",
			"outputs": [
				{
					"internalType": "uint256",
					"name": "",
					"type": "uint256"
				}
			],
			"stateMutability": "view",
			"type": "function"
		},
		{
			"inputs": [],
			"name": "flag",
			"outputs": [
				{
					"internalType": "bool",
					"name": "",
					"type": "bool"
				}
			],
			"stateMutability": "view",
			"type": "function"
		},
		{
			"inputs": [],
			"name": "maxInt",
			"outputs": [
				{
					"internalType": "int256",
					"name": "",
					"type": "int256"
				}
			],
			"stateMutability": "view",
			"type": "function"
		},
		{
			"inputs": [],
			"name": "minInt",
			"outputs": [
				{
					"internalType": "int8",
					"name": "",
					"type": "int8"
				}
			],
			"stateMutability": "view",
			"type": "function"
		},
		{
			"inputs": [],
			"name": "runtimeCode",
			"outputs": [
				{
					"internalType": "bytes",
					"name": "",
					"type": "bytes"
				}
			],
			"stateMutability": "view",
			"type": "function"
		}
	]
}